:100000000C9437010C945F010C945F010C945F0118
:100010000C945F010C945F010C945F010C945F01E0
:100020000C945F010C945F010C945F010C945F01D0
:100030000C945F010C945F010C945F010C945F01C0
:100040000C9414050C945F010C94E3070C94BD0709
:100050000C945F010C945F010C945F010C945F01A0
:100060000C945F010C945F01C001C601CC01D20168
:10007000D801DE01E40115031C0323032A03310325
:100080004803380348033F034E414E494E495459F3
:10009000494E46CDCCCC3D0AD7233C17B7D1387753
:1000A000CC2B329595E6241FB14F0A000020410069
:1000B00000C84200401C4620BCBE4CCA1B0E5AAEB3
:1000C000C59D7400000000240027002A00000000E5
:1000D0000800020100000304070000000000000007
:1000E000004D3131343B202D207265706F727420C9
:1000F000706F736974696F6E20616E6420666565E8
:100100006472617465004D3130303B202D2074687D
:1001100069732068656C70206D6573736167650035
:100120004D32323B202D207475726E2072696768E3
:1001300074206C61736572206F6666004D32313BCE
:10014000202D207475726E207269676874206C614E
:10015000736572206F6E004D32303B202D20747518
:10016000726E206C656674206C61736572206F66B8
:1001700066004D31393B202D207475726E206C6500
:100180006674206C61736572206F6E004D31383B70
:10019000202D2064697361626C65206D6F746F72CD
:1001A00073004D31373B202D20656E61626C6520F8
:1001B0006D6F746F727300473031205B5428737415
:1001C000657073295D205B4C287374657073295DBD
:1001D000205B46286665656472617465295D3B2015
:1001E0002D206D6F766500473030205B5428737486
:1001F000657073295D3B202D206C696E65617220EE
:100200006D6F766500436F6D6D616E64733A004685
:1002100061625363616E20472D434F44444520493A
:100220006E7465727072657465722056657273695A
:100230006F6E3A20003E0001020408102040800149
:10024000020408102001020408102000000000250C
:100250000028002B00040404040404040402020225
:10026000020202030303030303000E0FBB0B11245E
:100270001FBECFEFD8E0DEBFCDBF22E0A0E4B1E0EB
:1002800001C01D92A938B207E1F711E0A0E0B1E08A
:10029000E4E8FBE202C005900D92A034B107D9F763
:1002A00011E0C6E3D1E004C02197FE010E945C1476
:1002B000C533D107C9F70E94CB0B0C94B5150C942C
:1002C0000000FC01538D448D252F30E0842F90E0F9
:1002D000821B930B541710F0CF9608950197089541
:1002E000FC01918D828D981761F0828DDF01A80F3E
:1002F000B11D5D968C91928D9F5F9F73928F90E060
:1003000008958FEF9FEF0895FC01918D828D9817CE
:1003100031F0828DE80FF11D858D90E008958FEF0B
:100320009FEF0895FC01918D228D892F90E0805CD4
:100330009F4F821B91098F739927089580E090E069
:10034000892B29F00E94B10781110C9400000895B7
:10035000CF93DF934770552766277727FA013197A8
:10036000EC01A881B981E730F10520F4EC5CFF4F86
:100370000C945C141496ED91FC91159761E029C0E2
:100380001496ED91FC91159765E023C01496ED91BC
:10039000FC91159764E01DC01496ED91FC911597A2
:1003A00066E017C01496ED91FC91159762E011C0BC
:1003B0001496ED91FC9115976AE00BC01496ED919F
:1003C000FC91159768E005C01496ED91FC91159786
:1003D00069E0DF91CF910994CF93DF93EC01CB01DA
:1003E000BA0126E030E040E050E00E943D14623067
:1003F00071058105910559F18CF46115710581052F
:100400009105F1F06130710581059105C1F5E88133
:10041000F9810480F581E02D65E02DC0643071051F
:100420008105910511F1D4F06530710581059105C3
:1004300031F5E881F9810480F581E02D66E01BC08B
:10044000E881F9810480F581E02D64E014C0E88141
:10045000F9810480F581E02D61E00DC0E881F9812A
:100460000480F581E02D63E006C0E881F981048015
:10047000F581E02D62E0CE01DF91CF910994DF910B
:10048000CF9108954370552766277727DC01ED91BA
:10049000FC910480F581E02D423051056105710524
:1004A00071F0433051056105710559F04130510536
:1004B0006105710511F065E005C066E003C06AE002
:1004C00001C069E00994CF93DF93EC01CB01BA013D
:1004D00023E030E040E050E00E943D1461307105BF
:1004E0008105910581F0623071058105910591F0DA
:1004F000672B682B692BC1F4E881F9810480F581B1
:10050000E02D64E00DC0E881F9810480F581E02DE3
:1005100061E006C0E881F9810480F581E02D62E0A8
:10052000CE01DF91CF910994DF91CF91089543706F
:10053000552766277727DC01ED91FC910480F58132
:10054000E02D423051056105710571F043305105D0
:100550006105710559F0413051056105710511F0D2
:1005600062E005C063E003C061E001C060E009949F
:10057000CF93DF93EC01E881F9810480F581E02DD0
:100580008A81811102C060E001C062E0CE0109955C
:10059000E881F9810480F581E02D8A81811102C012
:1005A00061E001C063E0CE0109958CA59DA5823074
:1005B000910538F0880F991F880F991F05970197AB
:1005C000F1F7E881F9810480F581E02D8A818111BC
:1005D00002C060E001C062E0CE01DF91CF910994DA
:1005E000CF93DF93EC0120E030E0A9016C897D8995
:1005F0008E899F890E94DD1318161CF4E8A9F9A9B9
:1006000002C0EAA9FBA9DF91CF9109940F931F9330
:10061000DC011396EC910E2F10E009301105C0F5A6
:10062000F801E55CFF4F0C945C14DC01ED91FC914A
:100630000084F185E02D29C0DC01ED91FC9102845C
:10064000F385E02D22C0DC01ED91FC910484F58559
:10065000E02D1BC0DC01ED91FC910684F785E02DB7
:1006600014C0DC01ED91FC910088F189E02D0DC0F2
:10067000DC01ED91FC910288F389E02D06C0DC01DC
:10068000ED91FC910488F589E02D1F910F9109945B
:100690001F910F910895FC01848DDF01A80FB11DFA
:1006A000A35ABF4F2C91848D90E001968F739927A8
:1006B000848FA689B7892C93A089B1898C91837086
:1006C00080648C93938D848D981306C00288F3897F
:1006D000E02D80818F7D80830895EF92FF920F93AC
:1006E0001F93CF93DF93EC0181E0888F9B8D8C8DDE
:1006F000981305C0E889F989808185FD26C0F62E0A
:100700000B8D10E00F5F1F4F0F731127E02E8C8DA4
:10071000E8120CC00FB607FCFACFE889F98980818E
:1007200085FFF5CFCE010E944B03F1CF8B8DFE01EB
:10073000E80FF11DE35AFF4FF0829FB7F8940B8F3B
:10074000EA89FB89808180620AC09FB7F894EE89AC
:10075000FF896083E889F989808183708064808360
:100760009FBF81E090E0DF91CF911F910F91FF90AB
:10077000EF900895CF93DF93EC01888D8823C9F023
:10078000EA89FB89808185FD05C0A889B9898C919A
:1007900086FD0FC00FB607FCF5CF808185FFF2CF35
:1007A000A889B9898C9185FFEDCFCE010E944B03BA
:1007B000E7CFDF91CF91089590E0FC01E353FF4F25
:1007C0002491FC01E95CFD4F3491FC01EB5AFD4F93
:1007D000E491EE2309F43CC0222339F1233091F057
:1007E00038F42130A9F0223001F584B58F7D12C094
:1007F000273091F02830A1F02430B9F480918000A6
:100800008F7D03C0809180008F77809380000DC022
:1008100084B58F7784BD09C08091B0008F7703C005
:100820008091B0008F7D8093B000F0E0EE0FFF1F4D
:10083000E55BFD4FA591B4919FB7F894611104C099
:100840008C913095382302C0EC913E2B3C939FBF96
:100850000895CF92DF92EF92FF920F931F93CF9361
:10086000DF93EC019B81943041F0983031F093306C
:1008700031F0963021F012E003C014E001C013E023
:100880002496E12CF12CC62ED12C01E0C6010E2CB1
:1008900002C0959587950A94E2F76C8180FD6027E8
:1008A00089910E94DC038FEFE81AF80AE11670F3D1
:1008B000DF91CF911F910F91FF90EF90DF90CF903C
:1008C0000895CF93DF9390E0FC01E95CFD4F249104
:1008D000FC01EB5AFD4F8491882361F190E0880F71
:1008E000991FFC01ED53FF4FC591D491FC01E55BCD
:1008F000FD4FA591B491611109C09FB7F89488810B
:10090000209582238883EC912E230BC0623061F402
:100910009FB7F8948881322F309583238883EC9198
:100920002E2B2C939FBF06C08FB7F894E8812E2BF7
:1009300028838FBFDF91CF910895CF93DF93FC0180
:100940002381222359F1EC0161E084810E9461043A
:1009500061E08D810E9461048B81843011F08830C8
:1009600039F461E08E810E94610461E08F8106C0EC
:10097000833011F0863021F461E08E810E946104A1
:100980008FA58F3F59F061E00E9461046EA581E060
:1009900068278FA5DF91CF910C94DC03DF91CF9175
:1009A0000895CF93DF93FC0123812223A9F0EC016A
:1009B0000190F081E02D0480F581E02D60E0099543
:1009C0008FA58F3F49F061E00E9461046EA58FA55D
:1009D000DF91CF910C94DC03DF91CF9108953FB765
:1009E000F8948091450190914601A0914701B09102
:1009F000480126B5A89B05C02F3F19F00196A11DFF
:100A0000B11D3FBFBA2FA92F982F8827820F911DA4
:100A1000A11DB11DBC01CD0142E0660F771F881FEB
:100A2000991F4A95D1F708951F920F920FB60F9212
:100A300011242F933F938F939F93AF93BF938091F4
:100A4000410190914201A0914301B0914401309144
:100A5000400123E0230F2D3720F40196A11DB11D85
:100A600005C026E8230F0296A11DB11D2093400169
:100A70008093410190934201A0934301B0934401BC
:100A80008091450190914601A0914701B0914801A4
:100A90000196A11DB11D8093450190934601A0933D
:100AA0004701B0934801BF91AF919F918F913F91C2
:100AB0002F910F900FBE0F901F9018954F925F923D
:100AC0006F927F928F929F92AF92BF92CF92DF925E
:100AD000EF92FF92CF93DF93EC016A017B0120E05C
:100AE00030E0A901C701B6010E94501187FF04C080
:100AF000F7FAF094F7F8F0948C8C9D8CAE8CBF8C48
:100B0000A7019601C501B4010E945011882309F480
:100B100049C06CA97DA98EA99FA90E9457112B01DC
:100B20003C01A7019601C501B4010E9435139B0148
:100B3000AC01C301B2010E94B6110E94A7136CABB5
:100B40007DAB8EAB9FABA701960160E070E080E0CB
:100B500090E40E9435130E94E81326E53EE04DE242
:100B60005FE30E94B61120E034E244E759E40E94BA
:100B7000B61168AF79AF8AAF9BAFCC8EDD8EEE8EAB
:100B8000FF8ECE01DF91CF91FF90EF90DF90CF905D
:100B9000BF90AF909F908F907F906F905F904F909D
:100BA0000C948C08DF91CF91FF90EF90DF90CF9065
:100BB000BF90AF909F908F907F906F905F904F907D
:100BC000089561E089E00C94DC03CF92DF92EF920C
:100BD000FF921F93CF93DF93182FEB01C0904A0130
:100BE000D0904B01C601DD0CAA0BBB0B2CE431E00D
:100BF0006901032E000CEE08FF08C80ED91EEA1E7C
:100C0000FB1EC90182309105F4F0FC0120812223F2
:100C1000D1F0AC01092E000C660B770B4C155D056D
:100C20006E057F0584F4211308C001960E94BB0F56
:100C3000BC01990F880B990B0AC060E270E00E941A
:100C4000AA150196DFCFBE01DD0F880B990BDF914E
:100C5000CF911F91FF90EF90DF90CF9008958F92EA
:100C60009F92AF92BF92CF92DF92EF92FF920F933B
:100C70001F93CF93DF93CDB7DEB729970FB6F894C4
:100C8000DEBF0FBECDBF962F50E060E070E0592B65
:100C9000682BCB01AA27BB27F52E982EBC0100E0BC
:100CA00010E0A0E0B0E020E030E080916F02909191
:100CB000700228173907E0F580917502882371F0DA
:100CC000869F6001879FD00C11248F9D50011124B5
:100CD000EB2C849FC0011124592F03C0542FEF2CFB
:100CE000D92CC0907B02B0907802809176029091CE
:100CF0007702CB1003C08A0F9B1F07C0800F911F84
:100D00005C01AC0CB11CF5011082C09078025C0152
:100D1000AC0CB11CF501D082D0907902FC01ED0D34
:100D2000F11DE082E0907A028E0D911DFC0150834E
:100D30002F5F3F4F13960C5F1F4F2031310509F095
:100D4000B4CF8091760290917702892B09F4A2C0EA
:100D50000E94EF04C0907C02D0907D02E0907E0261
:100D6000F0907F02DC01CB018C199D09AE09BF090F
:100D70008C329140A105B10558F3F894809171022D
:100D8000909172029A838983E0917602F0917702C2
:100D9000DF0111968081898790916D02E091800238
:100DA000F091810280918202992309F42EC09081F2
:100DB000982B98879081809589238F838F818C834E
:100DC00088E08B8358856F8149853B812C8189819F
:100DD0009A81508347FD252F3A952083262F39F09D
:100DE000441F00C000006083000000C0F2CF38E064
:100DF0004D9160830000019761F7F0938102E093C9
:100E0000800249873B832C8338C09081982B988738
:100E10009081809589238F838F818E8388E08D8355
:100E200058856F8149853D812E8189819A815083C2
:100E300047FD252F00C000C0208300C000C000C0B7
:100E400000C000C060830000262F3A9541F0441F87
:100E5000000000C000C000C000C000C0E8CF38E003
:100E60004D9100C0608300C0019709F7F0938102A3
:100E7000E093800249873D832E839A838983789407
:100E80000E94EF0460937C0270937D0280937E0247
:100E900090937F020E94EF044B015C0184E6C82E10
:100EA000D12CE12CF12C0E94EF04DC01CB0188193C
:100EB0009909AA09BB09883E9340A105B10598F399
:100EC00021E0C21AD108E108F10888EE880E83E01B
:100ED000981EA11CB11CC114D104E104F10419F73E
:100EE00029960FB6F894DEBF0FBECDBFDF91CF912C
:100EF0001F910F91FF90EF90DF90CF90BF90AF9038
:100F00009F908F900895CF92DF92EF92FF920F9370
:100F10001F93CF93DF936C017A018B01C0E0D0E087
:100F2000CE15DF0581F0D8016D918D01D601ED91CF
:100F3000FC910190F081E02DC6010995892B11F0FB
:100F40002196EECF7E01C701DF91CF911F910F91C6
:100F5000FF90EF90DF90CF900895089580E090E0AB
:100F600008958CE891E00E94920121E0892B09F418
:100F700020E0822F08950E94A5151F920F920FB6B0
:100F80000F9211242F933F934F935F936F937F930F
:100F90008F939F93AF93BF93EF93FF938CE891E070
:100FA0000E944B03FF91EF91BF91AF919F918F9161
:100FB0007F916F915F914F913F912F910F900FBE55
:100FC0000F901F9018951F920F920FB60F92112439
:100FD0002F938F939F93EF93FF93E0919C01F09158
:100FE0009D018081E091A201F091A30182FD12C0D8
:100FF00090818091A5018F5F8F732091A601821748
:1010000051F0E091A501F0E0E457FE4F958F8093F9
:10101000A50101C08081FF91EF919F918F912F9148
:101020000F900FBE0F901F9018954F925F926F9286
:101030007F92AF92BF92CF92DF92EF92FF920F9387
:101040001F93CF93DF93EC015A018B019A01AB01FF
:101050006C897D898E899F890E945011882309F4AB
:101060004CC0C88CD98CEA8CFB8C2601370177FAEE
:10107000709477F87094A3019201B501C8010E94A1
:10108000501187FD0BC0A7019601B501C8010E9450
:10109000DD1318162CF06501780102C0730162019E
:1010A00020E030E0A901C701B6010E945011811172
:1010B00005C01CA21DA21EA21FA21BC0A701960153
:1010C00060E074E284E799E40E9435139F770E9400
:1010D000AE136CA37DA38EA39FA311E020E030E0AC
:1010E000A901C701B6010E94DD1318160CF010E02B
:1010F0001A83CC8ADD8AEE8AFF8ADF91CF911F9115
:101100000F91FF90EF90DF90CF90BF90AF907F90C6
:101110006F905F904F9008954F925F926F927F9281
:101120008F929F92AF92BF92CF92DF92EF92FF92F7
:101130000F931F93CF93DF93EC01C888D988EA8877
:10114000FB888C859D85AE85BF85C81AD90AEA0AB9
:10115000FB0A6C897D898E899F899B01AC010E9465
:10116000B6114B015C016C8D7D8D8E8D9F8D9B0129
:10117000AC010E94C9129B01AC01C501B4010E94DF
:1011800035130E94A713C114D104E104F10499F4AA
:1011900062307105810591050CF076C01CA21DA27C
:1011A0001EA21FA21C8A1D8A1E8A1F8A1CAA1DAA93
:1011B0001EAA1FAAEDC00CA91DA92EA93FA91C1487
:1011C0001D041E041F04FCF410161106120613065B
:1011D0004CF46C157D058E059F054CF52A81211177
:1011E00053C025C0011511052105310509F44CC076
:1011F0006C157D058E059F050CF046C08A818823FD
:1012000009F442C036C01016110612061306ECF49B
:101210000027112798010C191D092E093F09601795
:101220007107820793071CF42A81222369F19B012D
:10123000AC0188279927DC01821B930BA40BB50B0B
:101240008CAB9DABAEABBFAB1FC00115110521052B
:101250003105D1F08824992454018C189D08AE08DA
:10126000BF08681579058A059B0574F48A81811188
:101270000BC030952095109501951F4F2F4F3F4F74
:101280000CAB1DAB2EAB3FAB8CA89DA8AEA8BFA8E6
:1012900081149104A104B10489F488AD99ADAAAD7B
:1012A000BBAD8CAF9DAFAEAFBFAF81E01C141D04D2
:1012B0001E041F040CF080E08A833FC0CCACDDAC80
:1012C000EEACFFACA7019601C701B6010E94C9129E
:1012D0002B013C01C501B4010E94571120E030E010
:1012E00040E850E40E94B61120E030E040E85FE3BF
:1012F0000E94C9129B01AC01C301B2010E943513C7
:101300009B01AC01C701B6010E94C8123B016C01F0
:10131000FE01E05CFF4FE080F180028113819701C4
:10132000A8010E94DD13181614F473018601C70189
:10133000D8018CAF9DAFAEAFBFAF3FEF831A930A1A
:10134000A30AB30A8CAA9DAAAEAABFAACCACDDACF4
:10135000EEACFFACC701B6010E94AE136CA37DA337
:101360008EA39FA3A701960160E074E284E799E44D
:101370000E9435136C8B7D8B8E8B9F8B2A81211164
:1013800007C0DC01CB01B0588C8B9D8BAE8BBF8B23
:10139000DF91CF911F910F91FF90EF90DF90CF9051
:1013A000BF90AF909F908F907F906F905F904F9085
:1013B0000895CF92DF92EF92FF92CF93DF93EC01EB
:1013C0000E94EF046B017C0188A599A5AAA5BBA585
:1013D000B701A601481B590B6A0B7B0B8CA19DA181
:1013E000AEA1BFA1481759076A077B07F8F02A8109
:1013F0008C859D85AE85BF85222321F00196A11D98
:10140000B11D03C00197A109B1098C879D87AE87E3
:10141000BF874C855D856E857F85CE010E94060362
:10142000C8A6D9A6EAA6FBA681E001C080E0DF91AC
:10143000CF91FF90EF90DF90CF900895009769F0E3
:10144000FC0101900020E9F73197AF01481B590BCF
:10145000BC018CE891E00C94830780E090E0089553
:101460000F931F93CF93DF938C01C0E0D0E0F8017E
:10147000EC0FFD1F6491662341F08CE891E00E941F
:101480006D03892B11F02196F2CFCE01DF91CF9120
:101490001F910F910895CF93DF930E94300AEC01C2
:1014A0008DE391E00E941E0A8C0F9D1FDF91CF916A
:1014B0000895FC01A9E2B2E012968C911297828302
:1014C00013968C911397838314968C91149784832D
:1014D00015968C911597858316968C911697868311
:1014E00017968C911797878318968C9118978087F9
:1014F00019968C91199781871A968C911A978287E1
:101500001B968C911B9783871C964D915D916D91D5
:101510007C911F97448755876687778750964D91B2
:101520005D916D917C915397408B518B628B738B46
:1015300054964D915D916D917C915797448B558B4D
:10154000668B778B58964D915D916D917C915B97F1
:10155000408F518F628F738F5C964D915D916D912D
:101560007C915F97448F558F668F778F90964D91C2
:101570005D916D917C91939740A351A362A373A356
:1015800094964D915D916D917C91979744A355A34D
:1015900066A377A398964D915D916D917C919B97F1
:1015A00040A751A762A773A79C968D919C919D9788
:1015B00095A784A79E968C919E9786A79F968C91BF
:1015C0009F9787A7D0968D919C91D19791AB80AB37
:1015D000D2968D919C91D39793AB82ABD4964D913B
:1015E0005D916D917C91D79744AB55AB66AB77AB72
:1015F000D8964D915D916D917C91DB9740AF51AF45
:1016000062AF73AFDC968D919D910D90BC91A02D32
:1016100084AF95AFA6AFB7AF4091690250916A020F
:1016200060916B0270916C02DF01A05CBF4F4D9323
:101630005D936D937C931397CF010895CF93DF93C0
:10164000EC018AE091E0998388836B831C861D8678
:101650001E861F86188A198A1A8A1B8A1C8A1D8A66
:101660001E8A1F8A80E090E0A0E8BFE3888F998FF0
:10167000AA8FBB8F1C8E1D8E1E8E1F8E88A399A3D2
:10168000AAA3BBA31CA21DA21EA21FA261E070E020
:101690007DA76CA73FEF3FA718A619A61AA61BA601
:1016A0004C832D8324E02E8325E02F831EA61CAAC5
:1016B0001DAA1EAA1FAA18AE19AE1AAE1BAE1CAEEA
:1016C0001DAE1EAE1FAEFE01E05CFF4F8083918316
:1016D000A283B3831A82188619861A861B86CE01C6
:1016E0000E949D0440E050E060E87FE3CE01DF917E
:1016F000CF910C945E05CF92DF92EF92FF92C09053
:101700004A01D0904B01C601DD0CAA0BBB0B2CE4A7
:1017100031E06901032E000CEE08FF08C80ED91E47
:10172000EA1EFB1EC90182309105ECF0FC0120810C
:101730002223C9F0AC01092E000C660B770B4C1567
:101740005D056E057F057CF4263439F40196FF9023
:10175000EF90DF90CF900C94B70F60E270E00E94A2
:10176000AA150196E0CF60E070E0CB01FF90EF900A
:10177000DF90CF90089580917602909177020E9439
:101780001C15809173029091740297FD03C060E074
:101790000C9461040895CF93DF93CDB7DEB7C454A2
:1017A000D1090FB6F894DEBF0FBECDBF789484B5D3
:1017B000826084BD84B5816084BD85B5826085BD4D
:1017C00085B5816085BD80916E00816080936E00DB
:1017D00010928100809181008260809381008091CD
:1017E000810081608093810080918000816080937E
:1017F00080008091B10084608093B1008091B0003E
:1018000081608093B00080917A00846080937A0038
:1018100080917A00826080937A0080917A00816062
:1018200080937A0080917A00806880937A00109289
:10183000C100E0919C01F0919D0182E08083E091E4
:101840009801F09199011082E0919A01F0919B0129
:101850008AE880831092A401E091A001F091A10197
:1018600086E08083E0919E01F0919F0180818061FC
:101870008083E0919E01F0919F0180818860808348
:10188000E0919E01F0919F01808180688083E091CA
:101890009E01F0919F0180818F7D808361E082E0D5
:1018A0000E94610461E083E00E94610461E08FE0D6
:1018B0000E94610460E08FE00E94DC0360E082E04F
:1018C0000E94DC0360E083E00E94DC0361E089E0C9
:1018D0000E94610461E08CE00E94610420E030E835
:1018E0004BE355E4609141027091420280914302C2
:1018F000909144020E945011882309F453C080E063
:1019000090E8ABE3B5E48093410290934202A09348
:101910004302B09344028BEA9AEAA6EAB3E48093C6
:10192000690290936A02A0936B02B0936C0280915B
:101930005D0290915E02A0915F02B0916002181664
:1019400019061A061B0674F560913D0270913E025D
:1019500080913F02909140029B01AC010E94B61120
:101960006B017C01609145027091460280914702B3
:10197000909148029B01AC010E94C9129B01AC01ED
:10198000C701B6010E9435130E94A71360935D0240
:1019900070935E0280935F029093600289E292E00E
:1019A0000E948C0840E050E06AEF74E489E292E023
:1019B0000E9415080E94E1058091730290917402C3
:1019C00097FD08C061E00E94610460E080917302AD
:1019D0000E94DC0381E080936E020E94E10512E325
:1019E0008CE891E00E949201181619060CF0D3C100
:1019F0008CE891E00E947001082F682F8CE891E03C
:101A00000E946D0380914A0190914B018F339105A3
:101A10005CF49C012F5F3F4F30934B0120934A01B0
:101A2000FC01E45BFE4F00830A3011F00D30C1F67B
:101A3000E0914A01F0914B01E45BFE4F10826FEFA1
:101A40007FEF87E40E94E5056230710509F477C0F5
:101A50001CF477FF0CC0E0C06630710509F4D9C0F2
:101A60006730710509F0D8C010924901D5C00E94B5
:101A70007B0B6B017C0160E070E08CE40E94E5056B
:101A800060E070E084E50E94E5054B015C01672B96
:101A9000682B692B09F4C0C023E042E064E0CE016A
:101AA00001960E941E0BCE0101960E94590AC401A4
:101AB000990CAA0BBB0B4D855E856F857889840FC9
:101AC000951FA61FB71F49895A896B897C8984177E
:101AD0009507A607B70741F0898B9A8BAB8BBC8B18
:101AE000CE0101960E948C08B701A601CE01019695
:101AF0000E94150849895A896B897C89CD84DE84C6
:101B0000EF84F8888DA09EA0AFA0B8A4C416D50617
:101B1000E606F70614F481E001C080E04C155D058F
:101B20006E057F0509F478C081149104A104B10405
:101B3000A9F38B83CE0101960E94D909DBCF0E94C5
:101B40007B0B4B015C0160E070E08CE40E94E505DA
:101B500060E070E084E50E94E5056B017C01672B85
:101B6000682B692B09F458C023E042E064E0CE0101
:101B700001960E941E0BCE0101960E94590AB501E2
:101B8000A401CE0101960E94150840E050E06AEFE2
:101B900073E4CE0101960E945E0589899A89AB891A
:101BA000BC89C816D906EA06FB0641F0C98ADA8A5A
:101BB000EB8AFC8ACE0101960E948C088DA19EA121
:101BC000AFA1B8A5892B8A2B8B2B51F0CE010196A2
:101BD0000E94D909882321F0CE0101960E948C0829
:101BE00020E030E0A9016D897E898F89988D0E945F
:101BF00050118111E3CF49895A896B897C898D8580
:101C00009E85AF85B889481759076A077B07B1F6E3
:101C100003C081E0809349016FEF7FEF8DE40E9464
:101C2000E5056331710509F496C0CCF46D3071059A
:101C300009F48BC04CF46430710509F464C065305C
:101C4000710509F468C09EC06131710509F47DC059
:101C50000CF07EC06E30710509F47AC093C0663115
:101C6000710509F47DC054F46431710509F475C03F
:101C70006531710509F086C061E073C0683C71058B
:101C800009F473C0693C710509F472C064367105CA
:101C900009F078C08FE092E00E94300A82E391E080
:101CA0000E941E0A8DE391E00E941E0A85E092E0E8
:101CB0000E944B0A87EE91E00E944B0A87EB91E06D
:101CC0000E944B0A82EA91E00E944B0A8CE891E064
:101CD0000E944B0A82E791E00E944B0A87E591E05F
:101CE0000E944B0A8CE391E00E944B0A80E291E053
:101CF0000E944B0A86E091E00E944B0A81EE90E040
:101D00000E944B0A3FC060E082E00E94DC0360E07A
:101D100083E00E94DC0360E070E082E40E94E5055D
:101D20004B015C0160E070E087E40E94E5056B0117
:101D30007C0160E070E082E50E94E505DC01CB01FA
:101D4000A401B6010E942F061DC060E089E00AC010
:101D50000E94E10517C061E001C060E083E002C0BD
:101D600060E082E00E94DC030DC082E391E004C0E9
:101D700019A218A3CE0180960E941E0A8DE391E05D
:101D80000E941E0A10924B0110924A0185E392E0D4
:101D90000E944B0A25CE809149018823E1F140E061
:101DA00050E06AE774E489E292E00E9415088091AD
:101DB000350290913602A0913702B09138020A960E
:101DC000A11DB11D4091390250913A0260913B0230
:101DD00070913C0284179507A607B70761F08093BE
:101DE000390290933A02A0933B02B0933C0289E2FD
:101DF00092E00E948C0880914D0290914E02A09139
:101E00004F02B0915002892B8A2B8B2B21F089E253
:101E100092E00E94D9090E949E01E2CD10928F01AA
:101E200010928E0188EE93E0A0E0B0E080939001E4
:101E300090939101A0939201B093930184E291E079
:101E400090938D0180938C0185EC90E090939901A3
:101E50008093980184EC90E090939B0180939A0189
:101E600080EC90E090939D0180939C0181EC90E048
:101E700090939F0180939E0182EC90E09093A1014A
:101E80008093A00186EC90E09093A3018093A2013F
:101E90001092A5011092A6011092A7011092A8011C
:101EA0002DE04CE062E089E292E00E941E0B10926D
:101EB0006E021092750210927C0210927D021092B6
:101EC0007E0210927F0281E080937B0280937802F1
:101ED0001092790292E090937A0280936D0280E3EF
:101EE00090E090937202809371020E948414909308
:101EF000770280937602009761F020E3FC01119253
:101F00002A95E9F780E190E09093700280936F0248
:101F100008C0109272021092710210927002109218
:101F20006F028FE090E0909374028093730280912F
:101F30006E02882341F061E08FE00E94610460E05E
:101F40008FE00E94DC03E4E6F2E0E491F0E0EE0FC3
:101F5000FF1FE55BFD4F85919491909381028093E3
:101F60008002E6E4F2E0E491E093820208956627BD
:101F700077270C94E10FFC0188279927E894219199
:101F80002032E9F3293010F02E30C8F32B3241F023
:101F90002D3239F4689404C00E94D90F820F911D2C
:101FA000219120532A30C0F31EF4909581959F4FC4
:101FB00008957AE0979F902D879F802D910D112491
:101FC0000895A0E0B0E0E7EEFFE00C948812EC0189
:101FD0006B016115710519F0FB01918380837E010E
:101FE000FFEFEF1AFF0A0881802F90E00E942F1167
:101FF000892B11F0E701F3CF0D3239F47E0182E035
:10200000E80EF11C098111E008C00B3229F47E01B1
:1020100092E0E90EF11C098110E0E701219743E00D
:1020200050E060E970E0CE010E943811892BC1F4C4
:10203000239645E050E06BE870E0CE010E94381135
:10204000892B09F42596C114D10419F0F601D18326
:10205000C0831111F6C060E070E080E89FE7FAC02D
:1020600043E050E068E870E0CE010E943811892B0F
:1020700059F4C114D10409F4E9C0F2E0EF0EF11CE7
:10208000F601F182E082E2C020E030E0A901C0E088
:10209000D0E0F70180EDA82EA00E89E08A1530F17E
:1020A000912F9260B92E812F887012FF04C0811188
:1020B00024C0219622C081112197A5E0B0E00E94A2
:1020C0007712DC01CB01880F991FAA1FBB1F9C014F
:1020D000AD012A0D311D411D511D283989E93807EF
:1020E000480789E1580748F0166006C09EEFA9121C
:1020F0000AC013FD40C01860B12E8FEFE81AF80A2D
:1021000000811B2DC6CF802F8F7D8534A1F5808166
:102110008D3211F4106106C08B3221F0319661E0EE
:1021200070E004C08181329662E070E080538A30B2
:1021300018F0E61BF70B1FC060E070E060389CE011
:1021400079075CF4DB01AA0FBB1FAA0FBB1F6A0F44
:102150007B1F660F771F680F711D3196DF01119786
:102160008C9180538A3050F314FF03C071956195B0
:102170007109C60FD71F11FF08C0C114D10429F07F
:10218000CF010197F60191838083CA01B9010E94B2
:102190005511212F2370233019F04B015C0106C02B
:1021A0004B015C01B7FAB094B7F8B09420E030E08E
:1021B000A901C501B4010E945011882309F43EC051
:1021C000D7FF06C0D195C195D10907EA10E002C03A
:1021D0000FEB10E06801F8E1CF1AD10890E2E92E88
:1021E000F12CCE15DF0574F0F8012591359145915C
:1021F0005491C501B4010E94B6114B015C01CE1986
:10220000DF09EFCF04501109F594E7940C151D0573
:1022100041F78A2D880F8B2D881F8F3F49F020E0D2
:1022200030E0A901C501B4010E945011811106C01E
:1022300082E290E09093840280938302C501B4010E
:1022400009C060E070E080E89FEF04C060E070E0EB
:1022500080EC9FE7CDB7DEB7ECE00C94A4129111AF
:102260000C942312803219F089508550C8F70895D4
:10227000FB01DC014150504088F08D9181341CF00D
:102280008B350CF4805E659161341CF06B350CF479
:10229000605E861B611171F3990B0895881BFCCF5A
:1022A0000E94921108F481E00895E89409C097FB18
:1022B0003EF490958095709561957F4F8F4F9F4F1D
:1022C0009923A9F0F92F96E9BB279395F695879561
:1022D00077956795B795F111F8CFFAF4BB0F11F424
:1022E00060FF1BC06F5F7F4F8F4F9F4F16C08823CB
:1022F00011F096E911C0772321F09EE8872F762F01
:1023000005C0662371F096E8862F70E060E02AF041
:102310009A95660F771F881FDAF7880F969587952D
:1023200097F90895990F0008550FAA0BE0E8FEEF02
:1023300016161706E807F907C0F012161306E40789
:10234000F50798F0621B730B840B950B39F40A2682
:1023500061F0232B242B252B21F408950A2609F460
:10236000A140A6958FEF811D811D08950E94C9117E
:102370000C943D120E942F1238F00E94361220F069
:10238000952311F00C9426120C942C1211240C9409
:1023900071120E944E1270F3959FC1F3950F50E099
:1023A000551F629FF001729FBB27F00DB11D639F07
:1023B000AA27F00DB11DAA1F649F6627B00DA11DAD
:1023C000661F829F2227B00DA11D621F739FB00D53
:1023D000A11D621F839FA00D611D221F749F3327C3
:1023E000A00D611D231F849F600D211D822F762F5C
:1023F0006A2F11249F5750409AF0F1F088234AF039
:10240000EE0FFF1FBB1F661F771F881F91505040A4
:10241000A9F79E3F510580F00C9426120C9471127E
:102420005F3FE4F3983ED4F3869577956795B7952B
:10243000F795E7959F5FC1F7FE2B880F911D969545
:10244000879597F9089599278827089597F99F67A1
:1024500080E870E060E008959FEF80EC089500242C
:102460000A941616170618060906089500240A94F9
:1024700012161306140605060895092E0394000C7F
:1024800011F4882352F0BB0F40F4BF2B11F460FF0E
:1024900004C06F5F7F4F8F4F9F4F089557FD905837
:1024A000440F551F59F05F3F71F04795880F97FB18
:1024B000991F61F09F3F79F08795089512161306D2
:1024C0001406551FF2CF4695F1DF08C01616170601
:1024D0001806991FF1CF8695710561050894089536
:1024E000E894BB2766277727CB0197F908950E94C8
:1024F000B912A59F900DB49F900DA49F800D911DC2
:10250000112408952F923F924F925F926F927F9283
:102510008F929F92AF92BF92CF92DF92EF92FF92F3
:102520000F931F93CF93DF93CDB7DEB7CA1BDB0B9F
:102530000FB6F894DEBF0FBECDBF09942A88398844
:1025400048885F846E847D848C849B84AA84B9844B
:10255000C884DF80EE80FD800C811B81AA81B98157
:10256000CE0FD11D0FB6F894DEBF0FBECDBFED016B
:102570000895A29FB001B39FC001A39F700D811D5C
:102580001124911DB29F700D811D1124911D08957C
:102590005058BB27AA270E94E0120C943D120E94BB
:1025A0002F1238F00E94361220F039F49F3F19F4B0
:1025B00026F40C942C120EF4E095E7FB0C942612F2
:1025C000E92F0E944E1258F3BA1762077307840767
:1025D000950720F079F4A6F50C9470120EF4E095AE
:1025E0000B2EBA2FA02D0B01B90190010C01CA01CD
:1025F000A0011124FF27591B99F0593F50F4503E78
:1026000068F11A16F040A22F232F342F4427585F69
:10261000F3CF469537952795A795F0405395C9F781
:102620007EF41F16BA0B620B730B840BBAF0915039
:10263000A1F0FF0FBB1F661F771F881FC2F70EC0D8
:10264000BA0F621F731F841F48F4879577956795AB
:10265000B795F7959E3F08F0B0CF9395880F08F097
:102660009927EE0F9795879508950E9449130C942A
:102670003D120E94361258F00E942F1240F029F4A9
:102680005F3F29F00C94261251110C9471120C9496
:102690002C120E944E1268F39923B1F3552391F343
:1026A000951B550BBB27AA2762177307840738F0C1
:1026B0009F5F5F4F220F331F441FAA1FA9F335D01E
:1026C0000E2E3AF0E0E832D091505040E695001CD2
:1026D000CAF72BD0FE2F29D0660F771F881FBB1F8C
:1026E000261737074807AB07B0E809F0BB0B802D6A
:1026F000BF01FF2793585F4F3AF09E3F510578F096
:102700000C9426120C9471125F3FE4F3983ED4F3BC
:10271000869577956795B795F7959F5FC9F7880F69
:10272000911D9695879597F90895E1E0660F771FBB
:10273000881FBB1F621773078407BA0720F0621B4C
:10274000730B840BBA0BEE1F88F7E09508950E9477
:10275000AE136894B1110C94711208950E94561230
:1027600088F09F5798F0B92F9927B751B0F0E1F052
:10277000660F771F881F991F1AF0BA95C9F714C002
:10278000B13091F00E947012B1E008950C94701273
:10279000672F782F8827B85F39F0B93FCCF386953B
:1027A00077956795B395D9F73EF490958095709598
:1027B00061957F4F8F4F9F4F08950E94921108F4AB
:1027C0008FEF089519F416F40C942C120C9428141D
:1027D0000E945612B8F39923C9F3B6F39F57550BCD
:1027E00087FF0E9436140024A0E640EA900180583A
:1027F0005695979528F4805C660F771F881F20F008
:1028000026173707480730F4621B730B840B202907
:1028100031294A2BA69517940794202531254A275C
:1028200058F7660F771F881F20F0261737074807CD
:1028300030F4620B730B840B200D311D411DA095EC
:1028400081F7B901842F9158880F9695879508953F
:102850009F3F31F0915020F4879577956795B79514
:10286000880F911D9695879597F90895915050403E
:10287000660F771F881FD2F70895052E97FB1EF469
:1028800000940E94541457FD07D00E94621407FC64
:1028900003D04EF40C9454145095409530952195E6
:1028A0003F4F4F4F5F4F089590958095709561957C
:1028B0007F4F8F4F9F4F0895EE0FFF1F0590F491AC
:1028C000E02D0994A1E21A2EAA1BBB1BFD010DC02D
:1028D000AA1FBB1FEE1FFF1FA217B307E407F507D0
:1028E00020F0A21BB30BE40BF50B661F771F881FAC
:1028F000991F1A9469F760957095809590959B0142
:10290000AC01BD01CF0108950F931F93CF93DF93C7
:102910008230910510F482E090E0E0918702F0911E
:10292000880220E030E0A0E0B0E0309719F140816B
:1029300051810281138148175907C8F08417950700
:1029400069F4109731F012960C93129713961C931A
:1029500027C0009387021093880222C021153105F9
:1029600019F04217530718F49A01BD01EF01DF0176
:10297000F801DBCF21153105F9F0281B390B243084
:10298000310580F48A819B816115710521F0FB017D
:102990009383828304C09093880280938702FE0110
:1029A000329644C0FE01E20FF31F819391932250AF
:1029B0003109398328833AC02091850230918602FB
:1029C000232B41F4209102013091030130938602C0
:1029D00020938502209100013091010121153105DC
:1029E00041F42DB73EB74091040150910501241BDD
:1029F000350BE0918502F0918602E217F307A0F40F
:102A00002E1B3F0B2817390778F0AC014E5F5F4F44
:102A10002417350748F04E0F5F1F509386024093EE
:102A200085028193919302C0E0E0F0E0CF01DF9155
:102A3000CF911F910F910895CF93DF93009709F4E1
:102A400081C0FC01329713821282A0918702B0915B
:102A50008802109781F420813181820F931F209189
:102A60008502309186022817390751F5F0938602C6
:102A7000E093850267C0ED0120E030E0CE17DF076C
:102A800040F44A815B819E0141155105F1F0EA0154
:102A9000F5CFD383C28340815181840F951FC8171E
:102AA000D90759F488819981840F951F02969183E3
:102AB00080838A819B81938382832115310529F448
:102AC000F0938802E09387023DC0E901FB83EA832B
:102AD00049915991C40FD51FEC17FD0761F480810E
:102AE0009181840F951F0296E901998388838281E1
:102AF00093819B838A83E0E0F0E012968D919C9114
:102B00001397009719F0FD01DC01F7CF8D919C918F
:102B100011979D012E5F3F4F820F931F20918502D9
:102B2000309186022817390769F4309729F41092FA
:102B300088021092870202C013821282B09386022A
:102B4000A0938502DF91CF91089581E090E0F89401
:102B50000C94B515FC018191861721F08823D9F7D3
:102B6000992708953197CF01089511E0C6E3D1E088
:102B700004C0FE010E945C142196C733D107C9F737
:042B8000F894FFCFF7
:102B840000008902800000000000D1049D04290493
:102B94000603F002B802970263024202EC01A801A4
:102BA400000000006D0383076101BA039201700104
:102BB4008401762E3230323030363234000D0A0041
:00000001FF
