:100000000C9443010C946B010C946B010C946B01E8
:100010000C946B010C946B010C946B010C946B01B0
:100020000C946B010C946B010C946B010C946B01A0
:100030000C946B010C946B010C946B010C946B0190
:100040000C9420050C946B010C94B8090C94920943
:100050000C946B010C946B010C946B010C946B0170
:100060000C946B010C946B01CC01D201D801DE0120
:10007000E401EA01F001210328032F0336033D03C5
:100080005403440354034B034E414E494E495459C3
:10009000494E46CDCCCC3D0AD7233C17B7D1387753
:1000A000CC2B329595E6241FB14F0A000020410069
:1000B00000C84200401C4620BCBE4CCA1B0E5AAEB3
:1000C000C59D7400000000240027002A00000000E5
:1000D0000800020100000304070000000000000007
:1000E000004D3131343B202D207265706F727420C9
:1000F000706F736974696F6E20616E6420666565E8
:100100006472617465004D3130303B202D2074687D
:1001100069732068656C70206D6573736167650035
:100120004D32323B202D207475726E2072696768E3
:1001300074206C61736572206F6666004D32313BCE
:10014000202D207475726E207269676874206C614E
:10015000736572206F6E004D32303B202D20747518
:10016000726E206C656674206C61736572206F66B8
:1001700066004D31393B202D207475726E206C6500
:100180006674206C61736572206F6E004D31383B70
:10019000202D2064697361626C65206D6F746F72CD
:1001A00073004D31373B202D20656E61626C6520F8
:1001B0006D6F746F727300473031205B5428737415
:1001C000657073295D205B4C287374657073295DBD
:1001D000205B46286665656472617465295D3B2015
:1001E0002D206D6F766500473030205B5428737486
:1001F000657073295D3B202D206C696E65617220EE
:100200006D6F766500436F6D6D616E64733A004685
:1002100061625363616E20472D434F44444520493A
:100220006E7465727072657465722056657273695A
:100230006F6E3A2000424144434845434B53554D6D
:1002400020004241444C494E454E554D20003E0051
:10025000010204081020408001020408102001025D
:100260000408102000000000250028002B000404D2
:10027000040404040404020202020202030303034E
:100280000303A811DE0D11241FBECFEFD8E0DEBF9F
:10029000CDBF22E0AAE4B1E001C01D92A639B207A9
:1002A000E1F711E0A0E0B1E0E0E7F0E302C0059083
:1002B0000D92AA34B107D9F711E0C2E4D1E004C02D
:1002C0002197FE010E94F416C134D107C9F70E949C
:1002D000EE0D0C942B180C940000FC01538D448DF2
:1002E000252F30E0842F90E0821B930B541710F0E1
:1002F000CF96089501970895FC01918D828D9817EE
:1003000061F0828DDF01A80FB11D5D968C91928DF9
:100310009F5F9F73928F90E008958FEF9FEF0895F6
:10032000FC01918D828D981731F0828DE80FF11DBF
:10033000858D90E008958FEF9FEF0895FC01918DDA
:10034000228D892F90E0805C9F4F821B91098F73D3
:100350009927089580E090E0892B29F00E94860972
:1003600081110C9400000895CF93DF9347705527B7
:1003700066277727FA013197EC01A881B981E73028
:10038000F10520F4EC5CFF4F0C94F4161496ED91FB
:10039000FC91159761E029C01496ED91FC91159799
:1003A00065E023C01496ED91FC91159764E01DC0A3
:1003B0001496ED91FC91159766E017C01496ED9197
:1003C000FC91159762E011C01496ED91FC91159780
:1003D0006AE00BC01496ED91FC91159768E005C09A
:1003E0001496ED91FC91159769E0DF91CF910994F6
:1003F000CF93DF93EC01CB01BA0126E030E040E07F
:1004000050E00E94D516623071058105910559F1C1
:100410008CF46115710581059105F1F0613071056C
:1004200081059105C1F5E881F9810480F581E02D10
:1004300065E02DC0643071058105910511F1D4F09E
:10044000653071058105910531F5E881F9810480F8
:10045000F581E02D66E01BC0E881F9810480F5811B
:10046000E02D64E014C0E881F9810480F581E02D7D
:1004700061E00DC0E881F9810480F581E02D63E041
:1004800006C0E881F9810480F581E02D62E0CE01AB
:10049000DF91CF910994DF91CF9108954370552753
:1004A00066277727DC01ED91FC910480F581E02D32
:1004B000423051056105710571F043305105610508
:1004C000710559F0413051056105710511F065E084
:1004D00005C066E003C06AE001C069E00994CF93FB
:1004E000DF93EC01CB01BA0123E030E040E050E0C3
:1004F0000E94D516613071058105910581F0623049
:1005000071058105910591F0672B682B692BC1F46A
:10051000E881F9810480F581E02D64E00DC0E88177
:10052000F9810480F581E02D61E006C0E881F98160
:100530000480F581E02D62E0CE01DF91CF91099436
:10054000DF91CF9108954370552766277727DC0107
:10055000ED91FC910480F581E02D4230510561055B
:10056000710571F0433051056105710559F0413055
:1005700051056105710511F062E005C063E003C03B
:1005800061E001C060E00994CF93DF93EC01E88162
:10059000F9810480F581E02D8A81811102C060E03B
:1005A00001C062E0CE010995E881F9810480F581FE
:1005B000E02D8A81811102C061E001C063E0CE01BB
:1005C00009958CA59DA58230910538F0880F991F5B
:1005D000880F991F05970197F1F7E881F981048049
:1005E000F581E02D8A81811102C060E001C062E0E6
:1005F000CE01DF91CF910994CF93DF93EC0120E0FE
:1006000030E0A9016C897D898E899F890E944E16F0
:1006100018161CF4E8A9F9A902C0EAA9FBA9DF9100
:10062000CF9109940F931F93DC011396EC910E2F39
:1006300010E009301105C0F5F801E55CFF4F0C949E
:10064000F416DC01ED91FC910084F185E02D29C0C8
:10065000DC01ED91FC910284F385E02D22C0DC01E8
:10066000ED91FC910484F585E02D1BC0DC01ED913A
:10067000FC910684F785E02D14C0DC01ED91FC911E
:100680000088F189E02D0DC0DC01ED91FC9102881C
:10069000F389E02D06C0DC01ED91FC910488F58919
:1006A000E02D1F910F9109941F910F910895FC0166
:1006B000848DDF01A80FB11DA35ABF4F2C91848DEB
:1006C00090E001968F739927848FA689B7892C9320
:1006D000A089B1898C91837080648C93938D848D73
:1006E000981306C00288F389E02D80818F7D808376
:1006F0000895EF92FF920F931F93CF93DF93EC0136
:1007000081E0888F9B8D8C8D981305C0E889F989CD
:10071000808185FD26C0F62E0B8D10E00F5F1F4FE8
:100720000F731127E02E8C8DE8120CC00FB607FC5A
:10073000FACFE889F989808185FFF5CFCE010E9443
:100740005703F1CF8B8DFE01E80FF11DE35AFF4FE8
:10075000F0829FB7F8940B8FEA89FB8980818062D1
:100760000AC09FB7F894EE89FF896083E889F98908
:1007700080818370806480839FBF81E090E0DF91FF
:10078000CF911F910F91FF90EF900895CF93DF933A
:10079000EC01888D8823C9F0EA89FB89808185FD79
:1007A00005C0A889B9898C9186FD0FC00FB607FCDA
:1007B000F5CF808185FFF2CFA889B9898C9185FF1B
:1007C000EDCFCE010E945703E7CFDF91CF9108957F
:1007D00090E0FC01E353FF4F2491FC01E05BFD4FEF
:1007E0003491FC01E259FD4FE491EE2309F43CC041
:1007F000222339F1233091F038F42130A9F022304E
:1008000001F584B58F7D12C0273091F02830A1F01A
:100810002430B9F4809180008F7D03C080918000E6
:100820008F77809380000DC084B58F7784BD09C019
:100830008091B0008F7703C08091B0008F7D80934E
:10084000B000F0E0EE0FFF1FEC59FD4FA591B49101
:100850009FB7F894611104C08C913095382302C081
:10086000EC913E2B3C939FBF0895CF92DF92EF9285
:10087000FF920F931F93CF93DF93EC019B819430F2
:1008800041F0983031F0933031F0963021F012E0A1
:1008900003C014E001C013E02496E12CF12CC62E15
:1008A000D12C01E0C6010E2C02C0959587950A94C3
:1008B000E2F76C8180FD602789910E94E8038FEF49
:1008C000E81AF80AE11670F3DF91CF911F910F91AA
:1008D000FF90EF90DF90CF900895CF93DF9390E05B
:1008E000FC01E05BFD4F2491FC01E259FD4F849136
:1008F000882361F190E0880F991FFC01ED53FF4FB1
:10090000C591D491FC01EC59FD4FA591B4916111B1
:1009100009C09FB7F8948881209582238883EC9141
:100920002E230BC0623061F49FB7F8948881322F78
:10093000309583238883EC912E2B2C939FBF06C088
:100940008FB7F894E8812E2B28838FBFDF91CF914A
:100950000895CF93DF93FC012381222359F1EC0109
:1009600061E084810E946D0461E08D810E946D04CC
:100970008B81843011F0883039F461E08E810E94DF
:100980006D0461E08F8106C0833011F0863021F460
:1009900061E08E810E946D048FA58F3F59F061E068
:1009A0000E946D046EA581E068278FA5DF91CF912D
:1009B0000C94E803DF91CF910895CF93DF93FC016E
:1009C00023812223A9F0EC010190F081E02D048025
:1009D000F581E02D60E009958FA58F3F49F061E03A
:1009E0000E946D046EA58FA5DF91CF910C94E80352
:1009F000DF91CF9108953FB7F89480914F01909186
:100A00005001A0915101B091520126B5A89B05C09B
:100A10002F3F19F00196A11DB11D3FBFBA2FA92F7D
:100A2000982F8827820F911DA11DB11DBC01CD01FA
:100A300042E0660F771F881F991F4A95D1F70895E6
:100A40001F920F920FB60F9211242F933F938F9303
:100A50009F93AF93BF9380914B0190914C01A091D4
:100A60004D01B0914E0130914A0123E0230F2D3703
:100A700020F40196A11DB11D05C026E8230F0296A2
:100A8000A11DB11D20934A0180934B0190934C010D
:100A9000A0934D01B0934E0180914F019091500170
:100AA000A0915101B09152010196A11DB11D8093F9
:100AB0004F0190935001A0935101B0935201BF9107
:100AC000AF919F918F913F912F910F900FBE0F90FB
:100AD0001F9018954F925F926F927F92AF92BF9244
:100AE000CF92DF92EF92FF920F931F93CF93DF93FA
:100AF000CDB7DEB7C454D1090FB6F894DEBF0FBE30
:100B0000CDBF5C012A013B016801790123E042E08D
:100B100064E0CE0101960E947C0B8AE0A816B10425
:100B200021F4CE0101960E94010DC301B2010E9481
:100B300018160D851E852F853889DC01CB01800FA5
:100B4000911FA21FB31F09891A892B893C89081795
:100B500019072A073B0741F0898B9A8BAB8BBC8B1B
:100B6000CE0101960E942F0AB701A601CE0101967F
:100B70000E94D90B49895A896B897C890D851E850C
:100B80002F853889CDA0DEA0EFA0F8A404171507A3
:100B90002607370714F481E001C080E040175107B1
:100BA0006207730759F0C114D104E104F104B1F3F1
:100BB0008B83CE0101960E94EA09DCCFCC5BDF4F2C
:100BC0000FB6F894DEBF0FBECDBFDF91CF911F915E
:100BD0000F91FF90EF90DF90CF90BF90AF907F90FC
:100BE0006F905F904F9008958F929F92AF92BF92B7
:100BF000CF92DF92EF92FF926A017B010E94500C2C
:100C0000A7019601C701B6010E949916882319F021
:100C100082E391E01AC046015701E894B7F82FEF3C
:100C20003FEF4FE75FE7C501B4010E9499168111BC
:100C30000FC02FEF3FEF4FE75FE7C501B4010E9400
:100C4000C11318162CF486E391E00E94500C76C074
:100C50002FEF3FEF4FE75FE4C701B6010E944E164A
:100C600018161CF48AE391E0F0CF2FEF3FEF4FE727
:100C70005FECC701B6010E94C11387FDF3CF20E0EE
:100C800030E0A901C701B6010E94C11387FF09C066
:100C90006DE28AE991E00E947903F7FAF094F7F89F
:100CA000F0942AE037ED43EA5BE3C701B6010E9406
:100CB0003A154B015C010E941F166B017C010E94DA
:100CC000C6139B01AC01C501B4010E9439154B014B
:100CD0005C014AE0C701B6010E948B0C6EE28AE912
:100CE00091E00E94790320E030E040E251E4C50148
:100CF000B4010E9427144B015C010E941F166B0176
:100D0000E12CF12C4AE0C701B6010E948B0CC7010F
:100D1000B6010E94C6139B01AC01C501B4010E943B
:100D2000391520E030E040E251E40E9427140E948F
:100D30001F1680E090E04AE00E948B0C8EE391E069
:100D4000FF90EF90DF90CF90BF90AF909F908F90EB
:100D50000C94500C8F929F92AF92BF92CF92DF92E1
:100D6000EF92FF92CF93C82F4A015B01C09093018D
:100D7000D0909401C601DD0CAA0BBB0B23E531E03A
:100D80006901032E000CEE08FF08C80ED91EEA1EEA
:100D9000FB1EC9018230910514F1FC012081222340
:100DA000F1F0AC01092E000C660B770B4C155D05BC
:100DB0006E057F05A4F42C130CC00196CF91FF9013
:100DC000EF90DF90CF90BF90AF909F908F900C945A
:100DD0009C1360E270E00E9420180196DBCFC501F1
:100DE000B401CF91FF90EF90DF90CF90BF90AF9084
:100DF0009F908F9008958F929F92AF92BF92CF92C3
:100E0000DF92EF92FF920F931F93CF93DF93CDB7B3
:100E1000DEB729970FB6F894DEBF0FBECDBF962F71
:100E200050E060E070E0592B682BCB01AA27BB276C
:100E3000F52E982EBC0100E010E0A0E0B0E020E02C
:100E400030E080917D0290917E0228173907E0F50D
:100E500080918202882371F0869F6001879FD00C69
:100E600011248F9D50011124EB2C849FC00111246B
:100E7000592F03C0542FEF2CD92CC0908802B0906A
:100E800085028091830290918402CB1003C08A0F67
:100E90009B1F07C0800F911F5C01AC0CB11CF501BA
:100EA0001082C09085025C01AC0CB11CF501D082AF
:100EB000D0908602FC01ED0DF11DE082E0908702EA
:100EC0008E0D911DFC0150832F5F3F4F13960C5FD9
:100ED0001F4F2031310509F0B4CF809183029091EA
:100EE0008402892B09F4A2C00E94FB04C0908902ED
:100EF000D0908A02E0908B02F0908C02DC01CB0152
:100F00008C199D09AE09BF098C329140A105B1052C
:100F100058F3F89480917F02909180029A8389839C
:100F2000E0918302F0918402DF011196808189872C
:100F300090917B02E0918D02F0918E0280918F0260
:100F4000992309F42EC09081982B988790818095E1
:100F500089238F838F818C8388E08B8358856F8171
:100F600049853B812C8189819A81508347FD252FBA
:100F70003A952083262F39F0441F00C0000060837B
:100F8000000000C0F2CF38E04D916083000001976F
:100F900061F7F0938E02E0938D0249873B832C83A7
:100FA00038C09081982B98879081809589238F8372
:100FB0008F818E8388E08D8358856F8149853D813F
:100FC0002E8189819A81508347FD252F00C000C062
:100FD000208300C000C000C000C000C060830000CB
:100FE000262F3A9541F0441F000000C000C000C009
:100FF00000C000C0E8CF38E04D9100C0608300C061
:10100000019709F7F0938E02E0938D0249873D83A3
:101010002E839A83898378940E94FB0460938902CB
:1010200070938A0280938B0290938C020E94FB043F
:101030004B015C0184E6C82ED12CE12CF12C0E94DE
:10104000FB04DC01CB0188199909AA09BB09883E78
:101050009340A105B10598F321E0C21AD108E10837
:10106000F10888EE880E83E0981EA11CB11CC11403
:10107000D104E104F10419F729960FB6F894DEBF04
:101080000FBECDBFDF91CF911F910F91FF90EF90D9
:10109000DF90CF90BF90AF909F908F9008954F9228
:1010A0005F926F927F928F929F92AF92BF92CF92F8
:1010B000DF92EF92FF92CF93DF93EC016A017B0105
:1010C00020E030E0A901C701B6010E94C11387FFEB
:1010D00004C0F7FAF094F7F8F0948C8C9D8CAE8CE9
:1010E000BF8CA7019601C501B4010E94C1138823DA
:1010F00009F449C06CA97DA98EA99FA90E94C813B3
:101100002B013C01A7019601C501B4010E94A6155F
:101110009B01AC01C301B2010E9427140E94181662
:101120006CAB7DAB8EAB9FABA701960160E070E02E
:1011300080E090E40E94A6150E94591626E53EE044
:101140004DE25FE30E94271420E034E244E759E4D3
:101150000E94271468AF79AF8AAF9BAFCC8EDD8E2B
:10116000EE8EFF8ECE01DF91CF91FF90EF90DF905A
:10117000CF90BF90AF909F908F907F906F905F9037
:101180004F900C942F0ADF91CF91FF90EF90DF905A
:10119000CF90BF90AF909F908F907F906F905F9017
:1011A0004F900895CF92DF92EF92FF920F931F938B
:1011B000CF93DF93CDB7DEB7C454D1090FB6F894FF
:1011C000DEBF0FBECDBF6C018B017A0123E042E090
:1011D00064E0CE0101960E947C0B8AE0C816D1041F
:1011E00021F4CE0101960E94010DB701FF0C880B7E
:1011F000990B0E94C813AB01BC01CE0101960E945D
:10120000D90B40E050E06AEF73E4CE0101960E94F2
:101210004F08C801110FAA0BBB0B49895A896B896A
:101220007C8984179507A607B70741F0898B9A8BAD
:10123000AB8BBC8BCE0101960E942F0A8DA19EA183
:10124000AFA1B8A5892B8A2B8B2B51F0CE0101962B
:101250000E94EA09882321F0CE0101960E942F0AFC
:1012600020E030E0A9016D897E898F89988D0E94E8
:10127000C1138111E3CF49895A896B897C898D8596
:101280009E85AF85B889481759076A077B07B1F66D
:10129000CC5BDF4F0FB6F894DEBF0FBECDBFDF9142
:1012A000CF911F910F91FF90EF90DF90CF90089515
:1012B000CF92DF92EF92FF920F931F93CF93DF9322
:1012C0006C017A018B01C0E0D0E0CE15DF0581F022
:1012D000D8016D918D01D601ED91FC910190F081C5
:1012E000E02DC6010995892B11F02196EECF7E01E4
:1012F000C701DF91CF911F910F91FF90EF90DF9089
:10130000CF900895089580E090E008958AE991E0F3
:101310000E949E0121E0892B09F420E0822F08958C
:101320000E941B181F920F920FB60F9211242F9339
:101330003F934F935F936F937F938F939F93AF935D
:10134000BF93EF93FF938AE991E00E945703FF91C7
:10135000EF91BF91AF919F918F917F916F915F912D
:101360004F913F912F910F900FBE0F901F901895A6
:101370001F920F920FB60F9211242F938F939F936A
:10138000EF93FF93E091AA01F091AB018081E0918E
:10139000B001F091B10182FD12C090818091B30142
:1013A0008F5F8F732091B401821751F0E091B301E8
:1013B000F0E0E656FE4F958F8093B30101C0808127
:1013C000FF91EF919F918F912F910F900FBE0F90F2
:1013D0001F901895CF92DF92EF92FF92CF93DF93F9
:1013E000EC010E94FB046B017C0188A599A5AAA5CC
:1013F000BBA5B701A601481B590B6A0B7B0B8CA13F
:101400009DA1AEA1BFA1481759076A077B07F8F055
:101410002A818C859D85AE85BF85222321F001968A
:10142000A11DB11D03C00197A109B1098C879D873A
:10143000AE87BF874C855D856E857F85CE010E9416
:101440001203C8A6D9A6EAA6FBA681E001C080E0E7
:10145000DF91CF91FF90EF90DF90CF9008954F9262
:101460005F926F927F928F929F92AF92BF92CF9234
:10147000DF92EF92FF920F931F93CF93DF93EC01D4
:10148000C888D988EA88FB888C859D85AE85BF850C
:10149000C81AD90AEA0AFB0A6C897D898E899F8954
:1014A0009B01AC010E9427144B015C016C8D7D8D6A
:1014B0008E8D9F8D9B01AC010E943A159B01AC0162
:1014C000C501B4010E94A6150E941816C114D104CA
:1014D000E104F10499F462307105810591050CF085
:1014E00076C01CA21DA21EA21FA21C8A1D8A1E8AD3
:1014F0001F8A1CAA1DAA1EAA1FAAEDC00CA91DA9FD
:101500002EA93FA91C141D041E041F04FCF4101670
:101510001106120613064CF46C157D058E059F0509
:101520004CF52A81211153C025C001151105210553
:10153000310509F44CC06C157D058E059F050CF036
:1015400046C08A81882309F442C036C010161106AD
:1015500012061306ECF40027112798010C191D0937
:101560002E093F0960177107820793071CF42A812F
:10157000222369F19B01AC0188279927DC01821B9A
:10158000930BA40BB50B8CAB9DABAEABBFAB1FC02D
:101590000115110521053105D1F088249924540144
:1015A0008C189D08AE08BF08681579058A059B054B
:1015B00074F48A8181110BC03095209510950195A6
:1015C0001F4F2F4F3F4F0CAB1DAB2EAB3FAB8CA82B
:1015D0009DA8AEA8BFA881149104A104B10489F408
:1015E00088AD99ADAAADBBAD8CAF9DAFAEAFBFAF6F
:1015F00081E01C141D041E041F040CF080E08A838B
:101600003FC0CCACDDACEEACFFACA7019601C7018E
:10161000B6010E943A152B013C01C501B4010E949C
:10162000C81320E030E040E850E40E94271420E096
:1016300030E040E85FE30E943A159B01AC01C30132
:10164000B2010E94A6159B01AC01C701B6010E9420
:1016500039153B016C01FE01E05CFF4FE080F18039
:10166000028113819701A8010E944E16181614F4E6
:1016700073018601C701D8018CAF9DAFAEAFBFAF7C
:101680003FEF831A930AA30AB30A8CAA9DAAAEAAB3
:10169000BFAACCACDDACEEACFFACC701B6010E947A
:1016A0001F166CA37DA38EA39FA3A701960160E0E4
:1016B00074E284E799E40E94A6156C8B7D8B8E8B77
:1016C0009F8B2A81211107C0DC01CB01B0588C8B84
:1016D0009D8BAE8BBF8BDF91CF911F910F91FF90B0
:1016E000EF90DF90CF90BF90AF909F908F907F90C2
:1016F0006F905F904F900895CF93DF93EC018AE055
:1017000091E0998388836B831C861D861E861F86C5
:10171000188A198A1A8A1B8A1C8A1D8A1E8A1F8A9D
:1017200080E090E0A0E8BFE3888F998FAA8FBB8FFD
:101730001C8E1D8E1E8E1F8E88A399A3AAA3BBA3E9
:101740001CA21DA21EA21FA261E070E07DA76CA7D3
:101750003FEF3FA718A619A61AA61BA64C832D83F8
:1017600024E02E8325E02F831EA61CAA1DAA1EAAF4
:101770001FAA18AE19AE1AAE1BAE1CAE1DAE1EAE21
:101780001FAEFE01E05CFF4F80839183A283B38391
:101790001A82188619861A861B86CE010E94A90411
:1017A00040E050E060E87FE3CE01DF91CF910C9400
:1017B0004F084F925F926F927F92AF92BF92CF92FB
:1017C000DF92EF92FF920F931F93CF93DF93EC0181
:1017D0005A018B019A01AB016C897D898E899F89A1
:1017E0000E94C113882309F44CC0C88CD98CEA8CA0
:1017F000FB8C2601370177FA709477F87094A30177
:101800009201B501C8010E94C11387FD0BC0A70159
:101810009601B501C8010E944E1618162CF06501FC
:10182000780102C07301620120E030E0A901C70124
:10183000B6010E94C113811105C01CA21DA21EA2E7
:101840001FA21BC0A701960160E074E284E799E43F
:101850000E94A6159F770E941F166CA37DA38EA3DE
:101860009FA311E020E030E0A901C701B6010E946A
:101870004E1618160CF010E01A83CC8ADD8AEE8A18
:10188000FF8ADF91CF911F910F91FF90EF90DF9032
:10189000CF90BF90AF907F906F905F904F900895E2
:1018A000009769F0FC0101900020E9F73197AF0142
:1018B000481B590BBC018AE991E00C94580980E05F
:1018C00090E008950F931F93CF93DF938C01C0E0B6
:1018D000D0E0F801EC0FFD1F6491662341F08AE926
:1018E00091E00E947903892B11F02196F2CFCE016D
:1018F000DF91CF911F910F910895CF93DF930E94B5
:10190000620CEC018EE391E00E94500C8C0F9D1F45
:10191000DF91CF9108958F929F92AF92BF920F93D4
:101920001F93CF93DF93CDB7DEB7A1970FB6F8948F
:10193000DEBF0FBECDBF19A2423008F44AE08E01CF
:101940000F5D1F4F842E912CA12CB12CA501940169
:101950000E94B316E62FB901CA0101501109EA30FD
:1019600014F4E05D01C0E95CD801EC93232B242B37
:10197000252B61F7C8010E94500CA1960FB6F89470
:10198000DEBF0FBECDBFDF91CF911F910F91BF90F2
:10199000AF909F908F900895CF92DF92EF92FF9239
:1019A000CF93DF936B017C016DE28AE991E00E94A5
:1019B0007903EC0166277727CB016C197D098E0925
:1019C0009F094AE00E948B0C8C0F9D1FDF91CF91E5
:1019D000FF90EF90DF90CF900895CF93DF9397FF24
:1019E00003C00E94CC0C03C04AE00E948B0CEC01A7
:1019F0008EE391E00E94500C8C0F9D1FDF91CF91E0
:101A00000895FC01A7E3B2E012968C9112978283AD
:101A100013968C911397838314968C9114978483D7
:101A200015968C911597858316968C9116978683BB
:101A300017968C911797878318968C9118978087A3
:101A400019968C91199781871A968C911A9782878B
:101A50001B968C911B9783871C964D915D916D9180
:101A60007C911F97448755876687778750964D915D
:101A70005D916D917C915397408B518B628B738BF1
:101A800054964D915D916D917C915797448B558BF8
:101A9000668B778B58964D915D916D917C915B979C
:101AA000408F518F628F738F5C964D915D916D91D8
:101AB0007C915F97448F558F668F778F90964D916D
:101AC0005D916D917C91939740A351A362A373A301
:101AD00094964D915D916D917C91979744A355A3F8
:101AE00066A377A398964D915D916D917C919B979C
:101AF00040A751A762A773A79C968D919C919D9733
:101B000095A784A79E968C919E9786A79F968C9169
:101B10009F9787A7D0968D919C91D19791AB80ABE1
:101B2000D2968D919C91D39793AB82ABD4964D91E5
:101B30005D916D917C91D79744AB55AB66AB77AB1C
:101B4000D8964D915D916D917C91DB9740AF51AFEF
:101B500062AF73AFDC968D919D910D90BC91A02DDD
:101B600084AF95AFA6AFB7AF40917702509178029E
:101B70006091790270917A02DF01A05CBF4F4D93B2
:101B80005D936D937C931397CF010895CF93DF936B
:101B9000BC01990F880B990B97FF03C00E94CC0CD6
:101BA00003C04AE00E948B0CEC018EE391E00E949E
:101BB000500C8C0F9D1FDF91CF910895809183026F
:101BC00090918402009711F00E94921780918102F7
:101BD00087FD03C060E00C946D040895789484B58B
:101BE000826084BD84B5816084BD85B5826085BD19
:101BF00085B5816085BD80916E00816080936E00A7
:101C00001092810080918100826080938100809198
:101C10008100816080938100809180008160809349
:101C200080008091B10084608093B1008091B00009
:101C300081608093B00080917A00846080937A0004
:101C400080917A00826080937A0080917A0081602E
:101C500080937A0080917A00806880937A00109255
:101C6000C100E091AA01F091AB0182E08083E09194
:101C7000A601F091A7011082E091A801F091A901BD
:101C80008AE880831092B201E091AE01F091AF0139
:101C900086E08083E091AC01F091AD0180818061AC
:101CA0008083E091AC01F091AD01808188608083F8
:101CB000E091AC01F091AD01808180688083E0917A
:101CC000AC01F091AD0180818F7D808361E082E085
:101CD0000E946D0461E083E00E946D0461E08FE08A
:101CE0000E946D0460E08FE00E94E80360E082E003
:101CF0000E94E80360E083E00E94E80361E083E182
:101D00000E946D0460E083E10E94E80361E089E0E5
:101D10000E946D0461E085E00E946D0461E08CE04A
:101D20000E946D0461E086E00E946D0461E083E141
:101D30000E94E80320E030E04AEF54E460914F0253
:101D40007091500280915102909152020E94C113F1
:101D5000882309F453C080E090E0AAEFB4E48093B4
:101D60004F0290935002A0935102B093520280E030
:101D700090E0AAEFB3E48093770290937802A09367
:101D80007902B0937A0280916B0290916C02A091DB
:101D90006D02B0916E02181619061A061B0674F52C
:101DA00060914B0270914C0280914D0290914E02D5
:101DB0009B01AC010E9427146B017C0160915302CE
:101DC0007091540280915502909156029B01AC0192
:101DD0000E943A159B01AC01C701B6010E94A615ED
:101DE0000E94181660936B0270936C0280936D02D0
:101DF00090936E0287E392E00E942F0A40E050E049
:101E00006FE274E487E392E00E94D90B61E089E01D
:101E10000E94E8038091810287FD08C061E00E9472
:101E20006D0460E0809181020E94E80381E080936C
:101E30007C0261E089E00E94E80361E085E00E94A5
:101E4000E8038AE991E00E949E01181619060CF039
:101E50003CC28AE991E00E947C01C82F682F8AE980
:101E600091E00E94790380919301909194018F33C6
:101E700091055CF49C012F5F3F4F309394012093B8
:101E80009301FC01ED5AFE4FC083CA3011F0CD30F2
:101E9000C1F6E0919301F0919401ED5AFE4F10824A
:101EA000809153018B3309F407C240E050E060E8B1
:101EB0007FEB8EE40E94AA060E9418166F3F2FEF58
:101EC000720709F462C0209153012E3409F05DC0FD
:101ED000C0909501D0909601E0909701F090980104
:101EE000CB01770FAA0BBB0B8C159D05AE05BF056B
:101EF00039F082E492E00E94620CC701B6012FC063
:101F00006AE270E083E591E00E942018892B09F4D1
:101F1000D3C1E3E5F1E0C0E09F0123553140919149
:101F20009A3211F0C927F8CF60E070E0C9018C5AED
:101F30009E4F0E944E120E9418162C2FCC0F330B6E
:101F40002617370779F085E392E00E94620C6091D2
:101F500095017091960180919701909198010E944E
:101F6000ED0CAAC18091950190919601A0919701E5
:101F7000B09198010196A11DB11D80939501909398
:101F80009601A0939701B093980140E050E060E87B
:101F90007FEB87E40E94AA060E9418166230710542
:101FA00089F01CF477FF45C087C06630710509F4DD
:101FB0007DC06730710509F47DC06430710509F09A
:101FC0007BC037C040E050E0BA0186E40E94AA0618
:101FD0004B015C0140E050E0BA018CE40E94AA068B
:101FE0000E9418166B017C01EB0140E050E0BA0141
:101FF00084E50E94AA060E9418162B013C01672B5B
:1020000051F0C501B4010E941816AB01B2018AE07B
:1020100090E00E94D208CD2B09F44EC0C501B40156
:102020000E941816AB01B6018BE090E00E94D20826
:1020300043C040E050E0BA0186E40E94AA064B018A
:102040005C0140E050E0BA018CE40E94AA060E94C4
:1020500018166B017C01EB0140E050E0BA0184E509
:102060000E94AA060E9418166115710571F0072ECC
:10207000000C880B990B0E94C813AB01BC019501A1
:1020800084018AE090E00E946A05CD2BA9F0B60198
:10209000DD0C880B990B0E94C813AB01BC019501A4
:1020A00084018BE090E00E946A0506C081E0809385
:1020B000990102C01092990140E050E060E87FEB86
:1020C0008DE40E94AA060E9418166531710509F474
:1020D000CBC0D4F46131710509F4BAC04CF464305A
:1020E000710509F47EC06530710509F482C0E4C051
:1020F0006331710509F4B3C00CF0B3C061E089E04D
:102100000E94E80361E0A9C06E36710509F4B3C00E
:10211000ECF56631710509F4A9C06436710509F062
:10212000CBC08FE092E00E94620C81E390E30E94BA
:10213000C60D85E092E00E947D0C87EE91E00E9442
:102140007D0C87EB91E00E947D0C82EA91E00E9479
:102150007D0C8CE891E00E947D0C82E791E00E946A
:102160007D0C87E591E00E947D0C8CE391E00E945C
:102170007D0C80E291E00E947D0C86E091E00E945F
:102180007D0C81EE90E00E947D0C96C0683C71054C
:1021900009F48BC0693C710509F48AC06237710586
:1021A00009F08AC040E050E0BA0181E491E00E9469
:1021B000F40540E050E0BA0187E491E00E94F405A4
:1021C00040E050E46CE176E483E491E00E94F405A1
:1021D00085E491E00E94500C8EE391E00E94500C47
:1021E0006BC060E082E00E94E80360E083E00E9450
:1021F000E80340E050E0BA0182E40E94AA064B01E5
:102200005C0140E050E0BA0187E40E94AA066B013D
:102210007C0140E050E0BA0182E50E94AA062B0151
:102220003C01C501B4010E9418164B015C01C701B5
:10223000B6010E9418166B017C01C301B2010E9415
:102240001816DC01CB01A401B6010E94FB0634C0C4
:1022500060E089E00E94E80360E085E009C061E099
:1022600001C060E083E004C061E001C060E082E0A2
:102270000E94E80321C060919501709196018091C0
:102280009701909198010E94C813AB01BC018EE4A4
:102290000E94AA060E9418166093950170939601F9
:1022A000809397019093980107C081E390E302C067
:1022B00082E090E00E94C60D10929401109293016A
:1022C0008EE492E00E947D0CBCCD80919901882320
:1022D000E1F140E050E06AE774E487E392E00E94B5
:1022E000D90B8091430290914402A0914502B09194
:1022F00046020A96A11DB11D409147025091480225
:102300006091490270914A0284179507A607B707A2
:1023100061F08093470290934802A0934902B093E2
:102320004A0287E392E00E942F0A80915B0290911B
:102330005C02A0915D02B0915E02892B8A2B8B2BEF
:1023400021F087E392E00E94EA090E94AA0179CD78
:1023500010929D0110929C0188EE93E0A0E0B0E005
:1023600080939E0190939F01A093A001B093A1013F
:1023700084E291E090939B0180939A0185EC90E038
:102380009093A7018093A60184EC90E09093A9011B
:102390008093A80180EC90E09093AB018093AA0118
:1023A00081EC90E09093AD018093AC0182EC90E0E1
:1023B0009093AF018093AE0186EC90E09093B101D1
:1023C0008093B0011092B3011092B4011092B50144
:1023D0001092B6012DE04CE062E087E392E00E94AB
:1023E0007C0B10927C021092820210928902109251
:1023F0008A0210928B0210928C0281E080938802F4
:10240000809385021092860292E0909387028093D7
:102410007B0280E390E09093800280937F020E9491
:10242000FA169093840280938302009761F020E370
:10243000FC0111922A95E9F780E190E090937E02E9
:1024400080937D0208C01092800210927F02109249
:102450007E0210927D028FE08093810280917C0247
:10246000882341F061E08FE00E946D0460E08FE01E
:102470000E94E803EDE7F2E0E491F0E0EE0FFF1FC9
:10248000EC59FD4F8591949190938E0280938D022B
:10249000EFE5F2E0E491E0938F020895A0E0B0E070
:1024A000E4E5F2E10C94F914EC016B01611571059E
:1024B00019F0FB01918380837E01FFEFEF1AFF0A81
:1024C0000881802F90E00E94A013892B11F0E70172
:1024D000F3CF0D3239F47E0182E0E80EF11C098160
:1024E00011E008C00B3229F47E0192E0E90EF11CE4
:1024F000098110E0E701219743E050E060E970E0D6
:10250000CE010E94A913892BC1F4239645E050E027
:102510006BE870E0CE010E94A913892B09F425967F
:10252000C114D10419F0F601D183C0831111F6C092
:1025300060E070E080E89FE7FAC043E050E068E8C0
:1025400070E0CE010E94A913892B59F4C114D10463
:1025500009F4E9C0F2E0EF0EF11CF601F182E0822D
:10256000E2C020E030E0A901C0E0D0E0F70180ED5A
:10257000A82EA00E89E08A1530F1912F9260B92E15
:10258000812F887012FF04C0811124C0219622C0BF
:1025900081112197A5E0B0E00E94E814DC01CB0195
:1025A000880F991FAA1FBB1F9C01AD012A0D311D69
:1025B000411D511D283989E93807480789E1580725
:1025C00048F0166006C09EEFA9120AC013FD40C075
:1025D0001860B12E8FEFE81AF80A00811B2DC6CFC4
:1025E000802F8F7D8534A1F580818D3211F41061AB
:1025F00006C08B3221F0319661E070E004C0818129
:10260000329662E070E080538A3018F0E61BF70BD8
:102610001FC060E070E060389CE079075CF4DB018B
:10262000AA0FBB1FAA0FBB1F6A0F7B1F660F771F66
:10263000680F711D3196DF0111978C9180538A309C
:1026400050F314FF03C0719561957109C60FD71F30
:1026500011FF08C0C114D10429F0CF010197F60180
:1026600091838083CA01B9010E94C613212F237070
:10267000233019F04B015C0106C04B015C01B7FA35
:10268000B094B7F8B09420E030E0A901C501B401DE
:102690000E94C113882309F43EC0D7FF06C0D1951C
:1026A000C195D10907EA10E002C00FEB10E0680104
:1026B000F8E1CF1AD10890E2E92EF12CCE15DF0512
:1026C00074F0F8012591359145915491C501B401FB
:1026D0000E9427144B015C01CE19DF09EFCF045093
:1026E0001109F594E7940C151D0541F78A2D880F03
:1026F0008B2D881F8F3F49F020E030E0A901C501F4
:10270000B4010E94C113811106C082E290E090934F
:10271000910280939002C501B40109C060E070E0AD
:1027200080E89FEF04C060E070E080EC9FE7CDB7E9
:10273000DEB7ECE00C941515662777270C944E1243
:1027400091110C949414803219F089508550C8F777
:102750000895FB01DC014150504088F08D91813497
:102760001CF08B350CF4805E659161341CF06B3588
:102770000CF4605E861B611171F3990B0895881B40
:10278000FCCF0E94031408F481E00895E89409C086
:1027900097FB3EF490958095709561957F4F8F4F94
:1027A0009F4F9923A9F0F92F96E9BB279395F695AA
:1027B000879577956795B795F111F8CFFAF4BB0F28
:1027C00011F460FF1BC06F5F7F4F8F4F9F4F16C08C
:1027D000882311F096E911C0772321F09EE8872F16
:1027E000762F05C0662371F096E8862F70E060E0D2
:1027F0002AF09A95660F771F881FDAF7880F96954B
:10280000879597F90895990F0008550FAA0BE0E8EE
:10281000FEEF16161706E807F907C0F012161306A2
:10282000E407F50798F0621B730B840B950B39F4E2
:102830000A2661F0232B242B252B21F408950A2648
:1028400009F4A140A6958FEF811D811D08950E9476
:102850003A140C94AE140E94A01438F00E94A714ED
:1028600020F0952311F00C9497140C949D141124CE
:102870000C94E2140E94BF1470F3959FC1F3950F5E
:1028800050E0551F629FF001729FBB27F00DB11DF4
:10289000639FAA27F00DB11DAA1F649F6627B00D84
:1028A000A11D661F829F2227B00DA11D621F739F6D
:1028B000B00DA11D621F839FA00D611D221F749F7B
:1028C0003327A00D611D231F849F600D211D822FC2
:1028D000762F6A2F11249F5750409AF0F1F08823E9
:1028E0004AF0EE0FFF1FBB1F661F771F881F915016
:1028F0005040A9F79E3F510580F00C9497140C941A
:10290000E2145F3FE4F3983ED4F38695779567959C
:10291000B795F795E7959F5FC1F7FE2B880F911D3F
:102920009695879597F9089599278827089597F997
:102930009F6780E870E060E008959FEF80EC089565
:1029400000240A941616170618060906089500248E
:102950000A9412161306140605060895092E039408
:10296000000C11F4882352F0BB0F40F4BF2B11F47C
:1029700060FF04C06F5F7F4F8F4F9F4F089557FDDB
:102980009058440F551F59F05F3F71F04795880FDD
:1029900097FB991F61F09F3F79F087950895121674
:1029A00013061406551FF2CF4695F1DF08C0161620
:1029B00017061806991FF1CF8695710561050894D1
:1029C0000895E894BB2766277727CB0197F90895E8
:1029D0000E942A15A59F900DB49F900DA49F800D75
:1029E000911D112408952F923F924F925F926F9202
:1029F0007F928F929F92AF92BF92CF92DF92EF928F
:102A0000FF920F931F93CF93DF93CDB7DEB7CA1B0F
:102A1000DB0B0FB6F894DEBF0FBECDBF09942A883A
:102A2000398848885F846E847D848C849B84AA84E2
:102A3000B984C884DF80EE80FD800C811B81AA816F
:102A4000B981CE0FD11D0FB6F894DEBF0FBECDBF3A
:102A5000ED010895A29FB001B39FC001A39F700D27
:102A6000811D1124911DB29F700D811D1124911D96
:102A700008955058BB27AA270E9451150C94AE14F4
:102A80000E94A01438F00E94A71420F039F49F3F50
:102A900019F426F40C949D140EF4E095E7FB0C94C5
:102AA0009714E92F0E94BF1458F3BA1762077307EF
:102AB0008407950720F079F4A6F50C94E1140EF440
:102AC000E0950B2EBA2FA02D0B01B90190010C013E
:102AD000CA01A0011124FF27591B99F0593F50F456
:102AE000503E68F11A16F040A22F232F342F4427AE
:102AF000585FF3CF469537952795A795F0405395A6
:102B0000C9F77EF41F16BA0B620B730B840BBAF075
:102B10009150A1F0FF0FBB1F661F771F881FC2F7E0
:102B20000EC0BA0F621F731F841F48F487957795F4
:102B30006795B795F7959E3F08F0B0CF9395880FAE
:102B400008F09927EE0F9795879508950E94BA157A
:102B50000C94AE140E94A71458F00E94A01440F0E8
:102B600029F45F3F29F00C94971451110C94E2144E
:102B70000C949D140E94BF1468F39923B1F355235C
:102B800091F3951B550BBB27AA2762177307840780
:102B900038F09F5F5F4F220F331F441FAA1FA9F316
:102BA00035D00E2E3AF0E0E832D091505040E69504
:102BB000001CCAF72BD0FE2F29D0660F771F881F65
:102BC000BB1F261737074807AB07B0E809F0BB0B58
:102BD000802DBF01FF2793585F4F3AF09E3F51056C
:102BE00078F00C9497140C94E2145F3FE4F3983E51
:102BF000D4F3869577956795B795F7959F5FC9F755
:102C0000880F911D9695879597F90895E1E0660FD5
:102C1000771F881FBB1F621773078407BA0720F04E
:102C2000621B730B840BBA0BEE1F88F7E0950895B7
:102C30000E941F166894B1110C94E21408950E942A
:102C4000C71488F09F5798F0B92F9927B751B0F063
:102C5000E1F0660F771F881F991F1AF0BA95C9F720
:102C600014C0B13091F00E94E114B1E008950C94C9
:102C7000E114672F782F8827B85F39F0B93FCCF37C
:102C8000869577956795B395D9F73EF4909580959D
:102C9000709561957F4F8F4F9F4F08950E94031449
:102CA00008F48FEF089519F416F40C949D140C9405
:102CB0009E160E94C714B8F39923C9F3B6F39F5721
:102CC000550B87FF0E94AC160024A0E640EA900155
:102CD00080585695979528F4805C660F771F881F5B
:102CE00020F026173707480730F4621B730B840B5C
:102CF000202931294A2BA6951794079420253125A0
:102D00004A2758F7660F771F881F20F026173707C6
:102D1000480730F4620B730B840B200D311D411DED
:102D2000A09581F7B901842F9158880F96958795C2
:102D300008950E940314880B990B08959F3F31F06A
:102D4000915020F4879577956795B795880F911DD9
:102D50009695879597F9089591505040660F771F83
:102D6000881FD2F70895A1E21A2EAA1BBB1BFD01F2
:102D70000DC0AA1FBB1FEE1FFF1FA217B307E4075A
:102D8000F50720F0A21BB30BE40BF50B661F771FB2
:102D9000881F991F1A9469F7609570958095909592
:102DA0009B01AC01BD01CF010895052E97FB1EF4D8
:102DB00000940E94EC1657FD07D00E94B31607FC42
:102DC00003D04EF40C94EC16509540953095219517
:102DD0003F4F4F4F5F4F0895909580957095619547
:102DE0007F4F8F4F9F4F0895EE0FFF1F0590F49177
:102DF000E02D09940F931F93CF93DF9382309105B9
:102E000010F482E090E0E0919402F091950220E0CD
:102E100030E0A0E0B0E0309719F1408151810281AB
:102E2000138148175907C8F08417950769F410975C
:102E300031F012960C93129713961C9327C00093AF
:102E400094021093950222C02115310519F0421702
:102E5000530718F49A01BD01EF01DF01F801DBCF40
:102E600021153105F9F0281B390B2430310580F488
:102E70008A819B816115710521F0FB019383828317
:102E800004C09093950280939402FE01329644C050
:102E9000FE01E20FF31F8193919322503109398390
:102EA00028833AC02091920230919302232B41F45F
:102EB00020910201309103013093930220939202FA
:102EC00020910001309101012115310541F42DB708
:102ED0003EB74091040150910501241B350BE09150
:102EE0009202F0919302E217F307A0F42E1B3F0B1E
:102EF0002817390778F0AC014E5F5F4F241735076C
:102F000048F04E0F5F1F50939302409392028193BB
:102F1000919302C0E0E0F0E0CF01DF91CF911F91EB
:102F20000F910895CF93DF93009709F481C0FC01BE
:102F3000329713821282A0919402B0919502109759
:102F400081F420813181820F931F20919202309170
:102F500093022817390751F5F0939302E0939202F8
:102F600067C0ED0120E030E0CE17DF0740F44A8172
:102F70005B819E0141155105F1F0EA01F5CFD38344
:102F8000C28340815181840F951FC817D90759F416
:102F900088819981840F951F0296918380838A810D
:102FA0009B81938382832115310529F4F093950247
:102FB000E09394023DC0E901FB83EA834991599172
:102FC000C40FD51FEC17FD0761F480819181840F38
:102FD000951F0296E90199838883828193819B835F
:102FE0008A83E0E0F0E012968D919C911397009710
:102FF00019F0FD01DC01F7CF8D919C9111979D0196
:103000002E5F3F4F820F931F2091920230919302C7
:103010002817390769F4309729F410929502109215
:10302000940202C013821282B0939302A093920280
:10303000DF91CF91089581E090E0F8940C942B18E3
:10304000FC018191861721F08823D9F799270895EB
:103050003197CF01089511E0C2E4D1E004C0FE0130
:103060000E94F4162196C334D107C9F7F894FFCF14
:1030700000009602800000000000DD04A904350471
:103080001203FC02C402A3026F024E02F801B40153
:1030900000000000790358096D01C6039E017C0100
:1030A00090016E616E00696E66006F7666000D0AB3
:0A30B000005400460052454C000099
:00000001FF
