:100000000C9443010C946B010C946B010C946B01E8
:100010000C946B010C946B010C946B010C946B01B0
:100020000C946B010C946B010C946B010C946B01A0
:100030000C946B010C946B010C946B010C946B0190
:100040000C949A080C946B010C940A090C94E40823
:100050000C946B010C946B010C946B010C946B0170
:100060000C946B010C946B01CC01D201D801DE0120
:10007000E401EA01F001210328032F0336033D03C5
:100080005403440354034B034E414E494E495459C3
:10009000494E46CDCCCC3D0AD7233C17B7D1387753
:1000A000CC2B329595E6241FB14F0A000020410069
:1000B00000C84200401C4620BCBE4CCA1B0E5AAEB3
:1000C000C59D744D3131343B202D207265706F72A7
:1000D0007420706F736974696F6E20616E6420663E
:1000E00065656472617465004D3130303B202D20B0
:1000F000746869732068656C70206D6573736167DF
:1001000065004D32323B202D207475726E2072696D
:10011000676874206C61736572206F6666004D328B
:10012000313B202D207475726E20726967687420CF
:100130006C61736572206F6E004D32303B202D2054
:100140007475726E206C656674206C6173657220C4
:100150006F6666004D31393B202D207475726E201C
:100160006C656674206C61736572206F6E004D3132
:10017000383B202D2064697361626C65206D6F745B
:100180006F7273004D31373B202D20656E61626CBC
:1001900065206D6F746F727300473031205B542897
:1001A0007374657073295D205B4C2873746570737C
:1001B000295D205B46286665656472617465295D0A
:1001C0003B202D206D6F766500473030205B542832
:1001D0007374657073295D3B202D206C696E6561B9
:1001E00072206D6F766500436F6D6D616E64733A5A
:1001F000004661625363616E20472D434F4444457E
:1002000020496E74657270726574657220566572ED
:1002100073696F6E3A2000424144434845434B5353
:10022000554D20004241444C494E454E554D20000D
:100230003E0000000000240027002A000000000803
:10024000000201000003040700000000000000009D
:10025000010204081020408001020408102001025D
:100260000408102000000000250028002B000404D2
:10027000040404040404020202020202030303034E
:100280000303A611D40D11241FBECFEFD8E0DEBFAB
:10029000CDBF22E0A4E5B1E001C01D92A03AB207B3
:1002A000E1F711E0A0E0B1E0ECE6F0E302C0059078
:1002B0000D92A435B107D9F711E0C2E4D1E004C032
:1002C0002197FE010E94F216C134D107C9F70E949E
:1002D000E40D0C9429180C940000FC01538D448DFE
:1002E000252F30E0842F90E0821B930B541710F0E1
:1002F000CF96089501970895FC01918D828D9817EE
:1003000061F0828DDF01A80FB11D5D968C91928DF9
:100310009F5F9F73928F90E008958FEF9FEF0895F6
:10032000FC01918D828D981731F0828DE80FF11DBF
:10033000858D90E008958FEF9FEF0895FC01918DDA
:10034000228D892F90E0805C9F4F821B91098F73D3
:100350009927089580E090E0892B29F00E948E086B
:1003600081110C9400000895CF93DF9347705527B7
:1003700066277727FA013197EC01A881B981E73028
:10038000F10520F4EC5CFF4F0C94F2161496ED91FD
:10039000FC91159761E029C01496ED91FC91159799
:1003A00065E023C01496ED91FC91159764E01DC0A3
:1003B0001496ED91FC91159766E017C01496ED9197
:1003C000FC91159762E011C01496ED91FC91159780
:1003D0006AE00BC01496ED91FC91159768E005C09A
:1003E0001496ED91FC91159769E0DF91CF910994F6
:1003F000CF93DF93EC01CB01BA0126E030E040E07F
:1004000050E00E94D316623071058105910559F1C3
:100410008CF46115710581059105F1F0613071056C
:1004200081059105C1F5E881F9810480F581E02D10
:1004300065E02DC0643071058105910511F1D4F09E
:10044000653071058105910531F5E881F9810480F8
:10045000F581E02D66E01BC0E881F9810480F5811B
:10046000E02D64E014C0E881F9810480F581E02D7D
:1004700061E00DC0E881F9810480F581E02D63E041
:1004800006C0E881F9810480F581E02D62E0CE01AB
:10049000DF91CF910994DF91CF9108954370552753
:1004A00066277727DC01ED91FC910480F581E02D32
:1004B000423051056105710571F043305105610508
:1004C000710559F0413051056105710511F065E084
:1004D00005C066E003C06AE001C069E00994CF93FB
:1004E000DF93EC01CB01BA0123E030E040E050E0C3
:1004F0000E94D316613071058105910581F062304B
:1005000071058105910591F0672B682B692BC1F46A
:10051000E881F9810480F581E02D64E00DC0E88177
:10052000F9810480F581E02D61E006C0E881F98160
:100530000480F581E02D62E0CE01DF91CF91099436
:10054000DF91CF9108954370552766277727DC0107
:10055000ED91FC910480F581E02D4230510561055B
:10056000710571F0433051056105710559F0413055
:1005700051056105710511F062E005C063E003C03B
:1005800061E001C060E00994CF93DF93EC01E88162
:10059000F9810480F581E02D8A81811102C060E03B
:1005A00001C062E0CE010995E881F9810480F581FE
:1005B000E02D8A81811102C061E001C063E0CE01BB
:1005C00009958CA59DA58230910538F0880F991F5B
:1005D000880F991F05970197F1F7E881F981048049
:1005E000F581E02D8A81811102C060E001C062E0E6
:1005F000CE01DF91CF910994CF93DF93EC0120E0FE
:1006000030E0A9016C897D898E899F890E944C16F2
:1006100018161CF4E8A9F9A902C0EAA9FBA9DF9100
:10062000CF9109940F931F93DC011396EC910E2F39
:1006300010E009301105C0F5F801E55CFF4F0C949E
:10064000F216DC01ED91FC910084F185E02D29C0CA
:10065000DC01ED91FC910284F385E02D22C0DC01E8
:10066000ED91FC910484F585E02D1BC0DC01ED913A
:10067000FC910684F785E02D14C0DC01ED91FC911E
:100680000088F189E02D0DC0DC01ED91FC9102881C
:10069000F389E02D06C0DC01ED91FC910488F58919
:1006A000E02D1F910F9109941F910F910895CF9301
:1006B000DF93FC012381222359F1EC0161E0848165
:1006C0000E942E0D61E08D810E942E0D8B81843061
:1006D00011F0883039F461E08E810E942E0D61E0C6
:1006E0008F8106C0833011F0863021F461E08E8165
:1006F0000E942E0D8FA58F3F59F061E00E942E0DB4
:100700006EA581E068278FA5DF91CF910C94E10C55
:10071000DF91CF910895CF93DF93FC0123812223B2
:10072000A9F0EC010190F081E02D0480F581E02D2D
:1007300060E009958FA58F3F49F061E00E942E0D82
:100740006EA58FA5DF91CF910C94E10CDF91CF9135
:100750000895CF92DF92EF92FF920F931F93CF9362
:10076000DF93EC019B81943041F0983031F093306D
:1007700031F0963021F012E003C014E001C013E024
:100780002496E12CF12CC62ED12C01E0C6010E2CB2
:1007900002C0959587950A94E2F76C8180FD6027E9
:1007A00089910E94E10C8FEFE81AF80AE11670F3C4
:1007B000DF91CF911F910F91FF90EF90DF90CF903D
:1007C0000895FC01848DDF01A80FB11DA35ABF4F0E
:1007D0002C91848D90E001968F739927848FA68940
:1007E000B7892C93A089B1898C91837080648C9394
:1007F000938D848D981306C00288F389E02D808143
:100800008F7D80830895EF92FF920F931F93CF9374
:10081000DF93EC0181E0888F9B8D8C8D981305C050
:10082000E889F989808185FD26C0F62E0B8D10E0C0
:100830000F5F1F4F0F731127E02E8C8DE8120CC035
:100840000FB607FCFACFE889F989808185FFF5CFDB
:10085000CE010E94E103F1CF8B8DFE01E80FF11D67
:10086000E35AFF4FF0829FB7F8940B8FEA89FB8918
:10087000808180620AC09FB7F894EE89FF89608307
:10088000E889F98980818370806480839FBF81E0DB
:1008900090E0DF91CF911F910F91FF90EF9008951D
:1008A000CF93DF93EC01888D8823C9F0EA89FB8917
:1008B000808185FD05C0A889B9898C9186FD0FC00E
:1008C0000FB607FCF5CF808185FFF2CFA889B989E3
:1008D0008C9185FFEDCFCE010E94E103E7CFDF9140
:1008E000CF9108954F925F926F927F92AF92BF9295
:1008F000CF92DF92EF92FF920F931F93CF93DF93EC
:10090000CDB7DEB7C454D1090FB6F894DEBF0FBE21
:10091000CDBF5C012A013B016801790123E042E07F
:1009200064E0CE0101960E94890A8AE0A816B1040B
:1009300021F4CE0101960E940E0CC301B2010E9467
:1009400016160D851E852F853889DC01CB01800F99
:10095000911FA21FB31F09891A892B893C89081787
:1009600019072A073B0741F0898B9A8BAB8BBC8B0D
:10097000CE0101960E943C09B701A601CE01019665
:100980000E94E60A49895A896B897C890D851E85F2
:100990002F853889CDA0DEA0EFA0F8A40417150795
:1009A0002607370714F481E001C080E040175107A3
:1009B0006207730759F0C114D104E104F104B1F3E3
:1009C0008B83CE0101960E948F0DDCCFCC5BDF4F75
:1009D0000FB6F894DEBF0FBECDBFDF91CF911F9150
:1009E0000F91FF90EF90DF90CF90BF90AF907F90EE
:1009F0006F905F904F9008958F929F92AF92BF92A9
:100A0000CF92DF92EF92FF926A017B010E945D0B11
:100A1000A7019601C701B6010E949716882319F015
:100A200082E391E01AC046015701E894B7F82FEF2E
:100A30003FEF4FE75FE7C501B4010E9497168111B0
:100A40000FC02FEF3FEF4FE75FE7C501B4010E94F2
:100A5000BF1318162CF486E391E00E945D0B76C05C
:100A60002FEF3FEF4FE75FE4C701B6010E944C163E
:100A700018161CF48AE391E0F0CF2FEF3FEF4FE719
:100A80005FECC701B6010E94BF1387FDF3CF20E0E2
:100A900030E0A901C701B6010E94BF1387FF09C05A
:100AA0006DE284EA91E00E940304F7FAF094F7F80B
:100AB000F0942AE037ED43EA5BE3C701B6010E94F8
:100AC00038154B015C010E941D166B017C010E94D0
:100AD000C4139B01AC01C501B4010E9437154B0141
:100AE0005C014AE0C701B6010E94980B6EE284EAFD
:100AF00091E00E94030420E030E040E251E4C501AF
:100B0000B4010E9425144B015C010E941D166B016B
:100B1000E12CF12C4AE0C701B6010E94980BC701F5
:100B2000B6010E94C4139B01AC01C501B4010E942F
:100B3000371520E030E040E251E40E9425140E9485
:100B40001D1680E090E04AE00E94980B8EE391E051
:100B5000FF90EF90DF90CF90BF90AF909F908F90DD
:100B60000C945D0B8F929F92AF92BF92CF92DF92C7
:100B7000EF92FF92CF93C82F4A015B01C09094017E
:100B8000D0909501C601DD0CAA0BBB0B24E531E02A
:100B90006901032E000CEE08FF08C80ED91EEA1EDC
:100BA000FB1EC9018230910514F1FC012081222332
:100BB000F1F0AC01092E000C660B770B4C155D05AE
:100BC0006E057F05A4F42C130CC00196CF91FF9005
:100BD000EF90DF90CF90BF90AF909F908F900C944C
:100BE0009A1360E270E00E941E180196DBCFC501E7
:100BF000B401CF91FF90EF90DF90CF90BF90AF9076
:100C00009F908F9008958F929F92AF92BF92CF92B4
:100C1000DF92EF92FF920F931F93CF93DF93CDB7A5
:100C2000DEB729970FB6F894DEBF0FBECDBF962F63
:100C300050E060E070E0592B682BCB01AA27BB275E
:100C4000F52E982EBC0100E010E0A0E0B0E020E01E
:100C500030E0809187029091880228173907E0F5EB
:100C600080918C02882371F0869F6001879FD00C51
:100C700011248F9D50011124EB2C849FC00111245D
:100C8000592F03C0542FEF2CD92CC0909202B09052
:100C90008F0280918D0290918E02CB1003C08A0F3B
:100CA0009B1F07C0800F911F5C01AC0CB11CF501AC
:100CB0001082C0908F025C01AC0CB11CF501D08297
:100CC000D0909002FC01ED0DF11DE082E0909102C8
:100CD0008E0D911DFC0150832F5F3F4F13960C5FCB
:100CE0001F4F2031310509F0B4CF80918D029091D2
:100CF0008E02892B09F4A2C00E946A0DC090930253
:100D0000D0909402E0909502F0909602DC01CB0125
:100D10008C199D09AE09BF098C329140A105B1051E
:100D200058F3F8948091890290918A029A8389837A
:100D3000E0918D02F0918E02DF011196808189870A
:100D400090918502E0919702F0919802809199022A
:100D5000992309F42EC09081982B988790818095D3
:100D600089238F838F818C8388E08B8358856F8163
:100D700049853B812C8189819A81508347FD252FAC
:100D80003A952083262F39F0441F00C0000060836D
:100D9000000000C0F2CF38E04D9160830000019761
:100DA00061F7F0939802E093970249873B832C8385
:100DB00038C09081982B98879081809589238F8364
:100DC0008F818E8388E08D8358856F8149853D8131
:100DD0002E8189819A81508347FD252F00C000C054
:100DE000208300C000C000C000C000C060830000BD
:100DF000262F3A9541F0441F000000C000C000C0FB
:100E000000C000C0E8CF38E04D9100C0608300C052
:100E1000019709F7F0939802E093970249873D8381
:100E20002E839A83898378940E946A0D609393023B
:100E30007093940280939502909396020E946A0D9B
:100E40004B015C0184E6C82ED12CE12CF12C0E94D0
:100E50006A0DDC01CB0188199909AA09BB09883EF2
:100E60009340A105B10598F321E0C21AD108E10829
:100E7000F10888EE880E83E0981EA11CB11CC114F5
:100E8000D104E104F10419F729960FB6F894DEBFF6
:100E90000FBECDBFDF91CF911F910F91FF90EF90CB
:100EA000DF90CF90BF90AF909F908F9008954F921A
:100EB0005F926F927F928F929F92AF92BF92CF92EA
:100EC000DF92EF92FF92CF93DF93EC016A017B01F7
:100ED00020E030E0A901C701B6010E94BF1387FFDF
:100EE00004C0F7FAF094F7F8F0948C8C9D8CAE8CDB
:100EF000BF8CA7019601C501B4010E94BF138823CE
:100F000009F449C06CA97DA98EA99FA90E94C613A6
:100F10002B013C01A7019601C501B4010E94A41553
:100F20009B01AC01C301B2010E9425140E94161658
:100F30006CAB7DAB8EAB9FABA701960160E070E020
:100F400080E090E40E94A4150E94571626E53EE03A
:100F50004DE25FE30E94251420E034E244E759E4C7
:100F60000E94251468AF79AF8AAF9BAFCC8EDD8E1F
:100F7000EE8EFF8ECE01DF91CF91FF90EF90DF904C
:100F8000CF90BF90AF909F908F907F906F905F9029
:100F90004F900C943C09DF91CF91FF90EF90DF9040
:100FA000CF90BF90AF909F908F907F906F905F9009
:100FB0004F900895CF92DF92EF92FF920F931F937D
:100FC000CF93DF93CDB7DEB7C454D1090FB6F894F1
:100FD000DEBF0FBECDBF6C018B017A0123E042E082
:100FE00064E0CE0101960E94890A8AE0C816D10405
:100FF00021F4CE0101960E940E0CB701FF0C880B64
:10100000990B0E94C613AB01BC01CE0101960E9450
:10101000E60A40E050E06AEF73E4CE0101960E94D8
:101020005707C801110FAA0BBB0B49895A896B8955
:101030007C8984179507A607B70741F0898B9A8B9F
:10104000AB8BBC8BCE0101960E943C098DA19EA169
:10105000AFA1B8A5892B8A2B8B2B51F0CE0101961D
:101060000E948F0D882321F0CE0101960E943C0939
:1010700020E030E0A9016D897E898F89988D0E94DA
:10108000BF138111E3CF49895A896B897C898D858A
:101090009E85AF85B889481759076A077B07B1F65F
:1010A000CC5BDF4F0FB6F894DEBF0FBECDBFDF9134
:1010B000CF911F910F91FF90EF90DF90CF90089507
:1010C000CF92DF92EF92FF920F931F93CF93DF9314
:1010D0006C017A018B01C0E0D0E0CE15DF0581F014
:1010E000D8016D918D01D601ED91FC910190F081B7
:1010F000E02DC6010995892B11F02196EECF7E01D6
:10110000C701DF91CF911F910F91FF90EF90DF907A
:10111000CF900895089580E090E0089584EA91E0EA
:101120000E949E0121E0892B09F420E0822F08957E
:101130000E9419181F920F920FB60F9211242F932D
:101140003F938F939F93AF93BF9380919C01909116
:101150009D01A0919E01B0919F0130919B0123E0E0
:10116000230F2D3720F40196A11DB11D05C026E8DF
:10117000230F0296A11DB11D20939B0180939C011A
:1011800090939D01A0939E01B0939F018091A00137
:101190009091A101A091A201B091A3010196A11D7E
:1011A000B11D8093A0019093A101A093A201B093DF
:1011B000A301BF91AF919F918F913F912F910F907C
:1011C0000FBE0F901F9018951F920F920FB60F929F
:1011D00011242F933F934F935F936F937F938F933C
:1011E0009F93AF93BF93EF93FF9384EA91E00E94A4
:1011F000E103FF91EF91BF91AF919F918F917F910B
:101200006F915F914F913F912F910F900FBE0F9073
:101210001F9018951F920F920FB60F9211242F93C3
:101220008F939F93EF93FF93E091B401F091B501F9
:101230008081E091BA01F091BB0182FD12C09081E2
:101240008091BD018F5F8F732091BE01821751F095
:10125000E091BD01F0E0EC55FE4F958F8093BD010C
:1012600001C08081FF91EF919F918F912F910F90FD
:101270000FBE0F901F9018954F925F926F927F92C2
:101280008F929F92AF92BF92CF92DF92EF92FF9296
:101290000F931F93CF93DF93EC01C888D988EA8816
:1012A000FB888C859D85AE85BF85C81AD90AEA0A58
:1012B000FB0A6C897D898E899F899B01AC010E9404
:1012C00025144B015C016C8D7D8D8E8D9F8D9B0156
:1012D000AC010E9438159B01AC01C501B4010E940C
:1012E000A4150E941616C114D104E104F10499F466
:1012F00062307105810591050CF076C01CA21DA21B
:101300001EA21FA21C8A1D8A1E8A1F8A1CAA1DAA31
:101310001EAA1FAAEDC00CA91DA92EA93FA91C1425
:101320001D041E041F04FCF41016110612061306F9
:101330004CF46C157D058E059F054CF52A81211115
:1013400053C025C0011511052105310509F44CC014
:101350006C157D058E059F050CF046C08A8188239B
:1013600009F442C036C01016110612061306ECF43A
:101370000027112798010C191D092E093F09601734
:101380007107820793071CF42A81222369F19B01CC
:10139000AC0188279927DC01821B930BA40BB50BAA
:1013A0008CAB9DABAEABBFAB1FC0011511052105CA
:1013B0003105D1F08824992454018C189D08AE0879
:1013C000BF08681579058A059B0574F48A81811127
:1013D0000BC030952095109501951F4F2F4F3F4F13
:1013E0000CAB1DAB2EAB3FAB8CA89DA8AEA8BFA885
:1013F00081149104A104B10489F488AD99ADAAAD1A
:10140000BBAD8CAF9DAFAEAFBFAF81E01C141D0470
:101410001E041F040CF080E08A833FC0CCACDDAC1E
:10142000EEACFFACA7019601C701B6010E943815CA
:101430002B013C01C501B4010E94C61320E030E03D
:1014400040E850E40E94251420E030E040E85FE3EB
:101450000E9438159B01AC01C301B2010E94A41582
:101460009B01AC01C701B6010E9437153B016C011D
:10147000FE01E05CFF4FE080F18002811381970163
:10148000A8010E944C16181614F473018601C701B6
:10149000D8018CAF9DAFAEAFBFAF3FEF831A930AB9
:1014A000A30AB30A8CAA9DAAAEAABFAACCACDDAC93
:1014B000EEACFFACC701B6010E941D166CA37DA364
:1014C0008EA39FA3A701960160E074E284E799E4EC
:1014D0000E94A4156C8B7D8B8E8B9F8B2A81211192
:1014E00007C0DC01CB01B0588C8B9D8BAE8BBF8BC2
:1014F000DF91CF911F910F91FF90EF90DF90CF90F0
:10150000BF90AF909F908F907F906F905F904F9023
:101510000895CF93DF93EC018AE091E0998388836B
:101520006B831C861D861E861F86188A198A1A8A56
:101530001B8A1C8A1D8A1E8A1F8A80E090E0A0E810
:10154000BFE3888F998FAA8FBB8F1C8E1D8E1E8E36
:101550001F8E88A399A3AAA3BBA31CA21DA21EA28F
:101560001FA261E070E07DA76CA73FEF3FA718A620
:1015700019A61AA61BA64C832D8324E02E8325E0F2
:101580002F831EA61CAA1DAA1EAA1FAA18AE19AE3A
:101590001AAE1BAE1CAE1DAE1EAE1FAEFE01E05C51
:1015A000FF4F80839183A283B3831A8218861986A2
:1015B0001A861B86CE010E94570340E050E060E887
:1015C0007FE3CE01DF91CF910C9457074F925F924A
:1015D0006F927F92AF92BF92CF92DF92EF92FF9283
:1015E0000F931F93CF93DF93EC015A018B019A0164
:1015F000AB016C897D898E899F890E94BF138823E6
:1016000009F44CC0C88CD98CEA8CFB8C26013701BC
:1016100077FA709477F87094A3019201B501C8012C
:101620000E94BF1387FD0BC0A7019601B501C80139
:101630000E944C1618162CF06501780102C0730147
:10164000620120E030E0A901C701B6010E94BF138A
:10165000811105C01CA21DA21EA21FA21BC0A701B2
:10166000960160E074E284E799E40E94A4159F77F4
:101670000E941D166CA37DA38EA39FA311E020E002
:1016800030E0A901C701B6010E944C1618160CF0F3
:1016900010E01A83CC8ADD8AEE8AFF8ADF91CF912F
:1016A0001F910F91FF90EF90DF90CF90BF90AF9080
:1016B0007F906F905F904F900895009769F0FC01C4
:1016C00001900020E9F73197AF01481B590BBC018D
:1016D00084EA91E00C94600880E090E008950F9314
:1016E0001F93CF93DF938C01C0E0D0E0F801EC0FA3
:1016F000FD1F6491662341F084EA91E00E94030497
:10170000892B11F02196F2CFCE01DF91CF911F915D
:101710000F910895CF93DF930E946F0BEC018EE33E
:1017200091E00E945D0B8C0F9D1FDF91CF9108957A
:101730008F929F92AF92BF920F931F93CF93DF939D
:10174000CDB7DEB7A1970FB6F894DEBF0FBECDBF01
:1017500019A2423008F44AE08E010F5D1F4F842E1B
:10176000912CA12CB12CA50194010E94B116E62F59
:10177000B901CA0101501109EA3014F4E05D01C059
:10178000E95CD801EC93232B242B252B61F7C801AE
:101790000E945D0BA1960FB6F894DEBF0FBECDBFC1
:1017A000DF91CF911F910F91BF90AF909F908F903D
:1017B0000895CF92DF92EF92FF92CF93DF936B0168
:1017C0007C016DE284EA91E00E940304EC0166274B
:1017D0007727CB016C197D098E099F094AE00E9489
:1017E000980B8C0F9D1FDF91CF91FF90EF90DF90B2
:1017F000CF900895CF93DF9397FF03C00E94D90B3A
:1018000003C04AE00E94980BEC018EE391E00E9435
:101810005D0B8C0F9D1FDF91CF910895FC01A1E41A
:10182000B2E012968C911297828313968C91139743
:10183000838314968C911497848315968C911597B5
:10184000858316968C911697868317968C91179799
:10185000878318968C911897808719968C91199781
:1018600081871A968C911A9782871B968C911B9769
:1018700083871C964D915D916D917C911F97448754
:1018800055876687778750964D915D916D917C91D4
:101890005397408B518B628B738B54964D915D9116
:1018A0006D917C915797448B558B668B778B5896AF
:1018B0004D915D916D917C915B97408F518F628FBF
:1018C000738F5C964D915D916D917C915F97448F84
:1018D000558F668F778F90964D915D916D917C912C
:1018E000939740A351A362A373A394964D915D91E6
:1018F0006D917C91979744A355A366A377A398967F
:101900004D915D916D917C919B9740A751A762A7E6
:1019100073A79C968D919C919D9795A784A79E9661
:101920008C919E9786A79F968C919F9787A7D0961C
:101930008D919C91D19791AB80ABD2968D919C91DA
:10194000D39793AB82ABD4964D915D916D917C9181
:10195000D79744AB55AB66AB77ABD8964D915D91BD
:101960006D917C91DB9740AF51AF62AF73AFDC9666
:101970008D919D910D90BC91A02D84AF95AFA6AF98
:10198000B7AF4091810250918202609183027091C1
:101990008402DF01A05CBF4F4D935D936D937C93F8
:1019A0001397CF010895CF93DF930E945D0BEC0155
:1019B0008EE391E00E945D0B8C0F9D1FDF91CF9114
:1019C000089590E0FC01E45CFD4F2491FC01E05B94
:1019D000FD4F3491FC01E259FD4FE491EE2309F4EF
:1019E0003CC0222339F1233091F038F42130A9F0A2
:1019F000223001F584B58F7D12C0273091F0283058
:101A0000A1F02430B9F4809180008F7D03C08091D3
:101A100080008F77809380000DC084B58F7784BD60
:101A200009C08091B0008F7703C08091B0008F7D96
:101A30008093B000F0E0EE0FFF1FEC59FD4FA59131
:101A4000B4919FB7F894611104C08C9130953823FC
:101A500002C0EC913E2B3C939FBF0895CF93DF9340
:101A600090E0FC01E05BFD4F2491FC01E259FD4F49
:101A70008491882361F190E0880F991FFC01EE5C4E
:101A8000FD4FC591D491FC01EC59FD4FA591B49146
:101A9000611109C09FB7F8948881209582238883BB
:101AA000EC912E230BC0623061F49FB7F8948881CB
:101AB000322F309583238883EC912E2B2C939FBF5C
:101AC00006C08FB7F894E8812E2B28838FBFDF9153
:101AD000CF9108953FB7F8948091A0019091A10112
:101AE000A091A201B091A30126B5A89B05C02F3FEC
:101AF00019F00196A11DB11D3FBFBA2FA92F982F34
:101B00008827820F911DA11DB11DBC01CD0142E0AE
:101B1000660F771F881F991F4A95D1F70895CF92B6
:101B2000DF92EF92FF92CF93DF93EC010E946A0D58
:101B30006B017C0188A599A5AAA5BBA5B701A60143
:101B4000481B590B6A0B7B0B8CA19DA1AEA1BFA1B9
:101B5000481759076A077B07F8F02A818C859D850D
:101B6000AE85BF85222321F00196A11DB11D03C0C2
:101B70000197A109B1098C879D87AE87BF874C85E6
:101B80005D856E857F85CE010E941203C8A6D9A609
:101B9000EAA6FBA681E001C080E0DF91CF91FF9033
:101BA000EF90DF90CF90089580918D0290918E02FA
:101BB000009711F00E94901780918B0287FD03C05F
:101BC00060E00C942E0D0895789484B5826084BDF5
:101BD00084B5816084BD85B5826085BD85B5816031
:101BE00085BD80916E00816080936E0010928100AF
:101BF000809181008260809381008091810081606A
:101C0000809381008091800081608093800080912A
:101C1000B10084608093B1008091B00081608093B6
:101C2000B00080917A00846080937A0080917A007D
:101C3000826080937A0080917A00816080937A003C
:101C400080917A00806880937A001092C100E091C0
:101C5000B401F091B50182E08083E091B401F0918C
:101C6000B5011082E091B001F091B1011082E091D4
:101C7000B201F091B30180E180831092BC01E09148
:101C8000B801F091B90186E08083E091B601F0914E
:101C9000B701808180618083E091B601F091B70146
:101CA000808188608083E091B601F091B7018081E6
:101CB00080688083E091B601F091B70180818F7DCB
:101CC000808361E082E00E942E0D61E083E00E944B
:101CD0002E0D61E08FE00E942E0D60E08FE00E94EB
:101CE000E10C60E082E00E94E10C60E083E00E9491
:101CF000E10C61E083E10E942E0D60E083E10E942F
:101D0000E10C61E089E00E942E0D61E085E00E9417
:101D10002E0D61E08CE00E942E0D61E086E00E94B5
:101D20002E0D61E083E10E94E10C20E030E04AEFFB
:101D300054E46091590270915A0280915B02909133
:101D40005C020E94BF13882309F453C080E090E036
:101D5000AAEFB4E48093590290935A02A0935B02D5
:101D6000B0935C0280E090E0AAEFB3E4809381023C
:101D700090938202A0938302B093840280917502B3
:101D800090917602A0917702B09178021816190608
:101D90001A061B0674F560915502709156028091E7
:101DA0005702909158029B01AC010E9425146B01CF
:101DB0007C0160915D0270915E0280915F02909162
:101DC00060029B01AC010E9438159B01AC01C70168
:101DD000B6010E94A4150E941616609375027093B6
:101DE0007602809377029093780281E492E00E94D9
:101DF0003C0940E050E06FE274E481E492E00E942C
:101E0000E60A61E089E00E94E10C80918B0287FD87
:101E100008C061E00E942E0D60E080918B020E945C
:101E2000E10C81E08093860261E089E00E94E10C90
:101E300061E085E00E94E10C84EA91E00E949E014D
:101E4000181619060CF03FC284EA91E00E947C014A
:101E5000C82F682F84EA91E00E94030480919401C6
:101E6000909195018F3391055CF49C012F5F3F4F5A
:101E70003093950120939401FC01EC5AFE4FC083EE
:101E8000CA3011F0CD30C1F6E0919401F091950186
:101E9000EC5AFE4F1082809154018B3309F40AC230
:101EA00040E050E060E87FEB8EE40E94B2050E94C3
:101EB00016166F3F2FEF720709F462C0209154018C
:101EC0002E3409F05DC0C0909601D0909701E0904B
:101ED0009801F0909901CB01770FAA0BBB0B8C15E1
:101EE0009D05AE05BF0539F084E292E00E946F0BBC
:101EF000C701B6012FC06AE270E084E591E00E945C
:101F00001E18892B09F4D6C1E4E5F1E0C0E09F0179
:101F10002455314091919A3211F0C927F8CF60E0F1
:101F200070E0C9018B5A9E4F0E944C120E941616F7
:101F30002C2FCC0F330B2617370779F087E192E06F
:101F40000E946F0B609196017091970180919801AA
:101F5000909199010E94FA0BADC1809196019091E8
:101F60009701A0919801B09199010196A11DB11D11
:101F70008093960190939701A0939801B093990153
:101F800040E050E060E87FEB87E40E94B2050E94E9
:101F900016166230710589F01CF477FF45C087C0C2
:101FA0006630710509F47DC06730710509F47DC0A4
:101FB0006430710509F07BC037C040E050E0BA01E1
:101FC00086E40E94B2054B015C0140E050E0BA019A
:101FD0008CE40E94B2050E9416166B017C01EB0195
:101FE00040E050E0BA0184E50E94B2050E94161656
:101FF0002B013C01672B51F0C501B4010E9416165C
:10200000AB01B2018AE090E00E94DA07CD2B09F41F
:102010004EC0C501B4010E941616AB01B6018BE09B
:1020200090E00E94DA0743C040E050E0BA0186E445
:102030000E94B2054B015C0140E050E0BA018CE423
:102040000E94B2050E9416166B017C01EB0140E074
:1020500050E0BA0184E50E94B2050E94161661158F
:10206000710571F0072E000C880B990B0E94C613A6
:10207000AB01BC01950184018AE090E00E947204EA
:10208000CD2BA9F0B601DD0C880B990B0E94C6136D
:10209000AB01BC01950184018BE090E00E947204C9
:1020A00006C081E080939A0102C010929A0140E03C
:1020B00050E060E87FEB8DE40E94B2050E941616A6
:1020C0006531710509F4C5C0D4F46131710509F4B5
:1020D000B4C04CF46430710509F478C06530710502
:1020E00009F47CC0E7C06331710509F4ADC00CF0A0
:1020F000ADC061E089E00E94E10C61E0A3C06E36F2
:10210000710509F4ADC0ECF56631710509F4A3C0A1
:102110006436710509F0CEC081EF91E00E946F0B2B
:1021200081E491E00E94D30C87EE91E00E948A0B3B
:1021300089EC91E00E948A0B89E991E00E948A0B68
:1021400084E891E00E948A0B8EE691E00E948A0B5F
:1021500084E591E00E948A0B89E391E00E948A0B5A
:102160008EE191E00E948A0B82E091E00E948A0B4E
:1021700088EE90E00E948A0B83EC90E00E948A0B2C
:1021800099C0683C710509F485C0693C710509F482
:1021900086C06237710509F08DC040E050E0BA0199
:1021A0008CE491E00E94FC0440E050E0BA0182E53A
:1021B00091E00E94FC0440E050E46CE176E48EE49F
:1021C00091E00E94FC0480E591E066C060E082E05E
:1021D0000E94E10C60E083E00E94E10C40E050E0EE
:1021E000BA0182E40E94B2054B015C0140E050E07C
:1021F000BA0187E40E94B2056B017C0140E050E027
:10220000BA0182E50E94B2052B013C01C501B4016F
:102210000E9416164B015C01C701B6010E941616FA
:102220006B017C01C301B2010E941616DC01CB01D7
:10223000A401B6010E9403063DC060E089E00E944F
:10224000E10C60E085E009C061E001C060E083E08E
:1022500004C061E001C060E082E00E94E10C2AC09D
:1022600060919601709197018091980190919901E8
:102270000E94C613AB01BC018EE40E94B2050E940D
:10228000161660939601709397018093980190932E
:10229000990110C081E491E00E94D30C0BC04AE088
:1022A00062E070E080E090E00E94980B8EE391E0A5
:1022B0000E945D0B109295011092940180E392E0D0
:1022C0000E948A0BB9CD80919A018823E1F140E008
:1022D00050E06AE774E481E492E00E94E60A8091AB
:1022E0004D0290914E02A0914F02B09150020A9679
:1022F000A11DB11D409151025091520260915302B3
:102300007091540284179507A607B70761F0809370
:10231000510290935202A0935302B093540281E46D
:1023200092E00E943C098091650290916602A09122
:102330006702B0916802892B8A2B8B2B21F081E4F4
:1023400092E00E948F0D0E94AA0176CD1092A70103
:102350001092A60188EE93E0A0E0B0E08093A8017F
:102360009093A901A093AA01B093AB0184E291E0FC
:102370009093A5018093A40185EC90E09093B10126
:102380008093B00184EC90E09093B3018093B2010C
:1023900080EC90E09093B5018093B40181EC90E0E3
:1023A0009093B7018093B60182EC90E09093B901CD
:1023B0008093B80186EC90E09093BB018093BA01C2
:1023C0001092BD011092BE011092BF011092C00187
:1023D0002DE04CE062E081E492E00E94890A1092D4
:1023E000860210928C021092930210929402109224
:1023F00095021092960281E08093920280938F0260
:102400001092900292E0909391028093850280E373
:1024100090E090938A02809389020E94F81690932C
:102420008E0280938D02009761F020E3FC011192EF
:102430002A95E9F780E190E09093880280938702E3
:1024400008C010928A02109289021092880210929B
:1024500087028FE080938B0280918602882341F06F
:1024600061E08FE00E942E0D60E08FE00E94E10CA1
:10247000EDE7F2E0E491F0E0EE0FFF1FEC59FD4FC5
:10248000859194919093980280939702EFE5F2E002
:10249000E491E09399020895A0E0B0E0E2E5F2E172
:1024A0000C94F714EC016B016115710519F0FB0137
:1024B000918380837E01FFEFEF1AFF0A0881802F4E
:1024C00090E00E949E13892B11F0E701F3CF0D32AB
:1024D00039F47E0182E0E80EF11C098111E008C0A8
:1024E0000B3229F47E0192E0E90EF11C098110E023
:1024F000E701219743E050E060E970E0CE010E94DF
:10250000A713892BC1F4239645E050E06BE870E0F7
:10251000CE010E94A713892B09F42596C114D1047A
:1025200019F0F601D183C0831111F6C060E070E0AC
:1025300080E89FE7FAC043E050E068E870E0CE0131
:102540000E94A713892B59F4C114D10409F4E9C0DE
:10255000F2E0EF0EF11CF601F182E082E2C020E031
:1025600030E0A901C0E0D0E0F70180EDA82EA00E78
:1025700089E08A1530F1912F9260B92E812F8870F1
:1025800012FF04C0811124C0219622C0811121971D
:10259000A5E0B0E00E94E614DC01CB01880F991F92
:1025A000AA1FBB1F9C01AD012A0D311D411D511DEC
:1025B000283989E93807480789E1580748F0166043
:1025C00006C09EEFA9120AC013FD40C01860B12ECC
:1025D0008FEFE81AF80A00811B2DC6CF802F8F7D60
:1025E0008534A1F580818D3211F4106106C08B32E3
:1025F00021F0319661E070E004C08181329662E0A2
:1026000070E080538A3018F0E61BF70B1FC060E0C3
:1026100070E060389CE079075CF4DB01AA0FBB1F17
:10262000AA0FBB1F6A0F7B1F660F771F680F711DF4
:102630003196DF0111978C9180538A3050F314FF4B
:1026400003C0719561957109C60FD71F11FF08C0AE
:10265000C114D10429F0CF010197F6019183808341
:10266000CA01B9010E94C413212F2370233019F02D
:102670004B015C0106C04B015C01B7FAB094B7F89E
:10268000B09420E030E0A901C501B4010E94BF135D
:10269000882309F43EC0D7FF06C0D195C195D10962
:1026A00007EA10E002C00FEB10E06801F8E1CF1A72
:1026B000D10890E2E92EF12CCE15DF0574F0F80177
:1026C0002591359145915491C501B4010E9425147D
:1026D0004B015C01CE19DF09EFCF04501109F594CD
:1026E000E7940C151D0541F78A2D880F8B2D881F47
:1026F0008F3F49F020E030E0A901C501B4010E94FC
:10270000BF13811106C082E290E090939B028093F8
:102710009A02C501B40109C060E070E080E89FEF53
:1027200004C060E070E080EC9FE7CDB7DEB7ECE07E
:102730000C941315662777270C944C1291110C9466
:102740009214803219F089508550C8F70895FB0122
:10275000DC014150504088F08D9181341CF08B3564
:102760000CF4805E659161341CF06B350CF4605E96
:10277000861B611171F3990B0895881BFCCF0E9491
:10278000011408F481E00895E89409C097FB3EF431
:1027900090958095709561957F4F8F4F9F4F9923AE
:1027A000A9F0F92F96E9BB279395F695879577952C
:1027B0006795B795F111F8CFFAF4BB0F11F460FFEC
:1027C0001BC06F5F7F4F8F4F9F4F16C0882311F044
:1027D00096E911C0772321F09EE8872F762F05C058
:1027E000662371F096E8862F70E060E02AF09A95F3
:1027F000660F771F881FDAF7880F9695879597F9E8
:102800000895990F0008550FAA0BE0E8FEEF161681
:102810001706E807F907C0F012161306E407F507D4
:1028200098F0621B730B840B950B39F40A2661F048
:10283000232B242B252B21F408950A2609F4A140EB
:10284000A6958FEF811D811D08950E9438140C9468
:10285000AC140E949E1438F00E94A51420F0952319
:1028600011F00C9495140C949B1411240C94E01406
:102870000E94BD1470F3959FC1F3950F50E0551F52
:10288000629FF001729FBB27F00DB11D639FAA27C5
:10289000F00DB11DAA1F649F6627B00DA11D661F14
:1028A000829F2227B00DA11D621F739FB00DA11D35
:1028B000621F839FA00D611D221F749F3327A00DEF
:1028C000611D231F849F600D211D822F762F6A2F8B
:1028D00011249F5750409AF0F1F088234AF0EE0FF0
:1028E000FF1FBB1F661F771F881F91505040A9F71D
:1028F0009E3F510580F00C9495140C94E0145F3FBA
:10290000E4F3983ED4F3869577956795B795F79558
:10291000E7959F5FC1F7FE2B880F911D96958795D0
:1029200097F9089599278827089597F99F6780E870
:1029300070E060E008959FEF80EC089500240A9411
:102940001616170618060906089500240A9412168A
:102950001306140605060895092E0394000C11F4BD
:10296000882352F0BB0F40F4BF2B11F460FF04C06A
:102970006F5F7F4F8F4F9F4F089557FD9058440FC3
:10298000551F59F05F3F71F04795880F97FB991FCE
:1029900061F09F3F79F0879508951216130614068B
:1029A000551FF2CF4695F1DF08C016161706180618
:1029B000991FF1CF86957105610508940895E894F3
:1029C000BB2766277727CB0197F908950E94281522
:1029D000A59F900DB49F900DA49F800D911D112473
:1029E00008952F923F924F925F926F927F928F92B3
:1029F0009F92AF92BF92CF92DF92EF92FF920F938E
:102A00001F93CF93DF93CDB7DEB7CA1BDB0B0FB697
:102A1000F894DEBF0FBECDBF09942A883988488854
:102A20005F846E847D848C849B84AA84B984C884EA
:102A3000DF80EE80FD800C811B81AA81B981CE0FE1
:102A4000D11D0FB6F894DEBF0FBECDBFED010895C6
:102A5000A29FB001B39FC001A39F700D811D1124DF
:102A6000911DB29F700D811D1124911D0895505824
:102A7000BB27AA270E944F150C94AC140E949E14E9
:102A800038F00E94A51420F039F49F3F19F426F481
:102A90000C949B140EF4E095E7FB0C949514E92F2D
:102AA0000E94BD1458F3BA1762077307840795078D
:102AB00020F079F4A6F50C94DF140EF4E0950B2EBB
:102AC000BA2FA02D0B01B90190010C01CA01A00180
:102AD0001124FF27591B99F0593F50F4503E68F1DB
:102AE0001A16F040A22F232F342F4427585FF3CF1C
:102AF000469537952795A795F0405395C9F77EF4ED
:102B00001F16BA0B620B730B840BBAF09150A1F035
:102B1000FF0FBB1F661F771F881FC2F70EC0BA0FBB
:102B2000621F731F841F48F4879577956795B79543
:102B3000F7959E3F08F0B0CF9395880F08F099273E
:102B4000EE0F9795879508950E94B8150C94AC14D4
:102B50000E94A51458F00E949E1440F029F45F3F93
:102B600029F00C94951451110C94E0140C949B14BE
:102B70000E94BD1468F39923B1F3552391F3951B7B
:102B8000550BBB27AA2762177307840738F09F5F8E
:102B90005F4F220F331F441FAA1FA9F335D00E2EFB
:102BA0003AF0E0E832D091505040E695001CCAF768
:102BB0002BD0FE2F29D0660F771F881FBB1F26172B
:102BC00037074807AB07B0E809F0BB0B802DBF0102
:102BD000FF2793585F4F3AF09E3F510578F00C94D1
:102BE00095140C94E0145F3FE4F3983ED4F386957B
:102BF00077956795B795F7959F5FC9F7880F911DF2
:102C00009695879597F90895E1E0660F771F881FDD
:102C1000BB1F621773078407BA0720F0621B730B90
:102C2000840BBA0BEE1F88F7E09508950E941D16DD
:102C30006894B1110C94E01408950E94C51488F0B2
:102C40009F5798F0B92F9927B751B0F0E1F0660F70
:102C5000771F881F991F1AF0BA95C9F714C0B130B1
:102C600091F00E94DF14B1E008950C94DF14672FF7
:102C7000782F8827B85F39F0B93FCCF386957795E0
:102C80006795B395D9F73EF49095809570956195C9
:102C90007F4F8F4F9F4F08950E94011408F48FEFCC
:102CA000089519F416F40C949B140C949C160E942D
:102CB000C514B8F39923C9F3B6F39F57550B87FF93
:102CC0000E94AA160024A0E640EA9001805856957A
:102CD000979528F4805C660F771F881F20F02617D1
:102CE0003707480730F4621B730B840B2029312906
:102CF0004A2BA69517940794202531254A2758F783
:102D0000660F771F881F20F026173707480730F413
:102D1000620B730B840B200D311D411DA09581F7B3
:102D2000B901842F9158880F9695879508950E9430
:102D30000114880B990B08959F3F31F0915020F4B6
:102D4000879577956795B795880F911D9695879587
:102D500097F9089591505040660F771F881FD2F75A
:102D60000895A1E21A2EAA1BBB1BFD010DC0AA1FCC
:102D7000BB1FEE1FFF1FA217B307E407F50720F0E4
:102D8000A21BB30BE40BF50B661F771F881F991F5F
:102D90001A9469F760957095809590959B01AC01A8
:102DA000BD01CF010895052E97FB1EF400940E94EB
:102DB000EA1657FD07D00E94B11607FC03D04EF467
:102DC0000C94EA1650954095309521953F4F4F4F02
:102DD0005F4F089590958095709561957F4F8F4FC7
:102DE0009F4F0895EE0FFF1F0590F491E02D099479
:102DF0000F931F93CF93DF938230910510F482E0FD
:102E000090E0E0919E02F0919F0220E030E0A0E08F
:102E1000B0E0309719F14081518102811381481748
:102E20005907C8F08417950769F4109731F0129686
:102E30000C93129713961C9327C000939E02109335
:102E40009F0222C02115310519F04217530718F4CB
:102E50009A01BD01EF01DF01F801DBCF211531053A
:102E6000F9F0281B390B2430310580F48A819B81CD
:102E70006115710521F0FB019383828304C0909357
:102E80009F0280939E02FE01329644C0FE01E20F33
:102E9000F31F8193919322503109398328833AC0DB
:102EA00020919C0230919D02232B41F4209102013C
:102EB0003091030130939D0220939C0220910001E8
:102EC000309101012115310541F42DB73EB74091F4
:102ED000040150910501241B350BE0919C02F091F7
:102EE0009D02E217F307A0F42E1B3F0B28173907AA
:102EF00078F0AC014E5F5F4F2417350748F04E0F56
:102F00005F1F50939D0240939C028193919302C056
:102F1000E0E0F0E0CF01DF91CF911F910F91089594
:102F2000CF93DF93009709F481C0FC01329713829D
:102F30001282A0919E02B0919F02109781F420818D
:102F40003181820F931F20919C0230919D0228179E
:102F5000390751F5F0939D02E0939C0267C0ED01A3
:102F600020E030E0CE17DF0740F44A815B819E010C
:102F700041155105F1F0EA01F5CFD383C2834081B9
:102F80005181840F951FC817D90759F488819981F9
:102F9000840F951F0296918380838A819B819383FE
:102FA00082832115310529F4F0939F02E0939E025C
:102FB0003DC0E901FB83EA8349915991C40FD51FB4
:102FC000EC17FD0761F480819181840F951F0296B3
:102FD000E90199838883828193819B838A83E0E0DE
:102FE000F0E012968D919C911397009719F0FD01D6
:102FF000DC01F7CF8D919C9111979D012E5F3F4F82
:10300000820F931F20919C0230919D02281739074F
:1030100069F4309729F410929F0210929E0202C028
:1030200013821282B0939D02A0939C02DF91CF91F4
:10303000089581E090E0F8940C942918FC018191A6
:10304000861721F08823D9F7992708953197CF0162
:10305000089511E0C2E4D1E004C0FE010E94F2161E
:0C3060002196C334D107C9F7F894FFCFC4
:10306C000000A0028000000000008B035703A9039E
:10307C001203FC02C402A3026F024E02F801B40157
:10308C0000000000030460086D0150049E017C01E7
:10309C0090016E616E00696E66006F7666000D0AB7
:1030AC0000762E3230313930323131005400460046
:0430BC0052454C002D
:107E0000112484B714BE81FFF0D085E080938100F7
:107E100082E08093C00088E18093C10086E0809377
:107E2000C20080E18093C4008EE0C9D0259A86E02C
:107E300020E33CEF91E0309385002093840096BBD3
:107E4000B09BFECF1D9AA8958150A9F7CC24DD24C4
:107E500088248394B5E0AB2EA1E19A2EF3E0BF2EE7
:107E6000A2D0813461F49FD0082FAFD0023811F036
:107E7000013811F484E001C083E08DD089C08234E0
:107E800011F484E103C0853419F485E0A6D080C0E4
:107E9000853579F488D0E82EFF2485D0082F10E0AE
:107EA000102F00270E291F29000F111F8ED06801E7
:107EB0006FC0863521F484E090D080E0DECF843638
:107EC00009F040C070D06FD0082F6DD080E0C81688
:107ED00080E7D80618F4F601B7BEE895C0E0D1E017
:107EE00062D089930C17E1F7F0E0CF16F0E7DF06D8
:107EF00018F0F601B7BEE89568D007B600FCFDCFD4
:107F0000A601A0E0B1E02C9130E011968C91119780
:107F100090E0982F8827822B932B1296FA010C0160
:107F200087BEE89511244E5F5F4FF1E0A038BF0790
:107F300051F7F601A7BEE89507B600FCFDCF97BE46
:107F4000E89526C08437B1F42ED02DD0F82E2BD052
:107F50003CD0F601EF2C8F010F5F1F4F84911BD097
:107F6000EA94F801C1F70894C11CD11CFA94CF0C13
:107F7000D11C0EC0853739F428D08EE10CD085E9AC
:107F80000AD08FE07ACF813511F488E018D01DD067
:107F900080E101D065CF982F8091C00085FFFCCF94
:107FA0009093C60008958091C00087FFFCCF809118
:107FB000C00084FD01C0A8958091C6000895E0E648
:107FC000F0E098E1908380830895EDDF803219F02E
:107FD00088E0F5DFFFCF84E1DECF1F93182FE3DFCA
:107FE0001150E9F7F2DF1F91089580E0E8DFEE27F6
:047FF000FF270994CA
:027FFE00040479
:0400000300007E007B
:00000001FF
