:100000000C9427010C944F010C944F010C944F0158
:100010000C944F010C944F010C944F010C944F0120
:100020000C944F010C944F010C944F010C944F0110
:100030000C944F010C944F010C944F010C944F0100
:100040000C94460B0C944F010C94140B0C94EE0A78
:100050000C944F010C944F010C944F010C944F01E0
:100060000C944F010C944F014E414E494E49545946
:10007000494E46CDCCCC3D0AD7233C17B7D1387773
:10008000CC2B329595E6241FB14F0A000020410089
:1000900000C84200401C4620BCBE4CCA1B0E5AAED3
:1000A000C59D7400000000240027002A0000000005
:1000B0000800020100000304070000000000000027
:1000C000004D3131343B202D207265706F727420E9
:1000D000706F736974696F6E20616E642066656508
:1000E0006472617465004D3130303B202D2074689E
:1000F00069732068656C70206D6573736167650056
:100100004D32323B202D207475726E207269676803
:1001100074206C61736572206F6666004D32313BEE
:10012000202D207475726E207269676874206C616E
:10013000736572206F6E004D32303B202D20747538
:10014000726E206C656674206C61736572206F66D8
:1001500066004D31393B202D207475726E206C6520
:100160006674206C61736572206F6E004D31383B90
:10017000202D2064697361626C65206D6F746F72ED
:1001800073004D31373B202D20656E61626C652018
:100190006D6F746F727300473031205B5428737435
:1001A000657073295D205B4C287374657073295DDD
:1001B000205B46286665656472617465295D3B2035
:1001C0002D206D6F766500473030205B54287374A6
:1001D000657073295D3B202D206C696E656172200E
:1001E0006D6F766500436F6D6D616E64733A0046A6
:1001F00061625363616E20472D434F44444520495B
:100200006E7465727072657465722056657273697A
:100210006F6E3A20003E0001020408102040800169
:10022000020408102001020408102000000000252C
:100230000028002B00040404040404040402020245
:1002400002020203030303030300900BBA0F1124FD
:100250001FBECFEFD8E0DEBFCDBF22E0A0E4B1E00B
:1002600001C01D92A938B207E1F711E0A0E0B1E0AA
:10027000ECEAFBE202C005900D92A034B107D9F779
:1002800011E0C6E2D1E004C02197FE010E94711482
:10029000C532D107C9F70E94390C0C94C9150C94CA
:1002A0000000FC01A9E2B2E012968C9112978283C1
:1002B00013968C911397838314968C91149784834F
:1002C00015968C911597858316968C911697868333
:1002D00017968C911797878318968C91189780871B
:1002E00019968C91199781871A968C911A97828703
:1002F0001B968C911B9783871C964D915D916D91F8
:100300007C911F97448755876687778750964D91D4
:100310005D916D917C915397408B518B628B738B68
:1003200054964D915D916D917C915797448B558B6F
:10033000668B778B58964D915D916D917C915B9713
:10034000408F518F628F738F5C964D915D916D914F
:100350007C915F97448F558F668F778F90964D91E4
:100360005D916D917C91939740A351A362A373A378
:1003700094964D915D916D917C91979744A355A36F
:1003800066A377A398964D915D916D917C919B9713
:1003900040A751A762A773A79C968D919C919D97AA
:1003A00095A784A79E968C919E9786A79F968C91E1
:1003B0009F9787A7D0968D919C91D19791AB80AB59
:1003C000D2968D919C91D39793AB82ABD4964D915D
:1003D0005D916D917C91D79744AB55AB66AB77AB94
:1003E000D8964D915D916D917C91DB9740AF51AF67
:1003F00062AF73AFDC968D919D910D90BC91A02D55
:1004000084AF95AFA6AFB7AF4091690250916A0231
:1004100060916B0270916C02DF01A05CBF4F4D9345
:100420005D936D937C931397CF010895AF92BF9224
:10043000CF92DF92EF92FF920F931F93CF93DF93B0
:100440006C017B018B01040F151FEB015E01AE18DF
:10045000BF08C017D10759F06991D601ED91FC9101
:100460000190F081E02DC6010995892B79F7C5012E
:10047000DF91CF911F910F91FF90EF90DF90CF9080
:10048000BF90AF900895FC01538D448D252F30E02F
:10049000842F90E0821B930B541710F0CF96089591
:1004A00001970895FC01918D828D981761F0A28DBE
:1004B000AE0FBF2FB11D5D968C91928D9F5F9F7384
:1004C000928F90E008958FEF9FEF0895FC01918D3A
:1004D000828D981731F0828DE80FF11D858D90E0A7
:1004E00008958FEF9FEF0895FC01918D228D892F44
:1004F00090E0805C9F4F821B91098F73992708952C
:100500008CE891E00E94740221E0892B09F420E03C
:10051000822F089580E090E0892B29F00E948002CC
:1005200081110C9400000895FC01A48DA80FB92F2F
:10053000B11DA35ABF4F2C91848D90E001968F730B
:100540009927848FA689B7892C93A089B1898C912A
:10055000837080648C93938D848D981306C0028879
:10056000F389E02D80818F7D80830895EF92FF9243
:100570000F931F93CF93DF93EC0181E0888F9B8DC6
:100580008C8D98131AC0E889F989808185FF15C080
:100590009FB7F894EE89FF896083E889F9898081A3
:1005A0008370806480839FBF81E090E0DF91CF9172
:1005B0001F910F91FF90EF900895F62E0B8D10E094
:1005C0000F5F1F4F0F731127E02E8C8D8E110CC003
:1005D0000FB607FCFACFE889F989808185FFF5CF4E
:1005E000CE010E949402F1CFEB8DEC0FFD2FF11D97
:1005F000E35AFF4FF0829FB7F8940B8FEA89FB898B
:1006000080818062CFCF0F931F93CF93DF938C01B4
:10061000D0E0C0E0F801EC0FFD1F6491662341F0CB
:100620008CE891E00E94B602892B11F02196F2CF5E
:10063000CE01DF91CF911F910F910895CF93DF935A
:10064000EC01888D8823B9F0AA89BB89E889F989EA
:100650008C9185FD03C0808186FD0DC00FB607FC1F
:10066000F7CF8C9185FFF2CF808185FFEDCFCE0152
:100670000E949402E9CFDF91CF91089590E0FC01B0
:10068000E355FF4F2491FC01E95EFD4F3491FC01DD
:10069000EB5CFD4FE491EE23C9F0222339F02330C7
:1006A00001F1A8F4213019F1223029F1F0E0EE0F28
:1006B000FF1FE55DFD4FA591B4918FB7F894EC91C4
:1006C000611126C030953E233C938FBF089527309B
:1006D000A9F02830C9F0243049F7809180008F7D3F
:1006E00003C0809180008F7780938000DFCF84B536
:1006F0008F7784BDDBCF84B58F7DFBCF8091B00039
:100700008F778093B000D2CF8091B0008F7DF9CFEA
:100710003E2BDACFCF93DF9390E0FC01E95EFD4FF3
:1007200024918B5C9D4FFC0184918823D1F090E053
:10073000880F991FFC01ED55FF4FA591B491FC0165
:10074000E55DFD4FC591D49161110EC09FB7F8943E
:100750008C91E22FE0958E238C932881E223E8830D
:100760009FBFDF91CF9108958FB7F894EC91E22B62
:10077000EC938FBFF6CF3FB7F894809145019091ED
:100780004601A0914701B091480126B5A89B05C03C
:100790002F3F19F00196A11DB11D3FBFBA2FA92F00
:1007A000982F8827BC01CD01620F711D811D911DFD
:1007B00042E0660F771F881F991F4A95D1F7089569
:1007C000CF93DF93FC012381222359F1EC0161E0F7
:1007D00084810E948A0361E08D810E948A038B815B
:1007E000843011F08830B1F461E08E810E948A0378
:1007F00061E08F810E948A038FA58F3F91F061E0B5
:100800000E948A036EA581E068278FA5DF91CF91B2
:100810000C943E03833011F0863071F761E08E81D5
:10082000E9CFDF91CF910895CF93DF93FC0123812E
:100830002223A9F0EC010190F081E02D0480F581E4
:10084000E02D60E009958FA58F3F49F061E00E949F
:100850008A036EA58FA5DF91CF910C943E03DF91A3
:10086000CF910895DC01ED91FC9124813581477091
:10087000552766277727415051096109710947308B
:1008800051056105710560F4FA01E75BFB4F0C94BB
:10089000711453045504570459045B045D045F0448
:1008A00061E0F901099465E0FCCF64E0FACF66E00D
:1008B000F8CF62E0F6CF6AE0F4CF68E0F2CF69E00B
:1008C000F0CFCF93DF93EC01CB01BA0126E030E00B
:1008D00040E050E00E94521462307105810591059C
:1008E00089F16CF46115710581059105D1F06130D4
:1008F000710581059105F9F0DF91CF91089564307C
:1009000071058105910561F124F16530710581055D
:10091000910591F7E881F9810480F581E02D66E089
:1009200006C0E881F9810480F581E02D64E0CE0104
:10093000DF91CF910994E881F9810480F581E02D60
:1009400065E0F5CFE881F9810480F581E02D61E073
:10095000EECFE881F9810480F581E02D63E0E7CFF7
:10096000E881F9810480F581E02D62E0E0CFDC01CF
:10097000ED91FC910480F581E02D437055276627A9
:100980007727423051056105710571F043305105FB
:100990006105710559F0413051056105710511F08E
:1009A00065E0099466E0FDCF6AE0FBCF69E0F9CF2E
:1009B000CF93DF93EC01CB01BA0123E030E040E0BC
:1009C00050E00E945214613071058105910599F043
:1009D0006230710581059105A9F0672B682B692BA1
:1009E000C1F4E881F9810480F581E02D64E0CE0155
:1009F000DF91CF910994E881F9810480F581E02DA0
:100A000061E0F5CFE881F9810480F581E02D62E0B5
:100A1000EECFDF91CF910895DC01ED91FC91048040
:100A2000F581E02D43705527662777274230510521
:100A30006105710571F0433051056105710559F08B
:100A4000413051056105710511F062E0099463E0E0
:100A5000FDCF61E0FBCF60E0F9CFCF93DF93EC01F6
:100A6000E881F9810480F581E02D8A8160E08111BF
:100A700062E0CE010995E881F9810480F581E02DDD
:100A80008A8161E0811163E0CE0109958CA59DA565
:100A90008230910538F0880F991F880F991F0597AC
:100AA0000197F1F7E881F9810480F581E02D8A81D1
:100AB00060E0811162E0CE01DF91CF910994CF9384
:100AC000DF93EC0120E030E0A9016C897D898E89FB
:100AD0009F890E94F21318162CF4E8A9F9A9DF9156
:100AE000CF910994EAA9FBA9FACFCF92DF92EF92B6
:100AF000FF920F931F93CF93DF93DC011396CC915A
:100B0000C43039F0C83059F1C33019F0C63049F15A
:100B1000C2E08C010C5F1F4FF12CE12CC62ED12CB2
:100B2000D1E0F8016481C6010E2C02C0959587952D
:100B30000A94E2F780FD6D270F5F1F4F80810E94AE
:100B40003E03BFEFEB1AFB0AEC1658F3DF91CF918F
:100B50001F910F91FF90EF90DF90CF900895C4E028
:100B6000D8CFC3E0D6CFDC011396EC911397E930D0
:100B700008F038C0F0E0E154FA4F0C947114C80545
:100B8000CE05D405DA05E005F205E605F205EC052B
:100B9000ED91FC910084F185E02D0994ED91FC919B
:100BA0000284F385E02DF9CFED91FC910484F58565
:100BB000E02DF3CFED91FC910684F785E02DEDCF8C
:100BC000ED91FC910088F189E02DE7CFED91FC914A
:100BD0000288F389E02DE1CFED91FC910488F5893D
:100BE000E02DDBCF0895CF92DF92EF92FF92CF936B
:100BF000DF93EC010E94BB036B017C0188A599A5E2
:100C0000AAA5BBA5B701A601481B590B6A0B7B0B14
:100C10008CA19DA1AEA1BFA1481759076A077B0708
:100C200028F18C859D85AE85BF852A812223D1F050
:100C30000196A11DB11D8C879D87AE87BF874C850E
:100C40005D856E857F85CE010E94B305C8A6D9A6B5
:100C5000EAA6FBA681E0DF91CF91FF90EF90DF90B5
:100C6000CF9008950197A109B109E5CF80E0F3CFB6
:100C70004F925F926F927F92AF92BF92CF92DF922C
:100C8000EF92FF920F931F93CF93DF93EC015A01E2
:100C90008B019A01AB016C897D898E899F890E94A5
:100CA0006511882379F1488C598C6A8C7B8C73018F
:100CB0006201F7FAF094F7F8F094A7019601B501F4
:100CC000C8010E94651187FD0CC0A3019201B50106
:100CD000C8010E94F21373016201181614F0650135
:100CE000780120E030E0A901C701B6010E9465113A
:100CF000811117C01CA21DA21EA21FA2CC8ADD8AD0
:100D0000EE8AFF8ADF91CF911F910F91FF90EF90B4
:100D1000DF90CF90BF90AF907F906F905F904F909B
:100D20000895A701960160E074E284E799E40E94C7
:100D30004A139F770E94C3136CA37DA38EA39FA326
:100D400011E020E030E0A901C701B6010E94F213D2
:100D500018160CF010E01A83D1CF4F925F926F9269
:100D60007F928F929F92AF92BF92CF92DF92EF923B
:100D7000FF920F931F93CF93DF93EC01C888D9881C
:100D8000EA88FB888C859D85AE85BF85C81AD90AFF
:100D9000EA0AFB0A6C897D898E899F899B01AC01D7
:100DA0000E94CB114B015C016C8D7D8D8E8D9F8DD2
:100DB0009B01AC010E94DE129B01AC01C501B40194
:100DC0000E944A130E94BC13C114D104E104F1042F
:100DD00009F0B1C062307105810591050CF0CBC0FE
:100DE0001CA21DA21EA21FA21C8A1D8A1E8A1F8A67
:100DF0001CAA1DAA1EAA1FAADF91CF911F910F91B5
:100E0000FF90EF90DF90CF90BF90AF909F908F902A
:100E10007F906F905F904F90089510161106120604
:100E20001306B4F46C157D058E059F051CF42A810C
:100E30002111A1C09B01AC0188279927DC01821BED
:100E4000930BA40BB50B8CAB9DABAEABBFAB93C000
:100E5000011511052105310509F48DC06C157D05BD
:100E60008E059F050CF087C08A81882309F483C012
:100E700030952095109501951F4F2F4F3F4F0CAB8C
:100E80001DAB2EAB3FAB77C0011511052105310518
:100E900009F471C08824992454018C189D08AE0867
:100EA000BF08681579058A059B050CF064C08A8126
:100EB000811161C0DDCFCCACDDACEEACFFACA701E5
:100EC0009601C701B6010E94DE122B013C01C5014B
:100ED000B4010E946C1120E030E040E850E40E9430
:100EE000CB1120E030E040E85FE30E94DE129B017E
:100EF000AC01C301B2010E944A139B01AC01C701BE
:100F0000B6010E94DD123B016C01FE01E05CFF4F67
:100F1000E080F180028113819701A8010E94F21301
:100F2000181614F473018601C701D8018CAF9DAF68
:100F3000AEAFBFAF3AC00CA91DA92EA93FA91C1482
:100F40001D041E041F040CF468CF101611061206AF
:100F500013060CF099CF0027112798010C191D09D1
:100F60002E093F0960177107820793070CF062CFC3
:100F70002A8121115FCF8CA89DA8AEA8BFA881149B
:100F80009104A104B10409F096CF88AD99ADAAAD42
:100F9000BBAD8CAF9DAFAEAFBFAF81E01C141D04E5
:100FA0001E041F040CF080E08A833FEF831A930A2B
:100FB000A30AB30A8CAA9DAAAEAABFAACCACDDAC88
:100FC000EEACFFACC701B6010E94C3136CA37DA3B6
:100FD0008EA39FA3A701960160E074E284E799E4E1
:100FE0000E944A136C8B7D8B8E8B9F8B2A812111E3
:100FF00003CF90586C8B7D8B8E8B9F8BFDCE61E0E9
:1010000082E00C943E038F929F92AF92BF92CF9258
:10101000DF92EF92FF92CF93DF93CDB7DEB72997A0
:101020000FB6F894DEBF0FBECDBF962F50E070E034
:1010300060E0592B682B6B01EE24FF24BC2DA52FFB
:10104000B60130E020E080916F0290917002281785
:101050003907C0F580917502F42E5A2FEB2E8823A4
:1010600071F0869FF001879FF00D1124EF2E8A9F6B
:10107000F00111245F2F849FC0011124F92EE0910B
:101080007B028091760290917702F0917802EF13C3
:10109000DBC0F901EE0FFF1FE20FF31F8E0F9F1F42
:1010A000E0917802E80FF92FF11DE082E0917902DA
:1010B000E80FF92FF11D508350917A02850F911D91
:1010C000FC01F0822F5F3F4F2831310509F0BBCF83
:1010D0008091760290917702892B09F480C0C090AC
:1010E0007C02D0907D02E0907E02F0907F020E9410
:1010F000BB036C157D058E059F0550F40E94BB0354
:1011000060937C0270937D0280937E0290937F02B5
:101110000E94BB03C0907C02D0907D02E0907E02D2
:10112000F0907F026C197D098E099F096C32714025
:1011300081059105A0F2F89480917102909172025C
:101140009A838983E0917602F0917702DF0111960C
:101150008081898790916D02E0918002F0918102F7
:1011600080918202992309F47BC09081982B988703
:101170009081809589238F838F818C8388E08B83F6
:1011800058856F8149853B812C8189819A81508363
:1011900047FD252F3A952083262F39F0441F00C0A4
:1011A00000006083000000C0F2CF38E04D91608302
:1011B0000000019761F7F0938102E0938002498774
:1011C0003B832C839A83898378940E94BB0360932A
:1011D0007C0270937D0280937E0290937F020E9436
:1011E000BB034B015C0184E6C82ED12CE12CF12C11
:1011F0000E94BB03681979098A099B09683E7340FC
:1012000081059105A8F321E0C21AD108E108F1088F
:1012100088EE880E83E0981EA11CB11CC114D10475
:10122000E104F10429F729960FB6F894DEBF0FBE4A
:10123000CDBFDF91CF91FF90EF90DF90CF90BF9027
:10124000AF909F908F9008956901CC0CDD1CCC0C61
:10125000DD1C8C0D9D1DE80FF92FF11D108220CF94
:101260009081982B98879081809589238F838F8197
:101270008E8388E08D8358856F8149853D812E81DD
:1012800089819A81508347FD252F00C000C02083AB
:1012900000C000C000C000C000C060830000262F56
:1012A0003A9541F0441F000000C000C000C000C0DB
:1012B00000C0E8CF38E04D9100C0608300C00197C6
:1012C00009F7F0938102E093800249873D832E83E2
:1012D00079CFFC0101900020E9F73197AF01481B5D
:1012E000590BBC018CE891E00C941602CF93DF936C
:1012F0000E940303EC0182E391E00E9469098C0FD4
:101300009D1FDF91CF910895CF92DF92EF92FF92D0
:10131000C0904A01D0904B010D2C000CEE08FF0844
:101320008CE491E0092E000CAA0BBB0BC80ED91E51
:10133000EA1EFB1E8CE491E082309105ECF0FC018A
:1013400020812223C9F0AC01092E000C660B770B1B
:101350004C155D056E057F057CF4263439F4019645
:10136000FF90EF90DF90CF900C94CA0F60E270E096
:101370000E94BE150196E0CF60E070E0CB01FF90C7
:10138000EF90DF90CF9008954F925F926F927F928F
:101390008F929F92AF92BF92CF92DF92EF92FF9285
:1013A000CF93DF93EC016A017B0120E030E0A901DB
:1013B000CB01B6010E94651187FF04C0F7FAF094D3
:1013C000F7F8F0948C8C9D8CAE8CBF8CA7019601A5
:1013D000C501B4010E946511882309F449C06CA9B4
:1013E0007DA98EA99FA90E946C112B013C01A70128
:1013F0009601C501B4010E944A139B01AC01C301CF
:10140000B2010E94CB110E94BC136CAB7DAB8EABC2
:101410009FABA701960160E070E080E090E40E943D
:101420004A130E94FD1326E53EE04DE25FE30E9471
:10143000CB1120E034E244E759E40E94CB1168AFBD
:1014400079AF8AAF9BAFCC8EDD8EEE8EFF8ECE0154
:10145000DF91CF91FF90EF90DF90CF90BF90AF9052
:101460009F908F907F906F905F904F900C94AD06FF
:10147000DF91CF91FF90EF90DF90CF90BF90AF9032
:101480009F908F907F906F905F904F900895CF9333
:10149000DF93EC018AE091E0998388836B831C865B
:1014A0001D861E861F86188A198A1A8A1B8A1C8A1C
:1014B0001D8A1E8A1F8A80E090E0A0E8BFE3888F23
:1014C000998FAA8FBB8F1C8E1D8E1E8E1F8E88A398
:1014D00099A3AAA3BBA31CA21DA21EA21FA261E0E6
:1014E00070E07DA76CA73FEF3FA718A619A61AA624
:1014F0001BA64C832D8324E02E8325E02F831EA67C
:101500001CAA1DAA1EAA1FAA18AE19AE1AAE1BAE9F
:101510001CAE1DAE1EAE1FAEFE01E05CFF4F808311
:101520009183A283B3831A82188619861A861B8632
:10153000CE010E94E00340E050E060E87FE3CE018E
:10154000DF91CF910C94C409CF92DF92EF92FF927A
:101550001F93CF93DF93182FEB01C0904A01D090D7
:101560004B010D2C000CEE08FF088CE491E0092ED5
:10157000000CAA0BBB0BC80ED91EEA1EFB1E8CE486
:1015800091E0823091052CF1FC012081222309F1A8
:10159000AC01092E000C660B770B4C155D056E0532
:1015A0007F05BCF421130FC001960E94CE0FBC0131
:1015B000990F880B990BDF91CF911F91FF90EF90BE
:1015C000DF90CF90089560E270E00E94BE15019612
:1015D000D8CFBE01DD0F880B990BEDCF1F920F9274
:1015E0000FB60F9211242F933F934F935F936F93F6
:1015F0007F938F939F93AF93BF93EF93FF938CE869
:1016000091E00E949402FF91EF91BF91AF919F9161
:101610008F917F916F915F914F913F912F910F909B
:101620000FBE0F901F9018951F920F920FB60F923A
:1016300011242F938F939F93EF93FF93E0919C013D
:10164000F0919D018081E091A201F091A30182FDC2
:101650001BC090818091A5018F5F8F732091A6019F
:10166000821741F0E091A501F0E0E457FE4F958F1D
:101670008093A501FF91EF919F918F912F910F90F2
:101680000FBE0F901F9018958081F4CF1F920F927C
:101690000FB60F9211242F933F938F939F93AF9385
:1016A000BF938091410190914201A0914301B0917B
:1016B00044013091400123E0230F2D3758F5019666
:1016C000A11DB11D209340018093410190934201DF
:1016D000A0934301B093440180914501909146014C
:1016E000A0914701B09148010196A11DB11D8093C1
:1016F000450190934601A0934701B0934801BF91E3
:10170000AF919F918F913F912F910F900FBE0F90AE
:101710001F90189526E8230F0296A11DB11DD2CF68
:1017200010928F0110928E0188EE93E0A0E0B0E05D
:101730008093900190939101A0939201B0939301B3
:1017400084E291E090938D0180938C0185EC90E090
:10175000909399018093980184EC90E090939B0181
:1017600080939A0180EC90E090939D0180939C017E
:1017700081EC90E090939F0180939E0182EC90E039
:101780009093A1018093A00186EC90E09093A30137
:101790008093A2011092A5011092A6011092A701B8
:1017A0001092A80124E043E062E089E292E00E9406
:1017B000470A10926E021092750210927C021092EB
:1017C0007D0210927E0210927F0281E080937B0264
:1017D000809378021092790292E090937A0280933B
:1017E0006D0288E490E090937202809371020E94EF
:1017F00099149093770280937602009789F128E4F8
:10180000FC0111922A95E9F788E190E0909370022B
:1018100080936F028FE090E0909374028093730244
:1018200080916E02882341F061E08FE00E948A037C
:1018300060E08FE00E943E03E4E4F2E0E491F0E037
:10184000EE0FFF1FE55DFD4F85919491909381020E
:1018500080938002E6E2F2E0E491E0938202089550
:1018600010927202109271021092700210926F0226
:10187000D1CFCF93DF93CDB7DEB7C454D1090FB624
:10188000F894DEBF0FBECDBF789484B5826084BD6E
:1018900084B5816084BD85B5826085BD85B5816074
:1018A00085BD80916E00816080936E0010928100F2
:1018B00080918100826080938100809181008160AD
:1018C000809381008091800081608093800080916E
:1018D000B10084608093B1008091B00081608093FA
:1018E000B00080917A00846080937A0080917A00C1
:1018F000826080937A0080917A00816080937A0080
:1019000080917A00806880937A001092C100E09103
:101910009C01F0919D0182E08083E0919801F0911B
:1019200099011082E0919A01F0919B0180E18083FE
:101930001092A401E091A001F091A10186E08083C2
:10194000E0919E01F0919F01808180618083E09110
:101950009E01F0919F01808188608083E0919E01CB
:10196000F0919F01808180688083E0919E01F091D9
:101970009F0180818F7D808361E088E00E948A03DF
:1019800061E088E00E943E0361E081E10E948A03F9
:1019900061E081E10E943E0361E080E10E948A03F0
:1019A00061E080E10E943E0361E083E10E948A03DE
:1019B00061E083E10E943E03809173029091740282
:1019C00097FD08C061E00E948A0360E08091730285
:1019D0000E943E0381E080936E0261E089E00E94F4
:1019E0008A0361E08AE00E948A0361E08FE00E943E
:1019F0008A0360E08FE00E943E0360E089E00E947D
:101A00003E0360E08AE00E943E0361E082E00E94C3
:101A10008A0361E083E00E948A0320E030E84BE320
:101A200055E460914102709142028091430290918D
:101A300044020E946511882309F453C080E090E8B5
:101A4000ABE3B5E48093410290934202A09343023A
:101A5000B09344028BEA9AEAA6EAB3E4809369025F
:101A600090936A02A0936B02B0936C0280915D0226
:101A700090915E02A0915F02B09160021816190663
:101A80001A061B0674F560913D0270913E0280912A
:101A90003F02909140029B01AC010E94CB116B016F
:101AA0007C016091450270914602809147029091BD
:101AB00048029B01AC010E94DE129B01AC01C701F0
:101AC000B6010E944A130E94BC1360935D0270939A
:101AD0005E0280935F029093600289E292E00E942E
:101AE000AD0640E050E06AEF74E489E292E00E94C3
:101AF00038060E94FF070E94FF0760E081E10E9414
:101B00003E0360E080E10E943E0361E088E00E94C5
:101B10003E0300E010E085E3B82E8CE891E00E94DF
:101B20007402181619060CF0D9C18CE891E00E94D5
:101B30005202F82E682F8CE891E00E94B602809144
:101B40004A0190914B018F3391055CF49C012F5F0A
:101B50003F4F30934B0120934A01845B9E4FFC0121
:101B6000F082FAE0FF1619F08DE0F812D6CFE0917E
:101B70004A01F0914B01E45BFE4F10826FEF7FEF63
:101B800087E40E94A40A6230710509F4B1C0ECF543
:101B900077FF46C06FEF7FEF8DE40E94A40A6431A7
:101BA000710509F484C10CF025C16E30710509F48A
:101BB00078C10CF00CC16530710581F06D30710594
:101BC00009F46AC16430710509F00BC160E089E075
:101BD0000E943E0360E08AE00E943E0370E060E005
:101BE00082E40E94A40A2B0170E060E087E40E9476
:101BF000A40A6B0170E060E082E50E94A40ACB01B8
:101C0000A201B6010E940308ECC06630710509F418
:101C1000DAC06730710509F0BDCF10924901BACF23
:101C20000E9484092B013C0170E060E08CE40E947A
:101C3000A40A70E060E084E50E94A40A6B017C01C4
:101C4000C114D104E104F10409F4A4CF23E042E07B
:101C500064E0CE0101960E94470ACE0101960E94DF
:101C600051010D2C000CEE08FF088D859E85AF8577
:101C7000B8898C0D9D1DAE1DBF1D49895A896B8980
:101C80007C8984179507A607B70741F0898B9A8B43
:101C9000AB8BBC8BCE0101960E94AD06B301A201B5
:101CA000CE0101960E94380649895A896B897C8940
:101CB000CD84DE84EF84F8884DA05EA06FA078A468
:101CC00081E0C416D506E606F7060CF080E04C1558
:101CD0005D056E057F0509F45DCF41145104610473
:101CE0007104A9F38B83CE0101960E94F305DCCF2A
:101CF0000E9484092B013C0170E060E08CE40E94AA
:101D0000A40A70E060E084E50E94A40A6B017C01F3
:101D1000C114D104E104F10409F43CCF23E042E012
:101D200064E0CE0101960E94470ACE0101960E940E
:101D30005101B301A201CE0101960E94380640E094
:101D400050E06AEF73E4CE0101960E94C4098989CC
:101D50009A89AB89BC89C816D906EA06FB0641F008
:101D6000C98ADA8AEB8AFC8ACE0101960E94AD0606
:101D70008DA19EA1AFA1B8A5892B8A2B8B2B51F0E9
:101D8000CE0101960E94F305882321F0CE01019631
:101D90000E94AD0620E030E0A9016D897E898F891F
:101DA000988D0E9465118111E3CF49895A896B8909
:101DB0007C898D859E85AF85B889481759076A0744
:101DC0007B07B1F6E7CE81E080934901E3CE623133
:101DD000710509F466C00CF067C06131710509F442
:101DE0005BC010924B0110924A0185E192E00E9483
:101DF000760993CE6831710509F460C04CF4663100
:101E0000710509F459C00CF454C061E088E046C083
:101E1000683C710509F454C0693C710509F459C066
:101E200064367105F1F68FEE91E00E94030385E3BD
:101E300091E00E94690982E391E00E94690985EEC0
:101E400091E00E94760987EC91E00E94760987E98B
:101E500091E00E94760982E891E00E9476098CE682
:101E600091E00E94760982E591E00E94760987E37D
:101E700091E00E9476098CE191E00E94760980E071
:101E800091E00E94760986EE90E00E94760981EC4E
:101E900090E00E947609A5CF60E082E00E943E03B8
:101EA000A0CF0E94FF079DCF61E08AE0F7CF60E0FE
:101EB000FCCF61E089E0F2CF60E0FCCF60E0A6CF2C
:101EC00085E391E00E94690982E391E00E9469093B
:101ED00088CF19A2B8A2CE018096F4CF8091490193
:101EE0008823E1F140E050E06AE774E489E292E09F
:101EF0000E9438068091350290913602A0913702F7
:101F0000B09138020A96A11DB11D4091390250913D
:101F10003A0260913B0270913C0284179507A60734
:101F2000B70761F08093390290933A02A0933B0285
:101F3000B0933C0289E292E00E94AD0680914D028E
:101F400090914E02A0914F02B0915002892B8A2BA2
:101F50008B2B21F089E292E00E94F3050115110517
:101F600009F4DBCD0E948002882309F4D6CD0E94BB
:101F70000000D3CD80917602909177020E943515B2
:101F8000809173029091740297FD03C060E00C94FD
:101F90008A030895662777270C94F40FFC0188279D
:101FA0009927E89421912032E9F3293010F02E305E
:101FB000C8F32B3241F02D3239F4689404C00E94EA
:101FC000EC0F820F911D219120532A30C0F31EF493
:101FD000909581959F4F08957AE0979F902D879FC8
:101FE000802D910D11240895B0E0A0E0EAEFFFE00C
:101FF0000C949D125C017B016115710519F0DB01E8
:102000008D939C9385010F5F1F4FF501D0818D2F1C
:1020100090E00E9444116C01892BB9F5DD32B9F5CD
:102020000F5F1F4FD5011196DC91C1E05801F1E01F
:10203000AF1AB10843E050E060E770E0C5010E94CC
:102040004D11892B69F5680182E0C80ED11C45E06D
:1020500050E06BE670E0C6010E944D11892B21F41F
:10206000680197E0C90ED11CE114F10419F0D70101
:10207000CD92DC9260E070E080E89FEFC111FFC07C
:1020800060E070E080E89FE7FAC05801BBCFDB3228
:1020900029F485010E5F1F4FF501D181C0E0C6CF45
:1020A00043E050E068E670E0C5010E944D11892BC5
:1020B000E9F0F80110E000E020E030E0A9015F0164
:1020C000B0ED8B2E8D0E89E08815C8F19C2E68949A
:1020D00091F88C2F8870C2FF16C0811102C00F5F6B
:1020E0001F4F3196D501DC91C92DE9CFE114F104E0
:1020F00029F00E5F1F4FF7011183008360E070E04D
:1021000080EC9FE7BCC0882311F001501109A5E0C5
:10211000B0E00E948C129B01AC01220F331F441FC0
:10212000551F280D311D411D511D283999E93907C9
:10213000490799E15907A8F2C6609C2ED2CFAEEFAD
:102140008A1206C0C3FD3CC09C2E689493F8C9CF88
:10215000DF7DD534A9F580818D3239F4C061DF018E
:102160001296818162E070E006C0DF018B32C1F31C
:10217000119661E070E080535D01A61AB70A8A30BB
:10218000F8F4E0E8CE16ECE0DE065CF4B601660F8B
:10219000771F660F771FC60ED71ECC0CDD1CC80E2E
:1021A000D11C5D01FFEFAF1ABF0A8C9180538A30BA
:1021B000A8F1C4FF03C0D194C194D1080C0D1D1D1A
:1021C000C1FF09C0E114F10431F081E0A81AB1089F
:1021D000D701AD92BC92CA01B9010E946A11C370C5
:1021E000C33009F490584B015C0120E030E0A901B4
:1021F0000E946511882309F440C0CFE9D0E017FFA1
:1022000005C0119501951109C7E8D0E06E01B8E14C
:10221000CB1AD10880E2E82EF12C0FC0D501B1CF46
:10222000FE0125913591459154910E191F09C50163
:10223000B4010E94CB114B015C01D501C4010E1504
:102240001F0574F72497F594E794CC16DD06A9F7DB
:102250008A2F880F8B2F881F8F3F49F020E030E0B6
:10226000A901C501B4010E946511811106C082E275
:1022700090E09093840280938302C501B401CDB7AE
:10228000DEB7ECE00C94B91291110C943812803244
:1022900019F089508550C8F70895FB01DC014150C1
:1022A000504088F08D9181341CF08B350CF4805EA9
:1022B000659161341CF06B350CF4605E861B611116
:1022C00071F3990B0895881BFCCF0E94A71108F4A5
:1022D00081E00895E89409C097FB3EF490958095BD
:1022E000709561957F4F8F4F9F4F9923A9F0F92FDC
:1022F00096E9BB279395F695879577956795B7955A
:10230000F111F8CFFAF4BB0F11F460FF1BC06F5F3F
:102310007F4F8F4F9F4F16C0882311F096E911C051
:10232000772321F09EE8872F762F05C0662371F072
:1023300096E8862F70E060E02AF09A95660F771F86
:10234000881FDAF7880F9695879597F90895990F62
:102350000008550FAA0BE0E8FEEF16161706E8076F
:10236000F907C0F012161306E407F50798F0621B90
:10237000730B840B950B39F40A2661F0232B242B65
:10238000252B21F408950A2609F4A140A6958FEF84
:10239000811D811D08950E94DE110C9452120E942D
:1023A000441238F00E944B1220F0952311F00C9447
:1023B0003B120C94411211240C9486120E94631259
:1023C00070F3959FC1F3950F50E0551F629FF00188
:1023D000729FBB27F00DB11D639FAA27F00DB11DA1
:1023E000AA1F649F6627B00DA11D661F829F22272A
:1023F000B00DA11D621F739FB00DA11D621F839FB1
:10240000A00D611D221F749F3327A00D611D231F86
:10241000849F600D211D822F762F6A2F11249F57D4
:1024200050409AF0F1F088234AF0EE0FFF1FBB1FD7
:10243000661F771F881F91505040A9F79E3F510596
:1024400080F00C943B120C9486125F3FE4F3983EAC
:10245000D4F3869577956795B795F795E7959F5F40
:10246000C1F7FE2B880F911D9695879597F90895D2
:1024700099278827089597F99F6780E870E060E0C2
:1024800008959FEF80EC089500240A94161617060D
:1024900018060906089500240A9412161306140655
:1024A00005060895092E0394000C11F4882352F0B8
:1024B000BB0F40F4BF2B11F460FF04C06F5F7F4F70
:1024C0008F4F9F4F089557FD9058440F551F59F057
:1024D0005F3F71F04795880F97FB991F61F09F3F11
:1024E00079F087950895121613061406551FF2CF3A
:1024F0004695F1DF08C0161617061806991FF1CF8A
:1025000086957105610508940895E894BB276627B0
:102510007727CB0197F908950E94CE12A59F900DC1
:10252000B49F900DA49F800D911D112408952F92AA
:102530003F924F925F926F927F928F929F92AF9253
:10254000BF92CF92DF92EF92FF920F931F93CF93A0
:10255000DF93CDB7DEB7CA1BDB0B0FB6F894DEBF37
:102560000FBECDBF09942A88398848885F846E845D
:102570007D848C849B84AA84B984C884DF80EE80A7
:10258000FD800C811B81AA81B981CE0FD11D0FB6B0
:10259000F894DEBF0FBECDBFED010895A29FB0013C
:1025A000B39FC001A39F700D811D1124911DB29F87
:1025B000700D811D1124911D08955058BB27AA2725
:1025C0000E94F5120C9452120E94441238F00E949C
:1025D0004B1220F039F49F3F19F426F40C94411269
:1025E0000EF4E095E7FB0C943B12E92F0E94631276
:1025F00058F3BA17620773078407950720F079F438
:10260000A6F50C9485120EF4E0950B2EBA2FA02D92
:102610000B01B90190010C01CA01A0011124FF278F
:10262000591B99F0593F50F4503E68F11A16F0408A
:10263000A22F232F342F4427585FF3CF4695379589
:102640002795A795F0405395C9F77EF41F16BA0B4E
:10265000620B730B840BBAF09150A1F0FF0FBB1FFC
:10266000661F771F881FC2F70EC0BA0F621F731F45
:10267000841F48F4879577956795B795F7959E3FA2
:1026800008F0B0CF9395880F08F09927EE0F979533
:10269000879508950E945E130C9452120E944B126B
:1026A00058F00E94441240F029F45F3F29F00C9446
:1026B0003B1251110C9486120C9441120E94631229
:1026C00068F39923B1F3552391F3951B550BBB2761
:1026D000AA2762177307840738F09F5F5F4F220FA6
:1026E000331F441FAA1FA9F335D00E2E3AF0E0E89D
:1026F00032D091505040E695001CCAF72BD0FE2FE7
:1027000029D0660F771F881FBB1F2617370748077A
:10271000AB07B0E809F0BB0B802DBF01FF27935832
:102720005F4F3AF09E3F510578F00C943B120C94A9
:1027300086125F3FE4F3983ED4F3869577956795CC
:10274000B795F7959F5FC9F7880F911D9695879567
:1027500097F90895E1E0660F771F881FBB1F621786
:1027600073078407BA0720F0621B730B840BBA0B44
:10277000EE1F88F7E09508950E94C3136894B11185
:102780000C94861208950E946B1288F09F5798F05F
:10279000B92F9927B751B0F0E1F0660F771F881F66
:1027A000991F1AF0BA95C9F714C0B13091F00E9480
:1027B0008512B1E008950C948512672F782F882731
:1027C000B85F39F0B93FCCF3869577956795B395A7
:1027D000D9F73EF490958095709561957F4F8F4F16
:1027E0009F4F08950E94A71108F48FEF089519F4E0
:1027F00016F40C9441120C943D140E946B12B8F321
:102800009923C9F3B6F39F57550B87FF0E944B14CA
:102810000024A0E640EA900180585695979528F448
:10282000805C660F771F881F20F026173707480740
:1028300030F4621B730B840B202931294A2BA69597
:1028400017940794202531254A2758F7660F771FDC
:10285000881F20F026173707480730F4620B730BE8
:10286000840B200D311D411DA09581F7B901842FE6
:102870009158880F9695879508959F3F31F0915014
:1028800020F4879577956795B795880F911D969554
:10289000879597F9089591505040660F771F881FCC
:1028A000D2F70895052E97FB1EF400940E94691438
:1028B00057FD07D00E94771407FC03D04EF40C9408
:1028C000691450954095309521953F4F4F4F5F4F7C
:1028D000089590958095709561957F4F8F4F9F4F8C
:1028E0000895EE0FFF1F0590F491E02D0994A1E2E9
:1028F0001A2EAA1BBB1BFD010DC0AA1FBB1FEE1F7A
:10290000FF1FA217B307E407F50720F0A21BB30BC4
:10291000E40BF50B661F771F881F991F1A9469F740
:1029200060957095809590959B01AC01BD01CF019C
:1029300008950F931F93CF93DF938230910510F486
:1029400082E090E0E0918702F091880230E020E0A0
:10295000B0E0A0E0309799F42115310509F44AC0A0
:10296000281B390B24303105D8F58A819B816115EC
:10297000710589F1FB0193838283FE0111C04081BF
:1029800051810281138148175907E0F04817590710
:1029900099F4109761F012960C93129713961C936A
:1029A0003296CF01DF91CF911F910F91089500933F
:1029B000870210938802F4CF2115310551F0421798
:1029C000530738F0A901DB019A01BD01DF01F801CD
:1029D000C1CFEF01F9CF9093880280938702CDCFCA
:1029E000FE01E20FF31F8193919322503109398345
:1029F0002883D7CF2091850230918602232B41F482
:102A000020910201309103013093860220938502C8
:102A100020910001309101012115310541F42DB7BC
:102A20003EB74091040150910501241B350BE09104
:102A30008502F0918602E217F307A0F42E1B3F0BEC
:102A40002817390778F0AC014E5F5F4F2417350720
:102A500048F04E0F5F1F509386024093850281938A
:102A600091939FCFF0E0E0E09CCFCF93DF9300976E
:102A7000E9F0FC01329713821282A0918702B09193
:102A80008802ED0130E020E01097A1F4208131812F
:102A9000820F931F209185023091860228173907F3
:102AA00009F061C0F0938602E0938502DF91CF9137
:102AB0000895EA01CE17DF07E8F54A815B819E01A0
:102AC00041155105B1F7E901FB83EA834991599119
:102AD000C40FD51FEC17FD0761F480819181029628
:102AE000840F951FE90199838883828193819B8359
:102AF0008A83F0E0E0E012968D919C911397009705
:102B0000B9F52D913C911197CD010296820F931F3B
:102B100020918502309186022817390739F63097BF
:102B200051F51092880210928702B0938602A0930A
:102B30008502BCCFD383C28340815181840F951F0E
:102B4000C817D90761F44E5F5F4F88819981480F9C
:102B5000591F518340838A819B81938382832115EE
:102B6000310509F0B0CFF0938802E09387029ECF41
:102B7000FD01DC01C0CF13821282D7CFFC0181910D
:102B8000861721F08823D9F7992708953197CF0127
:102B9000089511E0C6E2D1E004C0FE010E94711464
:0C2BA0002196C732D107C9F7F894FFCF87
:102BAC00000089028000000000001404E003750599
:102BBC00B3055F052D050C05D804B7046104320478
:102BCC0000000000B602160243021E0374025202F9
:102BDC0066020D0A00762E32303234303533300036
:00000001FF
