:100000000C9445010C946D010C946D010C946D01E0
:100010000C946D010C946D010C946D010C946D01A8
:100020000C946D010C946D010C946D010C94F50E03
:100030000C946D010C946D010C946D010C946D0188
:100040000C94F7100C946D010C94AF130C94E11305
:100050000C946D010C946D010C946D010C946D0168
:100060000C946D010C946D017D0184018B01920152
:100070009901B001A001B001A701200224022802C9
:100080002C023002340238023E00424144434845CB
:10009000434B53554D20004241444C494E454E552B
:1000A0004D20004D3131343B202D207265706F7230
:1000B0007420706F736974696F6E20616E6420665E
:1000C00065656472617465004D3130303B202D20D0
:1000D000746869732068656C70206D6573736167FF
:1000E00065004D32323B202D207475726E2072698E
:1000F000676874206C61736572206F6666004D32AC
:10010000313B202D207475726E20726967687420EF
:100110006C61736572206F6E004D32303B202D2074
:100120007475726E206C656674206C6173657220E4
:100130006F6666004D31393B202D207475726E203C
:100140006C656674206C61736572206F6E004D3152
:10015000383B202D2064697361626C65206D6F747B
:100160006F7273004D31373B202D20656E61626CDC
:1001700065206D6F746F727300473031205B5428B7
:100180007374657073295D205B4C2873746570739C
:10019000295D205B46286665656472617465295D2A
:1001A0003B202D206D6F766500473030205B542852
:1001B0007374657073295D3B202D206C696E6561D9
:1001C00072206D6F766500436F6D6D616E64733A7A
:1001D000004661625363616E20472D434F4444459E
:1001E00020496E746572707265746572205665720E
:1001F00073696F6E3A2000000000080002010000E1
:1002000003040700000000000000000102040810C1
:10021000204080010204081020010204081020047C
:10022000040404040404040202020202020303039D
:1002300003030300000000250028002B000000003D
:1002400000240027002A004E414E494E4954594986
:100250004E46CDCCCC3D0AD7233C17B7D13877CC0E
:100260002B329595E6241FB14F0A00002041000073
:10027000C84200401C4620BCBE4CCA1B0E5AAEC52C
:100280009D74830CDF0E11148C0C11241FBECFEF54
:10029000D8E0DEBFCDBF11E0A0E0B1E0E8E1FAE3D5
:1002A00002C005900D92A236B107D9F722E0A2E66E
:1002B000B1E001C01D92A13EB207E1F712E0C8E82B
:1002C000D2E004C02297FE010E94C519C238D107AE
:1002D000C9F70E94E0160C94FF1C0C9400000F93C9
:1002E0001F93DC0112960C9110E009301105C0F546
:1002F000F801EC5CFF4F0C94C319DC01ED91FC910B
:100300000084F185E02D29C0DC01ED91FC9102848F
:10031000F385E02D22C0DC01ED91FC910484F5858C
:10032000E02D1BC0DC01ED91FC910684F785E02DEA
:1003300014C0DC01ED91FC910088F189E02D0DC025
:10034000DC01ED91FC910288F389E02D06C0DC010F
:10035000ED91FC910488F589E02D1F910F9109948E
:100360001F910F910895CF93DF93EC01CB01BA0158
:1003700026E030E040E050E00E94A41962307105B0
:100380008105910559F18CF461157105810591057F
:10039000F1F06130710581059105C1F5E881F981C0
:1003A0000480F581E02D65E02DC064307105810584
:1003B000910511F1D4F0653071058105910531F594
:1003C000E881F9810480F581E02D66E01BC0E881B9
:1003D000F9810480F581E02D64E014C0E881F981A1
:1003E0000480F581E02D61E00DC0E881F981048091
:1003F000F581E02D63E006C0E881F9810480F58194
:10040000E02D62E0CE01DF91CF910994DF91CF9191
:100410000895CF93DF93477055276627772741507C
:100420005109DC01CD91DC914730510528F4435C42
:100430005F4FFA010C94C319EC81FD8161E01BC090
:10044000EC81FD8165E017C0EC81FD8164E013C0A3
:10045000EC81FD8166E00FC0EC81FD8162E00BC0A4
:10046000EC81FD816AE007C0EC81FD8168E003C09A
:10047000EC81FD8169E0DF91CF910994AF92BF9249
:10048000DF92EF92FF920F931F93CF93DF931F9210
:10049000CDB7DEB78C01FC018281843041F0883019
:1004A00031F0833031F0863021F022E003C024E0C7
:1004B00001C023E0A12CB12CE62EF12CDD24D39435
:1004C000F801EA0DFB1DC7010A2C02C0959587951E
:1004D0000A94E2F7678180FD6D25838129830E945C
:1004E0003412FFEFAF1ABF0A2981A21648F30F900A
:1004F000DF91CF911F910F91FF90EF90DF90BF9010
:10050000AF9008950F931F93CF93DF93EC01E88191
:10051000F9810480F581E02D8C010D5B1F4FD8011E
:100520008C91882311F062E001C060E0CE01099552
:10053000E881F9810480F581E02DD8018C91882330
:1005400011F063E001C061E0CE0109958BA59CA587
:100550000E948C11E881F9810480F581E02DD80199
:100560008C91882311F062E001C060E0CE01DF9140
:10057000CF911F910F910994CF93DF93EC0120E06D
:1005800030E0A9016B897C898D899E890E94A4181D
:1005900018161CF4EFA5F8A902C0E9A9FAA9DF9181
:1005A000CF9109944370552766277727DC01ED9199
:1005B000FC910480F581E02D423051056105710503
:1005C00071F0433051056105710559F04130510515
:1005D0006105710511F062E005C063E003C061E0F0
:1005E00001C060E00994CF93DF93EC01CB01BA0125
:1005F00023E030E040E050E00E94A4196130710532
:100600008105910581F0623071058105910591F0B8
:10061000672B682B692BC1F4E881F9810480F5818F
:10062000E02D64E00DC0E881F9810480F581E02DC2
:1006300061E006C0E881F9810480F581E02D62E087
:10064000CE01DF91CF910994DF91CF91089543704E
:10065000552766277727DC01ED91FC910480F58111
:10066000E02D423051056105710571F043305105AF
:100670006105710559F0413051056105710511F0B1
:1006800065E005C066E003C06AE001C069E0099466
:10069000CF93DF93EC018A81882381F0E881F9818F
:1006A0000480F581E02D60E0CE0109958EA58F3F95
:1006B00029F06DA5DF91CF910C943412DF91CF9189
:1006C0000895CF93DF93EC018A81882351F161E093
:1006D0008B810E94FB1161E08C810E94FB118A8159
:1006E000843011F0883039F461E08D810E94FB1173
:1006F00061E08E8106C0833011F0863021F461E024
:100700008D810E94FB118EA58F3F59F061E00E9400
:10071000FB116DA581E068278EA5DF91CF910C9428
:100720003412DF91CF910895CF92DF92EF92FF9232
:100730000F931F93CF93DF93EC014BA15CA16DA1AD
:100740007EA1452B462B472B09F44DC00E94411139
:100750006B017C010FA118A529A53AA54BA15CA1AD
:100760006DA17EA1400F511F621F731F40175107DB
:100770006207730730F0C416D506E606F70658F48C
:1007800005C0C416D506E606F70668F1C016D10600
:10079000E206F30640F5FE01ED5BFF4F80814B85DD
:1007A0005C856D857E85882329F04F5F5F4F6F4F95
:1007B0007F4F04C041505109610971094B875C8723
:1007C0006D877E87E881F9814B855C856D857E85A7
:1007D0000680F781E02DCE010995CFA2D8A6E9A623
:1007E000FAA681E001C080E0DF91CF911F910F91C7
:1007F000FF90EF90DF90CF9008950F931F93FC012F
:100800006785708981899289038514852585368558
:10081000601B710B820B930B1F910F9108952F9208
:100820003F924F925F926F927F928F929F92AF9280
:10083000BF92CF92DF92EF92FF920F931F93CF93CD
:10084000DF9300D000D0CDB7DEB71C01FC01878458
:100850009088A188B28883859485A585B685881AF5
:10086000990AAA0ABB0A63897489858996899B01BA
:10087000AC010E94A8186B017C01F101638D748D9D
:10088000858D968D9B01AC010E94F1169B01AC01F8
:10089000C701B6010E9459170E94C1178114910423
:1008A000A104B104A1F462307105810591050CF039
:1008B0007CC0F10113A214A215A216A2138A148AF5
:1008C000158A168A13AA14AA15AA16AA03C1F10139
:1008D00003A914A925A936A9ED5BFF4F1814190423
:1008E0001A041B04FCF410161106120613064CF42D
:1008F000681579058A059B054CF52081211155C0A5
:1009000025C0011511052105310509F44EC06815F2
:1009100079058A059B050CF048C08081882309F47D
:1009200044C037C01016110612061306F4F400274F
:1009300011279801081919092A093B09601771073D
:10094000820793071CF42081222379F19B01AC01DB
:1009500088279927DC01821B930BA40BB50BF101AF
:1009600083AB94ABA5ABB6AB20C001151105210537
:100970003105D9F0CC24DD247601C818D908EA085D
:10098000FB086C157D058E059F057CF48081811127
:100990000CC030952095109501951F4F2F4F3F4F5C
:1009A000F10103AB14AB25AB36ABF101C3A8D4A85E
:1009B000E5A8F6A881010D5B1F4FC114D104E10425
:1009C000F10491F487A990ADA1ADB2AD83AF94AF1E
:1009D000A5AFB6AF81E0181419041A041B040CF07B
:1009E00080E0F801808340C0F10183AC94ACA5ACF9
:1009F000B6ACA5019401C501B4010E94F1162B010A
:100A00003C01C701B6010E94F41720E030E040E845
:100A100050E40E94A81820E030E040E85FE30E9424
:100A2000F1169B01AC01C301B2010E9459179B0151
:100A3000AC01C501B4010E94F0162B013C01F1018B
:100A4000FF9680809180A280B3809401A5010E94CE
:100A5000A418181614F442015301C401D501F10180
:100A600083AF94AFA5AFB6AFFFEFCF1ADF0AEF0A9F
:100A7000FF0AF101C3AAD4AAE5AAF6AA23AD34ADB0
:100A800045AD56ADCA01B90129833A834B835C83D6
:100A90000E94C617F10163A374A385A396A32981BD
:100AA0003A814B815C8160E074E284E799E40E94C2
:100AB0005917F101638B748B858B968BF80120811C
:100AC000211108C0DC01CB01B058F101838B948B5C
:100AD000A58BB68B0F900F900F900F90DF91CF9159
:100AE0001F910F91FF90EF90DF90CF90BF90AF904C
:100AF0009F908F907F906F905F904F903F902F903E
:100B000008950F931F93FC0107851089218932896D
:100B1000041715072607370741F04787508B618B6D
:100B2000728B1F910F910C940F041F910F910895D8
:100B30000F931F93FC010385148525853685400F8F
:100B4000511F621F731F1F910F910C9481054F92CB
:100B50005F926F927F928F929F92AF92BF92CF924D
:100B6000DF92EF92FF92CF93DF93EC016A017B015A
:100B70008B8C9C8CAD8CBE8C9A01AB01C501B401F1
:100B80000E945517882309F449C06BA97CA98DA937
:100B90009EA90E94F4172B013C01A7019601C501F3
:100BA000B4010E9459179B01AC01C301B2010E941C
:100BB000A8180E94C1176BAB7CAB8DAB9EABA70195
:100BC000960160E070E080E090E40E9459170E9476
:100BD0000F1926E53EE04DE25FE30E94A81820E0F1
:100BE00034E244E759E40E94A8186FAB78AF89AFAC
:100BF0009AAFCB8EDC8EED8EFE8ECE01DF91CF9143
:100C0000FF90EF90DF90CF90BF90AF909F908F902C
:100C10007F906F905F904F900C940F04DF91CF9175
:100C2000FF90EF90DF90CF90BF90AF909F908F900C
:100C30007F906F905F904F9008958F929F92AF92A8
:100C4000BF92CF92EF920F93CF93DF93EC0184E1A9
:100C500091E0998388836A831B861C861D861E8685
:100C60001F86188A198A1A8A1B8A1C8A1D8A1E8A5C
:100C7000812C912C80E8A82E8FE3B82E8F8A988E35
:100C8000A98EBA8E1B8E1C8E1D8E1E8E8F8E98A2E4
:100C9000A9A2BAA21BA21CA21DA21EA281E090E0E2
:100CA0009CA78BA78FEF8EA71FA218A619A61AA61E
:100CB0004B832C830D83EE821BAA1CAA1DAA1EAA9D
:100CC0001FAA18AE19AE1AAE1BAE1CAE1DAE1EAEDC
:100CD000FE01FF9680829182A282B38234961082B6
:100CE0001F82188619861A86CC2019F0CE010E9420
:100CF000610340E050E060E87FE3CE01DF91CF91F7
:100D00000F91EF90CF90BF90AF909F908F900C94E9
:100D1000A705CF92DF92EF92FF920F931F93CF938D
:100D2000DF93EC016A017B019A01AB016F89788D39
:100D3000898D9A8D0E945517882309F446C0CF8A61
:100D4000D88EE98EFA8E8E01015C1F4FA7019601A5
:100D500060E074E284E799E40E945917F801608327
:100D60007183828393838BA99CA9ADA9BEA9181610
:100D700019061A061B064CF56B897C898D899E899C
:100D80009B01AC010E94A8186B017C016B8D7C8DCE
:100D90008D8D9E8D9B01AC010E94F1169B01AC01D3
:100DA000C701B6010E9459170E94C1176BAB7CABFB
:100DB0008DAB9EABCE01DF91CF911F910F91FF9034
:100DC000EF90DF90CF900C940F04DF91CF911F91A3
:100DD0000F91FF90EF90DF90CF9008956F927F92E8
:100DE0008F929F92AF92BF92CF92DF92EF92FF923B
:100DF0000F931F93CF93DF93EC013A018B012B8963
:100E00003C894D895E89B301C8010E94551788232A
:100E100009F454C0CF88D88CE98CFA8C460157016C
:100E2000B7FAB094B7F8B094A5019401B301C80122
:100E30000E94551787FD0BC0A7019601B301C80199
:100E40000E94A41818162CF43601870102C0340140
:100E5000850120E030E0A901B301C8010E945517C7
:100E6000811105C01BA21CA21DA21EA221C09301BC
:100E7000A80160E074E284E799E40E9459179F7723
:100E80000E94C6176BA37CA38DA39EA37E0183E45F
:100E9000E80EF11CDD24D39420E030E0A901B30179
:100EA000C8010E94A41818160CF0D12CF701D082AA
:100EB000C301D8018B8B9C8BAD8BBE8BDF91CF9107
:100EC0001F910F91FF90EF90DF90CF90BF90AF9068
:100ED0009F908F907F906F9008950F931F93FC01C8
:100EE00007851089218932894385548565857685F2
:100EF000041715072607370779F0ED5BFF4F4017FA
:100F00005107620773071CF421E0208301C010829F
:100F10001F910F910C94940380E01F910F910895FD
:100F2000CF93DF93EC0188859985009711F00E949B
:100F30007B1A8E8187FD05C060E0DF91CF910C9414
:100F4000FB11DF91CF910895CF93DF93EC018E8158
:100F500087FD07C061E00E94FB1160E08E810E9466
:100F6000341281E08983DF91CF910895EF92FF924F
:100F70000F931F93CF93DF93EC017B0188859985B5
:100F8000009711F00E947B1A9D858A85981303C0F3
:100F900083E090E002C084E090E08E9D80018F9D10
:100FA000100D9E9D100D11241D830C83C8010E94FD
:100FB000E31999878887009741F0A80160E070E005
:100FC0000E94AB1CFB82EA8204C01D821C821B8231
:100FD0001A82DF91CF911F910F91FF90EF900895AA
:100FE000FC0121E095858285981320E0CB0136E055
:100FF000969587953A95E1F7482F43704587CB0141
:1010000054E0969587955A95E1F7382F33703287DB
:10101000CB01969587959695879583708387862FC4
:101020008370848781E06F3F710511F008F080E0E4
:10103000808380859185892B51F091E0431390E066
:10104000921729F062817381CF010C94B60708953D
:10105000CF92DF92EF92FF920F931F93CF93DF9384
:10106000CDB7DEB729970FB6F894DEBF0FBECDBF60
:101070008C01DC0118968D919C911997892B09F4AC
:101080009AC00E944111F801C684D784E088F18893
:101090006C197D098E099F096233710581059105DF
:1010A00080F3F894848195819A838983A085B185A2
:1010B0007D01EFEFEE1AFE0A8C918987D8019C9191
:1010C00052960D90BC91A02DF8018489992309F4C2
:1010D0002EC09C91982B98879C91809589238F8313
:1010E0008F818E8388E08D8358856F8149853D810E
:1010F0002E8189819A81F7015C9347FD252F3A95CE
:101100002C93262F39F0441F00C000006C93000080
:1011100000C0F2CF38E041916C930000019761F775
:10112000F801B38BA28B49873D832E8338C09C91F5
:10113000982B98879C91809589238F838F818C83AE
:1011400088E08B8358856F8149853B812C8189811B
:101150009A81F7015C9347FD252F00C000C02C93B6
:1011600000C000C000C000C000C06C930000262F6B
:101170003A9541F0441F000000C000C000C000C00C
:1011800000C0E8CF38E0419100C06C9300C00197E7
:1011900009F7F801B38BA28B49873B832C839A8391
:1011A000898378940E944111D8011E966D937D9396
:1011B0008D939C93519729960FB6F894DEBF0FBE7E
:1011C000CDBFDF91CF911F910F91FF90EF90DF90F6
:1011D000CF9008951F93CF93DF93EC01162F898151
:1011E000882331F08E8187FD03C060E00E94FB11EF
:1011F0001E838981882341F061E0812F0E94FB11C9
:1012000060E0812F0E943412812F90E0FC01E15EAA
:10121000FD4FE491F0E0EE0FFF1FED5CFD4F2591D7
:1012200034913B8B2A8BFC01E55FFD4F84918C8BC5
:10123000DF91CF911F910895EF92FF920F931F932B
:10124000CF93DF931F92CDB7DEB77C018B01FC01FA
:10125000118217821186108616861786108A118AC7
:10126000B90149830E94F007B801C7010E94B6077F
:101270004981642FC7010F90DF91CF911F910F918A
:10128000FF90EF900C94EA08CF92DF92EF92FF92DA
:101290000F931F93CF93DF93FC0182819381681793
:1012A000790708F04DC0CA01AA27BB27182FC32E03
:1012B000D42EE52EFF24DC2DC22F0781002361F000
:1012C000809FC0011124192FC09E60011124DD2DC3
:1012D000209FC0011124C92FF5848285A085B18586
:1012E000F81208C0CB01880F991F860F971F8A0F2D
:1012F0009B1F17C0CB01880F991F880F991F8A0F5A
:101300009B1F452F552766277727DC01AF0DB11DA1
:10131000002329F0409F90011124232F01C0242F86
:101320002C932285DC01A20FB11D1C932385DC01C7
:10133000A20FB11DDC932485FC01E20FF11DC083D7
:10134000DF91CF911F910F91FF90EF90DF90CF90A1
:101350000895962F50E060E070E0592B682BCB0188
:10136000BA01089526E040E052EC61E070E08EE3BF
:1013700092E00E944D130E94900C0E942E0D0E943C
:10138000030A0E94040D0E940C0D8AE090E09093E5
:101390000F0180930E010895CF938EE392E00E9497
:1013A0006A121816190664F58EE392E00E94831201
:1013B000C82F8D3091F3682F8EE392E00E94B7140E
:1013C00020916F0130917001203431055CF4A90146
:1013D0004F5F5F4F5093700140936F01F901EF58D9
:1013E000FE4FC083CA30C9F6E0916F01F0917001E1
:1013F000EF58FE4F10820E94F70A0E94790CCDCF61
:10140000CF910C94BF0E81EB91E00C94A407FF9256
:101410000F931F93CF93DF93F82E8B01C0916F0131
:10142000D0917001CF58DE4FE1E7F1E03097C9F07D
:1014300090819923B1F0EC17FD0798F49F1109C032
:10144000CF010196DF91CF911F910F91FF900C94E6
:101450006D1C60E270E0CF010E94B21CFC0131966D
:10146000E5CFC801DF91CF911F910F91FF900895B3
:10147000CF92DF92EF92FF926A017B01BC018EE373
:1014800092E00E94B51422E030E0B701A6018EE39D
:1014900092E0FF90EF90DF90CF900C94861661ED74
:1014A00071E08EE392E00E9492146AE271E08EE3B2
:1014B00092E00E94D41467EC71E08EE392E00E9407
:1014C000C21469EA71E08EE392E00E94C21469E7F7
:1014D00071E08EE392E00E94C21464E671E08EE354
:1014E00092E00E94C2146EE471E08EE392E00E94EA
:1014F000C21464E371E08EE392E00E94C21469E1D9
:1015000071E08EE392E00E94C2146EEF70E08EE311
:1015100092E00E94C21462EE70E08EE392E00E94BC
:10152000C21468EC70E08EE392E00E94C21463EA99
:1015300070E08EE392E00C94C2146AE271E08EE3F4
:1015400092E00C94D414FF920F931F93CF93DF93E8
:10155000182F062FF42EC0E0D0E04F2D602F812FE2
:101560000E94A9099B01AC01BE0181EB91E00E94A0
:1015700044092196C031D10581F781EB91E0DF91DB
:10158000CF911F910F91FF900C9428084091670113
:10159000509168016091690170916A018DE391E059
:1015A0000E94380A40916301509164016091650185
:1015B000709166018BE391E00E94380A40910A0124
:1015C00050910B0160910C0170910D018FE391E03E
:1015D0000E94380A80916201882319F065E371E066
:1015E00002C069E371E08EE392E00C94D414EF92B0
:1015F000FF920F931F93CF93DF93C0917101CB3371
:1016000009F470C16FEF7FEF8EE40E94070AAA27EA
:1016100097FDA095BA2F8F3F2FEF9207A207B20731
:1016200009F462C0CE3409F05FC040916B01509163
:101630006C0160916D0170916E0184179507A6078A
:10164000B70719F067E970E024C06AE270E081E74B
:1016500091E00E94B21C892B09F444C1E1E7F1E05A
:10166000C0E0CF018157914021912A3211F0C22769
:10167000F8CF60E070E08E589E4F0E940A1BDD2775
:10168000C7FDD0950E94C117C617D707D1F06AE8E9
:1016900070E08EE392E00E94921440916B015091B1
:1016A0006C0160916D0170916E012AE030E08EE373
:1016B00092E0DF91CF911F910F91FF90EF900C94EA
:1016C000891580916B0190916C01A0916D01B09191
:1016D0006E010196A11DB11D80936B0190936C0169
:1016E000A0936D01B0936E016FEF7FEF87E40E94CE
:1016F000070A84309105C9F01CF4029750F03FC0EE
:1017000086309105D1F18CF10797C9F50E94DC0E66
:1017100036C00E94FD0C811102C00E94DB0C64E601
:1017200070E080E090E00E94641160E070E086E488
:101730000E94070A7C0160E070E08CE40E94070AC6
:101740008C0160E070E084E50E94070AEC01B701BB
:10175000882777FD8095982F0E94F4179B01AC0194
:10176000B801CE010E94890E0AC060E070E081E4F9
:101770000E94070A0E941A0D02C00E94D80E6FEF45
:101780007FEF8DE40E94070A8431910509F482C03D
:10179000E4F48131910509F469C044F48430910581
:1017A00009F447C0059709F446C09CC082319105F1
:1017B00009F466C0439709F095C0DF91CF911F915E
:1017C0000F91FF90EF900C94C40C8436910509F4AE
:1017D00071C07CF48531910509F464C0469709F025
:1017E00081C0DF91CF911F910F91FF90EF900C94EA
:1017F000E70C8237910509F465C0883C910509F42E
:1018000069C08E36910509F06DC060916B017091D1
:101810006C018EE40E94070AAA2797FDA095BA2FB3
:1018200080936B0190936C01A0936D01B0936E0156
:1018300059C00E94E70C60E070E082E40E94070A51
:101840008C0160E070E087E40E94070AEC0160E030
:1018500070E082E50E94070AA801BE01DF91CF91E6
:101860001F910F91FF90EF900C94A30A0E94000D1E
:10187000DF91CF911F910F91FF90EF900C94080D85
:101880000E94040DDF91CF911F910F91FF90EF9077
:101890000C940C0DDF91CF911F910F91FF90EF9061
:1018A0000C94D00CDF91CF911F910F91FF90EF908E
:1018B0000C94DB0CDF91CF911F910F91FF90EF9073
:1018C0000C944F0ADF91CF911F910F91FF90EF90F1
:1018D0000C94C60ADF91CF911F910F91FF90EF906A
:1018E0000C949D0ADF91CF911F910F91FF90EF9083
:1018F00008951092700110926F0168E870E08EE315
:1019000092E00C94921422E530E04FE060E170E048
:1019100081EB91E00C941C0981EB91E00C94900711
:1019200061E082E10E94FB1161E089E00E94FB110D
:1019300061E08FE00E94FB1161E089E00E94FB11F1
:1019400061E08AE00E94FB1161E082E10E94FB11EC
:1019500061E089E00E94FB1161E08FE00E94FB11D1
:1019600060E08FE00E94341260E082E10E94341255
:1019700060E089E00E94341260E089E00E94341245
:1019800060E08AE00C94341261E089E00E94341235
:1019900061E08AE00E94341281E08093C6010895DC
:1019A00060E089E00E94341260E08AE00E94341214
:1019B0001092C601089561E082E10E94341261E054
:1019C00089E00E94341281E08093C601089560E0AE
:1019D00082E10E94341260E089E00E943412109289
:1019E000C60160E08FE00E94341260E082E10E9454
:1019F000341260E089E00C9434128091C60108959D
:101A000060E082E00C94341261E082E00C943412C5
:101A100060E085E00C94341261E085E00C943412AF
:101A200066E070E088EC91E00C944B1088EC91E05B
:101A30000C945110CF93DF931F92CDB7DEB78983FB
:101A40000E94100D8981682F70E088EC91E00E945F
:101A500092100F90DF91CF910C94160D61E083E10D
:101A60000E94FB1160E083E10E94341261E082E099
:101A70000E94FB1161E085E00E94FB1161E083E0C0
:101A80000E94FB1161E086E00E94FB1161E083E1AE
:101A90000E94341240E050E06AEF74E48BEC91E075
:101AA0000E94890640E050E06FE274E48BEC91E024
:101AB0000E94EE060E94040D80E00C941A0D6F92B5
:101AC0007F928F929F92AF92BF92CF92EF920F939D
:101AD000CF93DF93CDB7DEB7C454D1090FB6F894D6
:101AE000DEBF0FBECDBF3C014A015B01CC24C394D5
:101AF00035E0E32E04E023E042E064E0CE0101960D
:101B00000E941D068AE06816710409F0CAC080911F
:101B1000CD018B838091CE019091CF01A091D00116
:101B2000B091D1018C839D83AE83BF838091D2011C
:101B30009091D301A091D401B091D5018887998764
:101B4000AA87BB878091D6019091D701A091D80137
:101B5000B091D9018C879D87AE87BF878091DA01CC
:101B60009091DB01A091DC01B091DD01888B998B14
:101B7000AA8BBB8B8091DE019091DF01A091E001E7
:101B8000B091E1018C8B9D8BAE8BBF8B8091E2017C
:101B90009091E301A091E401B091E501888F998FC4
:101BA000AA8FBB8F8091E6019091E701A091E80197
:101BB000B091E9018C8F9D8FAE8FBF8F8091EA012C
:101BC0009091EB01A091EC01B091ED0188A399A354
:101BD000AAA3BBA38091EE019091EF01A091F00127
:101BE000B091F1018CA39DA3AEA3BFA38091F2019C
:101BF0009091F301A091F401B091F50188A799A704
:101C0000AAA7BBA78091F6019091F7019DA78CA789
:101C10008091F8018EA78091F9018FA78091FA0138
:101C20009091FB0199AB88AB8091FC019091FD01F3
:101C30009BAB8AAB8091FE019091FF01A0910002C5
:101C4000B09101028CAB9DABAEABBFAB80910202F9
:101C500090910302A0910402B091050288AF99AF60
:101C6000AAAFBBAF8091060290910702A091080233
:101C7000B09109028CAF9DAFAEAFBFAF80910A02A9
:101C800090910B02A0910C02B0910D0224968CAFA2
:101C90009DAFAEAFBFAF249780910E0225968FAF58
:101CA000259720E030E040E850E4C501B4010E94EF
:101CB000A8180E94C117AB01BC01CE0101960E9479
:101CC000980540E050E068EC72E4CE0101960E9475
:101CD000EE06CE0101960E94FD03672B682B692B4F
:101CE00029F0CE0101960E946D07F3CFCC5BDF4F48
:101CF0000FB6F894DEBF0FBECDBFDF91CF910F912D
:101D0000EF90CF90BF90AF909F908F907F906F900B
:101D10000895CF92DF92EF92FF920F931F93CF938C
:101D2000DF93EB0169017A01009779F0BC01882704
:101D300077FD8095982F0E94F417AB01BC019701A5
:101D400086018AE090E00E945F0D209779F0BE0145
:101D5000882777FD8095982F0E94F417AB01BC016E
:101D6000970186018BE090E00E945F0DDF91CF919B
:101D70001F910F91FF90EF90DF90CF900895809189
:101D8000C7018823A1F040E050E06AE774E48BECDF
:101D900091E00E94EE064AE050E060E070E08BECDB
:101DA00091E00E9498058BEC91E00C9494030895C7
:101DB00081E08093C70108951092C7010895CF92E2
:101DC000EF920F93CC24C39445E0E42E04E024E08A
:101DD00043E062E08BEC91E00E941D0688EC91E00C
:101DE0000F91EF90CF900C94B10F1F920F920FB6FE
:101DF0000F9211242F933F934F935F936F937F9391
:101E00008F939F93AF93BF93EF93FF9380911002B3
:101E100087FF05C010928500109284001AC020919F
:101E20001002332727FD309580910F0290E028178C
:101E300039077CF480911002992787FD9095FC0169
:101E4000EE0FFF1FE80FF91FEF5EFD4F808186FD4B
:101E500015C0809110028F5F8093100220911002B4
:101E6000332727FD309580910F0290E0281739071E
:101E7000BCF4809110028C305CF112C08091100291
:101E8000992787FD9095FC01EE0FFF1FE80FF91FC2
:101E9000EF5EFD4F808160E08F730E943412D9CFD6
:101EA0008091840090918500049680349C4918F4B8
:101EB00080E49CE905C0809184009091850004969F
:101EC00090938900809388008FEF8093100238C030
:101ED000209184003091850080911002992787FD20
:101EE0009095FC01EE0FFF1FE80FF91FEF5EFD4F0D
:101EF00081819281820F931F909389008093880043
:101F000080911002992787FD9095FC01EE0FFF1F2D
:101F1000E80FF91FEF5EFD4F808186FF11C08091B1
:101F20001002992787FD9095FC01EE0FFF1FE80F27
:101F3000F91FEF5EFD4F808161E08F730E943412C4
:101F4000FF91EF91BF91AF919F918F917F916F9191
:101F50005F914F913F912F910F900FBE0F901F9067
:101F6000189520910F022C30A0F431E0320F3093FD
:101F70000F02FC012083822F90E0FC01EE0FFF1F77
:101F8000E80FF91FEF5EFD4F88EB9BE092838183A2
:101F900008952FEFFC0120830895DF92EF92FF92C6
:101FA0000F931F93CF93DF93EC01D62E7A01890113
:101FB00088818C3008F066C061E08D2D0E94FB1195
:101FC0008881A82FB0E0FD01EE0FFF1FEA0FFB1F75
:101FD000EF5EFD4F2D2D2F739081907C922B90837F
:101FE00060E272E06E197F0977FF02C06D5F7F4F7C
:101FF0007595679575956795698340E659E0401B2F
:10200000510B57FF02C04D5F5F4F55954795559552
:1020100047954A836CE00E9476199CE0899FB00145
:10202000112420E030E0A901460F571FFA01EE0FFE
:10203000FF1FE40FF51FEF5EFD4F908196FD16C068
:102040002F5F3F4F2C30310571F781110FC0109277
:10205000800082E0809381001092850010928400BD
:10206000B19A80916F00826080936F00888190E0C8
:10207000FC01EE0FFF1FE80FF91FEF5EFD4F80819F
:10208000806480838881DF91CF911F910F91FF90B1
:10209000EF90DF90089520E639E040E252E00C94A2
:1020A000CD0FFC01808190E0FC01EE0FFF1FE80FD7
:1020B000F91FEF5EFD4F80818F7B80830895FC01C7
:1020C00080818C3070F5918128E830E0291B31093E
:1020D00097FD3395220F331F220F331F62177307AB
:1020E0007CF0928128E532E0291B310997FD339578
:1020F000220F331F220F331F621773070CF49B014B
:1021000022503109220F331F4FB7F89490E0FC01A1
:10211000EE0FFF1FE80FF91FEF5EFD4F32832183A3
:102120004FBF08954F925F926F927F92AF92BF928E
:10213000CF92DF92EF92FF920F931F93CF93DF9393
:10214000EC01603282E078070CF040C077FD06C0F9
:10215000653B71052CF064EB70E002C060E070E05C
:10216000898128E830E0281B310987FD3395220F4B
:10217000331F220F331F5901CC24B7FCC094DC2C31
:10218000882777FD8095982F2A8148E552E0421BE9
:10219000510927FD5395440F551F440F551F2A0120
:1021A000662457FC6094762C7F926F925F924F92D8
:1021B00014EBE12EF12C00E010E020E030E0A9016A
:1021C0000E9498160F900F900F900F90CE01DF9104
:1021D000CF911F910F91FF90EF90DF90CF90BF9024
:1021E000AF907F906F905F904F900C945F101F9214
:1021F0000F920FB60F9211242F933F938F939F93BB
:10220000AF93BF938091360290913702A09138022C
:10221000B09139023091350223E0230F2D3720F49D
:102220000196A11DB11D05C026E8230F0296A11D30
:10223000B11D209335028093360290933702A0930C
:102240003802B093390280913A0290913B02A091FA
:102250003C02B0913D020196A11DB11D80933A024E
:1022600090933B02A0933C02B0933D02BF91AF918B
:102270009F918F913F912F910F900FBE0F901F90C4
:1022800018953FB7F89480913A0290913B02A09143
:102290003C02B0913D0226B5A89B05C02F3F19F026
:1022A0000196A11DB11D3FBF6627782F892F9A2F58
:1022B000620F711D811D911D42E0660F771F881FFF
:1022C000991F4A95D1F70895CF92DF92EF92FF922E
:1022D000CF93DF936B017C010E944111EB01C1148C
:1022E000D104E104F10489F00E94EF160E9441112B
:1022F0006C1B7D0B683E734090F381E0C81AD108D7
:10230000E108F108C851DC4FEACFDF91CF91FF908F
:10231000EF90DF90CF9008958230910538F0880FCC
:10232000991F880F991F05970197F1F708957894E1
:1023300084B5826084BD84B5816084BD85B58260CA
:1023400085BD85B5816085BDEEE6F0E08081816068
:102350008083E1E8F0E01082808182608083808168
:1023600081608083E0E8F0E0808181608083E1EB40
:10237000F0E0808184608083E0EBF0E08081816028
:102380008083EAE7F0E080818460808380818260DE
:1023900080838081816080838081806880831092C7
:1023A000C1000895833081F028F4813099F08230A3
:1023B000A1F008958730A9F08830B9F08430D1F4C5
:1023C000809180008F7D03C0809180008F77809303
:1023D0008000089584B58F7702C084B58F7D84BD59
:1023E00008958091B0008F7703C08091B0008F7DF9
:1023F0008093B0000895CF93DF9390E0FC01E55FF8
:10240000FD4F2491FC01E15EFD4F8491882349F149
:1024100090E0880F991FFC01E35CFD4FA591B491FA
:102420008D5C9D4FFC01C591D4919FB7611108C08F
:10243000F8948C91209582238C93888182230AC002
:10244000623051F4F8948C91322F309583238C9321
:102450008881822B888304C0F8948C91822B8C9382
:102460009FBFDF91CF9108950F931F93CF93DF9379
:102470001F92CDB7DEB7282F30E0F901E950FE4FAB
:102480008491F901E55FFD4F1491F901E15EFD4F83
:1024900004910023C9F0882321F069830E94D2119E
:1024A0006981E02FF0E0EE0FFF1FED5CFD4FA5917D
:1024B000B4919FB7F8948C91611103C0109581235A
:1024C00001C0812B8C939FBF0F90DF91CF911F9103
:1024D0000F910895FC01818D228D90E0805C9F4FCB
:1024E000821B91098F7399270895FC01918D828D2C
:1024F000981731F0828DE80FF11D858D90E00895D9
:102500008FEF9FEF0895FC01918D828D981761F0F8
:10251000828DDF01A80FB11D5D968C91928D9F5F1A
:102520009F73928F90E008958FEF9FEF089587E05B
:1025300094E1892B49F080E090E0892B29F00E94FA
:10254000071481110C9400000895FC01848DDF01B3
:10255000A80FB11DA35ABF4F2C91848D90E0019616
:102560008F739927848FA689B7892C93A089B18905
:102570008C9180648C93938D848D981306C002880F
:10258000F389E02D80818F7D80830895CF93DF9341
:10259000EC01888D8823C9F0EA89FB89808185FD5B
:1025A00005C0A889B9898C9186FD0FC00FB607FCBC
:1025B000F5CF808185FFF2CFA889B9898C9185FFFD
:1025C000EDCFCE010E94A512E7CFDF91CF91089504
:1025D000CF92DF92FF920F931F93CF93DF931F92BF
:1025E000CDB7DEB76C0181E0D60158968C93589731
:1025F0005B969C915B975C968C915C97981307C057
:102600005096ED91FC915197808185FD2EC0F60189
:10261000038D10E00F5F1F4F0F731127F02EF6018F
:10262000848DF81211C00FB607FCF9CFD601509671
:10263000ED91FC915197808185FFF1CFC6016983AF
:102640000E94A5126981EBCF838DE80FF11DE35A3B
:10265000FF4F6083D6015B960C935B975296ED918A
:10266000FC915397808180620CC0D6015696ED9103
:10267000FC91579760835096ED91FC915197808122
:102680008064808381E090E00F90DF91CF911F9173
:102690000F91FF90DF90CF900895BF92CF92DF927D
:1026A000EF92FF92CF93DF93EC016A017B01B22E90
:1026B000E889F98982E08083411581EE5807610538
:1026C0007105A1F060E079E08DE390E0A70196014B
:1026D0000E948219215031094109510956954795A7
:1026E00037952795211580E1380798F0E889F98911
:1026F000108260E874E88EE190E0A70196010E94E4
:10270000821921503109410951095695479537954C
:102710002795EC85FD853083EE85FF852083188E17
:10272000EC89FD89B082EA89FB89808180618083A0
:10273000EA89FB89808188608083EA89FB898081BE
:1027400080688083EA89FB8980818F7D8083DF9127
:10275000CF91FF90EF90DF90CF90BF9008951F92A0
:102760000F920FB60F9211242F938F939F93EF9395
:10277000FF93E0914E02F0914F028081E09154026C
:10278000F091550282FD12C09081809157028F5FB7
:102790008F7320915802821751F0E0915702F0E0B8
:1027A000E25CFD4F958F8093570201C08081FF91BD
:1027B000EF919F918F912F910F900FBE0F901F90CF
:1027C00018951F920F920FB60F9211242F933F93DB
:1027D0004F935F936F937F938F939F93AF93BF9329
:1027E000EF93FF938EE392E00E94A512FF91EF9189
:1027F000BF91AF919F918F917F916F915F914F9119
:102800003F912F910F900FBE0F901F9018958EE360
:1028100092E00E946A1221E0892B09F420E0822FC5
:102820000895109241021092400288EE93E0A0E0D9
:10283000B0E08093420290934302A0934402B0938D
:10284000450285E491E090933F0280933E0285EC3F
:1028500090E090934B0280934A0284EC90E0909336
:102860004D0280934C0280EC90E090934F02809355
:102870004E0281EC90E0909351028093500282ECE2
:1028800090E0909353028093520286EC90E09093F4
:1028900055028093540210925702109258021092DF
:1028A000590210925A020895CF92DF92EF92FF924E
:1028B0000F931F93CF93DF937C016A01EB0100E03C
:1028C00010E00C151D0571F06991D701ED91FC9197
:1028D0000190F081E02DC7010995892B19F00F5F58
:1028E0001F4FEFCFC801DF91CF911F910F91FF9044
:1028F000EF90DF90CF9008956115710581F0DB01B5
:102900000D900020E9F7AD0141505109461B570BCE
:10291000DC01ED91FC910280F381E02D099480E0CF
:1029200090E00895EF92FF920F931F93CF93DF9360
:102930008C017B01C0E0D0E0F701EC0FFD1F64913A
:10294000662359F0F801A081B181ED91FC91C80195
:102950000995892B11F02196EFCFCE01DF91CF9110
:102960001F910F91FF90EF9008950C947C14DC015F
:10297000ED91FC910190F081E02D099461E571E009
:102980000C947C140F931F93CF93DF93EC010E9460
:1029900092148C01CE010E94BE14800F911FDF9112
:1029A000CF911F910F9108950F931F93CF93DF93B2
:1029B000EC010E947C148C01CE010E94BE14800F99
:1029C000911FDF91CF911F910F9108958F929F9248
:1029D000AF92BF92CF92DF92EF92FF920F931F932D
:1029E000CF93DF93CDB7DEB7A1970FB6F894DEBFD4
:1029F0000FBECDBF7C01C42EE52FCB01D22E19A274
:102A000021E02D1510F02AE0D22E8E010F5D1F4F10
:102A10008D2C912CA12CB12C6C2D7E2FA501940115
:102A20000E9482198C2DD29E801911240150110907
:102A30008A3014F4805D01C0895CF801808321151F
:102A400031054105510521F0C22EE32FCA01E4CF23
:102A5000B801C7010E947C14A1960FB6F894DEBF9E
:102A60000FBECDBFDF91CF911F910F91FF90EF90DF
:102A7000DF90CF90BF90AF909F908F900895CF92AE
:102A8000DF92EF92FF920F931F93CF93DF93EC01AE
:102A90006A017B012115310579F4E881F981019002
:102AA000F081E02D642FDF91CF911F910F91FF9066
:102AB000EF90DF90CF9009942A303105E9F477FF49
:102AC0001AC06DE20E94B7148C0144275527BA0141
:102AD0004C195D096E097F092AE0CE010E94E614B7
:102AE000800F911FDF91CF911F910F91FF90EF9079
:102AF000DF90CF9008952AE0B701A601CE01DF91C3
:102B0000CF911F910F91FF90EF90DF90CF900C9499
:102B1000E6140F931F93CF93DF93EC010E943F15B0
:102B20008C01CE010E94BE14800F911FDF91CF91C6
:102B30001F910F9108954F925F926F927F928F92A3
:102B40009F92AF92BF92CF92DF92EF92FF920F933C
:102B50001F93CF93DF93EC016A017B01B22E9A01A0
:102B6000AB01C701B6010E944D19882319F064E535
:102B700071E027C026013701E89477F82FEF3FEF87
:102B80004FE75FE7C301B2010E944D1981110DC0EB
:102B90002FEF3FEF4FE75FE7C301B2010E945517E8
:102BA00018161CF468E571E00CC02FEF3FEF4FE7FB
:102BB0005FE4C701B6010E94A4181816ACF46CE5D6
:102BC00071E0CE01DF91CF911F910F91FF90EF90B7
:102BD000DF90CF90BF90AF909F908F907F906F903D
:102BE0005F904F900C947C142FEF3FEF4FE75FEC1A
:102BF000C701B6010E94551787FDE1CF20E030E004
:102C0000A901C701B6010E94551787FF0AC06DE2EE
:102C1000CE010E94B7148C01F7FAF094F7F8F09403
:102C200002C000E010E0A12C60E070E080E09FE3D3
:102C3000AB1441F020E030E040E251E40E9459172B
:102C4000A394F6CF9B01AC01C701B6010E94F11617
:102C50006B017C010E94C6172B013C010E94F217F8
:102C60009B01AC01C701B6010E94F0166B017C010B
:102C70002AE0B301A201CE010E94E614080F191F39
:102C8000BB2039F060E671E0CE010E947C14080F91
:102C9000191F7B2C772041F120E030E040E251E425
:102CA000C701B6010E94A8186B017C010E94C117E0
:102CB0004B01AA2497FCA094BA2C2AE030E0B5017D
:102CC000A401CE010E943F15080F191FC501B401D0
:102CD0000E94F4179B01AC01C701B6010E94F016D7
:102CE0006B017C017A94D6CFC801DF91CF911F91FF
:102CF0000F91FF90EF90DF90CF90BF90AF909F909B
:102D00008F907F906F905F904F9008950F931F93D7
:102D1000CF93DF93EC010E949B158C01CE010E94A2
:102D2000BE14800F911FDF91CF911F910F910895D5
:102D30004F925F926F927F92AF92BF92CF92DF924B
:102D4000EF92FF920F931F93CF93DF93CDB7DEB730
:102D500029013A01621B730B840B950B29893A896F
:102D60004B895C892A193B094C095D09298B3A8BEF
:102D70004B8B5C8B9B01AC0169897A898B899C891F
:102D80000E946619E418F50806091709A8019701B9
:102D90000E94A4192A0D3B1D4C1D5D1DCA01B901DD
:102DA000DF91CF911F910F91FF90EF90DF90CF9027
:102DB000BF90AF907F906F905F904F90089508956F
:102DC0000E9497110E94DF160E94B209C7E9D2E162
:102DD0000E94CC092097E1F30E949712F9CF089541
:102DE0005058BB27AA270ED075C166D130F06BD1E1
:102DF00020F031F49F3F11F41EF45BC10EF4E09516
:102E0000E7FB51C1E92F77D180F3BA176207730747
:102E10008407950718F071F49EF58FC10EF4E095C4
:102E20000B2EBA2FA02D0B01B90190010C01CA0184
:102E3000A0011124FF27591B99F0593F50F4503E2F
:102E400068F11A16F040A22F232F342F4427585F21
:102E5000F3CF469537952795A795F0405395C9F739
:102E60007EF41F16BA0B620B730B840BBAF09150F1
:102E7000A1F0FF0FBB1F661F771F881FC2F70EC090
:102E8000BA0F621F731F841F48F487957795679563
:102E9000B795F7959E3F08F0B3CF9395880F08F04C
:102EA0009927EE0F979587950895D9D008F481E07A
:102EB00008950CD00FC107D140F0FED030F021F4BE
:102EC0005F3F19F0F0C0511139C1F3C014D198F32C
:102ED0009923C9F35523B1F3951B550BBB27AA279B
:102EE00062177307840738F09F5F5F4F220F331F0D
:102EF000441FAA1FA9F333D00E2E3AF0E0E830D0D9
:102F000091505040E695001CCAF729D0FE2F27D0DB
:102F1000660F771F881FBB1F261737074807AB07A9
:102F2000B0E809F0BB0B802DBF01FF2793585F4F1E
:102F30002AF09E3F510568F0B6C000C15F3FECF338
:102F4000983EDCF3869577956795B795F7959F5FE3
:102F5000C9F7880F911D9695879597F90895E1E037
:102F6000660F771F881FBB1F621773078407BA0796
:102F700020F0621B730B840BBA0BEE1F88F7E095F1
:102F8000089504D06894B111D9C00895BCD088F0D8
:102F90009F5790F0B92F9927B751A0F0D1F0660F45
:102FA000771F881F991F1AF0BA95C9F712C0B13060
:102FB00081F0C3D0B1E00895C0C0672F782F882773
:102FC000B85F39F0B93FCCF3869577956795B3959F
:102FD000D9F73EF490958095709561957F4F8F4F0E
:102FE0009F4F0895E89409C097FB3EF49095809513
:102FF000709561957F4F8F4F9F4F9923A9F0F92FBF
:1030000096E9BB279395F695879577956795B7953C
:10301000F111F8CFFAF4BB0F11F460FF1BC06F5F22
:103020007F4F8F4F9F4F16C0882311F096E911C034
:10303000772321F09EE8872F762F05C0662371F055
:1030400096E8862F70E060E02AF09A95660F771F69
:10305000881FDAF7880F9695879597F90895990F45
:103060000008550FAA0BE0E8FEEF16161706E80752
:10307000F907C0F012161306E407F50798F0621B73
:10308000730B840B950B39F40A2661F0232B242B48
:10309000252B21F408950A2609F4A140A6958FEF67
:1030A000811D811D089597F99F6780E870E060E0B9
:1030B00008959FEF80EC089500240A9416161706D1
:1030C00018060906089500240A9412161306140619
:1030D00005060895092E0394000C11F4882352F07C
:1030E000BB0F40F4BF2B11F460FF04C06F5F7F4F34
:1030F0008F4F9F4F089557FD9058440F551F59F01B
:103100005F3F71F04795880F97FB991F61F09F3FD4
:1031100079F087950895121613061406551FF2CFFD
:103120004695F1DF08C0161617061806991FF1CF4D
:1031300086957105610508940895E894BB27662774
:103140007727CB0197F908958ADF08F48FEF089568
:103150000BD0C0CFB1DF28F0B6DF18F0952309F00F
:10316000A2CFA7CF1124EACFC6DFA0F3959FD1F35A
:10317000950F50E0551F629FF001729FBB27F00D25
:10318000B11D639FAA27F00DB11DAA1F649F66277A
:10319000B00DA11D661F829F2227B00DA11D621FC9
:1031A000739FB00DA11D621F839FA00D611D221F83
:1031B000749F3327A00D611D231F849F600D211D67
:1031C000822F762F6A2F11249F5750408AF0E1F00A
:1031D00088234AF0EE0FFF1FBB1F661F771F881F53
:1031E00091505040A9F79E3F510570F05CCFA6CF9B
:1031F0005F3FECF3983EDCF3869577956795B7953E
:10320000F795E7959F5FC1F7FE2B880F911D969567
:10321000879597F9089511F40EF44BCF42C073DFF0
:10322000D0F39923D9F3CEF39F57550B87FF47D09F
:103230000024A0E640EA900180585695979528F41E
:10324000805C660F771F881F20F026173707480716
:1032500030F4621B730B840B202931294A2BA6956D
:1032600017940794202531254A2758F7660F771FB2
:10327000881F20F026173707480730F4620B730BBE
:10328000840B200D311D411DA09581F7B901842FBC
:103290009158880F969587950895E1DE880B990BD4
:1032A00008959F3F31F0915020F487957795679569
:1032B000B795880F911D9695879597F90895915028
:1032C0005040660F771F881FD2F70895DB018F9358
:1032D0009F930E94C919BF91AF91A29F800D911D2C
:1032E000A39F900DB29F900D11240895991B79E032
:1032F00004C0991F961708F0961B881F7A95C9F786
:1033000080950895A1E21A2EAA1BBB1BFD010DC0DA
:10331000AA1FBB1FEE1FFF1FA217B307E407F50785
:1033200020F0A21BB30BE40BF50B661F771F881F61
:10333000991F1A9469F760957095809590959B01F7
:10334000AC01BD01CF010895052E97FB1EF400943A
:103350000E94BB1957FD07D00E94821907FC03D0B9
:103360004EF40C94BB1950954095309521953F4FE4
:103370004F4F5F4F089590958095709561957F4F61
:103380008F4F9F4F0895EE0FFF1F0590F491E02D92
:1033900009940E94D419A59F900DB49F900DA49FED
:1033A000800D911D11240895A29FB001B39FC0010B
:1033B000A39F700D811D1124911DB29F700D811D61
:1033C0001124911D0895CF93DF938230910510F45D
:1033D00082E090E0E091DD02F091DE0220E030E05A
:1033E000A0E0B0E0309739F140815181481759078A
:1033F000B8F04817590771F482819381109729F02A
:1034000013969C938E9312972CC09093DE02809318
:10341000DD0227C02115310531F04217530718F09E
:10342000A901DB0101C0EF019A01BD01DF010280AA
:10343000F381E02DD7CF21153105F9F0281B390B89
:103440002430310580F48A819B816115710521F05A
:10345000FB019383828304C09093DE028093DD029C
:10346000FE01329644C0FE01E20FF31F8193919357
:1034700022503109398328833AC02091DB023091F0
:10348000DC02232B41F4209102013091030130939F
:10349000DC022093DB022091000130910101211513
:1034A000310541F42DB73EB740910401509105011B
:1034B000241B350BE091DB02F091DC02E217F307ED
:1034C000A0F42E1B3F0B2817390778F0AC014E5F94
:1034D0005F4F2417350748F04E0F5F1F5093DC02F3
:1034E0004093DB028193919302C0E0E0F0E0CF01D2
:1034F000DF91CF910895CF93DF93009709F487C0B0
:10350000FC01329713821282C091DD02D091DE025B
:10351000209781F420813181280F391F8091DB02AF
:103520009091DC028217930779F5F093DC02E09327
:10353000DB026DC0DE0120E030E0AE17BF0750F4C3
:1035400012964D915C9113979D014115510509F11A
:10355000DA01F3CFB383A28340815181840F951F99
:103560008A179B0771F48D919C911197840F951F79
:1035700002969183808312968D919C9113979383E9
:1035800082832115310529F4F093DE02E093DD02F8
:103590003EC0D9011396FC93EE9312974D915D9125
:1035A000A40FB51FEA17FB0779F480819181840F7E
:1035B000951F0296D90111969C938E9382819381D7
:1035C00013969C938E931297E0E0F0E08A819B81A2
:1035D000009719F0FE01EC01F9CFCE010296288187
:1035E0003981820F931F2091DB023091DC02281772
:1035F000390769F4309729F41092DE021092DD0247
:1036000002C013821282D093DC02C093DB02DF91EE
:10361000CF910895A0E0B0E0E0E1FBE10C94CE1C76
:103620008B016115710521F0DB018C9311969C9340
:10363000EC015E01BFEFAB1ABB0A7501C8808C2D8F
:1036400090E00E948B1C892B11F0E501F2CFEDE296
:10365000CE1208C07E01F2E0EF0EF11CC980DD241D
:10366000D39409C02BE2C21205C07E0142E0E40EF1
:10367000F11CC980D12CE701219743E050E06FE4B1
:1036800072E0CE010E94931C892BC1F4239645E081
:1036900050E06AE472E0CE010E94931C892B09F489
:1036A00025960115110519F0D801CD93DC93D110A1
:1036B00006C160E070E080E89FE70AC143E050E0A7
:1036C00067E472E0CE010E94931C892B59F4011526
:1036D000110509F4F9C0B2E0EB0EF11CF801F1821A
:1036E000E082F2C0F70160E070E0CB01C0E0D0E022
:1036F0007F01A0EDAA2EAC0C29E02A1530F14D2D4A
:103700004260B42E2D2D2870D2FE04C0211125C098
:10371000219623C021112197A5E0B0E09B01AC01C7
:103720000E94C919660F771F881F991F6A0D711DA6
:10373000811D911D6839A9E97A078A07A9E19A07CD
:1037400060F0BD2DB660BB2E08C02EEFA2120AC0DD
:10375000D3FC50C04D2D4860B42E3196D701CC908B
:10376000DB2CC6CF2C2D2F7D253409F043C0A08142
:10377000AD3241F4BD2DB061DB2E7F0122E0E20EBF
:10378000F11C0CC07F01AB3231F04FEFE41AF40AA8
:1037900021E030E006C0A2E0EA0EF11CA18122E0A7
:1037A00030E0A053AA3018F0E21AF30A23C0F70160
:1037B00020E030E02038BCE03B075CF4A901440F76
:1037C000551F440F551F240F351F220F331F2A0F7B
:1037D000311DAF014F5F5F4F7A01A081A053AA3026
:1037E00010F4FA01E7CFD4FE03C0319521953109D9
:1037F000C20FD31FD1FE09C00115110531F0E1E060
:10380000EE1AF108D801ED92FC920E94F2172D2DCC
:103810002370233019F04B015C0106C04B015C01A1
:10382000B7FAB094B7F8B09420E030E0A901C50130
:10383000B4010E945517882309F43EC0D7FF06C083
:10384000D195C195D10906E612E002C00EE712E05B
:103850006801B8E1CB1AD10890E2E92EF12CCE151F
:10386000DF0574F0F8012591359145915491C5011A
:10387000B4010E94A8184B015C01CE19DF09EFCFFB
:1038800004501109F594E7940C151D0541F78A2D94
:10389000880F8B2D881F8F3F49F020E030E0A90171
:1038A000C501B4010E945517811106C082E290E063
:1038B0009093E0028093DF02C501B40109C060E08B
:1038C00070E080E89FEF04C060E070E080EC9FE76C
:1038D000CDB7DEB7ECE00C94EA1CFC0188279927F1
:1038E000E89421912032E9F3293010F02E30C8F30A
:1038F0002B3241F02D3239F4689404C00E94BD1C73
:10390000820F911D219120532A30C0F31EF490950F
:1039100081959F4F0895911138C0803219F08950D8
:103920008550D0F70895FB01DC014150504088F0EC
:103930008D9181341CF08B350CF4805E659161347F
:103940001CF06B350CF4605E861B611171F3990BF2
:103950000895881BFCCFDC0101C06D93415050409D
:10396000E0F70895FC018191861721F08823D9F7AB
:10397000992708953197CF0108957AE0979F902D68
:10398000879F802D910D11240895992788270895E8
:103990002F923F924F925F926F927F928F929F925F
:1039A000AF92BF92CF92DF92EF92FF920F931F934D
:1039B000CF93DF93CDB7DEB7CA1BDB0B0FB6F894FE
:1039C000DEBF0FBECDBF09942A88398848885F843E
:1039D0006E847D848C849B84AA84B984C884DF80AF
:1039E000EE80FD800C811B81AA81B981CE0FD11D93
:1039F0000FB6F894DEBF0FBECDBFED01089512E003
:103A0000C8E8D2E004C0FE010E94C5192296CA3857
:083A1000D107C9F7F894FFCFBC
:103A18000000E10280000100000000401C460A008E
:103A280000000000480361033E026F01BC028202ED
:103A3800D202F3022703B3010902762E323031365F
:103A480030363230004142530052454C0054004653
:103A58000000000000E81254146A1283127512C69E
:103A6800120D0A006E616E00696E66006F76660060
:023A78002E001E
:107E0000112484B714BE81FFF0D085E080938100F7
:107E100082E08093C00088E18093C10086E0809377
:107E2000C20080E18093C4008EE0C9D0259A86E02C
:107E300020E33CEF91E0309385002093840096BBD3
:107E4000B09BFECF1D9AA8958150A9F7CC24DD24C4
:107E500088248394B5E0AB2EA1E19A2EF3E0BF2EE7
:107E6000A2D0813461F49FD0082FAFD0023811F036
:107E7000013811F484E001C083E08DD089C08234E0
:107E800011F484E103C0853419F485E0A6D080C0E4
:107E9000853579F488D0E82EFF2485D0082F10E0AE
:107EA000102F00270E291F29000F111F8ED06801E7
:107EB0006FC0863521F484E090D080E0DECF843638
:107EC00009F040C070D06FD0082F6DD080E0C81688
:107ED00080E7D80618F4F601B7BEE895C0E0D1E017
:107EE00062D089930C17E1F7F0E0CF16F0E7DF06D8
:107EF00018F0F601B7BEE89568D007B600FCFDCFD4
:107F0000A601A0E0B1E02C9130E011968C91119780
:107F100090E0982F8827822B932B1296FA010C0160
:107F200087BEE89511244E5F5F4FF1E0A038BF0790
:107F300051F7F601A7BEE89507B600FCFDCF97BE46
:107F4000E89526C08437B1F42ED02DD0F82E2BD052
:107F50003CD0F601EF2C8F010F5F1F4F84911BD097
:107F6000EA94F801C1F70894C11CD11CFA94CF0C13
:107F7000D11C0EC0853739F428D08EE10CD085E9AC
:107F80000AD08FE07ACF813511F488E018D01DD067
:107F900080E101D065CF982F8091C00085FFFCCF94
:107FA0009093C60008958091C00087FFFCCF809118
:107FB000C00084FD01C0A8958091C6000895E0E648
:107FC000F0E098E1908380830895EDDF803219F02E
:107FD00088E0F5DFFFCF84E1DECF1F93182FE3DFCA
:107FE0001150E9F7F2DF1F91089580E0E8DFEE27F6
:047FF000FF270994CA
:027FFE00040479
:0400000300007E007B
:00000001FF
