:100000000C944B010C9473010C9473010C947301C8
:100010000C9473010C9473010C9473010C94730190
:100020000C9473010C9473010C9473010C94970558
:100030000C9473010C9473010C9473010C94730170
:100040000C944D050C9473010C945A030C94000FFE
:100050000C9473010C9473010C9473010C94730150
:100060000C9473010C947301C501CB01D101D7012C
:10007000DD01E301E90124032B03320339034003CB
:100080005703470357034E03851285128512B21298
:100090008512A412AC12B012000000002400270048
:1000A0002A0000000008000201000003040700000D
:1000B0000000000000004D3131343B202D207265DE
:1000C000706F727420706F736974696F6E20616EE7
:1000D00064206665656472617465004D3130303B43
:1000E000202D20746869732068656C70206D6573BD
:1000F00073616765004D32323B202D207475726E3E
:10010000207269676874206C61736572206F66661F
:10011000004D32313B202D207475726E207269675C
:100120006874206C61736572206F6E004D32303BD5
:10013000202D207475726E206C656674206C61735E
:100140006572206F6666004D31393B202D20747535
:10015000726E206C656674206C61736572206F6EC0
:10016000004D31383B202D2064697361626C65203D
:100170006D6F746F7273004D31373B202D20656EAB
:1001800061626C65206D6F746F727300473031204F
:100190005B54287374657073295D205B4C287374FD
:1001A000657073295D205B462866656564726174BD
:1001B00065295D3B202D206D6F766500473030202E
:1001C0005B54287374657073295D3B202D206C6926
:1001D0006E656172206D6F766500436F6D6D616E47
:1001E00064733A004661625363616E20472D434F4A
:1001F00044444520496E746572707265746572205E
:1002000056657273696F6E3A200042414443484517
:10021000434B53554D20004241444C494E454E55A9
:100220004D20003E0001020408102040800102041D
:1002300008102001020408102000000000250028FA
:10024000002B000404040404040404020202020259
:10025000020303030303034E414E494E49545949D7
:100260004E46CDCCCC3D0AD7233C17B7D13877CCFE
:100270002B329595E6241FB14F0A00002041000063
:10028000C84200401C4620BCBE4CCA1B0E5AAEC51C
:100290009D74360F260F11241FBECFEFD8E0DEBFAE
:1002A000CDBF11E0A0E0B1E0E2E3F4E302C00590CD
:1002B0000D92AA35B107D9F722E0AAE5B1E001C055
:1002C0001D92A03DB207E1F711E0CAE4D1E004C0FD
:1002D0002197FE010E94EA13C934D107C9F70E9491
:1002E00088100C940C1A0C940000FC01918D828DE6
:1002F000981761F0828DDF01A80FB11D5D968C917A
:10030000928D9F5F9F73928F90E008958FEF9FEF84
:100310000895FC01918D828D981731F0828DE80F40
:10032000F11D858D90E008958FEF9FEF0895FC01FA
:10033000918D228D892F90E0805C9F4F821B9109C7
:100340008F739927089580E090E0892B29F00E940F
:10035000FE0D81110C9400000895CF93DF93477038
:10036000552766277727FA013197EC01A881B981D3
:10037000E730F10520F4EC5CFF4F0C94EA1314967F
:10038000ED91FC91159761E029C01496ED91FC91D7
:10039000159765E023C01496ED91FC91159764E0E4
:1003A0001DC01496ED91FC91159766E017C0149648
:1003B000ED91FC91159762E011C01496ED91FC91BE
:1003C00015976AE00BC01496ED91FC91159768E0C3
:1003D00005C01496ED91FC91159769E0DF91CF91DE
:1003E0000994CF93DF93EC01CB01BA0126E030E012
:1003F00040E050E00E94721962307105810591055C
:1004000059F18CF46115710581059105F1F06130A8
:10041000710581059105C1F5E881F9810480F581B7
:10042000E02D65E02DC0643071058105910511F165
:10043000D4F0653071058105910531F5E881F981C8
:100440000480F581E02D66E01BC0E881F98104801D
:10045000F581E02D64E014C0E881F9810480F58124
:10046000E02D61E00DC0E881F9810480F581E02D87
:1004700063E006C0E881F9810480F581E02D62E047
:10048000CE01DF91CF910994DF91CF910895437010
:10049000552766277727DC01ED91FC910480F581D3
:1004A000E02D423051056105710571F04330510571
:1004B0006105710559F0413051056105710511F073
:1004C00065E005C066E003C06AE001C069E0099428
:1004D000CF93DF93EC01CB01BA0123E030E040E0A1
:1004E00050E00E947219613071058105910581F01B
:1004F000623071058105910591F0672B682B692B9E
:10050000C1F4E881F9810480F581E02D64E00DC03B
:10051000E881F9810480F581E02D61E006C0E88181
:10052000F9810480F581E02D62E0CE01DF91CF9169
:100530000994DF91CF910895437055276627772757
:10054000DC01ED91FC910480F581E02D42305105F4
:100550006105710571F0433051056105710559F070
:10056000413051056105710511F062E005C063E09D
:1005700003C061E001C060E009940F931F93CF9323
:10058000DF93EC01E881F9810480F581E02D8C0195
:100590000D5B1F4FD8018C91811102C060E001C03A
:1005A00062E0CE010995E881F9810480F581E02DB2
:1005B000D8018C91811102C061E001C063E0CE01DD
:1005C0000995EBA5FCA5E230F10538F0EE0FFF1F11
:1005D000EE0FFF1F35973197F1F7E881F98104801D
:1005E000F581E02DD8018C91811102C060E001C03D
:1005F00062E0CE01DF91CF911F910F910994CF93CB
:10060000DF93EC0120E030E0A9016B897C898D89C2
:100610009E890E94051518161CF4EFA5F8A902C0C2
:10062000E9A9FAA9DF91CF9109940F931F93DC01F7
:100630001296EC910E2F10E009301105C0F5F8016B
:10064000E55CFF4F0C94EA13DC01ED91FC91008412
:10065000F185E02D29C0DC01ED91FC910284F38548
:10066000E02D22C0DC01ED91FC910484F585E02DA4
:100670001BC0DC01ED91FC910684F785E02D14C0D0
:10068000DC01ED91FC910088F189E02D0DC0DC01C9
:10069000ED91FC910288F389E02D06C0DC01ED911B
:1006A000FC910488F589E02D1F910F9109941F9109
:1006B0000F9108951F920F920FB60F9211242F934E
:1006C0008F939F93EF93FF93E091B701F091B8015F
:1006D0008081E091BD01F091BE0182FD12C0908148
:1006E0008091C0018F5F8F732091C101821751F0FB
:1006F000E091C001F0E0E955FE4F958F8093C00175
:1007000001C08081FF91EF919F918F912F910F9068
:100710000FBE0F901F901895FC01848DDF01A80F6C
:10072000B11DA35ABF4F2C91848D90E001968F7319
:100730009927848FA689B7892C93A089B1898C9138
:1007400080648C93938D848D981306C00288F389FE
:10075000E02D80818F7D80830895EF92FF920F932B
:100760001F93CF93DF93EC0181E0888F9B8D8C8D5D
:10077000981305C0E889F989808185FD24C0F62E8B
:100780000B8D10E00F5F1F4F0F731127E02E8C8D24
:10079000E8120CC00FB607FCFACFE889F98980810E
:1007A00085FFF5CFCE010E948C03F1CF8B8DFE012A
:1007B000E80FF11DE35AFF4FF0820B8FEA89FB89A6
:1007C0008081806207C0EE89FF896083E889F989AA
:1007D00080818064808381E090E0DF91CF911F91E0
:1007E0000F91FF90EF900895CF93DF93EC01888DE8
:1007F0008823C9F0EA89FB89808185FD05C0A88925
:10080000B9898C9186FD0FC00FB607FCF5CF8081AA
:1008100085FFF2CFA889B9898C9185FFEDCFCE01F4
:100820000E948C03E7CFDF91CF91089590E0FC0107
:10083000EE55FF4F3491FC01EB5DFD4F2491FC011F
:10084000ED5BFD4FE491EE2309F43BC0332339F116
:10085000333091F038F43130A9F0323001F584B5FD
:100860008F7D12C0373091F03830A1F03430B9F4B8
:10087000809180008F7D03C0809180008F7780936E
:1008800080000DC084B58F7784BD09C08091B00011
:100890008F7703C08091B0008F7D8093B000F0E02F
:1008A000EE0FFF1FE75CFD4FA591B4918FB7F89451
:1008B000EC91611103C020952E2301C02E2B2C93A7
:1008C0008FBF0895CF93DF93FC012281222389F00B
:1008D000EC010190F081E02D0480F581E02D60E0D5
:1008E00009958EA58F3F29F06DA5DF91CF910C94CE
:1008F0001604DF91CF910895CF92DF92EF92FF928D
:100900000F931F93CF93DF93FC012281243041F09A
:10091000283031F0233031F0263021F012E003C0CE
:1009200014E001C013E0EC012796E12CF12CC62E57
:10093000D12C01E0C6010E2C02C0959587950A9432
:10094000E2F7688180FD6027FE01349780810E9474
:100950001604FFEFEF1AFF0A2196E11658F3DF9114
:10096000CF911F910F91FF90EF90DF90CF9008955E
:10097000CF93DF9390E0FC01EB5DFD4F2491FC01F0
:10098000ED5BFD4F8491882361F190E0880F991F02
:10099000FC01E856FF4FC591D491FC01E75CFD4F87
:1009A000A591B491611109C09FB7F89488812095F1
:1009B00082238883EC912E230BC0623061F49FB7B1
:1009C000F8943881822F809583238883EC912E2B95
:1009D0002C939FBF06C08FB7F894E8812E2B2883F5
:1009E0008FBFDF91CF910895CF93DF93FC012281D8
:1009F000222359F1EC0161E083810E94B80461E097
:100A00008C810E94B8048A81843011F0883039F4D6
:100A100061E08D810E94B80461E08E8106C0833060
:100A200011F0863021F461E08D810E94B8048EA51A
:100A30008F3F59F061E00E94B8046DA581E06827FE
:100A40008EA5DF91CF910C941604DF91CF9108957C
:100A50003FB7F8948091600190916101A09162018B
:100A6000B091630126B5A89B05C02F3F19F00196F0
:100A7000A11DB11D3FBFBA2FA92F982F8827820F24
:100A8000911DA11DB11DBC01CD0142E0660F771F74
:100A9000881F991F4A95D1F708951F920F920FB69C
:100AA0000F9211242F933F938F939F93AF93BF93F4
:100AB00080915C0190915D01A0915E01B0915F0118
:100AC00030915B0123E0230F2D3720F40196A11D07
:100AD000B11D05C026E8230F0296A11DB11D20936C
:100AE0005B0180935C0190935D01A0935E01B093E4
:100AF0005F018091600190916101A0916201B091CC
:100B000063010196A11DB11D809360019093610165
:100B1000A0936201B0936301BF91AF919F918F91B8
:100B20003F912F910F900FBE0F901F9018951F921D
:100B30000F920FB60F9211242F933F934F935F9311
:100B40006F937F938F939F93AF93BF93EF93FF9395
:100B500080915A0187FF05C0109285001092840091
:100B60001BC020915A01022E000C330B80916802A9
:100B700090E02817390784F480915A01082E000C60
:100B8000990BFC01EE0FFF1F8E0F9F1FFC01EC5B0A
:100B9000FD4F808186FD15C080915A018F5F809343
:100BA0005A0120915A01022E000C330B80916802E9
:100BB00090E028173907C4F480915A018C3064F111
:100BC00013C080915A01082E000C990BFC01EE0F06
:100BD000FF1F8E0F9F1FFC01EC5BFD4F808160E0CB
:100BE0008F730E941604D8CF809184009091850065
:100BF000049680349C4918F480E49CE905C08091F7
:100C000084009091850004969093890080938800D9
:100C10008FEF80935A013BC0209184003091850072
:100C200080915A01082E000C990BFC01EE0FFF1F5A
:100C30008E0F9F1FFC01EC5BFD4F81819281820F23
:100C4000931F909389008093880080915A01082E09
:100C5000000C990BFC01EE0FFF1F8E0F9F1FFC0174
:100C6000EC5BFD4F808186FF12C080915A01082EF7
:100C7000000C990BFC01EE0FFF1F8E0F9F1FFC0154
:100C8000EC5BFD4F808161E08F730E941604FF9141
:100C9000EF91BF91AF919F918F917F916F915F91F4
:100CA0004F913F912F910F900FBE0F901F9018956D
:100CB0008F929F92AF92BF92EF92FF920F931F93EA
:100CC000CF93DF93082F809169028C3008F051C0D8
:100CD00061E086E00E94B80480916902E82FF0E0AC
:100CE0009F01220F331FE20FF31FEC5BFD4F90813A
:100CF000907C9660908310926A0210926B026CE076
:100D00000E94DE139CE0899FB001112440E050E076
:100D10009A01260F371FF901EE0FFF1F2E0F3F1FFD
:100D2000F901EC5BFD4F908196FD16C04F5F5F4F60
:100D30004C30510569F781110FC01092800082E09C
:100D4000809381001092850010928400B19A809166
:100D50006F00826080936F00E0916902F0E0CF0144
:100D6000880F991FE80FF91FEC5BFD4F80818064AD
:100D7000808390916B0280916A02109169021C300D
:100D800008F052C028E532E07901E91AF10897FD30
:100D9000F394EE0CFF1CEE0CFF1CC8E8D0E0C81B5F
:100DA000D10987FDD395CC0FDD1FCC0FDD1F4E0180
:100DB0000D2E000CAA08BB08A02FB0E0A53BB10582
:100DC00014F0A4EBB0E0A7010F2C000C660B770B1E
:100DD0009A01AB01281939094A095B090E949C193B
:100DE00024EB30E040E050E00E947219820E931E26
:100DF000A41EB51E8C169D062CF0E401E814F9041F
:100E00000CF4E7012297CC0FDD1F2FB7F894812F48
:100E100090E0FC01EE0FFF1F8E0F9F1FFC01EC5BAB
:100E2000FD4FD283C1832FBFE0916902F0E0CF0173
:100E3000880F991FE80FF91FEC5BFD4F80818F7BB6
:100E40008083DF91CF911F910F91FF90EF90BF9022
:100E5000AF909F908F90089560E082E10E94160409
:100E600060E089E00E9416041092640160E08FE067
:100E70000E94160460E082E10E94160460E089E0AE
:100E80000C94160460E089E00E94160460E08AE099
:100E90000E9416041092640108958F929F92BF924F
:100EA000CF92DF92EF92FF920F931F93CF93DF9336
:100EB000CDB7DEB729970FB6F894DEBF0FBECDBF12
:100EC000962F50E060E070E0592B682BCB01AA27E9
:100ED000BB27152FB82EBC01812C912CA0E0B0E0CF
:100EE00020E030E08091B2029091B30228173907D8
:100EF000E0F58091B702882371F0869F7001879F8B
:100F0000F00C1124189F600111240D2D489FC00181
:100F10001124592F03C0542F012FFB2CE090BD0248
:100F2000D090BA028091B8029091B902ED1003C03E
:100F30008A0F9B1F07C0880D991D6C01CE0CD11C18
:100F4000F6011082E090BA026C01CE0CD11CF601C1
:100F5000F082F090BB02FC01EF0DF11D00830091C7
:100F6000BC02800F911DFC0150832F5F3F4F1396F1
:100F7000F4E08F0E911C2031310509F0B3CF809140
:100F8000B8029091B902892B09F4A1C00E942805EA
:100F90000091BE021091BF022091C0023091C102A7
:100FA000DC01CB01801B910BA20BB30BC297A105F7
:100FB000B10560F3F8948091B4029091B5029A83E0
:100FC0008983E091B802F091B902DF011196808126
:100FD00089879091B002E091C202F091C3028091A2
:100FE000C402992309F42EC09081982B9887908190
:100FF000809589238F838F818C8388E08B835885AC
:101000006F8149853B812C8189819A81508347FD7D
:10101000252F3A952083262F39F0441F00C0000069
:101020006083000000C0F2CF38E04D916083000083
:10103000019761F7F093C302E093C20249873B83B3
:101040002C8338C09081982B988790818095892334
:101050008F838F818E8388E08D8358856F8149854A
:101060003D812E8189819A81508347FD252F00C0C3
:1010700000C0208300C000C000C000C000C060836A
:101080000000262F3A9541F0441F000000C000C028
:1010900000C000C000C0E8CF38E04D9100C06083C0
:1010A00000C0019709F7F093C302E093C202498799
:1010B0003D832E839A83898378940E9428056093C8
:1010C000BE027093BF028093C0029093C102299622
:1010D0000FB6F894DEBF0FBECDBFDF91CF911F9149
:1010E0000F91FF90EF90DF90CF90BF909F908F90E7
:1010F00008958F929F92AF92BF92CF92DF92EF921C
:10110000FF926A017B010E94590EA7019601C70157
:10111000B6010E945015882319F086E391E01AC0A9
:1011200046015701E894B7F82FEF3FEF4FE75FE72D
:10113000C501B4010E94501581110FC02FEF3FEF80
:101140004FE75FE7C501B4010E944B1818162CF455
:101150008AE391E00E94590E73C02FEF3FEF4FE7F3
:101160005FE4C701B6010E94051518161CF48EE352
:1011700091E0F0CF2FEF3FEF4FE75FECC701B601F3
:101180000E944B1887FDF3CF20E030E0A901C70192
:10119000B6010E944B1887FF07C08DE20E94870EA0
:1011A000F7FAF094F7F8F0942AE037ED43EA5BE3BE
:1011B000C701B6010E94F1134B015C010E94D614D5
:1011C0006B017C010E9450189B01AC01C501B40168
:1011D0000E94F0134B015C014AE0C701B6010E9476
:1011E000920E82E491E00E94590E20E030E040E24D
:1011F00051E4C501B4010E94B1184B015C010E9489
:10120000D6146B01E12CF12C4AE0C701B6010E9413
:10121000920EC701B6010E9450189B01AC01C50196
:10122000B4010E94F01320E030E040E251E40E945B
:10123000B1180E94D61480E090E04AE00E94920E1D
:1012400084E491E0FF90EF90DF90CF90BF90AF905B
:101250009F908F900C94590EFF920F931F93CF93F2
:10126000DF93F82E8B01C091A501D091A601CB5937
:10127000DE4FE5E6F1E03097C9F090819923B1F0B7
:10128000EC17FD0798F49F1109C0CF010196DF917B
:10129000CF911F910F91FF900C94041860E270E0C1
:1012A000CF010E949C16FC013196E5CFC801DF9169
:1012B000CF911F910F91FF900895CF92DF92EF92FF
:1012C000FF92CF93DF93EC010E9428056B017C0114
:1012D0004FA158A569A57AA58BA19CA1ADA1BEA1DE
:1012E000840F951FA61FB71F84179507A607B7077A
:1012F00030F0C816D906EA06FB0658F405C0C81631
:10130000D906EA06FB0658F1C416D506E606F70626
:1013100030F5FE01ED5BFF4F20818B859C85AD850F
:10132000BE85222321F00196A11DB11D03C00197A6
:10133000A109B1098B879C87AD87BE87E881F981B8
:101340004B855C856D857E850680F781E02DCE011D
:101350000995CFA2D8A6E9A6FAA681E001C080E04F
:10136000DF91CF91FF90EF90DF90CF9008954F9253
:101370005F926F927F92AF92BF92CF92DF92EF9285
:10138000FF920F931F93CF93DF93EC015A018B01D0
:101390002B893C894D895E89B501C8010E944B1893
:1013A000882309F451C0CF88D88CE98CFA8C2601A7
:1013B000370177FA709477F87094A3019201B50120
:1013C000C8010E944B1887FD0BC0A7019601B5010B
:1013D000C8010E94051518162CF06501780102C09D
:1013E0007301620120E030E0A901C701B6010E944B
:1013F0004B18811105C01BA21CA21DA21EA220C059
:10140000A701960160E074E284E799E40E945D140C
:101410009F770E94D6146BA37CA38DA39EA35E012D
:1014200083E4A80EB11C11E020E030E0A901C7015F
:10143000B6010E94051518160CF010E0F501108396
:10144000CB8ADC8AED8AFE8ADF91CF911F910F91C2
:10145000FF90EF90DF90CF90BF90AF907F906F9014
:101460005F904F9008952F923F924F925F926F92AC
:101470007F928F929F92AF92BF92CF92DF92EF9224
:10148000FF920F931F93CF93DF9300D000D0CDB77F
:10149000DEB71C01FC0187849088A188B28883850F
:1014A0009485A585B685881A990AAA0ABB0A638914
:1014B0007489858996899B01AC010E94B1186B01E2
:1014C0007C01F101638D748D858D968D9B01AC013E
:1014D0000E94F1139B01AC01C701B6010E945D148B
:1014E0000E94CF1481149104A104B104A1F46230CC
:1014F0007105810591050CF07CC0F10113A214A2C5
:1015000015A216A2138A148A158A168A13AA14AA77
:1015100015AA16AA03C1F10103A914A925A936A980
:10152000ED5BFF4F181419041A041B04FCF4101689
:101530001106120613064CF4681579058A059B05F9
:101540004CF52081211155C025C00115110521053B
:10155000310509F44EC0681579058A059B050CF024
:1015600048C08081882309F444C037C01016110692
:1015700012061306F4F40027112798010819190917
:101580002A093B0960177107820793071CF4208121
:10159000222379F19B01AC0188279927DC01821B6A
:1015A000930BA40BB50BF10183AB94ABA5ABB6AB1E
:1015B00020C00115110521053105D9F0CC24DD2409
:1015C0007601C818D908EA08FB086C157D058E0558
:1015D0009F057CF4808181110CC030952095109579
:1015E00001951F4F2F4F3F4FF10103AB14AB25ABBC
:1015F00036ABF101C3A8D4A8E5A8F6A881010D5B1C
:101600001F4FC114D104E104F10491F487A990ADF6
:10161000A1ADB2AD83AF94AFA5AFB6AF81E0181462
:1016200019041A041B040CF080E0F801808340C008
:10163000F10183AC94ACA5ACB6ACA5019401C50195
:10164000B4010E94F1132B013C01C701B6010E94B5
:10165000521820E030E040E850E40E94B11820E049
:1016600030E040E85FE30E94F1139B01AC01C3014D
:10167000B2010E945D149B01AC01C501B4010E943E
:10168000F0134B015C01F101FF96408051806280B4
:1016900073809201A3010E940515181614F04201EF
:1016A0005301A401B501F10143AF54AF65AF76AF6B
:1016B000FFEFCF1ADF0AEF0AFF0AF101C3AAD4AA8B
:1016C000E5AAF6AA23AD34AD45AD56ADCA01B901C0
:1016D00029833A834B835C830E94D614F10163A370
:1016E00074A385A396A329813A814B815C8160E034
:1016F00074E284E799E40E945D14F101638B748BBA
:10170000858B968BF8012081211108C0DC01CB016B
:10171000B058F101838B948BA58BB68B0F900F90F3
:101720000F900F90DF91CF911F910F91FF90EF904D
:10173000DF90CF90BF90AF909F908F907F906F90F1
:101740005F904F903F902F9008954F925F926F92CD
:101750007F928F929F92AF92BF92CF92DF92EF9241
:10176000FF92CF93DF93EC016A017B018B8C9C8C01
:10177000AD8CBE8C9A01AB01C501B4010E944B181F
:10178000882309F449C06BA97CA98DA99EA90E9450
:1017900052182B013C01A7019601C501B4010E941A
:1017A0005D149B01AC01C301B2010E94B1180E94FB
:1017B000CF146BAB7CAB8DAB9EABA701960160E009
:1017C00070E080E090E40E945D140E94101526E510
:1017D0003EE04DE25FE30E94B11820E034E244E7CE
:1017E00059E40E94B1186FAB78AF89AF9AAFCB8E36
:1017F000DC8EED8EFE8ECE01DF91CF91FF90EF90CB
:10180000DF90CF90BF90AF909F908F907F906F9020
:101810005F904F900C94330ADF91CF91FF90EF903F
:10182000DF90CF90BF90AF909F908F907F906F9000
:101830005F904F900895EF92FF920F931F93CF9375
:10184000DF93CDB7DEB7C454D1090FB6F894DEBF2D
:101850000FBECDBF7C018B0180E291E09A8389832A
:1018600094E09B831C861D861E861F86188A198A13
:101870001A8A1B8A1C8A1D8A1E8A1F8A40E050E031
:1018800060E87FE3488F598F6A8F7B8F1C8E1D8E97
:101890001E8E1F8E48A359A36AA37BA31CA21DA260
:1018A0001EA21FA221E030E03DA72CA78FEF8FA73B
:1018B00018A619A61AA61BA682E08C8383E08D8346
:1018C0009E8385E08F831CAA1DAA1EAA1FAA18AE9C
:1018D00019AE1AAE1BAE1CAE1DAE1EAE1FAE2496C8
:1018E0004CAF5DAF6EAF7FAF249725961FAE2597A7
:1018F000188619861A861B86CE0101960E94F4046A
:1019000040E050E060E87FE3CE0101960E94A50B25
:101910008AE0E816F10409F0CAC080916E028B8358
:1019200080916F0290917002A0917102B091720249
:101930008C839D83AE83BF838091730290917402E8
:10194000A0917502B091760288879987AA87BB8794
:101950008091770290917802A0917902B0917A02F9
:101960008C879D87AE87BF8780917B0290917C0298
:10197000A0917D02B0917E02888B998BAA8BBB8B44
:1019800080917F0290918002A0918102B0918202A9
:101990008C8B9D8BAE8BBF8B809183029091840248
:1019A000A0918502B0918602888F998FAA8FBB8FF4
:1019B0008091870290918802A0918902B0918A0259
:1019C0008C8F9D8FAE8FBF8F80918B0290918C02F8
:1019D000A0918D02B0918E0288A399A3AAA3BBA364
:1019E00080918F0290919002A0919102B091920209
:1019F0008CA39DA3AEA3BFA3809193029091940268
:101A0000A0919502B091960288A799A7AAA7BBA713
:101A100080919702909198029DA78CA7809199023E
:101A20008EA780919A028FA780919B0290919C0231
:101A300099AB88AB80919D0290919E029BAB8AAB43
:101A400080919F029091A002A091A102B091A20268
:101A50008CAB9DABAEABBFAB8091A3029091A402C7
:101A6000A091A502B091A60288AF99AFAAAFBBAF73
:101A70008091A7029091A802A091A902B091AA0218
:101A80008CAF9DAFAEAFBFAF8091AB029091AC0277
:101A9000A091AD02B091AE0224968CAF9DAFAEAFD7
:101AA000BFAF24978091AF0225968FAF2597C801CD
:101AB000110FAA0BBB0B4C855D856E857F85840F4E
:101AC000951FA61FB71F488959896A897B894817BE
:101AD00059076A077B0741F0888B998BAA8BBB8BD0
:101AE000CE0101960E94330A40E050E068EC72E4B7
:101AF000CE0101960E94B70940E050E06AEF73E41E
:101B0000CE0101960E94A50B488959896A897B8973
:101B10008C859D85AE85BF85481759076A077B0769
:101B200099F08CA19DA1AEA1BFA1892B8A2B8B2BF3
:101B300059F3CE0101960E945D09882329F3CE0155
:101B400001960E94330AE0CFCC5BDF4F0FB6F894CA
:101B5000DEBF0FBECDBFDF91CF911F910F91FF90E0
:101B6000EF9008950F931F93CF93DF938C01C0E004
:101B7000D0E0F801EC0FFD1F6491662371F0E09155
:101B8000A701F091A8010190F081E02D87EA91E092
:101B90000995892B11F02196ECCFCE01DF91CF91E1
:101BA0001F910F910895CF92DF92EF92FF920F93C2
:101BB0001F93CF93DF936C017A018B01C0E0D0E0DB
:101BC000CE15DF0589F0D8016D918D01D601ED911B
:101BD000FC910190F081E02DC6010995892B11F44B
:101BE0007E0102C02196ECCFC701DF91CF911F91FA
:101BF0000F91FF90EF90DF90CF90089587EA91E0EA
:101C00000E94970121E0892B09F420E0822F08959A
:101C1000CF92DF92EF92FF920E9428056B017C0128
:101C20000E942805DC01CB018C199D09AE09BF0972
:101C3000883E9340A105B10598F3FF90EF90DF90A7
:101C4000CF900895CF92DF92EF92FF920F931F9360
:101C5000CF93DF938C01EB0169017A01892B51F05D
:101C6000CA01B9010E94CF14AB01B8018AE090E02B
:101C70000E941B0C209791F0C701B6010E94CF145F
:101C8000AB01BE018BE090E0DF91CF911F910F91EE
:101C9000FF90EF90DF90CF900C941B0CDF91CF91D1
:101CA0001F910F91FF90EF90DF90CF9008950E94C9
:101CB0009716009769F0FC0101900020E9F7319731
:101CC000AF01481B590BBC0187EA91E00C94D30D7E
:101CD00080E090E00895CF93DF930E94B20DEC0175
:101CE00084E491E00E94590E8C0F9D1FDF91CF91EB
:101CF0000895CF93DF930E94590EEC0184E491E0A4
:101D00000E94590E8C0F9D1FDF91CF910895E09195
:101D1000A701F091A8010190F081E02D682F87EADA
:101D200091E009948F929F92AF92BF920F931F936D
:101D3000CF93DF93CDB7DEB7A1970FB6F894DEBF90
:101D40000FBECDBF19A2423008F44AE08E010F5DEC
:101D50001F4F842E912CA12CB12CA50194010E941F
:101D6000DB19E62FB901CA0101501109EA3014F458
:101D7000E05D01C0E95CD801EC93232B242B252BDB
:101D800061F7C8010E94590EA1960FB6F894DEBF04
:101D90000FBECDBFDF91CF911F910F91BF90AF903C
:101DA0009F908F900895CF92DF92EF92FF92CF9302
:101DB000DF936B017C0197FF12C08DE20E94870EBA
:101DC000EC0166277727CB016C197D098E099F09E5
:101DD0004AE00E94920E7C01EC0EFD1E04C04AE017
:101DE0000E94920E7C0184E491E00E94590E8E0DB7
:101DF0009F1DDF91CF91FF90EF90DF90CF900895DE
:101E00001F920F920FB60F9211242F933F934F936F
:101E10005F936F937F938F939F93AF93BF93EF9352
:101E2000FF9387EA91E00E948C03FF91EF91BF91AD
:101E3000AF919F918F917F916F915F914F913F9162
:101E40002F910F900FBE0F901F9018958091B802A0
:101E50009091B902009711F00E94FF158091B6028F
:101E600087FD03C060E00C94B8040895CF931092EE
:101E7000AA011092A90188EE93E0A0E0B0E080935F
:101E8000AB019093AC01A093AD01B093AE0180E1A2
:101E900091E09093A8018093A70185EC90E0909346
:101EA000B4018093B30184EC90E09093B6018093E9
:101EB000B50180EC90E09093B8018093B70181EC7C
:101EC00090E09093BA018093B90182EC90E09093F6
:101ED000BC018093BB0186EC90E09093BE0180939F
:101EE000BD011092C0011092C1011092C201109266
:101EF000C30180E291E090936D0280936C0282E0D6
:101F000080936E02109277021092780210927902FA
:101F100010927A0210927B0210927C0210927D0243
:101F200010927E0210927F02109280021092810223
:101F30001092820280E090E0A0E8BFE380938302E9
:101F400090938402A0938502B09386021092870238
:101F5000109288021092890210928A0280938B025A
:101F600090938C02A0938D02B0938E0210928F02F8
:101F700010929002109291021092920221E030E0B1
:101F80003093980220939702CFEFC0939A02109259
:101F9000930210929402109295021092960223E0FE
:101FA00020936F0224E0209370022093710225E0B9
:101FB0002093720210929F021092A0021092A1022E
:101FC0001092A2021092A3021092A4021092A502F3
:101FD0001092A6021092A7021092A8021092A902D3
:101FE0001092AA028093AB029093AC02A093AD0230
:101FF000B093AE021092AF0210927302109274026C
:1020000010927502109276028CE692E00E94F4041F
:1020100040E050E060E87FE38CE692E00E94A50B90
:10202000809168028C30A0F491E0980F9093680240
:102030008093690290E0FC01EE0FFF1F8E0F9F1F3F
:10204000FC01EC5BFD4F88EB9BE09283818302C037
:10205000C09369021092B1021092B7021092BE02B0
:102060001092BF021092C0021092C10281E08093D0
:10207000BD028093BA021092BB0292E09093BC0220
:102080008093B00280E390E09093B5028093B40215
:102090000E946A159093B9028093B802009761F08C
:1020A00020E3FC0111922A95E9F780E190E09093FA
:1020B000B3028093B20208C01092B5021092B4022B
:1020C0001092B3021092B2028FE08093B602809118
:1020D000B102882341F061E08FE00E94B80460E023
:1020E0008FE00E941604E2E5F2E0E491F0E0EE0FEA
:1020F000FF1FE75CFD4F859194919093C3028093FD
:10210000C202E4E3F2E0E491E093C402CF910895C7
:10211000789484B5826084BD84B5816084BD85B5C2
:10212000826085BD85B5816085BD80916E008160CE
:1021300080936E0010928100809181008260809374
:102140008100809181008160809381008091800076
:102150008160809380008091B10084608093B100A1
:102160008091B00081608093B00080917A0084609B
:1021700080937A0080917A00826080937A008091C7
:102180007A00816080937A0080917A0080688093E1
:102190007A001092C100E091B701F091B80182E09D
:1021A0008083E091B301F091B4011082E091B50118
:1021B000F091B60180E180831092BF01E091BB01F4
:1021C000F091BC0186E08083E091B901F091BA0101
:1021D000808180618083E091B901F091BA018081B2
:1021E00088608083E091B901F091BA0180818068B4
:1021F0008083E091B901F091BA0180818F7D808365
:1022000061E082E10E94B80461E089E00E94B804C4
:1022100061E08FE00E94B80461E089E00E94B804A8
:1022200061E08AE00E94B80461E082E10E94B804A3
:1022300061E089E00E94B80461E08FE00E94B80488
:1022400060E08FE00E94160460E082E10E941604C4
:1022500060E089E00E94160460E089E00E941604B4
:1022600060E08AE00E94160461E083E10E94B80405
:1022700060E083E10E94160461E082E00E94B804FD
:1022800061E085E00E94B80461E083E00E94B80448
:1022900061E086E00E94B80461E083E10E941604D8
:1022A00020E030E04AEF54E46091830270918402B0
:1022B00080918502909186020E944B18882309F430
:1022C00053C080E090E0AAEFB4E48093830290933F
:1022D0008402A0938502B093860280E090E0AAEF8A
:1022E000B3E48093AB029093AC02A093AD02B093A1
:1022F000AE0280919F029091A002A091A102B091A4
:10230000A202181619061A061B0674F560917F02C0
:102310007091800280918102909182029B01AC01B8
:102320000E94B1186B017C01609187027091880254
:102330008091890290918A029B01AC010E94F11365
:102340009B01AC01C701B6010E945D140E94CF142D
:1023500060939F027093A0028093A1029093A202C7
:102360008CE692E00E94330A40E050E06FE274E4B1
:102370008CE692E00E94B70961E082E00E941604B8
:1023800080E00E9458068091B60287FD08C061E097
:102390000E94B80460E08091B6020E94160481E0B9
:1023A0008093B10261E082E00E94160461E085E062
:1023B0000E9416048AE090E090930101809300014E
:1023C00087EA91E00E949701181619060CF0B3C134
:1023D00087EA91E00E947501C82F8D3089F30E9431
:1023E000870E2091A5013091A6012034310554F4C7
:1023F000C90101969093A6018093A501F901EB59BB
:10240000FE4FC083CA30E1F6E091A501F091A6012C
:10241000EB59FE4F1082C0916501CB3309F482C1A4
:102420006FEF7FEF8EE40E942C09092E000CAA0B9F
:10243000BB0B8F3F2FEF9207A207B20709F458C0DA
:10244000CE3409F055C04091C5025091C60260914A
:10245000C7027091C80284179507A607B70719F03D
:1024600087E192E025C06AE270E085E691E00E9493
:102470009C16892B09F456C1E5E6F1E0C0E09F0106
:102480002556314091919A3211F0C927F8CF60E07A
:1024900070E0C9018A599E4F0E94A7160C2E000CAD
:1024A000DD0B0E94CF14C617D70779F08AE092E0BF
:1024B0000E94B20D6091C5027091C6028091C70260
:1024C0009091C8020E94D30E2DC18091C5029091B7
:1024D000C602A091C702B091C8020196A11DB11D0C
:1024E0008093C5029093C602A093C702B093C8021E
:1024F0006FEF7FEF87E40E942C098830910590F5FB
:10250000FC01EC5BFF4F0C94EA1360E070E086E4A2
:102510000E942C09EC0160E070E08CE40E942C0920
:102520007C0160E070E084E50E942C098C01BE0112
:10253000DD0F880B990B0E9452189B01AC01B7016B
:10254000C8010E94220E0EC060E070E081E40E948B
:102550002C090E94580606C081E08093C90202C07F
:102560001092C9026FEF7FEF8DE40E942C09843135
:10257000910509F474C0DCF48131910509F460C05F
:1025800044F48430910509F441C0059709F442C030
:10259000C9C08231910509F459C0439709F0C2C0FE
:1025A00061E089E00E94160461E08AE061C084363F
:1025B000910509F465C054F48531910509F452C0C0
:1025C000469709F0AFC00E942C07ACC08237910536
:1025D00009F48BC0883C910509F4A0C08E369105A2
:1025E00009F0A0C06091C5027091C6028EE40E94FD
:1025F0002C09092E000CAA0BBB0B8093C5029093EB
:10260000C602A093C702B093C8028CC00E942C07D8
:102610000E94420760E070E082E40E942C098C0175
:1026200060E070E087E40E942C09EC0160E070E05B
:1026300082E50E942C09A801BE010E944D071DC021
:1026400060E082E00E94160460E005C061E082E084
:102650000E94160461E085E00E94160463C00E9497
:10266000420760C061E082E10E94160461E089E0F7
:102670000E94160481E0809364010E94080E52C0FB
:1026800084EE91E00E94B20D87E491E00E94790E01
:102690008AED91E00E946B0E8CEB91E00E946B0E34
:1026A0008CE891E00E946B0E87E791E00E946B0E30
:1026B00081E691E00E946B0E87E491E00E946B0E30
:1026C0008CE291E00E946B0E81E191E00E946B0E22
:1026D00085EF90E00E946B0E8BED90E00E946B0EF8
:1026E00086EB90E00E946B0E1DC040E050E0BA0106
:1026F00082E591E00E94790840E050E0BA0188E567
:1027000091E00E94790840E050E46CE176E484E5D1
:1027100091E00E94790886E591E002C087E491E0AB
:102720000E94790E1092A6011092A50183E292E018
:102730000E946B0E45CE8091C9028823E1F140E0F2
:1027400050E06AE774E48CE692E00E94B709809159
:10275000770290917802A0917902B0917A020A965C
:10276000A11DB11D40917B0250917C0260917D02C0
:1027700070917E02481759076A077B0761F08093C2
:102780007B0290937C02A0937D02B0937E028CE644
:1027900092E00E94330A80918F0290919002A09162
:1027A0009102B0919202892B8A2B8B2B21F08CE61F
:1027B00092E00E945D090E94A30102CE991B79E07C
:1027C00004C0991F961708F0961B881F7A95C9F7C1
:1027D00080950895EE0FFF1F0590F491E02D099468
:1027E0005058BB27AA270E9408140C9438190E943D
:1027F0002A1938F00E94311920F039F49F3F19F45A
:1028000026F40C9427190EF4E095E7FB0C9421199B
:10281000E92F0E94491958F3BA1762077307840712
:10282000950720F079F4A6F50C946B190EF4E09559
:102830000B2EBA2FA02D0B01B90190010C01CA017A
:10284000A0011124FF27591B99F0593F50F4503E25
:1028500068F11A16F040A22F232F342F4427585F17
:10286000F3CF469537952795A795F0405395C9F72F
:102870007EF41F16BA0B620B730B840BBAF09150E7
:10288000A1F0FF0FBB1F661F771F881FC2F70EC086
:10289000BA0F621F731F841F48F487957795679559
:1028A000B795F7959E3F08F0B0CF9395880F08F045
:1028B0009927EE0F9795879508950E9471140C94AF
:1028C00038190E94311958F00E942A1940F029F451
:1028D0005F3F29F00C94211951110C946C190C9440
:1028E00027190E94491968F39923B1F3552391F3ED
:1028F000951B550BBB27AA2762177307840738F06F
:102900009F5F5F4F220F331F441FAA1FA9F335D0CB
:102910000E2E3AF0E0E832D091505040E695001C7F
:10292000CAF72BD0FE2F29D0660F771F881FBB1F39
:10293000261737074807AB07B0E809F0BB0B802D17
:10294000BF01FF2793585F4F3AF09E3F510578F043
:102950000C9421190C946C195F3FE4F3983ED4F366
:10296000869577956795B795F7959F5FC9F7880F17
:10297000911D9695879597F90895E1E0660F771F69
:10298000881FBB1F621773078407BA0720F0621BFA
:10299000730B840BBA0BEE1F88F7E09508950E9425
:1029A000D6146894B1110C946C1908950E945119B1
:1029B00088F09F5798F0B92F9927B751B0F0E1F000
:1029C000660F771F881F991F1AF0BA95C9F714C0B0
:1029D000B13091F00E946B19B1E008950C946B191D
:1029E000672F782F8827B85F39F0B93FCCF38695E9
:1029F00077956795B395D9F73EF490958095709546
:102A000061957F4F8F4F9F4F08950E948D1808F456
:102A10008FEF089519F416F40C9427190C9455159A
:102A20000E945119B8F39923C9F3B6F39F57550B78
:102A300087FF0E9463150024A0E640EA90018058B9
:102A40005695979528F4805C660F771F881F20F0B5
:102A500026173707480730F4621B730B840B2029B5
:102A600031294A2BA69517940794202531254A270A
:102A700058F7660F771F881F20F02617370748077B
:102A800030F4620B730B840B200D311D411DA0959A
:102A900081F7B901842F9158880F969587950895ED
:102AA0000E948D18880B990B08959F3F31F091502B
:102AB00020F4879577956795B795880F911D969522
:102AC000879597F9089591505040660F771F881F9A
:102AD000D2F70895CF93DF938230910510F482E00E
:102AE00090E0E091CC02F091CD0220E030E0C0E037
:102AF000D0E0309711F14081518148175907C0F05B
:102B00004817590761F482819381209719F09B83BC
:102B10008A832BC09093CD028093CC0226C02115CE
:102B2000310519F04217530718F49A01BE01DF016D
:102B3000EF010280F381E02DDCCF2115310509F191
:102B4000281B390B2430310590F412968D919C91FD
:102B500013976115710521F0FB019383828304C0F3
:102B60009093CD028093CC02FD01329644C0FD01CA
:102B7000E20FF31F81939193225031092D933C93DF
:102B80003AC02091CA023091CB02232B41F420910C
:102B90000401309105013093CB022093CA022091A9
:102BA0000201309103012115310541F42DB73EB7E3
:102BB0004091060150910701241B350BE091CA0298
:102BC000F091CB02E217F307A0F42E1B3F0B28175E
:102BD000390778F0AC014E5F5F4F2417350748F096
:102BE0004E0F5F1F5093CB024093CA028193919383
:102BF00002C0E0E0F0E0CF01DF91CF9108950F93A4
:102C00001F93CF93DF93009709F48CC0FC01329798
:102C1000138212820091CC021091CD020115110590
:102C200081F420813181820F931F2091CA0230915B
:102C3000CB022817390779F5F093CB02E093CA024B
:102C400071C0D80140E050E0AE17BF0750F41296B3
:102C50002D913C911397AD012115310509F1D90151
:102C6000F3CF9D01DA013383228360817181860F66
:102C7000971F8217930769F4EC0128813981260F89
:102C8000371F2E5F3F4F318320838A819B8193833F
:102C90008283452B29F4F093CD02E093CC0242C00D
:102CA0001396FC93EE931297ED01499159919E0171
:102CB000240F351FE217F30771F480819181840F8F
:102CC000951F029611969C938E9382819381139601
:102CD0009C938E931297E0E0F0E0D80112968D91CC
:102CE0009C911397009719F0F8018C01F6CF8D9104
:102CF0009C9198012E5F3F4F820F931F2091CA0233
:102D00003091CB022817390769F4309729F41092D3
:102D1000CD021092CC0202C0138212821093CB0219
:102D20000093CA02DF91CF911F910F91089581E026
:102D300090E0F8940C940C1AFC018191861721F014
:102D40008823D9F7992708953197CF010895A0E0F6
:102D5000B0E0EDEAF6E10C94A819EC017B016115F5
:102D6000710519F0DB018D939C938E010F5F1F4F4E
:102D70007880872D90E00E942218892B11F0E801BD
:102D8000F4CFBDE27B1205C00F5F1F4F7980C1E019
:102D900008C0EBE27E1204C08E010E5F1F4F7980E7
:102DA000C0E06801F1E0CF1AD10843E050E06FE5E0
:102DB00072E0C6010E942B18892BF1F4680122E011
:102DC000C20ED11C45E050E06AE572E0C6010E94E7
:102DD0002B18892B21F4680187E0C80ED11CE1145F
:102DE000F10419F0D701CD92DC92C111FFC060E06F
:102DF00070E080E89FE703C143E050E067E572E0E0
:102E0000C6010E942B18892B51F4E114F10409F436
:102E1000F2C00E5F1F4FF70111830083ECC0680101
:102E200060E070E0CB0100E010E0F601D0EDD70DDE
:102E3000DA3058F52C2F2260622E2C2F2870C2FF1A
:102E400005C0211128C00F5F1F4F25C0222311F09C
:102E500001501109A5E0B0E09B01AC010E9491195D
:102E60004B015C01880C991CAA1CBB1CC501B40158
:102E70006D0F711D811D911D6839A9E97A078A07B7
:102E8000A9E19A0740F0C66005C0DE3F51F4C3FDDA
:102E900044C0C8606C2EBFEFCB1ADB0A7080C62D11
:102EA000C4CF2D2F2F7D2531C1F540814D3211F436
:102EB000C06106C04B3221F0319621E030E006C0FF
:102EC0003296D60111964C9122E030E0A0EDA40F8D
:102ED000AA3018F0E21BF30B20C040E050E040386D
:102EE000BCE05B075CF49A01220F331F220F331FF3
:102EF000420F531F440F551F4A0F511D3196DF01DA
:102F000011972C91A0EDA20FAA3048F3C4FF03C083
:102F1000519541955109040F151FC1FF07C0E114D8
:102F2000F10421F03197D701ED93FC930E945018E2
:102F3000C370C33019F06B017C0106C06B017C01CA
:102F4000F7FAF094F7F8F09420E030E0A901C70117
:102F5000B6010E944B18882309F445C017FF06C02C
:102F6000119501951109C6E7D2E002C0CEE8D2E082
:102F70005E01B8E1AB1AB1084601BE2DAF2D90E25B
:102F8000E92EF12C0E151F0584F0FE0125913591D7
:102F900045915491B4018B2F9A2F0E94B1184B0187
:102FA000B82FA92F0E191F09EDCF2497F594E79498
:102FB000CA15DB0539F76401EB2EFA2E8E2D880F2A
:102FC0008F2D881F8F3F49F020E030E0A901C70115
:102FD000B6010E944B18811106C082E290E09093E6
:102FE000CF028093CE02C701B60109C060E070E055
:102FF00080E89FEF04C060E070E080EC9FE7CDB711
:10300000DEB7EEE00C94C419FC0188279927E894F8
:1030100021912032E9F3293010F02E30C8F32B3201
:1030200041F02D3239F4689404C00E944318820F95
:10303000911D219120532A30C0F31EF49095819563
:103040009F4F089591110C941E19803219F08950E8
:103050008550C8F70895FB01DC014150504088F0CD
:103060008D9181341CF08B350CF4805E6591613458
:103070001CF06B350CF4605E861B611171F3990BCB
:103080000895881BFCCF7AE0979F902D879F802D15
:10309000910D112408950E948D1808F481E008957F
:1030A000E89409C097FB3EF49095809570956195E2
:1030B0007F4F8F4F9F4F9923A9F0F92F96E9BB2798
:1030C0009395F695879577956795B795F111F8CF14
:1030D000FAF4BB0F11F460FF1BC06F5F7F4F8F4F7F
:1030E0009F4F16C0882311F096E911C0772321F075
:1030F0009EE8872F762F05C0662371F096E8862F0D
:1031000070E060E02AF09A95660F771F881FDAF763
:10311000880F9695879597F90895990F0008550F90
:10312000AA0BE0E8FEEF16161706E807F907C0F04D
:1031300012161306E407F50798F0621B730B840B55
:10314000950B39F40A2661F0232B242B252B21F42F
:1031500008950A2609F4A140A6958FEF811D811DCF
:1031600008950E94C4180C9438190E942A1938F046
:103170000E94311920F0952311F00C9421190C9420
:10318000271911240C946C190E94491970F3959F0A
:10319000C1F3950F50E0551F629FF001729FBB274E
:1031A000F00DB11D639FAA27F00DB11DAA1F649FEA
:1031B0006627B00DA11D661F829F2227B00DA11D9D
:1031C000621F739FB00DA11D621F839FA00D611D23
:1031D000221F749F3327A00D611D231F849F600D44
:1031E000211D822F762F6A2F11249F5750409AF06D
:1031F000F1F088234AF0EE0FFF1FBB1F661F771FF9
:10320000881F91505040A9F79E3F510580F00C94C3
:1032100021190C946C195F3FE4F3983ED4F3869522
:1032200077956795B795F795E7959F5FC1F7FE2B63
:10323000880F911D9695879597F908959927882766
:10324000089597F99F6780E870E060E008959FEF28
:1032500080EC089500240A9416161706180609062D
:10326000089500240A9412161306140605060895FC
:10327000092E0394000C11F4882352F0BB0F40F484
:10328000BF2B11F460FF04C06F5F7F4F8F4F9F4FC4
:10329000089557FD9058440F551F59F05F3F71F046
:1032A0004795880F97FB991F61F09F3F79F08795AD
:1032B0000895121613061406551FF2CF4695F1DF36
:1032C00008C0161617061806991FF1CF86957105C6
:1032D000610508940895E894BB2766277727CB01FA
:1032E00097F90895052E97FB1EF400940E94891902
:1032F00057FD07D00E94DB1907FC03D04EF40C9455
:10330000891950954095309521953F4F4F4F5F4F0C
:10331000089590958095709561957F4F8F4F9F4F41
:1033200008950E94FD19A59F900DB49F900DA49F34
:10333000800D911D11240895B7FF0C9491190E94DE
:103340009119821B930B08952F923F924F925F9297
:103350006F927F928F929F92AF92BF92CF92DF92A5
:10336000EF92FF920F931F93CF93DF93CDB7DEB70A
:10337000CA1BDB0B0FB6F894DEBF0FBECDBF09949E
:103380002A88398848885F846E847D848C849B84F5
:10339000AA84B984C884DF80EE80FD800C811B8103
:1033A000AA81B981CE0FD11D0FB6F894DEBF0FBE32
:1033B000CDBFED010895A1E21A2EAA1BBB1BFD0192
:1033C0000DC0AA1FBB1FEE1FFF1FA217B307E40704
:1033D000F50720F0A21BB30BE40BF50B661F771F5C
:1033E000881F991F1A9469F760957095809590953C
:1033F0009B01AC01BD01CF010895A29FB001B39F15
:10340000C001A39F700D811D1124911DB29F700DED
:10341000811D1124911D089511E0CAE4D1E004C07A
:10342000FE010E94EA132196CB34D107C9F7F89424
:02343000FFCFCC
:103432000A000000D002800001000000000000002D
:10344200AD03D30D970175018901F403000000005B
:103452006204F4047C041503FF02BD029C026802AC
:103462004702F101AD016E616E00696E66006F7612
:1034720066002E000D0A00762E323031373033329C
:0A34820032005400460052454C0091
:107E0000112484B714BE81FFF0D085E080938100F7
:107E100082E08093C00088E18093C10086E0809377
:107E2000C20080E18093C4008EE0C9D0259A86E02C
:107E300020E33CEF91E0309385002093840096BBD3
:107E4000B09BFECF1D9AA8958150A9F7CC24DD24C4
:107E500088248394B5E0AB2EA1E19A2EF3E0BF2EE7
:107E6000A2D0813461F49FD0082FAFD0023811F036
:107E7000013811F484E001C083E08DD089C08234E0
:107E800011F484E103C0853419F485E0A6D080C0E4
:107E9000853579F488D0E82EFF2485D0082F10E0AE
:107EA000102F00270E291F29000F111F8ED06801E7
:107EB0006FC0863521F484E090D080E0DECF843638
:107EC00009F040C070D06FD0082F6DD080E0C81688
:107ED00080E7D80618F4F601B7BEE895C0E0D1E017
:107EE00062D089930C17E1F7F0E0CF16F0E7DF06D8
:107EF00018F0F601B7BEE89568D007B600FCFDCFD4
:107F0000A601A0E0B1E02C9130E011968C91119780
:107F100090E0982F8827822B932B1296FA010C0160
:107F200087BEE89511244E5F5F4FF1E0A038BF0790
:107F300051F7F601A7BEE89507B600FCFDCF97BE46
:107F4000E89526C08437B1F42ED02DD0F82E2BD052
:107F50003CD0F601EF2C8F010F5F1F4F84911BD097
:107F6000EA94F801C1F70894C11CD11CFA94CF0C13
:107F7000D11C0EC0853739F428D08EE10CD085E9AC
:107F80000AD08FE07ACF813511F488E018D01DD067
:107F900080E101D065CF982F8091C00085FFFCCF94
:107FA0009093C60008958091C00087FFFCCF809118
:107FB000C00084FD01C0A8958091C6000895E0E648
:107FC000F0E098E1908380830895EDDF803219F02E
:107FD00088E0F5DFFFCF84E1DECF1F93182FE3DFCA
:107FE0001150E9F7F2DF1F91089580E0E8DFEE27F6
:047FF000FF270994CA
:027FFE00040479
:0400000300007E007B
:00000001FF
