:100000000C9443010C946B010C946B010C946B01E8
:100010000C946B010C946B010C946B010C946B01B0
:100020000C946B010C946B010C946B010C946B01A0
:100030000C946B010C946B010C946B010C946B0190
:100040000C9445050C946B010C9452030C94D90E3E
:100050000C946B010C946B010C946B010C946B0170
:100060000C946B010C946B01BD01C301C901CF015C
:10007000D501DB01E1011C0323032A03310338030B
:100080004F033F034F0346030000000024002700F6
:100090002A0000000008000201000003040700001D
:1000A0000000000000004D3131343B202D207265EE
:1000B000706F727420706F736974696F6E20616EF7
:1000C00064206665656472617465004D3130303B53
:1000D000202D20746869732068656C70206D6573CD
:1000E00073616765004D32323B202D207475726E4E
:1000F000207269676874206C61736572206F666630
:10010000004D32313B202D207475726E207269676C
:100110006874206C61736572206F6E004D32303BE5
:10012000202D207475726E206C656674206C61736E
:100130006572206F6666004D31393B202D20747545
:10014000726E206C656674206C61736572206F6ED0
:10015000004D31383B202D2064697361626C65204D
:100160006D6F746F7273004D31373B202D20656EBB
:1001700061626C65206D6F746F727300473031205F
:100180005B54287374657073295D205B4C2873740D
:10019000657073295D205B462866656564726174CD
:1001A00065295D3B202D206D6F766500473030203E
:1001B0005B54287374657073295D3B202D206C6936
:1001C0006E656172206D6F766500436F6D6D616E57
:1001D00064733A004661625363616E20472D434F5A
:1001E00044444520496E746572707265746572206E
:1001F00056657273696F6E3A200042414443484528
:10020000434B53554D20004241444C494E454E55B9
:100210004D20003E0001020408102040800102042D
:10022000081020010204081020000000002500280A
:10023000002B000404040404040404020202020269
:10024000020303030303034E414E494E49545949E7
:100250004E46CDCCCC3D0AD7233C17B7D13877CC0E
:100260002B329595E6241FB14F0A00002041000073
:10027000C84200401C4620BCBE4CCA1B0E5AAEC52C
:100280009D740F0FFF0E11241FBECFEFD8E0DEBF0D
:10029000CDBF11E0A0E0B1E0ECE7F3E302C00590D0
:1002A0000D92A635B107D9F722E0A6E5B1E001C06D
:1002B0001D92A33AB207E1F711E0C2E4D1E004C015
:1002C0002197FE010E94D813C134D107C9F70E94BB
:1002D00046100C94B1190C940000FC01918D828D94
:1002E000981761F0828DDF01A80FB11D5D968C918A
:1002F000928D9F5F9F73928F90E008958FEF9FEF95
:100300000895FC01918D828D981731F0828DE80F50
:10031000F11D858D90E008958FEF9FEF0895FC010A
:10032000918D228D892F90E0805C9F4F821B9109D7
:100330008F739927089580E090E0892B29F00E941F
:10034000EE0D81110C9400000895CF93DF93477058
:10035000552766277727FA013197EC01A881B981E3
:10036000E730F10520F4EC5CFF4F0C94D8131496A1
:10037000ED91FC91159761E029C01496ED91FC91E7
:10038000159765E023C01496ED91FC91159764E0F4
:100390001DC01496ED91FC91159766E017C0149658
:1003A000ED91FC91159762E011C01496ED91FC91CE
:1003B00015976AE00BC01496ED91FC91159768E0D3
:1003C00005C01496ED91FC91159769E0DF91CF91EE
:1003D0000994CF93DF93EC01CB01BA0126E030E022
:1003E00040E050E00E94B91362307105810591052B
:1003F00059F18CF46115710581059105F1F06130B9
:10040000710581059105C1F5E881F9810480F581C7
:10041000E02D65E02DC0643071058105910511F175
:10042000D4F0653071058105910531F5E881F981D8
:100430000480F581E02D66E01BC0E881F98104802D
:10044000F581E02D64E014C0E881F9810480F58134
:10045000E02D61E00DC0E881F9810480F581E02D97
:1004600063E006C0E881F9810480F581E02D62E057
:10047000CE01DF91CF910994DF91CF910895437020
:10048000552766277727DC01ED91FC910480F581E3
:10049000E02D423051056105710571F04330510581
:1004A0006105710559F0413051056105710511F083
:1004B00065E005C066E003C06AE001C069E0099438
:1004C000CF93DF93EC01CB01BA0123E030E040E0B1
:1004D00050E00E94B913613071058105910581F0EA
:1004E000623071058105910591F0672B682B692BAE
:1004F000C1F4E881F9810480F581E02D64E00DC04C
:10050000E881F9810480F581E02D61E006C0E88191
:10051000F9810480F581E02D62E0CE01DF91CF9179
:100520000994DF91CF910895437055276627772767
:10053000DC01ED91FC910480F581E02D4230510504
:100540006105710571F0433051056105710559F080
:10055000413051056105710511F062E005C063E0AD
:1005600003C061E001C060E009940F931F93CF9333
:10057000DF93EC01E881F9810480F581E02D8C01A5
:100580000D5B1F4FD8018C91811102C060E001C04A
:1005900062E0CE010995E881F9810480F581E02DC2
:1005A000D8018C91811102C061E001C063E0CE01ED
:1005B0000995EBA5FCA5E230F10538F0EE0FFF1F21
:1005C000EE0FFF1F35973197F1F7E881F98104802D
:1005D000F581E02DD8018C91811102C060E001C04D
:1005E00062E0CE01DF91CF911F910F910994CF93DB
:1005F000DF93EC0120E030E0A9016B897C898D89D3
:100600009E890E94F31418161CF4EFA5F8A902C0E5
:10061000E9A9FAA9DF91CF9109940F931F93DC0107
:100620001296EC910E2F10E009301105C0F5F8017B
:10063000E55CFF4F0C94D813DC01ED91FC91008434
:10064000F185E02D29C0DC01ED91FC910284F38558
:10065000E02D22C0DC01ED91FC910484F585E02DB4
:100660001BC0DC01ED91FC910684F785E02D14C0E0
:10067000DC01ED91FC910088F189E02D0DC0DC01D9
:10068000ED91FC910288F389E02D06C0DC01ED912B
:10069000FC910488F589E02D1F910F9109941F9119
:1006A0000F9108951F920F920FB60F9211242F935E
:1006B0008F939F93EF93FF93E091B101F091B2017B
:1006C0008081E091B701F091B80182FD12C0908164
:1006D0008091BA018F5F8F732091BB01821751F017
:1006E000E091BA01F0E0EF55FE4F958F8093BA018B
:1006F00001C08081FF91EF919F918F912F910F9079
:100700000FBE0F901F901895FC01848DDF01A80F7C
:10071000B11DA35ABF4F2C91848D90E001968F7329
:100720009927848FA689B7892C93A089B1898C9148
:1007300080648C93938D848D981306C00288F3890E
:10074000E02D80818F7D80830895EF92FF920F933B
:100750001F93CF93DF93EC0181E0888F9B8D8C8D6D
:10076000981305C0E889F989808185FD24C0F62E9B
:100770000B8D10E00F5F1F4F0F731127E02E8C8D34
:10078000E8120CC00FB607FCFACFE889F98980811E
:1007900085FFF5CFCE010E948403F1CF8B8DFE0142
:1007A000E80FF11DE35AFF4FF0820B8FEA89FB89B6
:1007B0008081806207C0EE89FF896083E889F989BA
:1007C00080818064808381E090E0DF91CF911F91F0
:1007D0000F91FF90EF900895CF93DF93EC01888DF8
:1007E0008823C9F0EA89FB89808185FD05C0A88935
:1007F000B9898C9186FD0FC00FB607FCF5CF8081BB
:1008000085FFF2CFA889B9898C9185FFEDCFCE0104
:100810000E948403E7CFDF91CF91089590E0FC011F
:10082000EE56FF4F3491FC01EB5EFD4F2491FC012D
:10083000ED5CFD4FE491EE2309F43BC0332339F125
:10084000333091F038F43130A9F0323001F584B50D
:100850008F7D12C0373091F03830A1F03430B9F4C8
:10086000809180008F7D03C0809180008F7780937E
:1008700080000DC084B58F7784BD09C08091B00021
:100880008F7703C08091B0008F7D8093B000F0E03F
:10089000EE0FFF1FE75DFD4FA591B4918FB7F89460
:1008A000EC91611103C020952E2301C02E2B2C93B7
:1008B0008FBF0895CF93DF93FC012281222389F01B
:1008C000EC010190F081E02D0480F581E02D60E0E5
:1008D00009958EA58F3F29F06DA5DF91CF910C94DE
:1008E0000E04DF91CF910895CF92DF92EF92FF92A5
:1008F0000F931F93CF93DF93FC012281243041F0AB
:10090000283031F0233031F0263021F012E003C0DE
:1009100014E001C013E0EC012796E12CF12CC62E67
:10092000D12C01E0C6010E2C02C0959587950A9442
:10093000E2F7688180FD6027FE01349780810E9484
:100940000E04FFEFEF1AFF0A2196E11658F3DF912C
:10095000CF911F910F91FF90EF90DF90CF9008956E
:10096000CF93DF9390E0FC01EB5EFD4F2491FC01FF
:10097000ED5CFD4F8491882361F190E0880F991F11
:10098000FC01E857FF4FC591D491FC01E75DFD4F95
:10099000A591B491611109C09FB7F8948881209501
:1009A00082238883EC912E230BC0623061F49FB7C1
:1009B000F8943881822F809583238883EC912E2BA5
:1009C0002C939FBF06C08FB7F894E8812E2B288305
:1009D0008FBFDF91CF910895CF93DF93FC012281E8
:1009E000222359F1EC0161E083810E94B00461E0AF
:1009F0008C810E94B0048A81843011F0883039F4EF
:100A000061E08D810E94B00461E08E8106C0833078
:100A100011F0863021F461E08D810E94B0048EA532
:100A20008F3F59F061E00E94B0046DA581E0682716
:100A30008EA5DF91CF910C940E04DF91CF91089594
:100A40003FB7F89480915B0190915C01A0915D01AA
:100A5000B0915E0126B5A89B05C02F3F19F0019605
:100A6000A11DB11D3FBFBA2FA92F982F8827820F34
:100A7000911DA11DB11DBC01CD0142E0660F771F84
:100A8000881F991F4A95D1F708951F920F920FB6AC
:100A90000F9211242F933F938F939F93AF93BF9304
:100AA0008091570190915801A0915901B0915A013C
:100AB0003091560123E0230F2D3720F40196A11D1C
:100AC000B11D05C026E8230F0296A11DB11D20937C
:100AD00056018093570190935801A0935901B09308
:100AE0005A0180915B0190915C01A0915D01B091F0
:100AF0005E010196A11DB11D80935B0190935C0185
:100B0000A0935D01B0935E01BF91AF919F918F91D2
:100B10003F912F910F900FBE0F901F9018958F92BD
:100B20009F92AF92BF92CF92DF92EF92FF926A01B3
:100B30007B010E94320EA7019601C701B6010E94F7
:100B40003E15882319F082E391E01AC0460157014F
:100B5000E894B7F82FEF3FEF4FE75FE7C501B40127
:100B60000E943E1581110FC02FEF3FEF4FE75FE767
:100B7000C501B4010E94391818162CF486E391E0DF
:100B80000E94320E73C02FEF3FEF4FE75FE4C701C3
:100B9000B6010E94F31418161CF48AE391E0F0CF1A
:100BA0002FEF3FEF4FE75FECC701B6010E94391806
:100BB00087FDF3CF20E030E0A901C701B6010E9414
:100BC000391887FF07C08DE20E94600EF7FAF09493
:100BD000F7F8F0942AE037ED43EA5BE3C701B6018A
:100BE0000E94DF134B015C010E94C4146B017C0165
:100BF0000E943E189B01AC01C501B4010E94DE13A6
:100C00004B015C014AE0C701B6010E946B0E8EE306
:100C100091E00E94320E20E030E040E251E4C50154
:100C2000B4010E949F184B015C010E94C4146B0127
:100C3000E12CF12C4AE0C701B6010E946B0EC701FE
:100C4000B6010E943E189B01AC01C501B4010E948F
:100C5000DE1320E030E040E251E40E949F180E9441
:100C6000C41480E090E04AE00E946B0E80E491E0C2
:100C7000FF90EF90DF90CF90BF90AF909F908F90BC
:100C80000C94320EFF920F931F93CF93DF93F82EA5
:100C90008B01C0919F01D091A001C15ADE4FEFE5B9
:100CA000F1E03097C9F090819923B1F0EC17FD077E
:100CB00098F49F1109C0CF010196DF91CF911F9148
:100CC0000F91FF900C94F21760E270E0CF010E9448
:100CD0008A16FC013196E5CFC801DF91CF911F91B3
:100CE0000F91FF9008958F929F92BF92CF92DF92C3
:100CF000EF92FF920F931F93CF93DF93CDB7DEB7A1
:100D000029970FB6F894DEBF0FBECDBF962F50E0E7
:100D100060E070E0592B682BCB01AA27BB27152F69
:100D2000B82EBC01812C912CA0E0B0E020E030E096
:100D3000809184029091850228173907E0F580910F
:100D40008902882371F0869F7001879FF00C11241F
:100D5000189F600111240D2D489FC0011124592FA7
:100D600003C0542F012FFB2CE0908F02D0908C02F7
:100D700080918A0290918B02ED1003C08A0F9B1F15
:100D800007C0880D991D6C01CE0CD11CF601108294
:100D9000E0908C026C01CE0CD11CF601F082F09038
:100DA0008D02FC01EF0DF11D008300918E02800F7A
:100DB000911DFC0150832F5F3F4F1396F4E08F0E7F
:100DC000911C2031310509F0B3CF80918A029091B6
:100DD0008B02892B09F4A1C00E942005009190028A
:100DE000109191022091920230919302DC01CB018B
:100DF000801B910BA20BB30BC297A105B10560F349
:100E0000F89480918602909187029A838983E09179
:100E10008A02F0918B02DF0111968081898790917F
:100E20008202E0919402F0919502809196029923BA
:100E300009F42EC09081982B988790818095892302
:100E40008F838F818C8388E08B8358856F81498560
:100E50003B812C8189819A81508347FD252F3A95CA
:100E60002083262F39F0441F00C00000608300005B
:100E700000C0F2CF38E04D9160830000019761F728
:100E8000F0939502E093940249873B832C8338C00A
:100E90009081982B98879081809589238F838F816B
:100EA0008E8388E08D8358856F8149853D812E81B1
:100EB00089819A81508347FD252F00C000C020837F
:100EC00000C000C000C000C000C060830000262F2A
:100ED0003A9541F0441F000000C000C000C000C0AF
:100EE00000C0E8CF38E04D9100C0608300C001979A
:100EF00009F7F0939502E093940249873D832E838E
:100F00009A83898378940E9420056093900270935D
:100F10009102809392029093930229960FB6F894CF
:100F2000DEBF0FBECDBFDF91CF911F910F91FF901C
:100F3000EF90DF90CF90BF909F908F9008954F9249
:100F40005F926F927F92AF92BF92CF92DF92EF92B9
:100F5000FF920F931F93CF93DF93EC015A018B0104
:100F60002B893C894D895E89B501C8010E943918D9
:100F7000882309F451C0CF88D88CE98CFA8C2601DB
:100F8000370177FA709477F87094A3019201B50154
:100F9000C8010E94391887FD0BC0A7019601B50151
:100FA000C8010E94F31418162CF06501780102C0E4
:100FB0007301620120E030E0A901C701B6010E947F
:100FC0003918811105C01BA21CA21DA21EA220C09F
:100FD000A701960160E074E284E799E40E944B1453
:100FE0009F770E94C4146BA37CA38DA39EA35E0174
:100FF00083E4A80EB11C11E020E030E0A901C70194
:10100000B6010E94F31418160CF010E0F5011083DD
:10101000CB8ADC8AED8AFE8ADF91CF911F910F91F6
:10102000FF90EF90DF90CF90BF90AF907F906F9048
:101030005F904F9008952F923F924F925F926F92E0
:101040007F928F929F92AF92BF92CF92DF92EF9258
:10105000FF920F931F93CF93DF9300D000D0CDB7B3
:10106000DEB71C01FC0187849088A188B288838543
:101070009485A585B685881A990AAA0ABB0A638948
:101080007489858996899B01AC010E949F186B0128
:101090007C01F101638D748D858D968D9B01AC0172
:1010A0000E94DF139B01AC01C701B6010E944B14E3
:1010B0000E94BD1481149104A104B104A1F4623012
:1010C0007105810591050CF07CC0F10113A214A2F9
:1010D00015A216A2138A148A158A168A13AA14AAAC
:1010E00015AA16AA03C1F10103A914A925A936A9B5
:1010F000ED5BFF4F181419041A041B04FCF41016BE
:101100001106120613064CF4681579058A059B052D
:101110004CF52081211155C025C00115110521056F
:10112000310509F44EC0681579058A059B050CF058
:1011300048C08081882309F444C037C010161106C6
:1011400012061306F4F4002711279801081919094B
:101150002A093B0960177107820793071CF4208155
:10116000222379F19B01AC0188279927DC01821B9E
:10117000930BA40BB50BF10183AB94ABA5ABB6AB52
:1011800020C00115110521053105D9F0CC24DD243D
:101190007601C818D908EA08FB086C157D058E058C
:1011A0009F057CF4808181110CC0309520951095AD
:1011B00001951F4F2F4F3F4FF10103AB14AB25ABF0
:1011C00036ABF101C3A8D4A8E5A8F6A881010D5B50
:1011D0001F4FC114D104E104F10491F487A990AD2B
:1011E000A1ADB2AD83AF94AFA5AFB6AF81E0181497
:1011F00019041A041B040CF080E0F801808340C03D
:10120000F10183AC94ACA5ACB6ACA5019401C501C9
:10121000B4010E94DF132B013C01C701B6010E94FB
:10122000401820E030E040E850E40E949F1820E0A1
:1012300030E040E85FE30E94DF139B01AC01C30193
:10124000B2010E944B149B01AC01C501B4010E9484
:10125000DE134B015C01F101FF96408051806280FA
:1012600073809201A3010E94F314181614F0420136
:101270005301A401B501F10143AF54AF65AF76AF9F
:10128000FFEFCF1ADF0AEF0AFF0AF101C3AAD4AABF
:10129000E5AAF6AA23AD34AD45AD56ADCA01B901F4
:1012A00029833A834B835C830E94C414F10163A3B6
:1012B00074A385A396A329813A814B815C8160E068
:1012C00074E284E799E40E944B14F101638B748B00
:1012D000858B968BF8012081211108C0DC01CB01A0
:1012E000B058F101838B948BA58BB68B0F900F9028
:1012F0000F900F90DF91CF911F910F91FF90EF9082
:10130000DF90CF90BF90AF909F908F907F906F9025
:101310005F904F903F902F9008954F925F926F9201
:101320007F928F929F92AF92BF92CF92DF92EF9275
:10133000FF92CF93DF93EC016A017B018B8C9C8C35
:10134000AD8CBE8C9A01AB01C501B4010E94391865
:10135000882309F449C06BA97CA98DA99EA90E9484
:1013600040182B013C01A7019601C501B4010E9460
:101370004B149B01AC01C301B2010E949F180E9453
:10138000BD146BAB7CAB8DAB9EABA701960160E04F
:1013900070E080E090E40E944B140E94FE1426E569
:1013A0003EE04DE25FE30E949F1820E034E244E714
:1013B00059E40E949F186FAB78AF89AF9AAFCB8E7C
:1013C000DC8EED8EFE8ECE01DF91CF91FF90EF90FF
:1013D000DF90CF90BF90AF909F908F907F906F9055
:1013E0005F904F900C941B08DF91CF91FF90EF908E
:1013F000DF90CF90BF90AF909F908F907F906F9035
:101400005F904F900895CF92DF92EF92FF92CF932B
:10141000DF93FC0143A154A165A176A1452B462B86
:10142000472B11F480E04BC0EC010E9420056B01BA
:101430007C014FA158A569A57AA58BA19CA1ADA15E
:10144000BEA1840F951FA61FB71F84179507A60777
:10145000B70730F0C816D906EA06FB0658F405C0EF
:10146000C816D906EA06FB06E8F2C416D506E60653
:10147000F706C0F6FE01ED5BFF4F20818B859C8552
:10148000AD85BE85222321F00196A11DB11D03C0AB
:101490000197A109B1098B879C87AD87BE87E88139
:1014A000F9814B855C856D857E850680F781E02D11
:1014B000CE010995CFA2D8A6E9A6FAA681E0DF91D0
:1014C000CF91FF90EF90DF90CF9008950F931F93EF
:1014D000FC010385148525853685400F511F621F49
:1014E000731F07851089218932890417150726077C
:1014F000370741F04787508B618B728B1F910F919B
:101500000C941B081F910F9108952F923F924F92B8
:101510005F926F927F928F929F92AF92BF92CF9283
:10152000DF92EF92FF920F931F93CF93DF93CDB78C
:10153000DEB7C454D1090FB6F894DEBF0FBECDBFDD
:101540001C012A013B01480159018CE191E09A8379
:10155000898384E08B831C861D861E861F86188ADD
:10156000198A1A8A1B8A1C8A1D8A1E8A1F8AC12C04
:10157000D12C90E8E92E9FE3F92EC88ED98EEA8E01
:10158000FB8E1C8E1D8E1E8E1F8EC8A2D9A2EAA2B3
:10159000FBA21CA21DA21EA21FA221E030E03DA7BB
:1015A0002CA79FEF9FA718A619A61AA61BA692E024
:1015B0009C8393E09D838E8385E08F831CAA1DAA64
:1015C0001EAA1FAA18AE19AE1AAE1BAE1CAE1DAED7
:1015D0001EAE1FAE2496CCAEDDAEEEAEFFAE2497AF
:1015E00025961FAE2597188619861A861B86CE016A
:1015F00001960E94EC04B701A601CE0101960E945B
:101600008D098AE02816310409F0CAC08091400291
:101610008B838091410290914202A0914302B0914C
:1016200044028C839D83AE83BF8380914502909159
:101630004602A0914702B091480288879987AA87FD
:10164000BB878091490290914A02A0914B02B091D0
:101650004C028C879D87AE87BF8780914D02909109
:101660004E02A0914F02B0915002888B998BAA8BA9
:10167000BB8B8091510290915202A0915302B09184
:1016800054028C8B9D8BAE8BBF8B809155029091B9
:101690005602A0915702B0915802888F998FAA8F55
:1016A000BB8F8091590290915A02A0915B02B09138
:1016B0005C028C8F9D8FAE8FBF8F80915D02909169
:1016C0005E02A0915F02B091600288A399A3AAA3D1
:1016D000BBA38091610290916202A0916302B091DC
:1016E00064028CA39DA3AEA3BFA3809165029091D9
:1016F0006602A0916702B091680288A799A7AAA77D
:10170000BBA78091690290916A029DA78CA78091E6
:101710006B028EA780916C028FA780916D029091D1
:101720006E0299AB88AB80916F02909170029BAB77
:101730008AAB8091710290917202A0917302B09174
:1017400074028CAB9DABAEABBFAB80917502909138
:101750007602A0917702B091780288AF99AFAAAFD4
:10176000BBAF8091790290917A02A0917B02B091F7
:101770007C028CAF9DAFAEAFBFAF80917D029091E8
:101780007E02A0917F02B091800224968CAF9DAF23
:10179000AEAFBFAF24978091810225968FAF25977A
:1017A000A3019201C301B2010E94DF130E94BD1484
:1017B000AB01BC01CE0101960E94660AB501A401ED
:1017C000CE0101960E949F0740E050E06AEF73E46B
:1017D000CE0101960E948D0911E0488959896A89D4
:1017E0007B898C859D85AE85BF85481759076A071B
:1017F0007B0789F084179507A607B70724F4259679
:101800001FAF259703C025961FAE2597CE010196E1
:101810000E94030AE2CFCC5BDF4F0FB6F894DEBF25
:101820000FBECDBFDF91CF911F910F91FF90EF9031
:10183000DF90CF90BF90AF909F908F907F906F90F0
:101840005F904F903F902F900895EF92FF920F93EB
:101850001F93CF93DF93CDB7DEB7C454D1090FB632
:10186000F894DEBF0FBECDBF7C018B018CE191E00F
:101870009A83898394E09B831C861D861E861F861F
:10188000188A198A1A8A1B8A1C8A1D8A1E8A1F8A2C
:1018900040E050E060E87FE3488F598F6A8F7B8F8C
:1018A0001C8E1D8E1E8E1F8E48A359A36AA37BA378
:1018B0001CA21DA21EA21FA221E030E03DA72CA762
:1018C0008FEF8FA718A619A61AA61BA682E08C83F5
:1018D00083E08D839E8385E08F831CAA1DAA1EAAA8
:1018E0001FAA18AE19AE1AAE1BAE1CAE1DAE1EAEB0
:1018F0001FAE24964CAF5DAF6EAF7FAF2497259699
:101900001FAE2597188619861A861B86CE0101966A
:101910000E94EC0440E050E060E87FE3CE010196D5
:101920000E948D098AE0E816F10409F0CAC080918E
:1019300040028B838091410290914202A091430228
:10194000B09144028C839D83AE83BF838091450216
:1019500090914602A0914702B091480288879987EA
:10196000AA87BB878091490290914A02A0914B02BD
:10197000B0914C028C879D87AE87BF8780914D02C6
:1019800090914E02A0914F02B0915002888B998B9A
:10199000AA8BBB8B8091510290915202A09153026D
:1019A000B09154028C8B9D8BAE8BBF8B8091550276
:1019B00090915602A0915702B0915802888F998F4A
:1019C000AA8FBB8F8091590290915A02A0915B021D
:1019D000B0915C028C8F9D8FAE8FBF8F80915D0226
:1019E00090915E02A0915F02B091600288A399A3DA
:1019F000AAA3BBA38091610290916202A0916302AD
:101A0000B09164028CA39DA3AEA3BFA38091650295
:101A100090916602A0916702B091680288A799A789
:101A2000AAA7BBA78091690290916A029DA78CA783
:101A300080916B028EA780916C028FA780916D02BE
:101A400090916E0299AB88AB80916F029091700279
:101A50009BAB8AAB8091710290917202A09173024C
:101A6000B09174028CAB9DABAEABBFAB80917502F5
:101A700090917602A0917702B091780288AF99AFE9
:101A8000AAAFBBAF8091790290917A02A0917B02BC
:101A9000B0917C028CAF9DAFAEAFBFAF80917D02A5
:101AA00090917E02A0917F02B091800224968CAF2B
:101AB0009DAFAEAFBFAF24978091810225968FAFC7
:101AC0002597A801440F551F052E000C660B770BB8
:101AD000CE0101960E94660A40E050E068EC72E494
:101AE000CE0101960E949F0740E050E06AEF73E448
:101AF000CE0101960E948D09488959896A897B899E
:101B00008C859D85AE85BF85481759076A077B0779
:101B100059F0CE0101960E94030A882369F3CE0191
:101B200001960E941B08E8CFCC5BDF4F0FB6F894FC
:101B3000DEBF0FBECDBFDF91CF911F910F91FF9000
:101B4000EF9008950F931F93CF93DF938C01C0E024
:101B5000D0E0F801EC0FFD1F6491662371F0E09175
:101B6000A101F091A2010190F081E02D81EA91E0C4
:101B70000995892B11F02196ECCFCE01DF91CF9101
:101B80001F910F910895CF92DF92EF92FF920F93E2
:101B90001F93CF93DF936C017A018B01C0E0D0E0FB
:101BA000CE15DF0589F0D8016D918D01D601ED913B
:101BB000FC910190F081E02DC6010995892B11F46B
:101BC0007E0102C02196ECCFC701DF91CF911F911A
:101BD0000F91FF90EF90DF90CF90089581EA91E010
:101BE0000E948F0121E0892B09F420E0822F0895C3
:101BF0008F929F92AF92BF92CF92DF92EF92FF921D
:101C00000E9420054B015C0188EEC82E83E0D82E8F
:101C1000E12CF12C0E942005DC01CB0188199909E7
:101C2000AA09BB09883E9340A105B10558F021E0FF
:101C3000C21AD108E108F10888EE880E83E0981EE8
:101C4000A11CB11CC114D104E104F10419F7FF90E7
:101C5000EF90DF90CF90BF90AF909F908F900895BE
:101C60000E948516009769F0FC0101900020E9F7B9
:101C70003197AF01481B590BBC0181EA91E00C94EC
:101C8000C30D80E090E00895CF93DF930E94A20DF2
:101C9000EC0180E491E00E94320E8C0F9D1FDF91D9
:101CA000CF910895CF93DF930E94320EEC0180E430
:101CB00091E00E94320E8C0F9D1FDF91CF9108950D
:101CC000E091A101F091A2010190F081E02D682F37
:101CD00081EA91E009948F929F92AF92BF920F9305
:101CE0001F93CF93DF93CDB7DEB7A1970FB6F894CC
:101CF000DEBF0FBECDBF19A2423008F44AE08E010C
:101D00000F5D1F4F842E912CA12CB12CA5019401A5
:101D10000E949713E62FB901CA0101501109EA3058
:101D200014F4E05D01C0E95CD801EC93232B242B73
:101D3000252B61F7C8010E94320EA1960FB6F894C8
:101D4000DEBF0FBECDBFDF91CF911F910F91BF902E
:101D5000AF909F908F900895CF92DF92EF92FF9275
:101D6000CF93DF936B017C0197FF12C08DE20E943D
:101D7000600EEC0166277727CB016C197D098E096F
:101D80009F094AE00E946B0E7C01EC0EFD1E04C010
:101D90004AE00E946B0E7C0180E491E00E94320ECA
:101DA0008E0D9F1DDF91CF91FF90EF90DF90CF9030
:101DB00008951F920F920FB60F9211242F933F9305
:101DC0004F935F936F937F938F939F93AF93BF9343
:101DD000EF93FF9381EA91E00E948403FF91EF91DA
:101DE000BF91AF919F918F917F916F915F914F9133
:101DF0003F912F910F900FBE0F901F9018958091DB
:101E00008A0290918B02009711F00E94ED1580914B
:101E1000880287FD03C060E00C94B0040895CF935E
:101E20001092A4011092A30188EE93E0A0E0B0E02C
:101E30008093A5019093A601A093A701B093A80158
:101E40008CE091E09093A2018093A10185EC90E059
:101E50009093AE018093AD0184EC90E09093B0013B
:101E60008093AF0180EC90E09093B2018093B10138
:101E700081EC90E09093B4018093B30182EC90E008
:101E80009093B6018093B50186EC90E09093B801F1
:101E90008093B7011092BA011092BB011092BC015D
:101EA0001092BD018CE191E090933F0280933E023D
:101EB000C2E0C09340021092490210924A0210926E
:101EC0004B0210924C0210924D0210924E02109250
:101ED0004F02109250021092510210925202109230
:101EE00053021092540280E090E0A0E8BFE3809398
:101EF000550290935602A0935702B0935802109245
:101F0000590210925A0210925B0210925C02809366
:101F10005D0290935E02A0935F02B0936002109204
:101F2000610210926202109263021092640221E038
:101F300030E030936A02209369022FEF20936C0205
:101F40001092650210926602109267021092680267
:101F500023E02093410224E0209342022093430295
:101F600025E02093440210927102109272021092A6
:101F700073021092740210927502109276021092FF
:101F80007702109278021092790210927A021092DF
:101F90007B0210927C0280937D0290937E02A0933C
:101FA0007F02B0938002109281021092450210923B
:101FB000460210924702109248028EE392E00E947D
:101FC000EC0440E050E060E87FE38EE392E00E94A2
:101FD0008D09109283021092890210929002109241
:101FE0009102109292021092930281E080938F02EC
:101FF00080938C0210928D02C0938E028093820295
:1020000080E390E090938702809386020E945815A7
:1020100090938B0280938A02009761F020E3FC0189
:1020200011922A95E9F780E190E0909385028093E0
:10203000840208C0109287021092860210928502D4
:10204000109284028FE0809388028091830288231B
:1020500041F061E08FE00E94B00460E08FE00E94F8
:102060000E04E2E4F2E0E491F0E0EE0FFF1FE75D22
:10207000FD4F859194919093950280939402E4E2B0
:10208000F2E0E491E0939602CF910895789484B5BC
:10209000826084BD84B5816084BD85B5826085BD64
:1020A00085B5816085BD80916E00816080936E00F2
:1020B00010928100809181008260809381008091E4
:1020C0008100816080938100809180008160809395
:1020D00080008091B10084608093B1008091B00055
:1020E00081608093B00080917A00846080937A0050
:1020F00080917A00826080937A0080917A0081607A
:1021000080937A0080917A00806880937A001092A0
:10211000C100E091B101F091B20182E08083E091D1
:10212000AD01F091AE011082E091AF01F091B001EC
:1021300080E180831092B901E091B501F091B60180
:1021400086E08083E091B301F091B40180818061E9
:102150008083E091B301F091B40180818860808335
:10216000E091B301F091B401808180688083E091B7
:10217000B301F091B40180818F7D808361E089E0BB
:102180000E94B00461E08AE00E94B00461E08FE048
:102190000E94B00460E08FE00E940E0460E089E0DD
:1021A0000E940E0460E08AE00E940E0461E083E178
:1021B0000E94B00460E083E10E940E0461E082E0CE
:1021C0000E94B00461E085E00E94B00461E083E019
:1021D0000E94B00461E086E00E94B00461E083E107
:1021E0000E940E0420E030E04AEF54E46091550272
:1021F0007091560280915702909158020E943918AE
:10220000882309F453C080E090E0AAEFB4E48093FF
:10221000550290935602A0935702B093580280E063
:1022200090E0AAEFB3E480937D0290937E02A093A6
:102230007F02B09380028091710290917202A0910E
:102240007302B0917402181619061A061B0674F56B
:102250006091510270915202809153029091540208
:102260009B01AC010E949F186B017C016091590297
:1022700070915A0280915B0290915C029B01AC01CB
:102280000E94DF139B01AC01C701B6010E944B14F1
:102290000E94BD1460937102709372028093730266
:1022A000909374028EE392E00E941B0840E050E09D
:1022B0006FE274E48EE392E00E949F0761E082E0A7
:1022C0000E940E048091880287FD08C061E00E9490
:1022D000B00460E0809188020E940E0481E0809347
:1022E000830261E082E00E940E0461E085E00E94CA
:1022F0000E048AE090E0909301018093000181EA4E
:1023000091E00E948F01181619060CF0F5C181EAC0
:1023100091E00E946D01C82F0E94600E20919F01E4
:102320003091A0012F33310554F4C90101969093E7
:10233000A00180939F01F901E15AFE4FC083CA308A
:1023400011F0CD30E1F6E0919F01F091A001E15A4A
:10235000FE4F1082C0915F01CB3309F4C4C16FEF0F
:102360007FEF8EE40E944206092E000CAA0BBB0BE5
:102370008F3F2FEF9207A207B20709F458C0CE345F
:1023800009F055C0409198025091990260919A02CB
:1023900070919B0284179507A607B70719F087E08D
:1023A00092E025C06AE270E08FE591E00E948A1613
:1023B000892B09F498C1EFE5F1E0C0E09F012F55AA
:1023C000314091919A3211F0C927F8CF60E070E066
:1023D000C901805A9E4F0E9495160C2E000CDD0BF1
:1023E0000E94BD14C617D70779F08AEF91E00E94CA
:1023F000A20D609198027091990280919A02909139
:102400009B020E94AC0E6FC180919802909199023C
:10241000A0919A02B0919B020196A11DB11D8093DB
:10242000980290939902A0939A02B0939B026FEF47
:102430007FEF87E40E9442068230910581F01CF410
:1024400097FF30C06EC08630910509F464C08730B4
:10245000910509F464C0049709F063C023C060E0EB
:1024600070E086E40E9442067C0160E070E08CE44B
:102470000E944206EC0160E070E084E50E944206A2
:10248000009731F0A701BC018AE090E00E94250C82
:10249000209709F446C0A701BE018BE090E00E949E
:1024A000250C3FC060E070E086E40E944206BC015B
:1024B000990F880B990B0E9440186B017C0160E01A
:1024C00070E08CE40E944206EC0160E070E084E57C
:1024D0000E944206009771F0BC01990F880B990B7E
:1024E0000E944018AB01BC01970186018AE090E090
:1024F0000E94850A2097A9F0BE01DD0F880B990B79
:102500000E944018AB01BC01970186018BE090E06E
:102510000E94850A06C081E080939C0202C010924E
:102520009C026FEF7FEF8DE40E944206843191059B
:1025300009F475C0B4F48131910509F461C03CF42B
:1025400084309105E9F1059709F444C0CCC082318B
:10255000910509F45BC0439709F0C5C061E08AE0CA
:1025600063C08436910509F46CC054F4853191053B
:1025700009F458C0469709F0B6C060E089E05CC035
:102580008237910509F492C0883C910509F4A7C0EF
:102590008E36910509F0A7C060919802709199025A
:1025A0008EE40E944206092E000CAA0BBB0B8093FE
:1025B000980290939902A0939A02B0939B0293C0C1
:1025C00060E089E00E940E041092970260E08AE0C9
:1025D0000E940E0460E070E082E40E9442067C01EA
:1025E00060E070E087E40E944206EC0160E070E089
:1025F00082E50E944206A701BE010E94730673C0D5
:1026000060E082E00E940E0460E005C061E082E0CC
:102610000E940E0461E085E00E940E0464C060E048
:102620008AE00AC061E089E00E940E0481E08093A4
:1026300097020E94F80D57C00E940E041092970254
:1026400052C084ED91E00E94A20D83E491E00E94CB
:10265000520E8AEC91E00E94440E8CEA91E00E94B6
:10266000440E8CE791E00E94440E87E691E00E94C0
:10267000440E81E591E00E94440E87E391E00E94C0
:10268000440E8CE191E00E94440E81E091E00E94B2
:10269000440E85EE90E00E94440E8BEC90E00E9488
:1026A000440E86EA90E00E94440E1DC040E050E0D7
:1026B000BA018EE491E00E948F0540E050E0BA013B
:1026C00084E591E00E948F0540E050E46CE176E4FF
:1026D00080E591E00E948F0582E591E002C083E4ED
:1026E00091E00E94520E1092A00110929F0183E18E
:1026F00092E00E94440E03CE80919C028823A1F0B8
:1027000040E050E06AE774E48EE392E00E949F07A5
:102710004AE050E060E070E08EE392E00E94660ADA
:102720008EE392E00E94030A0E949B01E8CDA1E2A1
:102730001A2EAA1BBB1BFD010DC0AA1FBB1FEE1F3B
:10274000FF1FA217B307E407F50720F0A21BB30B86
:10275000E40BF50B661F771F881F991F1A9469F702
:1027600060957095809590959B01AC01BD01CF015E
:102770000895052E97FB1EF400940E94D01357FD78
:1027800007D00E94971307FC03D04EF40C94D0138B
:1027900050954095309521953F4F4F4F5F4F08958D
:1027A00090958095709561957F4F8F4F9F4F0895BD
:1027B000EE0FFF1F0590F491E02D09945058BB27B0
:1027C000AA270E94F6130C9426190E94181938F0B3
:1027D0000E941F1920F039F49F3F19F426F40C943D
:1027E00015190EF4E095E7FB0C940F19E92F0E94E0
:1027F000371958F3BA17620773078407950720F053
:1028000079F4A6F50C9459190EF4E0950B2EBA2F15
:10281000A02D0B01B90190010C01CA01A0011124E6
:10282000FF27591B99F0593F50F4503E68F11A1692
:10283000F040A22F232F342F4427585FF3CF469523
:1028400037952795A795F0405395C9F77EF41F1645
:10285000BA0B620B730B840BBAF09150A1F0FF0F0F
:10286000BB1F661F771F881FC2F70EC0BA0F621FFB
:10287000731F841F48F4879577956795B795F795EB
:102880009E3F08F0B0CF9395880F08F09927EE0F80
:102890009795879508950E945F140C9426190E94BD
:1028A0001F1958F00E94181940F029F45F3F29F0D1
:1028B0000C940F1951110C945A190C9415190E946B
:1028C000371968F39923B1F3552391F3951B550BF1
:1028D000BB27AA2762177307840738F09F5F5F4FF3
:1028E000220F331F441FAA1FA9F335D00E2E3AF032
:1028F000E0E832D091505040E695001CCAF72BD04A
:10290000FE2F29D0660F771F881FBB1F261737079A
:102910004807AB07B0E809F0BB0B802DBF01FF27CC
:1029200093585F4F3AF09E3F510578F00C940F1981
:102930000C945A195F3FE4F3983ED4F3869577954B
:102940006795B795F7959F5FC9F7880F911D969585
:10295000879597F90895E1E0660F771F881FBB1FE1
:10296000621773078407BA0720F0621B730B840B8E
:10297000BA0BEE1F88F7E09508950E94C41468947E
:10298000B1110C945A1908950E943F1988F09F576D
:1029900098F0B92F9927B751B0F0E1F0660F771F83
:1029A000881F991F1AF0BA95C9F714C0B13091F079
:1029B0000E945919B1E008950C945919672F782F86
:1029C0008827B85F39F0B93FCCF38695779567953E
:1029D000B395D9F73EF490958095709561957F4FAA
:1029E0008F4F9F4F08950E947B1808F48FEF089532
:1029F00019F416F40C9415190C9443150E943F1900
:102A0000B8F39923C9F3B6F39F57550B87FF0E947C
:102A100051150024A0E640EA9001805856959795FC
:102A200028F4805C660F771F881F20F02617370771
:102A3000480730F4621B730B840B202931294A2B81
:102A4000A69517940794202531254A2758F7660F35
:102A5000771F881F20F026173707480730F4620BCE
:102A6000730B840B200D311D411DA09581F7B90119
:102A7000842F9158880F9695879508950E947B180A
:102A8000880B990B08959F3F31F0915020F4879562
:102A900077956795B795880F911D9695879597F9C6
:102AA000089591505040660F771F881FD2F7089500
:102AB000CF93DF938230910510F482E090E0E091B3
:102AC0009F02F091A00220E030E0C0E0D0E030971B
:102AD00011F14081518148175907C0F04817590733
:102AE00061F482819381209719F09B838A832BC0A4
:102AF0009093A00280939F0226C02115310519F002
:102B00004217530718F49A01BE01DF01EF0102805A
:102B1000F381E02DDCCF2115310509F1281B390B9C
:102B20002430310590F412968D919C911397611584
:102B3000710521F0FB019383828304C09093A0026E
:102B400080939F02FD01329644C0FD01E20FF31F06
:102B500081939193225031092D933C933AC0209157
:102B60009D0230919E02232B41F42091040130916B
:102B7000050130939E0220939D0220910201309125
:102B800003012115310541F42DB73EB740910601EF
:102B900050910701241B350BE0919D02F0919E029C
:102BA000E217F307A0F42E1B3F0B2817390778F024
:102BB000AC014E5F5F4F2417350748F04E0F5F1F83
:102BC00050939E0240939D028193919302C0E0E056
:102BD000F0E0CF01DF91CF9108950F931F93CF9332
:102BE000DF93009709F48CC0FC01329713821282A4
:102BF00000919F021091A0020115110581F420811E
:102C00003181820F931F20919D0230919E022817DF
:102C1000390779F5F0939E02E0939D0271C0D801C7
:102C200040E050E0AE17BF0750F412962D913C9152
:102C30001397AD012115310509F1D901F3CF9D019C
:102C4000DA013383228360817181860F971F821797
:102C5000930769F4EC0128813981260F371F2E5F15
:102C60003F4F318320838A819B8193838283452BCD
:102C700029F4F093A002E0939F0242C01396FC93C4
:102C8000EE931297ED01499159919E01240F351F42
:102C9000E217F30771F480819181840F951F0296EA
:102CA00011969C938E938281938113969C938E931D
:102CB0001297E0E0F0E0D80112968D919C91139765
:102CC000009719F0F8018C01F6CF8D919C91980135
:102CD0002E5F3F4F820F931F20919D0230919E02E5
:102CE0002817390769F4309729F41092A00210923E
:102CF0009F0202C01382128210939E0200939D02D3
:102D0000DF91CF911F910F91089581E090E0F894A9
:102D10000C94B119FC018191861721F08823D9F711
:102D2000992708953197CF010895A0E0B0E0EBE92D
:102D3000F6E10C946F19EC017B016115710519F036
:102D4000DB018D939C938E010F5F1F4F7880872D41
:102D500090E00E941018892B11F0E801F4CFBDE239
:102D60007B1205C00F5F1F4F7980C1E008C0EBE206
:102D70007E1204C08E010E5F1F4F7980C0E0680193
:102D8000F1E0CF1AD10843E050E06FE472E0C601F1
:102D90000E941918892BF1F4680122E0C20ED11C9F
:102DA00045E050E06AE472E0C6010E941918892BE0
:102DB00021F4680187E0C80ED11CE114F10419F078
:102DC000D701CD92DC92C111FFC060E070E080E8D5
:102DD0009FE703C143E050E067E472E0C6010E9450
:102DE0001918892B51F4E114F10409F4F2C00E5FB3
:102DF0001F4FF70111830083ECC0680160E070E0B1
:102E0000CB0100E010E0F601D0EDD70DDA3058F537
:102E10002C2F2260622E2C2F2870C2FF05C021119A
:102E200028C00F5F1F4F25C0222311F00150110948
:102E3000A5E0B0E09B01AC010E9460194B015C0170
:102E4000880C991CAA1CBB1CC501B4016D0F711D17
:102E5000811D911D6839A9E97A078A07A9E19A07B6
:102E600040F0C66005C0DE3F51F4C3FD44C0C860F9
:102E70006C2EBFEFCB1ADB0A7080C62DC4CF2D2F6E
:102E80002F7D2531C1F540814D3211F4C06106C05E
:102E90004B3221F0319621E030E006C03296D60167
:102EA00011964C9122E030E0A0EDA40FAA3018F06A
:102EB000E21BF30B20C040E050E04038BCE05B0771
:102EC0005CF49A01220F331F220F331F420F531F4E
:102ED000440F551F4A0F511D3196DF0111972C9158
:102EE000A0EDA20FAA3048F3C4FF03C0519541954D
:102EF0005109040F151FC1FF07C0E114F10421F0AF
:102F00003197D701ED93FC930E943E18C370C330F4
:102F100019F06B017C0106C06B017C01F7FAF0949B
:102F2000F7F8F09420E030E0A901C701B6010E9453
:102F30003918882309F445C017FF06C0119501957B
:102F40001109C6E6D2E002C0CEE7D2E05E01B8E1E8
:102F5000AB1AB1084601BE2DAF2D90E2E92EF12C3F
:102F60000E151F0584F0FE01259135914591549170
:102F7000B4018B2F9A2F0E949F184B01B82FA92FB5
:102F80000E191F09EDCF2497F594E794CA15DB05B8
:102F900039F76401EB2EFA2E8E2D880F8F2D881FA6
:102FA0008F3F49F020E030E0A901C701B6010E943F
:102FB0003918811106C082E290E09093A2028093BA
:102FC000A102C701B60109C060E070E080E89FEF90
:102FD00004C060E070E080EC9FE7CDB7DEB7EEE0C4
:102FE0000C948B19FC0188279927E89421912032B1
:102FF000E9F3293010F02E30C8F32B3241F02D3296
:1030000039F4689404C00E943118820F911D2191F7
:1030100020532A30C0F31EF4909581959F4F089558
:1030200091110C940C19803219F089508550C8F711
:103030000895FB01DC014150504088F08D918134AE
:103040001CF08B350CF4805E659161341CF06B359F
:103050000CF4605E861B611171F3990B0895881B57
:10306000FCCF7AE0979F902D879F802D910D1124A2
:1030700008950E947B1808F481E00895E89409C03F
:1030800097FB3EF490958095709561957F4F8F4F9B
:103090009F4F9923A9F0F92F96E9BB279395F695B1
:1030A000879577956795B795F111F8CFFAF4BB0F2F
:1030B00011F460FF1BC06F5F7F4F8F4F9F4F16C093
:1030C000882311F096E911C0772321F09EE8872F1D
:1030D000762F05C0662371F096E8862F70E060E0D9
:1030E0002AF09A95660F771F881FDAF7880F969552
:1030F000879597F90895990F0008550FAA0BE0E8F6
:10310000FEEF16161706E807F907C0F012161306A9
:10311000E407F50798F0621B730B840B950B39F4E9
:103120000A2661F0232B242B252B21F408950A264F
:1031300009F4A140A6958FEF811D811D08950E947D
:10314000B2180C9426190E94181938F00E941F1901
:1031500020F0952311F00C940F190C9415191124DB
:103160000C945A190E94371970F3959FC1F3950F6B
:1031700050E0551F629FF001729FBB27F00DB11DFB
:10318000639FAA27F00DB11DAA1F649F6627B00D8B
:10319000A11D661F829F2227B00DA11D621F739F74
:1031A000B00DA11D621F839FA00D611D221F749F82
:1031B0003327A00D611D231F849F600D211D822FC9
:1031C000762F6A2F11249F5750409AF0F1F08823F0
:1031D0004AF0EE0FFF1FBB1F661F771F881F91501D
:1031E0005040A9F79E3F510580F00C940F190C94A4
:1031F0005A195F3FE4F3983ED4F386957795679527
:10320000B795F795E7959F5FC1F7FE2B880F911D46
:103210009695879597F9089599278827089597F99E
:103220009F6780E870E060E008959FEF80EC08956C
:1032300000240A9416161706180609060895002495
:103240000A9412161306140605060895092E03940F
:10325000000C11F4882352F0BB0F40F4BF2B11F483
:1032600060FF04C06F5F7F4F8F4F9F4F089557FDE2
:103270009058440F551F59F05F3F71F04795880FE4
:1032800097FB991F61F09F3F79F08795089512167B
:1032900013061406551FF2CF4695F1DF08C0161627
:1032A00017061806991FF1CF8695710561050894D8
:1032B0000895E894BB2766277727CB0197F90895EF
:1032C0000E94A219A59F900DB49F900DA49F800D00
:1032D000911D112408952F923F924F925F926F9209
:1032E0007F928F929F92AF92BF92CF92DF92EF9296
:1032F000FF920F931F93CF93DF93CDB7DEB7CA1B17
:10330000DB0B0FB6F894DEBF0FBECDBF09942A8841
:10331000398848885F846E847D848C849B84AA84E9
:10332000B984C884DF80EE80FD800C811B81AA8176
:10333000B981CE0FD11D0FB6F894DEBF0FBECDBF41
:10334000ED010895A29FB001B39FC001A39F700D2E
:10335000811D1124911DB29F700D811D1124911D9D
:10336000089511E0C2E4D1E004C0FE010E94D81328
:0C3370002196C334D107C9F7F894FFCFB1
:10337C000A000000A302800000000000A503C30D9A
:10338C008F016D018101EC03000000005A04EC0474
:10339C0074040D03F702B502940260023F02E901C6
:1033AC00A5016E616E00696E66006F7666002E0078
:1033BC000D0A00762E32303137303433330054005E
:0633CC00460052454C00D2
:107E0000112484B714BE81FFF0D085E080938100F7
:107E100082E08093C00088E18093C10086E0809377
:107E2000C20080E18093C4008EE0C9D0259A86E02C
:107E300020E33CEF91E0309385002093840096BBD3
:107E4000B09BFECF1D9AA8958150A9F7CC24DD24C4
:107E500088248394B5E0AB2EA1E19A2EF3E0BF2EE7
:107E6000A2D0813461F49FD0082FAFD0023811F036
:107E7000013811F484E001C083E08DD089C08234E0
:107E800011F484E103C0853419F485E0A6D080C0E4
:107E9000853579F488D0E82EFF2485D0082F10E0AE
:107EA000102F00270E291F29000F111F8ED06801E7
:107EB0006FC0863521F484E090D080E0DECF843638
:107EC00009F040C070D06FD0082F6DD080E0C81688
:107ED00080E7D80618F4F601B7BEE895C0E0D1E017
:107EE00062D089930C17E1F7F0E0CF16F0E7DF06D8
:107EF00018F0F601B7BEE89568D007B600FCFDCFD4
:107F0000A601A0E0B1E02C9130E011968C91119780
:107F100090E0982F8827822B932B1296FA010C0160
:107F200087BEE89511244E5F5F4FF1E0A038BF0790
:107F300051F7F601A7BEE89507B600FCFDCF97BE46
:107F4000E89526C08437B1F42ED02DD0F82E2BD052
:107F50003CD0F601EF2C8F010F5F1F4F84911BD097
:107F6000EA94F801C1F70894C11CD11CFA94CF0C13
:107F7000D11C0EC0853739F428D08EE10CD085E9AC
:107F80000AD08FE07ACF813511F488E018D01DD067
:107F900080E101D065CF982F8091C00085FFFCCF94
:107FA0009093C60008958091C00087FFFCCF809118
:107FB000C00084FD01C0A8958091C6000895E0E648
:107FC000F0E098E1908380830895EDDF803219F02E
:107FD00088E0F5DFFFCF84E1DECF1F93182FE3DFCA
:107FE0001150E9F7F2DF1F91089580E0E8DFEE27F6
:047FF000FF270994CA
:027FFE00040479
:0400000300007E007B
:00000001FF
