:100000000C944B010C9473010C9473010C947301C8
:100010000C9473010C9473010C9473010C94730190
:100020000C9473010C9473010C9473010C941B04D5
:100030000C9473010C9473010C9473010C94730170
:100040000C94D1030C9473010C94E40E0C94BE0E2A
:100050000C9473010C9473010C9473010C94730150
:100060000C9473010C947301B201B801BE01C40178
:10007000CA01D001D601110318031F0326032D0363
:100080004403340344033B03971297127412DE12A5
:100090009712D012D812DC120000000024002700B2
:1000A0002A0000000008000201000003040700000D
:1000B0000000000000004D3131343B202D207265DE
:1000C000706F727420706F736974696F6E20616EE7
:1000D00064206665656472617465004D3130303B43
:1000E000202D20746869732068656C70206D6573BD
:1000F00073616765004D32323B202D207475726E3E
:10010000207269676874206C61736572206F66661F
:10011000004D32313B202D207475726E207269675C
:100120006874206C61736572206F6E004D32303BD5
:10013000202D207475726E206C656674206C61735E
:100140006572206F6666004D31393B202D20747535
:10015000726E206C656674206C61736572206F6EC0
:10016000004D31383B202D2064697361626C65203D
:100170006D6F746F7273004D31373B202D20656EAB
:1001800061626C65206D6F746F727300473031204F
:100190005B54287374657073295D205B4C287374FD
:1001A000657073295D205B462866656564726174BD
:1001B00065295D3B202D206D6F766500473030202E
:1001C0005B54287374657073295D3B202D206C6926
:1001D0006E656172206D6F766500436F6D6D616E47
:1001E00064733A004661625363616E20472D434F4A
:1001F00044444520496E746572707265746572205E
:1002000056657273696F6E3A200042414443484517
:10021000434B53554D20004241444C494E454E55A9
:100220004D20003E0001020408102040800102041D
:1002300008102001020408102000000000250028FA
:10024000002B000404040404040404020202020259
:10025000020303030303034E414E494E49545949D7
:100260004E46CDCCCC3D0AD7233C17B7D13877CCFE
:100270002B329595E6241FB14F0A00002041000063
:10028000C84200401C4620BCBE4CCA1B0E5AAEC51C
:100290009D74E613661011241FBECFEFD8E0DEBFB9
:1002A000CDBF11E0A0E0B1E0E6EEF6E302C00590BC
:1002B0000D92AA35B107D9F722E0AAE5B1E001C055
:1002C0001D92A03DB207E1F711E0CAE4D1E004C0FD
:1002D0002197FE010E944415C934D107C9F70E9435
:1002E00076100C94661B0C9400003FB7F894809134
:1002F000600190916101A0916201B091630126B506
:10030000A89B05C02F3F19F00196A11DB11D3FBF4D
:10031000BA2FA92F982F8827820F911DA11DB11DDB
:10032000BC01CD0142E0660F771F881F991F4A95D7
:10033000D1F70895CF93DF93477055276627772726
:10034000FA013197EC01A881B981E730F10520F479
:10035000EC5CFF4F0C9444151496ED91FC911597AD
:1003600061E029C01496ED91FC91159765E023C0DA
:100370001496ED91FC91159764E01DC01496ED91D3
:10038000FC91159766E017C01496ED91FC911597B6
:1003900062E011C01496ED91FC9115976AE00BC0D4
:1003A0001496ED91FC91159768E005C01496ED91B7
:1003B000FC91159769E0DF91CF910994CF93DF937A
:1003C000EC01CB01BA0126E030E040E050E00E94B1
:1003D000CC1A623071058105910559F18CF46115D3
:1003E000710581059105F1F0613071058105910577
:1003F000C1F5E881F9810480F581E02D65E02DC02B
:10040000643071058105910511F1D4F065307105F5
:100410008105910531F5E881F9810480F581E02DB0
:1004200066E01BC0E881F9810480F581E02D64E07D
:1004300014C0E881F9810480F581E02D61E00DC0F0
:10044000E881F9810480F581E02D63E006C0E88150
:10045000F9810480F581E02D62E0CE01DF91CF913A
:100460000994DF91CF910895437055276627772728
:10047000DC01ED91FC910480F581E02D42305105C5
:100480006105710571F0433051056105710559F041
:10049000413051056105710511F065E005C066E068
:1004A00003C06AE001C069E00994CF93DF93EC01D7
:1004B000CB01BA0123E030E040E050E00E94CC1ACA
:1004C000613071058105910581F06230710581050A
:1004D000910591F0672B682B692BC1F4E881F981B4
:1004E0000480F581E02D64E00DC0E881F98104808D
:1004F000F581E02D61E006C0E881F9810480F58195
:10050000E02D62E0CE01DF91CF910994DF91CF9190
:1005100008954370552766277727DC01ED91FC91FC
:100520000480F581E02D423051056105710571F0BF
:10053000433051056105710559F0413051056105A0
:10054000710511F062E005C063E003C061E001C025
:1005500060E009940F931F93CF93DF93EC01E88140
:10056000F9810480F581E02D8C010D5B1F4FD801CE
:100570008C91811102C060E001C062E0CE0109955A
:10058000E881F9810480F581E02DD8018C918111F9
:1005900002C061E001C063E0CE010995EBA5FCA5B6
:1005A000E230F10538F0EE0FFF1FEE0FFF1F359719
:1005B0003197F1F7E881F9810480F581E02DD801C8
:1005C0008C91811102C060E001C062E0CE01DF9138
:1005D000CF911F910F910994CF93DF93EC0120E00D
:1005E00030E0A9016B897C898D899E890E945F1604
:1005F00018161CF4EFA5F8A902C0E9A9FAA9DF9121
:10060000CF9109940F931F93DC011296EC910E2F5A
:1006100010E009301105C0F5F801E55CFF4F0C94BE
:100620004415DC01ED91FC910084F185E02D29C099
:10063000DC01ED91FC910284F385E02D22C0DC0108
:10064000ED91FC910484F585E02D1BC0DC01ED915A
:10065000FC910684F785E02D14C0DC01ED91FC913E
:100660000088F189E02D0DC0DC01ED91FC9102883C
:10067000F389E02D06C0DC01ED91FC910488F58939
:10068000E02D1F910F9109941F910F910895CF9321
:10069000DF93FC012281222389F0EC010190F0819B
:1006A000E02D0480F581E02D60E009958EA58F3F57
:1006B00029F06DA5DF91CF910C94160FDF91CF91AA
:1006C0000895CF92DF92EF92FF920F931F93CF93F3
:1006D000DF93FC012281243041F0283031F02330B7
:1006E00031F0263021F012E003C014E001C013E025
:1006F000EC012796E12CF12CC62ED12C01E0C6018D
:100700000E2C02C0959587950A94E2F7688180FDCA
:100710006027FE01349780810E94160FFFEFEF1AC9
:10072000FF0A2196E11658F3DF91CF911F910F91A7
:10073000FF90EF90DF90CF900895CF93DF93FC016F
:100740002281222359F1EC0161E083810E94620F32
:1007500061E08C810E94620F8A81843011F08830C0
:1007600039F461E08D810E94620F61E08E8106C0E4
:10077000833011F0863021F461E08D810E94620F98
:100780008EA58F3F59F061E00E94620F6DA581E058
:1007900068278EA5DF91CF910C94160FDF91CF9132
:1007A00008951F920F920FB60F9211242F933F932B
:1007B0008F939F93AF93BF9380915C0190915D0164
:1007C000A0915E01B0915F0130915B0123E0230FA6
:1007D0002D3720F40196A11DB11D05C026E8230F79
:1007E0000296A11DB11D20935B0180935C01909343
:1007F0005D01A0935E01B0935F01809160019091D3
:100800006101A0916201B09163010196A11DB11D2A
:100810008093600190936101A0936201B0936301A2
:10082000BF91AF919F918F913F912F910F900FBEEC
:100830000F901F9018951F920F920FB60F921124D0
:100840002F933F934F935F936F937F938F939F93D8
:10085000AF93BF93EF93FF9380915A0187FF05C039
:1008600010928500109284001BC020915A01022E24
:10087000000C330B80916D0290E02817390784F447
:1008800080915A01082E000C990BFC01EE0FFF1FFE
:100890008E0F9F1FFC01E75BFD4F808186FD15C019
:1008A00080915A018F5F80935A0120915A01022E44
:1008B000000C330B80916D0290E028173907C4F4C7
:1008C00080915A018C3064F113C080915A01082E36
:1008D000000C990BFC01EE0FFF1F8E0F9F1FFC01F8
:1008E000E75BFD4F808160E08F730E94160FD8CFC9
:1008F0008091840090918500049680349C4918F47E
:1009000080E49CE905C08091840090918500049664
:1009100090938900809388008FEF80935A013BC0A9
:10092000209184003091850080915A01082E000C9E
:10093000990BFC01EE0FFF1F8E0F9F1FFC01E75B61
:10094000FD4F81819281820F931F90938900809344
:10095000880080915A01082E000C990BFC01EE0FC3
:10096000FF1F8E0F9F1FFC01E75BFD4F808186FFFD
:1009700012C080915A01082E000C990BFC01EE0F59
:10098000FF1F8E0F9F1FFC01E75BFD4F808161E021
:100990008F730E94160FFF91EF91BF91AF919F91BE
:1009A0008F917F916F915F914F913F912F910F9018
:1009B0000FBE0F901F9018958F929F92AF92BF928B
:1009C000EF92FF920F931F93CF93DF93082F8091A5
:1009D0006E028C3008F051C061E086E00E94620F28
:1009E00080916E02E82FF0E09F01220F331FE20F8B
:1009F000F31FE75BFD4F9081907C9660908310928F
:100A00006F02109270026CE00E9438159CE0899F82
:100A1000B001112440E050E09A01260F371FF90180
:100A2000EE0FFF1F2E0F3F1FF901E75BFD4F908177
:100A300096FD16C04F5F5F4F4C30510569F781112D
:100A40000FC01092800082E0809381001092850098
:100A500010928400B19A80916F00826080936F0041
:100A6000E0916E02F0E0CF01880F991FE80FF91FA7
:100A7000E75BFD4F8081806480839091700280915C
:100A80006F0210916E021C3008F052C028E532E06F
:100A90007901E91AF10897FDF394EE0CFF1CEE0CB6
:100AA000FF1CC8E8D0E0C81BD10987FDD395CC0F47
:100AB000DD1FCC0FDD1F4E010D2E000CAA08BB0858
:100AC000A02FB0E0A53BB10514F0A4EBB0E0A70166
:100AD0000F2C000C660B770B9A01AB012819390912
:100AE0004A095B090E94F61A24EB30E040E050E02E
:100AF0000E94CC1A820E931EA41EB51E8C169D0653
:100B00002CF0E401E814F9040CF4E7012297CC0F6F
:100B1000DD1F2FB7F894812F90E0FC01EE0FFF1F2F
:100B20008E0F9F1FFC01E75BFD4FD283C1832FBF58
:100B3000E0916E02F0E0CF01880F991FE80FF91FD6
:100B4000E75BFD4F80818F7B8083DF91CF911F9189
:100B50000F91FF90EF90BF90AF909F908F9008956E
:100B600060E082E10E94160F60E089E00E94160FAB
:100B70001092640160E08FE00E94160F60E082E155
:100B80000E94160F60E089E00C94160F8F929F92DE
:100B9000BF92CF92DF92EF92FF920F931F93CF936A
:100BA000DF93CDB7DEB729970FB6F894DEBF0FBE3F
:100BB000CDBF962F50E060E070E0592B682BCB0141
:100BC000AA27BB27152FB82EBC01812C912CA0E0A1
:100BD000B0E020E030E08091B7029091B802281791
:100BE0003907E0F58091BC02882371F0869F70017F
:100BF000879FF00C1124189F600111240D2D489F30
:100C0000C0011124592F03C0542F012FFB2CE09059
:100C1000C202D090BF028091BD029091BE02ED1041
:100C200003C08A0F9B1F07C0880D991D6C01CE0C55
:100C3000D11CF6011082E090BF026C01CE0CD11CD9
:100C4000F601F082F090C002FC01EF0DF11D00836F
:100C50000091C102800F911DFC0150832F5F3F4F17
:100C60001396F4E08F0E911C2031310509F0B3CFBB
:100C70008091BD029091BE02892B09F4A1C00E940F
:100C800075010091C3021091C4022091C5023091F8
:100C9000C602DC01CB01801B910BA20BB30BC297E8
:100CA000A105B10560F3F8948091B9029091BA0260
:100CB0009A838983E091BD02F091BE02DF01119613
:100CC000808189879091B502E091C702F091C802B6
:100CD0008091C902992309F42EC09081982B98879E
:100CE0009081809589238F838F818C8388E08B838B
:100CF00058856F8149853B812C8189819A815083F8
:100D000047FD252F3A952083262F39F0441F00C038
:100D100000006083000000C0F2CF38E04D91608396
:100D20000000019761F7F093C802E093C70249877A
:100D30003B832C8338C09081982B98879081809535
:100D400089238F838F818E8388E08D8358856F817F
:100D500049853D812E8189819A81508347FD252FC8
:100D600000C000C0208300C000C000C000C000C0A0
:100D700060830000262F3A9541F0441F000000C018
:100D800000C000C000C000C0E8CF38E04D9100C0F6
:100D9000608300C0019709F7F093C802E093C7028F
:100DA00049873D832E839A83898378940E947501B5
:100DB0006093C3027093C4028093C5029093C602ED
:100DC00029960FB6F894DEBF0FBECDBFDF91CF914D
:100DD0001F910F91FF90EF90DF90CF90BF909F9069
:100DE0008F9008958F929F92AF92BF92CF92DF9291
:100DF000EF92FF926A017B010E94BF0FA70196014B
:100E0000C701B6010E94AA16882319F086E391E073
:100E10001AC046015701E894B7F82FEF3FEF4FE7AC
:100E20005FE7C501B4010E94AA1681110FC02FEF20
:100E30003FEF4FE75FE7C501B4010E94A5191816FF
:100E40002CF48AE391E00E94BF0F73C02FEF3FEFB5
:100E50004FE75FE4C701B6010E945F1618161CF445
:100E60008EE391E0F0CF2FEF3FEF4FE75FECC7014C
:100E7000B6010E94A51987FDF3CF20E030E0A9015B
:100E8000C701B6010E94A51987FF07C08DE20E9425
:100E9000DF0FF7FAF094F7F8F0942AE037ED43EA21
:100EA0005BE3C701B6010E944B154B015C010E9438
:100EB00030166B017C010E94AA199B01AC01C5018F
:100EC000B4010E944A154B015C014AE0C701B6011A
:100ED0000E94EA0F82E491E00E94BF0F20E030E020
:100EE00040E251E4C501B4010E940B1A4B015C01C0
:100EF0000E9430166B01E12CF12C4AE0C701B601CB
:100F00000E94EA0FC701B6010E94AA199B01AC0119
:100F1000C501B4010E944A1520E030E040E251E4EE
:100F20000E940B1A0E94301680E090E04AE00E9476
:100F3000EA0F84E491E0FF90EF90DF90CF90BF90B4
:100F4000AF909F908F900C94BF0FFF920F931F93C1
:100F5000CF93DF93F82E8B01C091A501D091A6010C
:100F6000CB59DE4FE5E6F1E03097C9F09081992347
:100F7000B1F0EC17FD0798F49F1109C0CF0101965D
:100F8000DF91CF911F910F91FF900C945E1960E259
:100F900070E0CF010E94F617FC013196E5CFC80141
:100FA000DF91CF911F910F91FF9008954F925F9223
:100FB0006F927F92AF92BF92CF92DF92EF92FF92A9
:100FC0000F931F93CF93DF93EC015A018B012B8971
:100FD0003C894D895E89B501C8010E94A519882305
:100FE00009F451C0CF88D88CE98CFA8C26013701DE
:100FF00077FA709477F87094A3019201B501C80153
:101000000E94A51987FD0BC0A7019601B501C80173
:101010000E945F1618162CF06501780102C073015A
:10102000620120E030E0A901C701B6010E94A519C4
:10103000811105C01BA21CA21DA21EA220C0A701D7
:10104000960160E074E284E799E40E94B7159F7707
:101050000E9430166BA37CA38DA39EA35E0183E444
:10106000A80EB11C11E020E030E0A901C701B601D3
:101070000E945F1618160CF010E0F5011083CB8A61
:10108000DC8AED8AFE8ADF91CF911F910F91FF904C
:10109000EF90DF90CF90BF90AF907F906F905F9078
:1010A0004F9008952F923F924F925F926F927F924E
:1010B0008F929F92AF92BF92CF92DF92EF92FF9268
:1010C0000F931F93CF93DF9300D000D0CDB7DEB73F
:1010D0001C01FC0187849088A188B288838594854F
:1010E000A585B685881A990AAA0ABB0A63897489F4
:1010F000858996899B01AC010E940B1A6B017C01CA
:10110000F101638D748D858D968D9B01AC010E94DC
:101110004B159B01AC01C701B6010E94B7150E9497
:10112000291681149104A104B104A1F4623071055F
:10113000810591050CF07CC0F10113A214A215A247
:1011400016A2138A148A158A168A13AA14AA15AA33
:1011500016AA03C1F10103A914A925A936A9ED5BBB
:10116000FF4F181419041A041B04FCF4101611067E
:10117000120613064CF4681579058A059B054CF593
:101180002081211155C025C001151105210531050A
:1011900009F44EC0681579058A059B050CF048C016
:1011A0008081882309F444C037C010161106120646
:1011B0001306F4F4002711279801081919092A09C0
:1011C0003B0960177107820793071CF420812223D3
:1011D00079F19B01AC0188279927DC01821B930BD5
:1011E000A40BB50BF10183AB94ABA5ABB6AB20C0A0
:1011F0000115110521053105D9F0CC24DD24760136
:10120000C818D908EA08FB086C157D058E059F05EE
:101210007CF4808181110CC030952095109501954A
:101220001F4F2F4F3F4FF10103AB14AB25AB36AB34
:10123000F101C3A8D4A8E5A8F6A881010D5B1F4F52
:10124000C114D104E104F10491F487A990ADA1ADDA
:10125000B2AD83AF94AFA5AFB6AF81E01814190457
:101260001A041B040CF080E0F801808340C0F101F7
:1012700083AC94ACA5ACB6ACA5019401C501B40196
:101280000E944B152B013C01C701B6010E94AC190D
:1012900020E030E040E850E40E940B1A20E030E00B
:1012A00040E85FE30E944B159B01AC01C301B20112
:1012B0000E94B7159B01AC01C501B4010E944A15FB
:1012C0004B015C01F101FF96408051806280738088
:1012D0009201A3010E945F16181614F042015301F7
:1012E000A401B501F10143AF54AF65AF76AFFFEF95
:1012F000CF1ADF0AEF0AFF0AF101C3AAD4AAE5AAAE
:10130000F6AA23AD34AD45AD56ADCA01B901298366
:101310003A834B835C830E943016F10163A374A36C
:1013200085A396A329813A814B815C8160E074E2B8
:1013300084E799E40E94B715F101638B748B858B68
:10134000968BF8012081211108C0DC01CB01B05837
:10135000F101838B948BA58BB68B0F900F900F9020
:101360000F90DF91CF911F910F91FF90EF90DF9041
:10137000CF90BF90AF909F908F907F906F905F9035
:101380004F903F902F9008954F925F926F927F926F
:101390008F929F92AF92BF92CF92DF92EF92FF9285
:1013A000CF93DF93EC016A017B018B8C9C8CAD8C1D
:1013B000BE8C9A01AB01C501B4010E94A519882316
:1013C00009F449C06BA97CA98DA99EA90E94AC19FA
:1013D0002B013C01A7019601C501B4010E94B7157C
:1013E0009B01AC01C301B2010E940B1A0E94291695
:1013F0006BAB7CAB8DAB9EABA701960160E070E060
:1014000080E090E40E94B7150E946A1626E53EE04F
:101410004DE25FE30E940B1A20E034E244E759E416
:101420000E940B1A6FAB78AF89AF9AAFCB8EDC8E70
:10143000ED8EFE8ECE01DF91CF91FF90EF90DF9089
:10144000CF90BF90AF909F908F907F906F905F9064
:101450004F900C945208DF91CF91FF90EF90DF9066
:10146000CF90BF90AF909F908F907F906F905F9044
:101470004F900895CF92DF92EF92FF92CF93DF9338
:10148000FC0143A154A165A176A1452B462B472B16
:1014900011F480E04BC0EC010E9475016B017C01EE
:1014A0004FA158A569A57AA58BA19CA1ADA1BEA10C
:1014B000840F951FA61FB71F84179507A607B707A8
:1014C00030F0C816D906EA06FB0658F405C0C8165F
:1014D000D906EA06FB06E8F2C416D506E606F706C4
:1014E000C0F6FE01ED5BFF4F20818B859C85AD85AD
:1014F000BE85222321F00196A11DB11D03C00197D5
:10150000A109B1098B879C87AD87BE87E881F981E6
:101510004B855C856D857E850680F781E02DCE014B
:101520000995CFA2D8A6E9A6FAA681E0DF91CF91CE
:10153000FF90EF90DF90CF9008950F931F93FC01E1
:101540000385148525853685400F511F621F731F43
:10155000078510892189328904171507260737075F
:1015600041F04787508B618B728B1F910F910C94C8
:1015700052081F910F9108958F929F92AF92BF9240
:10158000EF92FF920F931F93CF93DF93CDB7DEB708
:10159000C454D1090FB6F894DEBF0FBECDBF7C0195
:1015A0004A015B0180E291E09A83898394E09B8306
:1015B0001C861D861E861F86188A198A1A8A1B8A0F
:1015C0001C8A1D8A1E8A1F8A00E010E020E83FE383
:1015D000088F198F2A8F3B8F1C8E1D8E1E8E1F8E9B
:1015E00008A319A32AA33BA31CA21DA21EA21FA2EB
:1015F00041E050E05DA74CA78FEF8FA718A619A672
:101600001AA61BA682E08C8383E08D839E8385E0EF
:101610008F831CAA1DAA1EAA1FAA18AE19AE1AAE45
:101620001BAE1CAE1DAE1EAE1FAE24960CAF1DAF82
:101630002EAF3FAF249725961FAE259718861986A3
:101640001A861B86CE0101960E949D0340E050E061
:1016500060E87FE3CE0101960E94C4098AE0E816A3
:10166000F10409F0CAC0809173028B8380917402E7
:1016700090917502A0917602B09177028C839D8340
:10168000AE83BF838091780290917902A0917A0213
:10169000B0917B0288879987AA87BB8780917C025B
:1016A00090917D02A0917E02B0917F028C879D87F0
:1016B000AE87BF878091800290918102A0918202C3
:1016C000B0918302888B998BAA8BBB8B809184020B
:1016D00090918502A0918602B09187028C8B9D8BA0
:1016E000AE8BBF8B8091880290918902A0918A0273
:1016F000B0918B02888F998FAA8FBB8F80918C02BB
:1017000090918D02A0918E02B0918F028C8F9D8F4F
:10171000AE8FBF8F8091900290919102A091920222
:10172000B091930288A399A3AAA3BBA3809194022A
:1017300090919502A0919602B09197028CA39DA3DF
:10174000AEA3BFA38091980290919902A0919A02B2
:10175000B0919B0288A799A7AAA7BBA780919C02DA
:1017600090919D029DA78CA780919E028EA780914B
:101770009F028FA78091A0029091A10299AB88ABA4
:101780008091A2029091A3029BAB8AAB8091A402AC
:101790009091A502A091A602B091A7028CAB9DAB3F
:1017A000AEABBFAB8091A8029091A902A091AA0212
:1017B000B091AB0288AF99AFAAAFBBAF8091AC023A
:1017C0009091AD02A091AE02B091AF028CAF9DAFEF
:1017D000AEAFBFAF8091B0029091B102A091B202C2
:1017E000B091B30224968CAF9DAFAEAFBFAF24973C
:1017F0008091B40225968FAF259720E030E040E835
:1018000050E4C501B4010E940B1A0E942916AB01D5
:10181000BC01CE0101960E949D0A40E050E068ECB8
:1018200072E4CE0101960E94D60711E048895989D9
:101830006A897B898C859D85AE85BF854817590748
:101840006A077B0789F084179507A607B70724F472
:1018500025961FAF259703C025961FAE2597CE016D
:1018600001960E943A0AE2CFCC5BDF4F0FB6F894A4
:10187000DEBF0FBECDBFDF91CF911F910F91FF90C3
:10188000EF90BF90AF909F908F900895EF92FF924E
:101890000F931F93CF93DF93CDB7DEB7C454D10915
:1018A0000FB6F894DEBF0FBECDBF7C018B0180E286
:1018B00091E09A83898394E09B831C861D861E8613
:1018C0001F86188A198A1A8A1B8A1C8A1D8A1E8AF0
:1018D0001F8A40E050E060E87FE3488F598F6A8FAD
:1018E0007B8F1C8E1D8E1E8E1F8E48A359A36AA34C
:1018F0007BA31CA21DA21EA21FA221E030E03DA7D7
:101900002CA78FEF8FA718A619A61AA61BA682E0F0
:101910008C8383E08D839E8385E08F831CAA1DAA20
:101920001EAA1FAA18AE19AE1AAE1BAE1CAE1DAE73
:101930001EAE1FAE24964CAF5DAF6EAF7FAF249747
:1019400025961FAE2597188619861A861B86CE0106
:1019500001960E949D0340E050E060E87FE3CE01E5
:1019600001960E94C4098AE0E816F10409F0CAC091
:10197000809173028B838091740290917502A09183
:101980007602B09177028C839D83AE83BF83809172
:10199000780290917902A0917A02B0917B028887B7
:1019A0009987AA87BB8780917C0290917D02A09144
:1019B0007E02B0917F028C879D87AE87BF87809122
:1019C000800290918102A0918202B0918302888B63
:1019D000998BAA8BBB8B8091840290918502A091F8
:1019E0008602B09187028C8B9D8BAE8BBF8B8091D2
:1019F000880290918902A0918A02B0918B02888F0F
:101A0000998FAA8FBB8F80918C0290918D02A091AB
:101A10008E02B0918F028C8F9D8FAE8FBF8F809181
:101A2000900290919102A0919202B091930288A3AA
:101A300099A3AAA3BBA38091940290919502A0912F
:101A40009602B09197028CA39DA3AEA3BFA38091F1
:101A5000980290919902A0919A02B0919B0288A756
:101A600099A7AAA7BBA780919C0290919D029DA7D0
:101A70008CA780919E028EA780919F028FA7809154
:101A8000A0029091A10299AB88AB8091A2029091A3
:101A9000A3029BAB8AAB8091A4029091A502A09176
:101AA000A602B091A7028CAB9DABAEABBFAB809151
:101AB000A8029091A902A091AA02B091AB0288AFAE
:101AC00099AFAAAFBBAF8091AC029091AD02A0914B
:101AD000AE02B091AF028CAF9DAFAEAFBFAF809101
:101AE000B0029091B102A091B202B091B3022496DB
:101AF0008CAF9DAFAEAFBFAF24978091B402259657
:101B00008FAF2597A801440F551F440F551F052E71
:101B1000000C660B770BCE0101960E949D0A40E0F7
:101B200050E068EC72E4CE0101960E94D60740E0D6
:101B300050E06AEF73E4CE0101960E94C40948891F
:101B400059896A897B898C859D85AE85BF854817B3
:101B500059076A077B0759F0CE0101960E943A0A9D
:101B6000882369F3CE0101960E945208E8CFCC5B2E
:101B7000DF4F0FB6F894DEBF0FBECDBFDF91CF9120
:101B80001F910F91FF90EF900895CF92DF92EF9207
:101B9000FF920F931F93CF93DF936C017A018B0118
:101BA000C0E0D0E0CE15DF0589F0D8016D918D0140
:101BB000D601ED91FC910190F081E02DC6010995CF
:101BC000892B11F47E0102C02196ECCFC701DF9171
:101BD000CF911F910F91FF90EF90DF90CF900895DC
:101BE000FC01918D828D981761F0828DDF01A80F25
:101BF000B11D5D968C91928D9F5F9F73928F90E047
:101C000008958FEF9FEF0895FC01918D828D9817B5
:101C100031F0828DE80FF11D858D90E008958FEFF2
:101C20009FEF0895FC01918D228D892F90E0805CBB
:101C30009F4F821B91098F73992708958CEA91E039
:101C40000E94120E21E0892B09F420E0822F0895D2
:101C5000FC01848DDF01A80FB11DA35ABF4F2C9149
:101C6000848D90E001968F739927848FA689B78918
:101C70002C93A089B1898C9180648C93938D848DF1
:101C8000981306C00288F389E02D80818F7D8083C0
:101C90000895EF92FF920F931F93CF93DF93EC0180
:101CA00081E0888F9B8D8C8D981305C0E889F98918
:101CB000808185FD24C0F62E0B8D10E00F5F1F4F35
:101CC0000F731127E02E8C8DE8120CC00FB607FCA5
:101CD000FACFE889F989808185FFF5CFCE010E948E
:101CE000280EF1CF8B8DFE01E80FF11DE35AFF4F57
:101CF000F0820B8FEA89FB898081806207C0EE89C0
:101D0000FF896083E889F98980818064808381E02C
:101D100090E0DF91CF911F910F91FF90EF90089588
:101D2000CF93DF93EC01888D8823C9F0EA89FB8982
:101D3000808185FD05C0A889B9898C9186FD0FC079
:101D40000FB607FCF5CF808185FFF2CFA889B9894E
:101D50008C9185FFEDCFCE010E94280EE7CFDF9159
:101D6000CF91089580E090E0892B29F00E941E0E0B
:101D700081110C94000008950E94F1171F920F9298
:101D80000FB60F9211242F933F934F935F936F934E
:101D90007F938F939F93AF93BF93EF93FF938CEABF
:101DA00091E00E94280EFF91EF91BF91AF919F911A
:101DB0008F917F916F915F914F913F912F910F90F4
:101DC0000FBE0F901F9018951F920F920FB60F9293
:101DD00011242F938F939F93EF93FF93E091BC0176
:101DE000F091BD018081E091C201F091C30182FDBB
:101DF00012C090818091C5018F5F8F732091C601C1
:101E0000821751F0E091C501F0E0E455FE4F958F47
:101E10008093C50101C08081FF91EF919F918F91C7
:101E20002F910F900FBE0F901F90189590E0FC011E
:101E3000EE55FF4F3491FC01EB5DFD4F2491FC0109
:101E4000ED5BFD4FE491EE2309F43BC0332339F100
:101E5000333091F038F43130A9F0323001F584B5E7
:101E60008F7D12C0373091F03830A1F03430B9F4A2
:101E7000809180008F7D03C0809180008F77809358
:101E800080000DC084B58F7784BD09C08091B000FB
:101E90008F7703C08091B0008F7D8093B000F0E019
:101EA000EE0FFF1FE75CFD4FA591B4918FB7F8943B
:101EB000EC91611103C020952E2301C02E2B2C9391
:101EC0008FBF0895CF93DF9390E0FC01EB5DFD4F52
:101ED0002491FC01ED5BFD4F8491882361F190E03A
:101EE000880F991FFC01E856FF4FC591D491FC0162
:101EF000E75CFD4FA591B491611109C09FB7F894BB
:101F00008881209582238883EC912E230BC0623038
:101F100061F49FB7F8943881822F8095832388835A
:101F2000EC912E2B2C939FBF06C08FB7F894E881BD
:101F30002E2B28838FBFDF91CF9108950F931F938E
:101F4000CF93DF938C01C0E0D0E0F801EC0FFD1FD0
:101F50006491662371F0E091AC01F091AD010190C4
:101F6000F081E02D8CEA91E00995892B11F0219602
:101F7000ECCFCE01DF91CF911F910F910895009783
:101F800069F0FC0101900020E9F73197AF01481B8F
:101F9000590BBC018CEA91E00C94C50D80E090E0F7
:101FA0000895CF93DF930E94BF0FEC0184E491E08A
:101FB0000E94BF0F8C0F9D1FDF91CF910895E0917C
:101FC000AC01F091AD010190F081E02D682F8CEA19
:101FD00091E009948F929F92AF92BF920F931F93BB
:101FE000CF93DF93CDB7DEB7A1970FB6F894DEBFDE
:101FF0000FBECDBF19A2423008F44AE08E010F5D3A
:102000001F4F842E912CA12CB12CA50194010E946C
:10201000351BE62FB901CA0101501109EA3014F449
:10202000E05D01C0E95CD801EC93232B242B252B28
:1020300061F7C8010E94BF0FA1960FB6F894DEBFEA
:102040000FBECDBFDF91CF911F910F91BF90AF9089
:102050009F908F900895CF93DF930E949E0FEC0185
:1020600084E491E00E94BF0F8C0F9D1FDF91CF9100
:102070000895CF92DF92EF92FF92CF93DF936B019F
:102080007C0197FF12C08DE20E94DF0FEC016627F2
:102090007727CB016C197D098E099F094AE00E94C0
:1020A000EA0F7C01EC0EFD1E04C04AE00E94EA0F1C
:1020B0007C0184E491E00E94BF0F8E0D9F1DDF9193
:1020C000CF91FF90EF90DF90CF9008958091BD0267
:1020D0009091BE02009711F00E9459178091BB02A7
:1020E00087FD03C060E00C94620F0895789484B576
:1020F000826084BD84B5816084BD85B5826085BD04
:1021000085B5816085BD80916E00816080936E0091
:102110001092810080918100826080938100809183
:102120008100816080938100809180008160809334
:1021300080008091B10084608093B1008091B000F4
:1021400081608093B00080917A00846080937A00EF
:1021500080917A00826080937A0080917A00816019
:1021600080937A0080917A00806880937A00109240
:10217000C100E091BC01F091BD0182E08083E0915B
:10218000B801F091B9011082E091BA01F091BB0160
:1021900080E180831092C401E091C001F091C101FF
:1021A00086E08083E091BE01F091BF018081806173
:1021B0008083E091BE01F091BF01808188608083BF
:1021C000E091BE01F091BF01808180688083E09141
:1021D000BE01F091BF0180818F7D808361E082E14B
:1021E0000E94620F61E089E00E94620F61E08FE06F
:1021F0000E94620F61E089E00E94620F61E08AE064
:102200000E94620F61E082E10E94620F61E089E05A
:102210000E94620F61E08FE00E94620F60E08FE039
:102220000E94160F60E082E10E94160F60E089E0D4
:102230000E94160F60E089E00E94160F60E08AE0BD
:102240000E94160F61E083E10E94620F60E083E16B
:102250000E94160F61E082E00E94620F61E085E05B
:102260000E94620F61E083E00E94620F61E086E0FD
:102270000E94620F61E083E10E94160F20E030E0CF
:102280004AEF54E4609188027091890280918A0239
:1022900090918B020E94A519882309F453C080E015
:1022A00090E0AAEFB4E48093880290938902A0930F
:1022B0008A02B0938B0280E090E0AAEFB3E48093AF
:1022C000B0029093B102A093B202B093B302809196
:1022D000A4029091A502A091A602B091A70218169F
:1022E00019061A061B0674F5609184027091850226
:1022F00080918602909187029B01AC010E940B1A8B
:102300006B017C0160918C0270918D0280918E0234
:1023100090918F029B01AC010E944B159B01AC0177
:10232000C701B6010E94B7150E9429166093A40246
:102330007093A5028093A6029093A70281E792E092
:102340000E94520840E050E06FE274E481E792E0BE
:102350000E94D60761E082E00E94160F80E00E9492
:10236000DC048091BB0287FD08C061E00E94620F1F
:1023700060E08091BB020E94160F81E08093B6025C
:1023800061E082E00E94160F61E085E00E94160F76
:102390008AE090E090930101809300018CEA91E043
:1023A0000E94120E181619060CF0F5C18CEA91E085
:1023B0000E94F00DC82F8D3089F30E94DF0F20910D
:1023C000A5013091A6012034310554F4C9010196CC
:1023D0009093A6018093A501F901EB59FE4FC083AC
:1023E000CA30E1F6E091A501F091A601EB59FE4F4C
:1023F0001082C0916501CB3309F4C4C16FEF7FEF48
:102400008EE40E94A507092E000CAA0BBB0B8F3F80
:102410002FEF9207A207B20709F458C0CE3409F093
:1024200055C04091A7015091A8016091A9017091F8
:10243000AA0184179507A607B70719F087E192E06C
:1024400025C06AE270E085E691E00E94F617892BCC
:1024500009F498C1E5E6F1E0C0E09F01255631405E
:1024600091919A3211F0C927F8CF60E070E0C9016C
:102470008A599E4F0E9401180C2E000CDD0B0E9401
:102480002916C617D70779F08AE092E00E949E0FBE
:102490006091A7017091A8018091A9019091AA0172
:1024A0000E9439106FC18091A7019091A801A0915D
:1024B000A901B091AA010196A11DB11D8093A701A8
:1024C0009093A801A093A901B093AA016FEF7FEFA9
:1024D00087E40E94A5078830910508F06FC0FC01D1
:1024E000EC5BFF4F0C94441560E070E086E40E94C2
:1024F000A5077C0160E070E08CE40E94A507EC0178
:1025000060E070E084E50E94A507009731F0A70124
:10251000BC018AE090E00E94460C209709F44EC06E
:10252000A701BE018BE090E00E94460C47C060E02E
:1025300070E086E40E94A507BC01990F880B990BF7
:102540000E94AC196B017C0160E070E08CE40E9499
:10255000A507EC0160E070E084E50E94A507009704
:1025600071F0BC01990F880B990B0E94AC19AB015B
:10257000BC01970186018AE090E00E94BC0A209786
:10258000E9F0BE01DD0F880B990B0E94AC19AB017D
:10259000BC01970186018BE090E00E94BC0A0EC04E
:1025A00060E070E081E40E94A5070E94DC0406C0A0
:1025B00081E08093AB0102C01092AB016FEF7FEF1F
:1025C0008DE40E94A5078431910509F472C0DCF402
:1025D0008131910509F45EC044F48430910509F419
:1025E00041C0059709F440C0CDC08231910509F47E
:1025F00057C0439709F0C6C061E089E00E94160FFA
:1026000061E08AE067C08436910509F469C054F43A
:102610008531910509F458C0469709F0B3C00E946E
:10262000B005B0C08237910509F48FC0883C910590
:1026300009F4A4C08E36910509F0A4C06091A701E9
:102640007091A8018EE40E94A507092E000CAA0B28
:10265000BB0B8093A7019093A801A093A901B0930D
:10266000AA0190C00E94B00560E070E082E40E9480
:10267000A5077C0160E070E087E40E94A507EC01FB
:1026800060E070E082E50E94A507A701BE010E94FC
:10269000C60578C060E082E00E94160F60E005C0C9
:1026A00061E082E00E94160F61E085E00E94160F53
:1026B00069C060E089E00E94160F60E08AE00E9435
:1026C000160F109264015EC061E082E10E94160F55
:1026D00061E089E00E94160F81E08093640152C09E
:1026E00084EE91E00E949E0F87E491E00E94D10F5A
:1026F0008AED91E00E942B108CEB91E00E942B1050
:102700008CE891E00E942B1087E791E00E942B104B
:1027100081E691E00E942B1087E491E00E942B104B
:102720008CE291E00E942B1081E191E00E942B103D
:1027300085EF90E00E942B108BED90E00E942B1013
:1027400086EB90E00E942B101DC040E050E0BA01E3
:1027500082E591E00E94F20640E050E0BA0188E58F
:1027600091E00E94F20640E050E46CE176E484E5FA
:1027700091E00E94F20686E591E002C087E491E0D4
:102780000E94D10F1092A6011092A50183E292E05F
:102790000E949E0F03CE8091AB018823A1F040E000
:1027A00050E06AE774E481E792E00E94D6074AE0CD
:1027B00050E060E070E081E792E00E949D0A81E7CE
:1027C00092E00E943A0A0E94B20EE8CDCF93109296
:1027D000AF011092AE0188EE93E0A0E0B0E08093EC
:1027E000B0019093B101A093B201B093B30180E125
:1027F00091E09093AD018093AC0185EC90E09093D3
:10280000B9018093B80184EC90E09093BB01809370
:10281000BA0180EC90E09093BD018093BC0181EC03
:1028200090E09093BF018093BE0182EC90E0909382
:10283000C1018093C00186EC90E09093C301809326
:10284000C2011092C5011092C6011092C7011092E8
:10285000C80180E291E0909372028093710282E05D
:102860008093730210927C0210927D0210927E027D
:1028700010927F02109280021092810210928202C6
:1028800010928302109284021092850210928602A6
:102890001092870280E090E0A0E8BFE38093880276
:1028A00090938902A0938A02B0938B0210928C02BB
:1028B00010928D0210928E0210928F0280939002DD
:1028C00090939102A0939202B0939302109294027B
:1028D00010929502109296021092970221E030E039
:1028E00030939D0220939C02CFEFC0939F021092E1
:1028F00098021092990210929A0210929B0223E081
:102900002093740224E0209375022093760225E040
:10291000209377021092A4021092A5021092A602B0
:102920001092A7021092A8021092A9021092AA0275
:102930001092AB021092AC021092AD021092AE0255
:102940001092AF028093B0029093B102A093B202B2
:10295000B093B3021092B4021092780210927902EE
:1029600010927A0210927B0281E792E00E949D030E
:1029700040E050E060E87FE381E792E00E94C40914
:1029800080916D028C30A0F491E0980F90936D02CD
:1029900080936E0290E0FC01EE0FFF1F8E0F9F1FD1
:1029A000FC01E75BFD4F88EB9BE09283818302C0D3
:1029B000C0936E021092B6021092BC021092C30233
:1029C0001092C4021092C5021092C60281E0809358
:1029D000C2028093BF021092C00292E09093C102A3
:1029E0008093B50280E390E09093BA028093B9029D
:1029F0000E94C4169093BE028093BD02009761F0BE
:102A000020E3FC0111922A95E9F780E190E0909390
:102A1000B8028093B70208C01092BA021092B902AD
:102A20001092B8021092B7028FE08093BB0280919F
:102A3000B602882341F061E08FE00E94620F60E0FF
:102A40008FE00E94160FE2E5F2E0E491F0E0EE0F75
:102A5000FF1FE75CFD4F859194919093C80280938E
:102A6000C702E4E3F2E0E491E093C902CF91089554
:102A7000991B79E004C0991F961708F0961B881FD0
:102A80007A95C9F780950895EE0FFF1F0590F49190
:102A9000E02D09945058BB27AA270E9462150C9478
:102AA000921A0E94841A38F00E948B1A20F039F48E
:102AB0009F3F19F426F40C94811A0EF4E095E7FB7D
:102AC0000C947B1AE92F0E94A31A58F3BA176207D5
:102AD00073078407950720F079F4A6F50C94C51ABE
:102AE0000EF4E0950B2EBA2FA02D0B01B901900129
:102AF0000C01CA01A0011124FF27591B99F0593F6D
:102B000050F4503E68F11A16F040A22F232F342FB4
:102B10004427585FF3CF469537952795A795F04002
:102B20005395C9F77EF41F16BA0B620B730B840B17
:102B3000BAF09150A1F0FF0FBB1F661F771F881FCF
:102B4000C2F70EC0BA0F621F731F841F48F4879527
:102B500077956795B795F7959E3F08F0B0CF939519
:102B6000880F08F09927EE0F9795879508950E9492
:102B7000CB150C94921A0E948B1A58F00E94841A5A
:102B800040F029F45F3F29F00C947B1A51110C940A
:102B9000C61A0C94811A0E94A31A68F39923B1F300
:102BA000552391F3951B550BBB27AA276217730773
:102BB000840738F09F5F5F4F220F331F441FAA1F07
:102BC000A9F335D00E2E3AF0E0E832D091505040C3
:102BD000E695001CCAF72BD0FE2F29D0660F771F71
:102BE000881FBB1F261737074807AB07B0E809F057
:102BF000BB0B802DBF01FF2793585F4F3AF09E3FDC
:102C0000510578F00C947B1A0C94C61A5F3FE4F3DC
:102C1000983ED4F3869577956795B795F7959F5F1E
:102C2000C9F7880F911D9695879597F90895E1E06A
:102C3000660F771F881FBB1F621773078407BA07C9
:102C400020F0621B730B840BBA0BEE1F88F7E09524
:102C500008950E9430166894B1110C94C61A089514
:102C60000E94AB1A88F09F5798F0B92F9927B75157
:102C7000B0F0E1F0660F771F881F991F1AF0BA9520
:102C8000C9F714C0B13091F00E94C51AB1E008959F
:102C90000C94C51A672F782F8827B85F39F0B93F91
:102CA000CCF3869577956795B395D9F73EF49095D3
:102CB0008095709561957F4F8F4F9F4F08950E942B
:102CC000E71908F48FEF089519F416F40C94811A9B
:102CD0000C94AF160E94AB1AB8F39923C9F3B6F35C
:102CE0009F57550B87FF0E94BD160024A0E640EABF
:102CF000900180585695979528F4805C660F771F51
:102D0000881F20F026173707480730F4621B730B23
:102D1000840B202931294A2BA69517940794202546
:102D200031254A2758F7660F771F881F20F026178E
:102D30003707480730F4620B730B840B200D311DED
:102D4000411DA09581F7B901842F9158880F969560
:102D5000879508950E94E719880B990B08959F3F66
:102D600031F0915020F4879577956795B795880F46
:102D7000911D9695879597F9089591505040660F4B
:102D8000771F881FD2F70895CF93DF938230910584
:102D900010F482E090E0E091CC02F091CD0220E0CE
:102DA00030E0C0E0D0E0309711F140815181481708
:102DB0005907C0F04817590761F482819381209721
:102DC00019F09B838A832BC09093CD028093CC0211
:102DD00026C02115310519F04217530718F49A013E
:102DE000BE01DF01EF010280F381E02DDCCF211570
:102DF000310509F1281B390B2430310590F4129666
:102E00008D919C9113976115710521F0FB019383BE
:102E1000828304C09093CD028093CC02FD01329650
:102E200044C0FD01E20FF31F8193919322503109B9
:102E30002D933C933AC02091CA023091CB02232BB0
:102E400041F420910401309105013093CB0220938D
:102E5000CA0220910201309103012115310541F48C
:102E60002DB73EB74091060150910701241B350B49
:102E7000E091CA02F091CB02E217F307A0F42E1BF7
:102E80003F0B2817390778F0AC014E5F5F4F2417CE
:102E9000350748F04E0F5F1F5093CB024093CA0294
:102EA0008193919302C0E0E0F0E0CF01DF91CF91F8
:102EB00008950F931F93CF93DF93009709F48CC06D
:102EC000FC013297138212820091CC021091CD0244
:102ED0000115110581F420813181820F931F20910A
:102EE000CA023091CB022817390779F5F093CB024B
:102EF000E093CA0271C0D80140E050E0AE17BF07AE
:102F000050F412962D913C911397AD012115310586
:102F100009F1D901F3CF9D01DA0133832283608166
:102F20007181860F971F8217930769F4EC0128813E
:102F30003981260F371F2E5F3F4F318320838A81CF
:102F40009B8193838283452B29F4F093CD02E093F8
:102F5000CC0242C01396FC93EE931297ED01499177
:102F600059919E01240F351FE217F30771F48081F8
:102F70009181840F951F029611969C938E93828166
:102F8000938113969C938E931297E0E0F0E0D80122
:102F900012968D919C911397009719F0F8018C016E
:102FA000F6CF8D919C9198012E5F3F4F820F931F1A
:102FB0002091CA023091CB022817390769F4309763
:102FC00029F41092CD021092CC0202C01382128218
:102FD0001093CB020093CA02DF91CF911F910F9102
:102FE000089581E090E0F8940C94661BFC018191B7
:102FF000861721F08823D9F7992708953197CF01B3
:103000000895A0E0B0E0E7E0F8E10C94021BEC01C9
:103010007B016115710519F0DB018D939C938E0185
:103020000F5F1F4F7880872D90E00E947C19892BBD
:1030300011F0E801F4CFBDE27B1205C00F5F1F4F16
:103040007980C1E008C0EBE27E1204C08E010E5F01
:103050001F4F7980C0E06801F1E0CF1AD10843E04A
:1030600050E06FE572E0C6010E948519892BF1F4EA
:10307000680122E0C20ED11C45E050E06AE572E032
:10308000C6010E948519892B21F4680187E0C80ECA
:10309000D11CE114F10419F0D701CD92DC92C111D9
:1030A000FFC060E070E080E89FE703C143E050E0CC
:1030B00067E572E0C6010E948519892B51F4E1147D
:1030C000F10409F4F2C00E5F1F4FF7011183008372
:1030D000ECC0680160E070E0CB0100E010E0F601B8
:1030E000D0EDD70DDA3058F52C2F2260622E2C2F20
:1030F0002870C2FF05C0211128C00F5F1F4F25C0D7
:10310000222311F001501109A5E0B0E09B01AC01B0
:103110000E94EB1A4B015C01880C991CAA1CBB1C79
:10312000C501B4016D0F711D811D911D6839A9E99B
:103130007A078A07A9E19A0740F0C66005C0DE3F1A
:1031400051F4C3FD44C0C8606C2EBFEFCB1ADB0A3C
:103150007080C62DC4CF2D2F2F7D2531C1F5408124
:103160004D3211F4C06106C04B3221F0319621E09E
:1031700030E006C03296D60111964C9122E030E044
:10318000A0EDA40FAA3018F0E21BF30B20C040E022
:1031900050E04038BCE05B075CF49A01220F331F1B
:1031A000220F331F420F531F440F551F4A0F511D4B
:1031B0003196DF0111972C91A0EDA20FAA3048F3B0
:1031C000C4FF03C0519541955109040F151FC1FF5C
:1031D00007C0E114F10421F03197D701ED93FC937E
:1031E0000E94AA19C370C33019F06B017C0106C09C
:1031F0006B017C01F7FAF094F7F8F09420E030E0EE
:10320000A901C701B6010E94A519882309F445C088
:1032100017FF06C0119501951109C6E7D2E002C05B
:10322000CEE8D2E05E01B8E1AB1AB1084601BE2D8E
:10323000AF2D90E2E92EF12C0E151F0584F0FE0152
:103240002591359145915491B4018B2F9A2F0E946D
:103250000B1A4B01B82FA92F0E191F09EDCF249778
:10326000F594E794CA15DB0539F76401EB2EFA2EC5
:103270008E2D880F8F2D881F8F3F49F020E030E082
:10328000A901C701B6010E94A519811106C082E2F9
:1032900090E09093CF028093CE02C701B60109C09F
:1032A00060E070E080E89FEF04C060E070E080ECD8
:1032B0009FE7CDB7DEB7EEE00C941E1BFC0188271C
:1032C0009927E89421912032E9F3293010F02E302B
:1032D000C8F32B3241F02D3239F4689404C00E94B7
:1032E0009D19820F911D219120532A30C0F31EF4A5
:1032F000909581959F4F089591110C94781A803282
:1033000019F089508550C8F70895FB01DC01415040
:10331000504088F08D9181341CF08B350CF4805E28
:10332000659161341CF06B350CF4605E861B611195
:1033300071F3990B0895881BFCCF7AE0979F902D2D
:10334000879F802D910D112408950E94E71908F49C
:1033500081E00895E89409C097FB3EF4909580952C
:10336000709561957F4F8F4F9F4F9923A9F0F92F4B
:1033700096E9BB279395F695879577956795B795C9
:10338000F111F8CFFAF4BB0F11F460FF1BC06F5FAF
:103390007F4F8F4F9F4F16C0882311F096E911C0C1
:1033A000772321F09EE8872F762F05C0662371F0E2
:1033B00096E8862F70E060E02AF09A95660F771FF6
:1033C000881FDAF7880F9695879597F90895990FD2
:1033D0000008550FAA0BE0E8FEEF16161706E807DF
:1033E000F907C0F012161306E407F50798F0621B00
:1033F000730B840B950B39F40A2661F0232B242BD5
:10340000252B21F408950A2609F4A140A6958FEFF3
:10341000811D811D08950E941E1A0C94921A0E940B
:10342000841A38F00E948B1A20F0952311F00C9426
:103430007B1A0C94811A11240C94C61A0E94A31AA8
:1034400070F3959FC1F3950F50E0551F629FF001F7
:10345000729FBB27F00DB11D639FAA27F00DB11D10
:10346000AA1F649F6627B00DA11D661F829F222799
:10347000B00DA11D621F739FB00DA11D621F839F20
:10348000A00D611D221F749F3327A00D611D231FF6
:10349000849F600D211D822F762F6A2F11249F5744
:1034A00050409AF0F1F088234AF0EE0FFF1FBB1F47
:1034B000661F771F881F91505040A9F79E3F510506
:1034C00080F00C947B1A0C94C61A5F3FE4F3983E8C
:1034D000D4F3869577956795B795F795E7959F5FB0
:1034E000C1F7FE2B880F911D9695879597F9089542
:1034F00099278827089597F99F6780E870E060E032
:1035000008959FEF80EC089500240A94161617067C
:1035100018060906089500240A94121613061406C4
:1035200005060895092E0394000C11F4882352F027
:10353000BB0F40F4BF2B11F460FF04C06F5F7F4FDF
:103540008F4F9F4F089557FD9058440F551F59F0C6
:103550005F3F71F04795880F97FB991F61F09F3F80
:1035600079F087950895121613061406551FF2CFA9
:103570004695F1DF08C0161617061806991FF1CFF9
:1035800086957105610508940895E894BB27662720
:103590007727CB0197F90895052E97FB1EF4009429
:1035A0000E94E31A57FD07D00E94351B07FC03D089
:1035B0004EF40C94E31A50954095309521953F4F69
:1035C0004F4F5F4F089590958095709561957F4F0F
:1035D0008F4F9F4F08950E94571BA59F900DB49F3A
:1035E000900DA49F800D911D11240895B7FF0C9498
:1035F000EB1A0E94EB1A821B930B08952F923F92B5
:103600004F925F926F927F928F929F92AF92BF92F2
:10361000CF92DF92EF92FF920F931F93CF93DF939E
:10362000CDB7DEB7CA1BDB0B0FB6F894DEBF0FBEFB
:10363000CDBF09942A88398848885F846E847D8448
:103640008C849B84AA84B984C884DF80EE80FD804A
:103650000C811B81AA81B981CE0FD11D0FB6F894C0
:10366000DEBF0FBECDBFED010895A1E21A2EAA1B49
:10367000BB1BFD010DC0AA1FBB1FEE1FFF1FA21722
:10368000B307E407F50720F0A21BB30BE40BF50B1F
:10369000661F771F881F991F1A9469F760957095A8
:1036A000809590959B01AC01BD01CF010895A29F2B
:1036B000B001B39FC001A39F700D811D1124911D06
:1036C000B29F700D811D1124911D089511E0CAE46F
:1036D000D1E004C0FE010E9444152196CB34D107ED
:0636E000C9F7F894FFCFCA
:1036E6000A000000D0028000010000000000000077
:1036F600490EC50D120EF00D040E900E00000000CE
:1037060047039D0361030203EC02AA0289025502E4
:103716003402DE019A016E616E00696E66006F7694
:1037260066002E000D0A00762E32303137303331E6
:0A37360038005400460052454C00D4
:107E0000112484B714BE81FFF0D085E080938100F7
:107E100082E08093C00088E18093C10086E0809377
:107E2000C20080E18093C4008EE0C9D0259A86E02C
:107E300020E33CEF91E0309385002093840096BBD3
:107E4000B09BFECF1D9AA8958150A9F7CC24DD24C4
:107E500088248394B5E0AB2EA1E19A2EF3E0BF2EE7
:107E6000A2D0813461F49FD0082FAFD0023811F036
:107E7000013811F484E001C083E08DD089C08234E0
:107E800011F484E103C0853419F485E0A6D080C0E4
:107E9000853579F488D0E82EFF2485D0082F10E0AE
:107EA000102F00270E291F29000F111F8ED06801E7
:107EB0006FC0863521F484E090D080E0DECF843638
:107EC00009F040C070D06FD0082F6DD080E0C81688
:107ED00080E7D80618F4F601B7BEE895C0E0D1E017
:107EE00062D089930C17E1F7F0E0CF16F0E7DF06D8
:107EF00018F0F601B7BEE89568D007B600FCFDCFD4
:107F0000A601A0E0B1E02C9130E011968C91119780
:107F100090E0982F8827822B932B1296FA010C0160
:107F200087BEE89511244E5F5F4FF1E0A038BF0790
:107F300051F7F601A7BEE89507B600FCFDCF97BE46
:107F4000E89526C08437B1F42ED02DD0F82E2BD052
:107F50003CD0F601EF2C8F010F5F1F4F84911BD097
:107F6000EA94F801C1F70894C11CD11CFA94CF0C13
:107F7000D11C0EC0853739F428D08EE10CD085E9AC
:107F80000AD08FE07ACF813511F488E018D01DD067
:107F900080E101D065CF982F8091C00085FFFCCF94
:107FA0009093C60008958091C00087FFFCCF809118
:107FB000C00084FD01C0A8958091C6000895E0E648
:107FC000F0E098E1908380830895EDDF803219F02E
:107FD00088E0F5DFFFCF84E1DECF1F93182FE3DFCA
:107FE0001150E9F7F2DF1F91089580E0E8DFEE27F6
:047FF000FF270994CA
:027FFE00040479
:0400000300007E007B
:00000001FF
