:100000000C9445010C946D010C946D010C946D01E0
:100010000C946D010C946D010C946D010C946D01A8
:100020000C946D010C946D010C946D010C946D0198
:100030000C946D010C946D010C946D010C946D0188
:100040000C94CA0E0C946D010C9482110C94B41192
:100050000C946D010C946D010C946D010C946D0168
:100060000C946D010C946D017D0184018B01920152
:100070009901B001A001B001A701200224022802C9
:100080002C023002340238023E00424144434845CB
:10009000434B53554D20004241444C494E454E552B
:1000A0004D20004D3131343B202D207265706F7230
:1000B0007420706F736974696F6E20616E6420665E
:1000C00065656472617465004D3130303B202D20D0
:1000D000746869732068656C70206D6573736167FF
:1000E00065004D32323B202D207475726E2072698E
:1000F000676874206C61736572206F6666004D32AC
:10010000313B202D207475726E20726967687420EF
:100110006C61736572206F6E004D32303B202D2074
:100120007475726E206C656674206C6173657220E4
:100130006F6666004D31393B202D207475726E203C
:100140006C656674206C61736572206F6E004D3152
:10015000383B202D2064697361626C65206D6F747B
:100160006F7273004D31373B202D20656E61626CDC
:1001700065206D6F746F727300473031205B5428B7
:100180007374657073295D205B4C2873746570739C
:10019000295D205B46286665656472617465295D2A
:1001A0003B202D206D6F766500473030205B542852
:1001B0007374657073295D3B202D206C696E6561D9
:1001C00072206D6F766500436F6D6D616E64733A7A
:1001D000004661625363616E20472D434F4444459E
:1001E00020496E746572707265746572205665720E
:1001F00073696F6E3A2000000000080002010000E1
:1002000003040700000000000000000102040810C1
:10021000204080010204081020010204081020047C
:10022000040404040404040202020202020303039D
:1002300003030300000000250028002B000000003D
:1002400000240027002A004E414E494E4954594986
:100250004E46CDCCCC3D0AD7233C17B7D13877CC0E
:100260002B329595E6241FB14F0A00002041000073
:10027000C84200401C4620BCBE4CCA1B0E5AAEC52C
:100280009D74D10BB00EE411D90B11241FBECFEF1A
:10029000D8E0DEBFCDBF11E0A0E0B1E0E8EFF4E3CD
:1002A00002C005900D92AE35B107D9F722E0AEE558
:1002B000B1E001C01D92A63FB207E1F712E0C8E825
:1002C000D2E004C02297FE010E943517C238D10740
:1002D000C9F70E946C140C946F1A0C9400000F93D1
:1002E0001F93DC0112960C9110E009301105C0F546
:1002F000F801EC5CFF4F0C943317DC01ED91FC919D
:100300000084F185E02D29C0DC01ED91FC9102848F
:10031000F385E02D22C0DC01ED91FC910484F5858C
:10032000E02D1BC0DC01ED91FC910684F785E02DEA
:1003300014C0DC01ED91FC910088F189E02D0DC025
:10034000DC01ED91FC910288F389E02D06C0DC010F
:10035000ED91FC910488F589E02D1F910F9109948E
:100360001F910F910895CF93DF93EC01CB01BA0158
:1003700026E030E040E050E00E9414176230710542
:100380008105910559F18CF461157105810591057F
:10039000F1F06130710581059105C1F5E881F981C0
:1003A0000480F581E02D65E02DC064307105810584
:1003B000910511F1D4F0653071058105910531F594
:1003C000E881F9810480F581E02D66E01BC0E881B9
:1003D000F9810480F581E02D64E014C0E881F981A1
:1003E0000480F581E02D61E00DC0E881F981048091
:1003F000F581E02D63E006C0E881F9810480F58194
:10040000E02D62E0CE01DF91CF910994DF91CF9191
:100410000895CF93DF93477055276627772741507C
:100420005109DC01CD91DC914730510528F4435C42
:100430005F4FFA010C943317EC81FD8161E01BC022
:10044000EC81FD8165E017C0EC81FD8164E013C0A3
:10045000EC81FD8166E00FC0EC81FD8162E00BC0A4
:10046000EC81FD816AE007C0EC81FD8168E003C09A
:10047000EC81FD8169E0DF91CF910994AF92BF9249
:10048000DF92EF92FF920F931F93CF93DF931F9210
:10049000CDB7DEB78C01FC018281843041F0883019
:1004A00031F0833031F0863021F022E003C024E0C7
:1004B00001C023E0A12CB12CE62EF12CDD24D39435
:1004C000F801EA0DFB1DC7010A2C02C0959587951E
:1004D0000A94E2F7678180FD6D25838129830E945C
:1004E0000710FFEFAF1ABF0A2981A21648F30F9039
:1004F000DF91CF911F910F91FF90EF90DF90BF9010
:10050000AF9008950F931F93CF93DF93EC01E88191
:10051000F9810480F581E02D8C010D5B1F4FD8011E
:100520008C91882311F062E001C060E0CE01099552
:10053000E881F9810480F581E02DD8018C91882330
:1005400011F063E001C061E0CE0109958BA59CA587
:100550000E945F0FE881F9810480F581E02DD801C8
:100560008C91882311F062E001C060E0CE01DF9140
:10057000CF911F910F910994CF93DF93EC0120E06D
:1005800030E0A9016B897C898D899E890E94301693
:1005900018161CF4EFA5F8A902C0E9A9FAA9DF9181
:1005A000CF9109944370552766277727DC01ED9199
:1005B000FC910480F581E02D423051056105710503
:1005C00071F0433051056105710559F04130510515
:1005D0006105710511F062E005C063E003C061E0F0
:1005E00001C060E00994CF93DF93EC01CB01BA0125
:1005F00023E030E040E050E00E94141761307105C4
:100600008105910581F0623071058105910591F0B8
:10061000672B682B692BC1F4E881F9810480F5818F
:10062000E02D64E00DC0E881F9810480F581E02DC2
:1006300061E006C0E881F9810480F581E02D62E087
:10064000CE01DF91CF910994DF91CF91089543704E
:10065000552766277727DC01ED91FC910480F58111
:10066000E02D423051056105710571F043305105AF
:100670006105710559F0413051056105710511F0B1
:1006800065E005C066E003C06AE001C069E0099466
:10069000CF93DF93EC018A81882381F0E881F9818F
:1006A0000480F581E02D60E0CE0109958EA58F3F95
:1006B00029F06DA5DF91CF910C940710DF91CF91B8
:1006C0000895CF93DF93EC018A81882351F161E093
:1006D0008B810E94CE0F61E08C810E94CE0F8A81B7
:1006E000843011F0883039F461E08D810E94CE0FA2
:1006F00061E08E8106C0833011F0863021F461E024
:100700008D810E94CE0F8EA58F3F59F061E00E942F
:10071000CE0F6DA581E068278EA5DF91CF910C9457
:100720000710DF91CF910895CF92DF92EF92FF9261
:100730000F931F93CF93DF93EC014BA15CA16DA1AD
:100740007EA1452B462B472B09F44DC00E94140F68
:100750006B017C010FA118A529A53AA54BA15CA1AD
:100760006DA17EA1400F511F621F731F40175107DB
:100770006207730730F0C416D506E606F70658F48C
:1007800005C0C416D506E606F70668F1C016D10600
:10079000E206F30640F5FE01ED5BFF4F80814B85DD
:1007A0005C856D857E85882329F04F5F5F4F6F4F95
:1007B0007F4F04C041505109610971094B875C8723
:1007C0006D877E87E881F9814B855C856D857E85A7
:1007D0000680F781E02DCE010995CFA2D8A6E9A623
:1007E000FAA681E001C080E0DF91CF911F910F91C7
:1007F000FF90EF90DF90CF9008950F931F93FC012F
:100800006785708981899289038514852585368558
:10081000601B710B820B930B1F910F9108952F9208
:100820003F924F925F926F927F928F929F92AF9280
:10083000BF92CF92DF92EF92FF920F931F93CF93CD
:10084000DF9300D000D0CDB7DEB71C01FC01878458
:100850009088A188B28883859485A585B685881AF5
:10086000990AAA0ABB0A63897489858996899B01BA
:10087000AC010E9434166B017C01F101638D748D13
:10088000858D968D9B01AC010E947D149B01AC016E
:10089000C701B6010E94E5140E944D158114910410
:1008A000A104B104A1F462307105810591050CF039
:1008B0007CC0F10113A214A215A216A2138A148AF5
:1008C000158A168A13AA14AA15AA16AA03C1F10139
:1008D00003A914A925A936A9ED5BFF4F1814190423
:1008E0001A041B04FCF410161106120613064CF42D
:1008F000681579058A059B054CF52081211155C0A5
:1009000025C0011511052105310509F44EC06815F2
:1009100079058A059B050CF048C08081882309F47D
:1009200044C037C01016110612061306F4F400274F
:1009300011279801081919092A093B09601771073D
:10094000820793071CF42081222379F19B01AC01DB
:1009500088279927DC01821B930BA40BB50BF101AF
:1009600083AB94ABA5ABB6AB20C001151105210537
:100970003105D9F0CC24DD247601C818D908EA085D
:10098000FB086C157D058E059F057CF48081811127
:100990000CC030952095109501951F4F2F4F3F4F5C
:1009A000F10103AB14AB25AB36ABF101C3A8D4A85E
:1009B000E5A8F6A881010D5B1F4FC114D104E10425
:1009C000F10491F487A990ADA1ADB2AD83AF94AF1E
:1009D000A5AFB6AF81E0181419041A041B040CF07B
:1009E00080E0F801808340C0F10183AC94ACA5ACF9
:1009F000B6ACA5019401C501B4010E947D142B0180
:100A00003C01C701B6010E94801520E030E040E8BB
:100A100050E40E94341620E030E040E85FE30E949A
:100A20007D149B01AC01C301B2010E94E5149B013E
:100A3000AC01C501B4010E947C142B013C01F10101
:100A4000FF9680809180A280B3809401A5010E94CE
:100A50003016181614F442015301C401D501F101F6
:100A600083AF94AFA5AFB6AFFFEFCF1ADF0AEF0A9F
:100A7000FF0AF101C3AAD4AAE5AAF6AA23AD34ADB0
:100A800045AD56ADCA01B90129833A834B835C83D6
:100A90000E945215F10163A374A385A396A3298133
:100AA0003A814B815C8160E074E284E799E40E94C2
:100AB000E514F101638B748B858B968BF801208193
:100AC000211108C0DC01CB01B058F101838B948B5C
:100AD000A58BB68B0F900F900F900F90DF91CF9159
:100AE0001F910F91FF90EF90DF90CF90BF90AF904C
:100AF0009F908F907F906F905F904F903F902F903E
:100B000008950F931F93FC0107851089218932896D
:100B1000041715072607370741F04787508B618B6D
:100B2000728B1F910F910C940F041F910F910895D8
:100B30000F931F93FC010385148525853685400F8F
:100B4000511F621F731F1F910F910C9481054F92CB
:100B50005F926F927F928F929F92AF92BF92CF924D
:100B6000DF92EF92FF92CF93DF93EC016A017B015A
:100B70008B8C9C8CAD8CBE8C9A01AB01C501B401F1
:100B80000E94E114882309F449C06BA97CA98DA9AE
:100B90009EA90E9480152B013C01A7019601C50169
:100BA000B4010E94E5149B01AC01C301B2010E9493
:100BB00034160E944D156BAB7CAB8DAB9EABA70181
:100BC000960160E070E080E090E40E94E5140E94ED
:100BD0009B1626E53EE04DE25FE30E94341620E0DE
:100BE00034E244E759E40E9434166FAB78AF89AF22
:100BF0009AAFCB8EDC8EED8EFE8ECE01DF91CF9143
:100C0000FF90EF90DF90CF90BF90AF909F908F902C
:100C10007F906F905F904F900C940F04DF91CF9175
:100C2000FF90EF90DF90CF90BF90AF909F908F900C
:100C30007F906F905F904F9008958F929F92AF92A8
:100C4000BF92CF92EF920F93CF93DF93EC0180E1AD
:100C500091E0998388836A831B861C861D861E8685
:100C60001F86188A198A1A8A1B8A1C8A1D8A1E8A5C
:100C7000812C912C80E8A82E8FE3B82E8F8A988E35
:100C8000A98EBA8E1B8E1C8E1D8E1E8E8F8E98A2E4
:100C9000A9A2BAA21BA21CA21DA21EA281E090E0E2
:100CA0009CA78BA78FEF8EA71FA218A619A61AA61E
:100CB0004B832C830D83EE821BAA1CAA1DAA1EAA9D
:100CC0001FAA18AE19AE1AAE1BAE1CAE1DAE1EAEDC
:100CD000FE01FF9680829182A282B38234961082B6
:100CE0001F82188619861A86CC2019F0CE010E9420
:100CF000610340E050E060E87FE3CE01DF91CF91F7
:100D00000F91EF90CF90BF90AF909F908F900C94E9
:100D1000A705CF92DF92EF92FF920F931F93CF938D
:100D2000DF93EC016A017B019A01AB016F89788D39
:100D3000898D9A8D0E94E114882309F446C0CF8AD8
:100D4000D88EE98EFA8E8E01015C1F4FA7019601A5
:100D500060E074E284E799E40E94E514F80160839E
:100D60007183828393838BA99CA9ADA9BEA9181610
:100D700019061A061B064CF56B897C898D899E899C
:100D80009B01AC010E9434166B017C016B8D7C8D44
:100D90008D8D9E8D9B01AC010E947D149B01AC0149
:100DA000C701B6010E94E5140E944D156BAB7CABE8
:100DB0008DAB9EABCE01DF91CF911F910F91FF9034
:100DC000EF90DF90CF900C940F04DF91CF911F91A3
:100DD0000F91FF90EF90DF90CF9008956F927F92E8
:100DE0008F929F92AF92BF92CF92DF92EF92FF923B
:100DF0000F931F93CF93DF93EC013A018B012B8963
:100E00003C894D895E89B301C8010E94E1148823A1
:100E100009F454C0CF88D88CE98CFA8C460157016C
:100E2000B7FAB094B7F8B094A5019401B301C80122
:100E30000E94E11487FD0BC0A7019601B301C80110
:100E40000E94301618162CF43601870102C03401B6
:100E5000850120E030E0A901B301C8010E94E1143E
:100E6000811105C01BA21CA21DA21EA221C09301BC
:100E7000A80160E074E284E799E40E94E5149F779A
:100E80000E9452156BA37CA38DA39EA37E0183E4D5
:100E9000E80EF11CDD24D39420E030E0A901B30179
:100EA000C8010E94301618160CF0D12CF701D08220
:100EB000C301D8018B8B9C8BAD8BBE8BDF91CF9107
:100EC0001F910F91FF90EF90DF90CF90BF90AF9068
:100ED0009F908F907F906F9008950F931F93FC01C8
:100EE00007851089218932894385548565857685F2
:100EF000041715072607370779F0ED5BFF4F4017FA
:100F00005107620773071CF421E0208301C010829F
:100F10001F910F910C94940380E01F910F910895FD
:100F2000FF920F931F93CF93DF93EC01F22E7983FF
:100F300068838B01000F111F060F171F1B830A8385
:100F40004C831D822B871C861D861E861F8650E0C3
:100F5000FA01E15EFD4FE491F0E0EE0FFF1FED5C62
:100F6000FD4F85919491998B888BFA01E55FFD4F38
:100F700044914A8BC8010E9439179F838E83009742
:100F800029F0A80160E070E00E94011AF0FE04C0A0
:100F900081E0888719860BC0F2FE06C081E0888751
:100FA00082E089871A8605C0188681E0898782E0F9
:100FB0008A87DF91CF911F910F91FF900895CF9372
:100FC000DF93EC018E819F81009711F00E94D11771
:100FD00060E08C81DF91CF910C94CE0FCF93DF93A3
:100FE000EC0161E08C810E94CE0F60E08C81DF918A
:100FF000CF910C940710CF92DF92EF92FF920F9354
:101000001F93CF93DF93CDB7DEB729970FB6F89430
:10101000DEBF0FBECDBF8C01DC0116968D919C9179
:101020001797892B09F49BC00E94140FF801C48400
:10103000D584E684F7846C197D098E099F09623393
:1010400071058105910580F3F894828193819A83DB
:101050008983A681B7817D01EFEFEE1AFE0A8C919C
:101060008987D8011B969C911B9750960D90BC9137
:10107000A02DF801828991FF2EC09C91982B988712
:101080009C91809589238F838F818E8388E08D83C7
:1010900058856F8149853D812E8189819A81F7012B
:1010A0005C9347FD252F3A952C93262F39F0441F4A
:1010B00000C000006C93000000C0F2CF38E0419106
:1010C0006C930000019761F7F801B18BA08B498701
:1010D0003D832E8338C09C91982B98879C91809556
:1010E00089238F838F818C8388E08B8358856F81E0
:1010F00049853B812C8189819A81F7015C9347FD69
:10110000252F00C000C02C9300C000C000C000C04C
:1011100000C06C930000262F3A9541F0441F000058
:1011200000C000C000C000C000C0E8CF38E041915E
:1011300000C06C9300C0019709F7F801B18BA08B38
:1011400049873B832C839A83898378940E94140F68
:10115000D8011C966D937D938D939C931F97299630
:101160000FB6F894DEBF0FBECDBFDF91CF911F91B8
:101170000F91FF90EF90DF90CF900895CF92DF9284
:10118000EF92FF920F931F93CF93DF93FC01808127
:1011900091816817790788F5CA01AA27BB27082F0C
:1011A000C32ED42EE52EFF241C2DD22FC581CC2397
:1011B00061F08C9FC0011124092FCC9E6001112485
:1011C0001D2D2C9F90011124D32F9B01220F331F23
:1011D000260F371F86819781820F931F2085DC01A0
:1011E000A20FB11D0C932185DC01A20FB11D1C9330
:1011F0002285FC01E20FF11DD083DF91CF911F9179
:101200000F91FF90EF90DF90CF900895962F50E0D0
:1012100060E070E0592B682BCB01BA01089526E0FD
:1012200040E052EC61E070E083E592E00E94201122
:101230000E94DD0B0E94230C0E9460090E94170C83
:101240000E941F0C8AE090E090930B0180930A01AA
:101250000895CF9383E592E00E943D101816190679
:1012600064F583E592E00E945610C82F8D3091F30B
:10127000682F83E592E00E948A1220916B013091E1
:101280006C01203431055CF4A9014F5F5F4F50932E
:101290006C0140936B01F901E359FE4FC083CA30E2
:1012A000C9F6E0916B01F0916C01E359FE4F108299
:1012B0000E94540A0E94C70BCDCFCF910C94900E80
:1012C0008DEA91E00C94EE07FF920F931F93CF935A
:1012D000DF93F82E8B01C0916B01D0916C01C35943
:1012E000DE4FEDE6F1E03097C9F090819923B1F03F
:1012F000EC17FD0798F49F1109C0CF010196DF910B
:10130000CF911F910F91FF900C94C31960E270E090
:10131000CF010E94081AFC013196E5CFC801DF9188
:10132000CF911F910F91FF900895CF92DF92EF928E
:10133000FF926A017B01BC0183E592E00E94881262
:1013400022E030E0B701A60183E592E0FF90EF9044
:10135000DF90CF900C94591461ED71E083E592E039
:101360000E94651266E271E083E592E00E94A71296
:1013700067EC71E083E592E00E94951269EA71E002
:1013800083E592E00E94951269E771E083E592E0BF
:101390000E94951264E671E083E592E00E94951246
:1013A0006EE471E083E592E00E94951264E371E0DF
:1013B00083E592E00E94951269E171E083E592E095
:1013C0000E9495126EEF70E083E592E00E94951204
:1013D00062EE70E083E592E00E94951268EC70E0A6
:1013E00083E592E00E94951263EA70E083E592E063
:1013F0000C94951266E271E083E592E00C94A712DA
:10140000FF920F931F93CF93DF93182F062FF42E85
:10141000C0E0D0E04F2D602F812F0E9406099B0174
:10142000AC01BE018DEA91E00E94BE082196C03158
:10143000D10581F78DEA91E0DF91CF911F910F9156
:10144000FF900C94FB0740916301509164016091FF
:1014500065017091660189E391E00E9495094091D0
:101460005F0150916001609161017091620187E3B9
:1014700091E00E9495094091060150910701609109
:101480000801709109018BE391E00E949509809118
:101490005E01882319F061E371E002C065E371E049
:1014A00083E592E00C94A712EF92FF920F931F93A3
:1014B000CF93DF93C0916D01CB3309F461C16FEF1E
:1014C0007FEF8EE40E946409AA2797FDA095BA2FAA
:1014D0008F3F2FEF9207A207B20709F462C0CE3404
:1014E00009F05FC040916701509168016091690106
:1014F00070916A0184179507A607B70719F067E985
:1015000070E024C06AE270E08DE691E00E94081A63
:10151000892B09F435C1EDE6F1E0C0E0CF018D562D
:10152000914021912A3211F0C227F8CF60E070E09B
:1015300082599E4F0E946018DD27C7FDD0950E94FA
:101540004D15C617D707D1F06AE870E083E592E041
:101550000E94651240916701509168016091690194
:1015600070916A012AE030E083E592E0DF91CF914B
:101570001F910F91FF90EF900C945C138091670185
:1015800090916801A0916901B0916A010196A11D35
:10159000B11D8093670190936801A0936901B09396
:1015A0006A016FEF7FEF87E40E9464098430910540
:1015B00091F04CF4029788F564E670E080E090E0EA
:1015C0000E94370F08C08630910529F1079729F549
:1015D0000E94AD0E22C060E070E086E40E946409C3
:1015E0007C0160E070E08CE40E9464098C0160E0A2
:1015F00070E084E50E946409EC01B701882777FD5B
:101600008095982F0E9480159B01AC01B801CE01F6
:101610000E945A0E02C00E94A90E6FEF7FEF8DE468
:101620000E9464098431910509F482C0E4F4813197
:10163000910509F469C044F48430910509F447C068
:10164000059709F446C09CC08231910509F466C033
:10165000439709F095C0DF91CF911F910F91FF90B3
:10166000EF900C94F50B8436910509F471C07CF46D
:101670008531910509F464C0469709F081C0DF9176
:10168000CF911F910F91FF90EF900C940C0C82372B
:10169000910509F465C0883C910509F469C08E364E
:1016A000910509F06DC060916701709168018EE449
:1016B0000E946409AA2797FDA095BA2F809367011D
:1016C00090936801A0936901B0936A0159C00E9488
:1016D0000C0C60E070E082E40E9464098C0160E020
:1016E00070E087E40E946409EC0160E070E082E54C
:1016F0000E946409A801BE01DF91CF911F910F9153
:10170000FF90EF900C94000A0E94130CDF91CF9190
:101710001F910F91FF90EF900C941B0C0E94170CDF
:10172000DF91CF911F910F91FF90EF900C941F0CC0
:10173000DF91CF911F910F91FF90EF900C94FD0BD3
:10174000DF91CF911F910F91FF90EF900C94040CBB
:10175000DF91CF911F910F91FF90EF900C94AC0906
:10176000DF91CF911F910F91FF90EF900C94230A7E
:10177000DF91CF911F910F91FF90EF900C94FA0998
:10178000DF91CF911F910F91FF90EF9008951092EC
:101790006C0110926B0168E870E083E592E00C94B4
:1017A000651223E04FE060E170E08DEA91E00C9477
:1017B00090078DEA91E00C94DF0761E082E10E94DE
:1017C000CE0F61E089E00E94CE0F61E08FE00E94C1
:1017D000CE0F60E08FE00E94071060E082E10E947F
:1017E000071060E089E00C94071061E089E00E9436
:1017F000071081E08093C001089560E089E00E94B5
:1018000007101092C001089561E082E10E94071064
:1018100081E08093C001089560E082E10E9407109A
:101820001092C001089560E082E00C94071061E01E
:1018300082E00C94071060E08BE00C94071061E0EC
:101840008BE00C94071061E083E10E94CE0F60E012
:1018500083E10E94071061E082E00E94CE0F61E008
:101860008BE00E94CE0F61E083E00E94CE0F61E02A
:101870008CE00E94CE0F61E083E10E94071040E0FF
:1018800050E06AEF74E482EC91E00E94890640E047
:1018900050E06FE274E482EC91E00E94EE0640E0DA
:1018A00050E06AEF74E486E092E00E94890640E02E
:1018B00050E06FE274E486E092E00E94EE060E943F
:1018C000170C0C941F0C6F927F928F929F92AF9285
:1018D000BF92CF92EF920F93CF93DF93CDB7DEB746
:1018E000C454D1090FB6F894DEBF0FBECDBF3C0182
:1018F0004A015B01CC24C39435E0E32E04E023E0ED
:1019000042E064E0CE0101960E941D068AE068165E
:10191000710409F0C8C0809108028B83809109028C
:1019200090910A02A0910B02B0910C028C839D83CE
:10193000AE83BF8380910D0290910E02A0910F02A1
:10194000B091100288879987AA87BB87809111027E
:1019500090911202A0911302B09114028C879D877E
:10196000AE87BF878091150290911602A091170251
:10197000B0911802888B998BAA8BBB8B809119022E
:1019800090911A02A0911B02B0911C028C8B9D8B2E
:10199000AE8BBF8B80911D0290911E02A0911F0201
:1019A000B0912002888F998FAA8FBB8F80912102DE
:1019B00090912202A0912302B09124028C8F9D8FDE
:1019C000AE8FBF8F8091250290912602A0912702B1
:1019D000B091280288A399A3AAA3BBA3809129024E
:1019E00090912A02A0912B02B0912C028CA39DA36E
:1019F000AEA3BFA380912D0290912E02A0912F0241
:101A0000B091300288A799A7AAA7BBA780913102FD
:101A1000909132029DA78CA7809133028EA780916E
:101A200034028FA7809135029091360299AB88AB32
:101A300080913702909138029BAB8AAB809139023A
:101A400090913A02A0913B02B0913C028CAB9DABCD
:101A5000AEABBFAB80913D0290913E02A0913F02A0
:101A6000B091400288AF99AFAAAFBBAF809141025D
:101A700090914202A0914302B09144028CAF9DAF7D
:101A8000AEAFBFAF8091450290914602A091470250
:101A9000B091480224968CAF9DAFAEAFBFAF2497F4
:101AA00080914902CCC08BE06816710409F0CAC06D
:101AB0008091C4018B838091C5019091C601A09152
:101AC000C701B091C8018C839D83AE83BF83809191
:101AD000C9019091CA01A091CB01B091CC01888736
:101AE0009987AA87BB878091CD019091CE01A09163
:101AF000CF01B091D0018C879D87AE87BF87809141
:101B0000D1019091D201A091D301B091D401888BE1
:101B1000998BAA8BBB8B8091D5019091D601A09116
:101B2000D701B091D8018C8B9D8BAE8BBF8B8091F0
:101B3000D9019091DA01A091DB01B091DC01888F8D
:101B4000998FAA8FBB8F8091DD019091DE01A091CA
:101B5000DF01B091E0018C8F9D8FAE8FBF8F8091A0
:101B6000E1019091E201A091E301B091E40188A329
:101B700099A3AAA3BBA38091E5019091E601A0914E
:101B8000E701B091E8018CA39DA3AEA3BFA3809110
:101B9000E9019091EA01A091EB01B091EC0188A7D5
:101BA00099A7AAA7BBA78091ED019091EE019DA7EF
:101BB0008CA78091EF018EA78091F0018FA7809173
:101BC000F1019091F20199AB88AB8091F301909172
:101BD000F4019BAB8AAB8091F5019091F601A09145
:101BE000F701B091F8018CAB9DABAEABBFAB809170
:101BF000F9019091FA01A091FB01B091FC0188AF2D
:101C000099AFAAAFBBAF8091FD019091FE01A09169
:101C1000FF01B09100028CAF9DAFAEAFBFAF80911E
:101C2000010290910202A0910302B0910402249655
:101C30008CAF9DAFAEAFBFAF2497809105022596C4
:101C40008FAF259720E030E040E850E4C501B401B3
:101C50000E9434160E944D15AB01BC01CE010196C5
:101C60000E94980540E050E068EC72E4CE010196D5
:101C70000E94EE06CE0101960E94FD03672B682BA1
:101C8000692B29F0CE0101960E946D07F3CFCC5B42
:101C9000DF4F0FB6F894DEBF0FBECDBFDF91CF91FF
:101CA0000F91EF90CF90BF90AF909F908F907F90CB
:101CB0006F900895CF92DF92EF92FF920F931F9350
:101CC000CF93DF93EB0169017A01009779F0BC01B2
:101CD000882777FD8095982F0E948015AB01BC0165
:101CE000970186018AE090E00E94630C209779F0CA
:101CF000BE01882777FD8095982F0E948015AB0143
:101D0000BC01970186018BE090E00E94630CDF919B
:101D1000CF911F910F91FF90EF90DF90CF9008959A
:101D20008091C1018823A1F040E050E06AE774E4AB
:101D300086E092E00E94EE064AE050E060E070E04B
:101D400086E092E00E94980586E092E00C9494036D
:101D5000089581E08093C10108951092C101089512
:101D6000CF92EF920F93CC24C39445E0E42E04E08D
:101D700024E043E062E086E092E00E941D062DE050
:101D80004CE061E082EC91E00E941D060F91EF9023
:101D9000CF9008951F920F920FB60F9211242F9398
:101DA0003F938F939F93AF93BF9380914B029091FA
:101DB0004C02A0914D02B0914E0230914A0223E0B4
:101DC000230F2D3720F40196A11DB11D05C026E873
:101DD000230F0296A11DB11D20934A0280934B024E
:101DE00090934C02A0934D02B0934E0280914F020B
:101DF00090915002A0915102B09152020196A11D02
:101E0000B11D80934F0290935002A0935102B09362
:101E10005202BF91AF919F918F913F912F910F905F
:101E20000FBE0F901F9018953FB7F89480914F0206
:101E300090915002A0915102B091520226B5A89BF8
:101E400005C02F3F19F00196A11DB11D3FBF6627A8
:101E5000782F892F9A2F620F711D811D911D42E0ED
:101E6000660F771F881F991F4A95D1F70895CF9263
:101E7000DF92EF92FF92CF93DF936B017C010E9480
:101E8000140FEB01C114D104E104F10489F00E94A4
:101E90007B140E94140F6C1B7D0B683E734090F303
:101EA00081E0C81AD108E108F108C851DC4FEACF37
:101EB000DF91CF91FF90EF90DF90CF900895823027
:101EC000910538F0880F991F880F991F0597019782
:101ED000F1F70895789484B5826084BD84B58160FB
:101EE00084BD85B5826085BD85B5816085BDEEE622
:101EF000F0E0808181608083E1E8F0E01082808101
:101F000082608083808181608083E0E8F0E080816E
:101F100081608083E1EBF0E0808184608083E0EB8E
:101F2000F0E0808181608083EAE7F0E08081846076
:101F300080838081826080838081816080838081D2
:101F4000806880831092C1000895833081F028F466
:101F5000813099F08230A1F008958730A9F088305F
:101F6000B9F08430D1F4809180008F7D03C08091DE
:101F700080008F7780938000089584B58F7702C0AA
:101F800084B58F7D84BD08958091B0008F7703C0A4
:101F90008091B0008F7D8093B0000895CF93DF9340
:101FA00090E0FC01E55FFD4F2491FC01E15EFD4FF7
:101FB0008491882349F190E0880F991FFC01E35C2C
:101FC000FD4FA591B4918D5C9D4FFC01C591D491BD
:101FD0009FB7611108C0F8948C91209582238C934F
:101FE000888182230AC0623051F4F8948C91322F98
:101FF000309583238C938881822B888304C0F89446
:102000008C91822B8C939FBFDF91CF9108950F937A
:102010001F93CF93DF931F92CDB7DEB7282F30E009
:10202000F901E950FE4F8491F901E55FFD4F1491EC
:10203000F901E15EFD4F04910023C9F0882321F0EE
:1020400069830E94A50F6981E02FF0E0EE0FFF1F6A
:10205000ED5CFD4FA591B4919FB7F8948C916111FF
:1020600003C01095812301C0812B8C939FBF0F90DB
:10207000DF91CF911F910F910895FC01818D228DE9
:1020800090E0805C9F4F821B91098F739927089580
:10209000FC01918D828D981731F0828DE80FF11D32
:1020A000858D90E008958FEF9FEF0895FC01918D4D
:1020B000828D981761F0828DDF01A80FB11D5D96AA
:1020C0008C91928D9F5F9F73928F90E008958FEF18
:1020D0009FEF08958AED91E1892B49F080E090E02F
:1020E000892B29F00E94DA1181110C9400000895C7
:1020F000FC01848DDF01A80FB11DA35ABF4F2C91A5
:10210000848D90E001968F739927848FA689B78973
:102110002C93A089B1898C9180648C93938D848D4C
:10212000981306C00288F389E02D80818F7D80831B
:102130000895CF93DF93EC01888D8823C9F0EA8955
:10214000FB89808185FD05C0A889B9898C9186FDB0
:102150000FC00FB607FCF5CF808185FFF2CFA889AD
:10216000B9898C9185FFEDCFCE010E947810E7CF21
:10217000DF91CF910895CF92DF92FF920F931F933B
:10218000CF93DF931F92CDB7DEB76C0181E0D6010C
:1021900058968C9358975B969C915B975C968C9124
:1021A0005C97981307C05096ED91FC9151978081F0
:1021B00085FD2EC0F601038D10E00F5F1F4F0F73DA
:1021C0001127F02EF601848DF81211C00FB607FC0E
:1021D000F9CFD6015096ED91FC915197808185FF02
:1021E000F1CFC60169830E9478106981EBCF838D9E
:1021F000E80FF11DE35AFF4F6083D6015B960C9305
:102200005B975296ED91FC915397808180620CC050
:10221000D6015696ED91FC91579760835096ED91BB
:10222000FC91519780818064808381E090E00F90E1
:10223000DF91CF911F910F91FF90DF90CF90089584
:10224000BF92CF92DF92EF92FF92CF93DF93EC0198
:102250006A017B01B22EE889F98982E08083411509
:1022600081EE580761057105A1F060E079E08DE32A
:1022700090E0A70196010E94F21621503109410910
:1022800051095695479537952795211580E13807CF
:1022900098F0E889F989108260E874E88EE190E0AE
:1022A000A70196010E94F2162150310941095109F6
:1022B0005695479537952795EC85FD853083EE85B6
:1022C000FF852083188EEC89FD89B082EA89FB891D
:1022D000808180618083EA89FB8980818860808336
:1022E000EA89FB89808180688083EA89FB89808113
:1022F0008F7D8083DF91CF91FF90EF90DF90CF9023
:10230000BF9008951F920F920FB60F9211242F9332
:102310008F939F93EF93FF93E0916302F091640298
:102320008081E0916902F0916A0282FD12C0908181
:1023300080916C028F5F8F7320916D02821751F034
:10234000E0916C02F0E0ED5AFD4F958F80936C02A6
:1023500001C08081FF91EF919F918F912F910F90FC
:102360000FBE0F901F9018951F920F920FB60F92ED
:1023700011242F933F934F935F936F937F938F938A
:102380009F93AF93BF93EF93FF9383E592E00E94F7
:102390007810FF91EF91BF91AF919F918F917F91B5
:1023A0006F915F914F913F912F910F900FBE0F90C2
:1023B0001F90189583E592E00E943D1021E0892B43
:1023C00009F420E0822F08951092560210925502CF
:1023D00088EE93E0A0E0B0E080935702909358021B
:1023E000A0935902B0935A0281E491E09093540271
:1023F0008093530285EC90E09093600280935F029B
:1024000084EC90E0909362028093610280EC90E013
:10241000909364028093630281EC90E09093660253
:102420008093650282EC90E090936802809367024B
:1024300086EC90E090936A028093690210926C029D
:1024400010926D0210926E0210926F020895CF9258
:10245000DF92EF92FF920F931F93CF93DF937C0154
:102460006A01EB0100E010E00C151D0571F06991A7
:10247000D701ED91FC910190F081E02DC701099504
:10248000892B19F00F5F1F4FEFCFC801DF91CF915C
:102490001F910F91FF90EF90DF90CF9008956115FD
:1024A000710581F0DB010D900020E9F7AD0141508D
:1024B0005109461B570BDC01ED91FC910280F38121
:1024C000E02D099480E090E00895EF92FF920F9341
:1024D0001F93CF93DF938C017B01C0E0D0E0F70125
:1024E000EC0FFD1F6491662359F0F801A081B181C2
:1024F000ED91FC91C8010995892B11F02196EFCF40
:10250000CE01DF91CF911F910F91FF90EF90089531
:102510000C944F12DC01ED91FC910190F081E02DC3
:1025200009946DE471E00C944F120F931F93CF93B5
:10253000DF93EC010E9465128C01CE010E94911282
:10254000800F911FDF91CF911F910F9108950F93ED
:102550001F93CF93DF93EC010E944F128C01CE01A9
:102560000E949112800F911FDF91CF911F910F91C7
:1025700008958F929F92AF92BF92CF92DF92EF9287
:10258000FF920F931F93CF93DF93CDB7DEB7A19741
:102590000FB6F894DEBF0FBECDBF7C01C42EE52F71
:1025A000CB01D22E19A221E02D1510F02AE0D22E57
:1025B0008E010F5D1F4F8D2C912CA12CB12C6C2DF9
:1025C0007E2FA50194010E94F2168C2DD29E8019B7
:1025D0001124015011098A3014F4805D01C0895C16
:1025E000F8018083211531054105510521F0C22EE6
:1025F000E32FCA01E4CFB801C7010E944F12A19690
:102600000FB6F894DEBF0FBECDBFDF91CF911F9103
:102610000F91FF90EF90DF90CF90BF90AF909F9081
:102620008F900895CF92DF92EF92FF920F931F93B6
:10263000CF93DF93EC016A017B012115310579F419
:10264000E881F9810190F081E02D642FDF91CF9135
:102650001F910F91FF90EF90DF90CF9009942A3057
:102660003105E9F477FF1AC06DE20E948A128C01ED
:1026700044275527BA014C195D096E097F092AE0E4
:10268000CE010E94B912800F911FDF91CF911F914F
:102690000F91FF90EF90DF90CF9008952AE0B7015F
:1026A000A601CE01DF91CF911F910F91FF90EF9086
:1026B000DF90CF900C94B9120F931F93CF93DF93B9
:1026C000EC010E9412138C01CE010E949112800F26
:1026D000911FDF91CF911F910F9108954F925F92BB
:1026E0006F927F928F929F92AF92BF92CF92DF9222
:1026F000EF92FF920F931F93CF93DF93EC016A0148
:102700007B01B22E9A01AB01C701B6010E94D91616
:10271000882319F060E571E027C026013701E894AD
:1027200077F82FEF3FEF4FE75FE7C301B2010E9459
:10273000D91681110DC02FEF3FEF4FE75FE7C301BF
:10274000B2010E94E11418161CF464E571E00CC09B
:102750002FEF3FEF4FE75FE4C701B6010E9430164D
:102760001816ACF468E571E0CE01DF91CF911F91AE
:102770000F91FF90EF90DF90CF90BF90AF909F9020
:102780008F907F906F905F904F900C944F122FEF2F
:102790003FEF4FE75FECC701B6010E94E11487FDF0
:1027A000E1CF20E030E0A901C701B6010E94E114A9
:1027B00087FF0AC06DE2CE010E948A128C01F7FAEF
:1027C000F094F7F8F09402C000E010E0A12C60E073
:1027D00070E080E09FE3AB1441F020E030E040E2A5
:1027E00051E40E94E514A394F6CF9B01AC01C7010C
:1027F000B6010E947D146B017C010E9452152B01D1
:102800003C010E947E159B01AC01C701B6010E94EC
:102810007C146B017C012AE0B301A201CE010E946D
:10282000B912080F191FBB2039F06CE571E0CE0119
:102830000E944F12080F191F7B2C772041F120E0D6
:1028400030E040E251E4C701B6010E9434166B014A
:102850007C010E944D154B01AA2497FCA094BA2C30
:102860002AE030E0B501A401CE010E941213080F46
:10287000191FC501B4010E9480159B01AC01C7015D
:10288000B6010E947C146B017C017A94D6CFC801FA
:10289000DF91CF911F910F91FF90EF90DF90CF903C
:1028A000BF90AF909F908F907F906F905F904F9070
:1028B00008950F931F93CF93DF93EC010E946E1343
:1028C0008C01CE010E949112800F911FDF91CF9158
:1028D0001F910F91089508950E946A0F0E946B1432
:1028E0000E940F09CAE6D0E10E9429092097E1F36E
:1028F0000E946A10F9CF08955058BB27AA270ED01E
:1029000075C166D130F06BD120F031F49F3F11F4E6
:102910001EF45BC10EF4E095E7FB51C1E92F77D1BE
:1029200080F3BA17620773078407950718F071F4EC
:102930009EF58FC10EF4E0950B2EBA2FA02D0B0142
:10294000B90190010C01CA01A0011124FF27591BF4
:1029500099F0593F50F4503E68F11A16F040A22FFA
:10296000232F342F4427585FF3CF4695379527956B
:10297000A795F0405395C9F77EF41F16BA0B620B6A
:10298000730B840BBAF09150A1F0FF0FBB1F661FB1
:10299000771F881FC2F70EC0BA0F621F731F841FF4
:1029A00048F4879577956795B795F7959E3F08F01A
:1029B000B3CF9395880F08F09927EE0F97958795D9
:1029C0000895D9D008F481E008950CD00FC107D143
:1029D00040F0FED030F021F45F3F19F0F0C051110B
:1029E00039C1F3C014D198F39923C9F35523B1F336
:1029F000951B550BBB27AA2762177307840738F06E
:102A00009F5F5F4F220F331F441FAA1FA9F333D0CC
:102A10000E2E3AF0E0E830D091505040E695001C80
:102A2000CAF729D0FE2F27D0660F771F881FBB1F3C
:102A3000261737074807AB07B0E809F0BB0B802D16
:102A4000BF01FF2793585F4F2AF09E3F510568F062
:102A5000B6C000C15F3FECF3983EDCF386957795F6
:102A60006795B795F7959F5FC9F7880F911D969564
:102A7000879597F90895E1E0660F771F881FBB1FC0
:102A8000621773078407BA0720F0621B730B840B6D
:102A9000BA0BEE1F88F7E095089504D06894B11141
:102AA000D9C00895BCD088F09F5790F0B92F9927CE
:102AB000B751A0F0D1F0660F771F881F991F1AF049
:102AC000BA95C9F712C0B13081F0C3D0B1E0089512
:102AD000C0C0672F782F8827B85F39F0B93FCCF393
:102AE000869577956795B395D9F73EF4909580953F
:102AF000709561957F4F8F4F9F4F0895E89409C05F
:102B000097FB3EF490958095709561957F4F8F4F20
:102B10009F4F9923A9F0F92F96E9BB279395F69536
:102B2000879577956795B795F111F8CFFAF4BB0FB4
:102B300011F460FF1BC06F5F7F4F8F4F9F4F16C018
:102B4000882311F096E911C0772321F09EE8872FA2
:102B5000762F05C0662371F096E8862F70E060E05E
:102B60002AF09A95660F771F881FDAF7880F9695D7
:102B7000879597F90895990F0008550FAA0BE0E87B
:102B8000FEEF16161706E807F907C0F0121613062F
:102B9000E407F50798F0621B730B840B950B39F46F
:102BA0000A2661F0232B242B252B21F408950A26D5
:102BB00009F4A140A6958FEF811D811D089597F915
:102BC0009F6780E870E060E008959FEF80EC0895D3
:102BD00000240A94161617061806090608950024FC
:102BE0000A9412161306140605060895092E039476
:102BF000000C11F4882352F0BB0F40F4BF2B11F4EA
:102C000060FF04C06F5F7F4F8F4F9F4F089557FD48
:102C10009058440F551F59F05F3F71F04795880F4A
:102C200097FB991F61F09F3F79F0879508951216E1
:102C300013061406551FF2CF4695F1DF08C016168D
:102C400017061806991FF1CF86957105610508943E
:102C50000895E894BB2766277727CB0197F9089555
:102C60008ADF08F48FEF08950BD0C0CFB1DF28F0D2
:102C7000B6DF18F0952309F0A2CFA7CF1124EACF31
:102C8000C6DFA0F3959FD1F3950F50E0551F629FCB
:102C9000F001729FBB27F00DB11D639FAA27F00DB5
:102CA000B11DAA1F649F6627B00DA11D661F829FDC
:102CB0002227B00DA11D621F739FB00DA11D621FC1
:102CC000839FA00D611D221F749F3327A00D611DDE
:102CD000231F849F600D211D822F762F6A2F1124C0
:102CE0009F5750408AF0E1F088234AF0EE0FFF1F13
:102CF000BB1F661F771F881F91505040A9F79E3F4A
:102D0000510570F05CCFA6CF5F3FECF3983EDCF34B
:102D1000869577956795B795F795E7959F5FC1F786
:102D2000FE2B880F911D9695879597F9089511F4BC
:102D30000EF44BCF42C073DFD0F39923D9F3CEF317
:102D40009F57550B87FF47D00024A0E640EA90012B
:102D500080585695979528F4805C660F771F881FDA
:102D600020F026173707480730F4621B730B840BDB
:102D7000202931294A2BA69517940794202531251F
:102D80004A2758F7660F771F881F20F02617370746
:102D9000480730F4620B730B840B200D311D411D6D
:102DA000A09581F7B901842F9158880F9695879542
:102DB0000895E1DE880B990B08959F3F31F0915003
:102DC00020F4879577956795B795880F911D96950F
:102DD000879597F9089591505040660F771F881F87
:102DE000D2F70895A1E21A2EAA1BBB1BFD010DC04C
:102DF000AA1FBB1FEE1FFF1FA217B307E407F507AB
:102E000020F0A21BB30BE40BF50B661F771F881F86
:102E1000991F1A9469F760957095809590959B011C
:102E2000AC01BD01CF010895052E97FB1EF400945F
:102E30000E942B1757FD07D00E94F21607FC03D003
:102E40004EF40C942B1750954095309521953F4F9B
:102E50004F4F5F4F089590958095709561957F4F86
:102E60008F4F9F4F0895EE0FFF1F0590F491E02DB7
:102E70000994CF93DF938230910510F482E090E0C3
:102E8000E091F202F091F30220E030E0A0E0B0E047
:102E9000309739F14081518148175907B8F04817E8
:102EA000590771F482819381109729F013969C93AE
:102EB0008E9312972CC09093F3028093F20227C056
:102EC0002115310531F04217530718F0A901DB0134
:102ED00001C0EF019A01BD01DF010280F381E02D05
:102EE000D7CF21153105F9F0281B390B24303105D6
:102EF00080F48A819B816115710521F0FB01938328
:102F0000828304C09093F3028093F202FE01329612
:102F100044C0FE01E20FF31F8193919322503109C7
:102F2000398328833AC02091F0023091F102232B9B
:102F300041F420910201309103013093F10220937A
:102F4000F00220910001309101012115310541F479
:102F50002DB73EB74091040150910501241B350B5C
:102F6000E091F002F091F102E217F307A0F42E1BBA
:102F70003F0B2817390778F0AC014E5F5F4F2417DD
:102F8000350748F04E0F5F1F5093F1024093F00257
:102F90008193919302C0E0E0F0E0CF01DF91CF9107
:102FA0000895CF93DF93009709F487C0FC0132970F
:102FB00013821282C091F202D091F302209781F421
:102FC00020813181280F391F8091F0029091F10208
:102FD0008217930779F5F093F102E093F0026DC048
:102FE000DE0120E030E0AE17BF0750F412964D919D
:102FF0005C9113979D014115510509F1DA01F3CF59
:10300000B383A28340815181840F951F8A179B0748
:1030100071F48D919C911197840F951F0296918365
:10302000808312968D919C911397938382832115AF
:10303000310529F4F093F302E093F2023EC0D90186
:103040001396FC93EE9312974D915D91A40FB51FCB
:10305000EA17FB0779F480819181840F951F02960E
:10306000D90111969C938E938281938113969C93A0
:103070008E931297E0E0F0E08A819B81009719F02F
:10308000FE01EC01F9CFCE01029628813981820F31
:10309000931F2091F0023091F1022817390769F44B
:1030A000309729F41092F3021092F20202C01382B8
:1030B0001282D093F102C093F002DF91CF91089574
:1030C000A0E0B0E0E6E6F8E10C942F1A8B01611560
:1030D000710521F0DB018C9311969C93EC015E014C
:1030E000BFEFAB1ABB0A7501C8808C2D90E00E941F
:1030F000E119892B11F0E501F2CFEDE2CE1208C003
:103100007E01F2E0EF0EF11CC980DD24D39409C0EA
:103110002BE2C21205C07E0142E0E40EF11CC98020
:10312000D12CE701219743E050E06FE472E0CE013B
:103130000E94E919892BC1F4239645E050E06AE426
:1031400072E0CE010E94E919892B09F42596011538
:10315000110519F0D801CD93DC93D11006C160E0C0
:1031600070E080E89FE70AC143E050E067E472E066
:10317000CE010E94E919892B59F40115110509F4B2
:10318000F9C0B2E0EB0EF11CF801F182E082F2C06E
:10319000F70160E070E0CB01C0E0D0E07F01A0ED7E
:1031A000AA2EAC0C29E02A1530F14D2D4260B42E28
:1031B0002D2D2870D2FE04C0211125C0219623C0D8
:1031C00021112197A5E0B0E09B01AC010E941E1ADD
:1031D000660F771F881F991F6A0D711D811D911D34
:1031E0006839A9E97A078A07A9E19A0760F0BD2D35
:1031F000B660BB2E08C02EEFA2120AC0D3FC50C08E
:103200004D2D4860B42E3196D701CC90DB2CC6CF23
:103210002C2D2F7D253409F043C0A081AD3241F41F
:10322000BD2DB061DB2E7F0122E0E20EF11C0CC04F
:103230007F01AB3231F04FEFE41AF40A21E030E0C5
:1032400006C0A2E0EA0EF11CA18122E030E0A0530A
:10325000AA3018F0E21AF30A23C0F70120E030E0A8
:103260002038BCE03B075CF4A901440F551F440F14
:10327000551F240F351F220F331F2A0F311DAF0199
:103280004F5F5F4F7A01A081A053AA3010F4FA017A
:10329000E7CFD4FE03C0319521953109C20FD31F6A
:1032A000D1FE09C00115110531F0E1E0EE1AF10877
:1032B000D801ED92FC920E947E152D2D23702330B3
:1032C00019F04B015C0106C04B015C01B7FAB094E8
:1032D000B7F8B09420E030E0A901C501B4010E9424
:1032E000E114882309F43EC0D7FF06C0D195C195EB
:1032F000D10906E612E002C00EE712E06801B8E16B
:10330000CB1AD10890E2E92EF12CCE15DF0574F02E
:10331000F8012591359145915491C501B4010E9460
:1033200034164B015C01CE19DF09EFCF04501109AF
:10333000F594E7940C151D0541F78A2D880F8B2D08
:10334000881F8F3F49F020E030E0A901C501B4019A
:103350000E94E114811106C082E290E09093F50290
:103360008093F402C501B40109C060E070E080E818
:103370009FEF04C060E070E080EC9FE7CDB7DEB760
:10338000ECE00C944B1AFC0188279927E8942191D2
:103390002032E9F3293010F02E30C8F32B3241F0FF
:1033A0002D3239F4689404C00E94131A820F911DC3
:1033B000219120532A30C0F31EF4909581959F4FA0
:1033C0000895911138C0803219F089508550D0F796
:1033D0000895FB01DC014150504088F08D9181340B
:1033E0001CF08B350CF4805E659161341CF06B35FC
:1033F0000CF4605E861B611171F3990B0895881BB4
:10340000FCCFDC0101C06D9341505040E0F70895BE
:10341000FC018191861721F08823D9F79927089517
:103420003197CF0108957AE0979F902D879F802D47
:10343000910D112408959927882708950E94601AF4
:10344000A59F900DB49F900DA49F800D911D1124F8
:1034500008952F923F924F925F926F927F928F9238
:103460009F92AF92BF92CF92DF92EF92FF920F9313
:103470001F93CF93DF93CDB7DEB7CA1BDB0B0FB61D
:10348000F894DEBF0FBECDBF09942A8839884888DA
:103490005F846E847D848C849B84AA84B984C88470
:1034A000DF80EE80FD800C811B81AA81B981CE0F67
:1034B000D11D0FB6F894DEBF0FBECDBFED0108954C
:1034C000A29FB001B39FC001A39F700D811D112465
:1034D000911DB29F700D811D1124911D089512E060
:1034E000C8E8D2E004C0FE010E9435172296CA380F
:0834F000D107C9F7F894FFCFE2
:1034F8000000F602800000401C460A0000000000A0
:10350800480361033E026F01BC028202D202F30249
:103518002703B3010902762E323031363032323386
:10352800004142530052454C005400460000000040
:1035380000BB1027123D105610481099100D0A00B4
:0E3548006E616E00696E66006F7666002E0082
:107E0000112484B714BE81FFF0D085E080938100F7
:107E100082E08093C00088E18093C10086E0809377
:107E2000C20080E18093C4008EE0C9D0259A86E02C
:107E300020E33CEF91E0309385002093840096BBD3
:107E4000B09BFECF1D9AA8958150A9F7CC24DD24C4
:107E500088248394B5E0AB2EA1E19A2EF3E0BF2EE7
:107E6000A2D0813461F49FD0082FAFD0023811F036
:107E7000013811F484E001C083E08DD089C08234E0
:107E800011F484E103C0853419F485E0A6D080C0E4
:107E9000853579F488D0E82EFF2485D0082F10E0AE
:107EA000102F00270E291F29000F111F8ED06801E7
:107EB0006FC0863521F484E090D080E0DECF843638
:107EC00009F040C070D06FD0082F6DD080E0C81688
:107ED00080E7D80618F4F601B7BEE895C0E0D1E017
:107EE00062D089930C17E1F7F0E0CF16F0E7DF06D8
:107EF00018F0F601B7BEE89568D007B600FCFDCFD4
:107F0000A601A0E0B1E02C9130E011968C91119780
:107F100090E0982F8827822B932B1296FA010C0160
:107F200087BEE89511244E5F5F4FF1E0A038BF0790
:107F300051F7F601A7BEE89507B600FCFDCF97BE46
:107F4000E89526C08437B1F42ED02DD0F82E2BD052
:107F50003CD0F601EF2C8F010F5F1F4F84911BD097
:107F6000EA94F801C1F70894C11CD11CFA94CF0C13
:107F7000D11C0EC0853739F428D08EE10CD085E9AC
:107F80000AD08FE07ACF813511F488E018D01DD067
:107F900080E101D065CF982F8091C00085FFFCCF94
:107FA0009093C60008958091C00087FFFCCF809118
:107FB000C00084FD01C0A8958091C6000895E0E648
:107FC000F0E098E1908380830895EDDF803219F02E
:107FD00088E0F5DFFFCF84E1DECF1F93182FE3DFCA
:107FE0001150E9F7F2DF1F91089580E0E8DFEE27F6
:047FF000FF270994CA
:027FFE00040479
:0400000300007E007B
:00000001FF
